{
	"ageVerifier.sol": {
		"AgeVerifier": {
			"abi": [
				{
					"inputs": [],
					"name": "InvalidInitialization",
					"type": "error"
				},
				{
					"inputs": [],
					"name": "NotInitializing",
					"type": "error"
				},
				{
					"inputs": [
						{
							"internalType": "address",
							"name": "owner",
							"type": "address"
						}
					],
					"name": "OwnableInvalidOwner",
					"type": "error"
				},
				{
					"inputs": [
						{
							"internalType": "address",
							"name": "account",
							"type": "address"
						}
					],
					"name": "OwnableUnauthorizedAccount",
					"type": "error"
				},
				{
					"anonymous": false,
					"inputs": [
						{
							"indexed": false,
							"internalType": "uint64",
							"name": "version",
							"type": "uint64"
						}
					],
					"name": "Initialized",
					"type": "event"
				},
				{
					"anonymous": false,
					"inputs": [
						{
							"indexed": true,
							"internalType": "address",
							"name": "previousOwner",
							"type": "address"
						},
						{
							"indexed": true,
							"internalType": "address",
							"name": "newOwner",
							"type": "address"
						}
					],
					"name": "OwnershipTransferStarted",
					"type": "event"
				},
				{
					"anonymous": false,
					"inputs": [
						{
							"indexed": true,
							"internalType": "address",
							"name": "previousOwner",
							"type": "address"
						},
						{
							"indexed": true,
							"internalType": "address",
							"name": "newOwner",
							"type": "address"
						}
					],
					"name": "OwnershipTransferred",
					"type": "event"
				},
				{
					"inputs": [],
					"name": "REQUESTS_RETURN_LIMIT",
					"outputs": [
						{
							"internalType": "uint256",
							"name": "",
							"type": "uint256"
						}
					],
					"stateMutability": "view",
					"type": "function"
				},
				{
					"inputs": [],
					"name": "acceptOwnership",
					"outputs": [],
					"stateMutability": "nonpayable",
					"type": "function"
				},
				{
					"inputs": [
						{
							"internalType": "address",
							"name": "",
							"type": "address"
						}
					],
					"name": "addressToId",
					"outputs": [
						{
							"internalType": "uint256",
							"name": "",
							"type": "uint256"
						}
					],
					"stateMutability": "view",
					"type": "function"
				},
				{
					"inputs": [
						{
							"internalType": "uint64",
							"name": "requestId",
							"type": "uint64"
						}
					],
					"name": "getZKPRequest",
					"outputs": [
						{
							"components": [
								{
									"internalType": "string",
									"name": "metadata",
									"type": "string"
								},
								{
									"internalType": "contract ICircuitValidator",
									"name": "validator",
									"type": "address"
								},
								{
									"internalType": "bytes",
									"name": "data",
									"type": "bytes"
								}
							],
							"internalType": "struct IZKPVerifier.ZKPRequest",
							"name": "",
							"type": "tuple"
						}
					],
					"stateMutability": "view",
					"type": "function"
				},
				{
					"inputs": [
						{
							"internalType": "uint256",
							"name": "startIndex",
							"type": "uint256"
						},
						{
							"internalType": "uint256",
							"name": "length",
							"type": "uint256"
						}
					],
					"name": "getZKPRequests",
					"outputs": [
						{
							"components": [
								{
									"internalType": "string",
									"name": "metadata",
									"type": "string"
								},
								{
									"internalType": "contract ICircuitValidator",
									"name": "validator",
									"type": "address"
								},
								{
									"internalType": "bytes",
									"name": "data",
									"type": "bytes"
								}
							],
							"internalType": "struct IZKPVerifier.ZKPRequest[]",
							"name": "",
							"type": "tuple[]"
						}
					],
					"stateMutability": "view",
					"type": "function"
				},
				{
					"inputs": [],
					"name": "getZKPRequestsCount",
					"outputs": [
						{
							"internalType": "uint256",
							"name": "",
							"type": "uint256"
						}
					],
					"stateMutability": "view",
					"type": "function"
				},
				{
					"inputs": [
						{
							"internalType": "uint256",
							"name": "",
							"type": "uint256"
						}
					],
					"name": "idToAddress",
					"outputs": [
						{
							"internalType": "address",
							"name": "",
							"type": "address"
						}
					],
					"stateMutability": "view",
					"type": "function"
				},
				{
					"inputs": [
						{
							"internalType": "address",
							"name": "sender",
							"type": "address"
						},
						{
							"internalType": "uint64",
							"name": "requestID",
							"type": "uint64"
						}
					],
					"name": "isProofSubmitted",
					"outputs": [
						{
							"internalType": "bool",
							"name": "",
							"type": "bool"
						}
					],
					"stateMutability": "view",
					"type": "function"
				},
				{
					"inputs": [],
					"name": "owner",
					"outputs": [
						{
							"internalType": "address",
							"name": "",
							"type": "address"
						}
					],
					"stateMutability": "view",
					"type": "function"
				},
				{
					"inputs": [],
					"name": "pendingOwner",
					"outputs": [
						{
							"internalType": "address",
							"name": "",
							"type": "address"
						}
					],
					"stateMutability": "view",
					"type": "function"
				},
				{
					"inputs": [
						{
							"internalType": "uint64",
							"name": "",
							"type": "uint64"
						}
					],
					"name": "pendingRequests",
					"outputs": [
						{
							"internalType": "bool",
							"name": "",
							"type": "bool"
						}
					],
					"stateMutability": "view",
					"type": "function"
				},
				{
					"inputs": [],
					"name": "renounceOwnership",
					"outputs": [],
					"stateMutability": "nonpayable",
					"type": "function"
				},
				{
					"inputs": [
						{
							"internalType": "uint64",
							"name": "requestId",
							"type": "uint64"
						}
					],
					"name": "requestIdExists",
					"outputs": [
						{
							"internalType": "bool",
							"name": "",
							"type": "bool"
						}
					],
					"stateMutability": "view",
					"type": "function"
				},
				{
					"inputs": [
						{
							"internalType": "uint64",
							"name": "requestId",
							"type": "uint64"
						},
						{
							"components": [
								{
									"internalType": "string",
									"name": "metadata",
									"type": "string"
								},
								{
									"internalType": "contract ICircuitValidator",
									"name": "validator",
									"type": "address"
								},
								{
									"internalType": "bytes",
									"name": "data",
									"type": "bytes"
								}
							],
							"internalType": "struct IZKPVerifier.ZKPRequest",
							"name": "request",
							"type": "tuple"
						}
					],
					"name": "setZKPRequest",
					"outputs": [],
					"stateMutability": "nonpayable",
					"type": "function"
				},
				{
					"inputs": [
						{
							"internalType": "uint64",
							"name": "requestId",
							"type": "uint64"
						},
						{
							"internalType": "uint256[]",
							"name": "inputs",
							"type": "uint256[]"
						},
						{
							"internalType": "uint256[2]",
							"name": "a",
							"type": "uint256[2]"
						},
						{
							"internalType": "uint256[2][2]",
							"name": "b",
							"type": "uint256[2][2]"
						},
						{
							"internalType": "uint256[2]",
							"name": "c",
							"type": "uint256[2]"
						}
					],
					"name": "submitZKPResponse",
					"outputs": [],
					"stateMutability": "nonpayable",
					"type": "function"
				},
				{
					"inputs": [
						{
							"internalType": "address",
							"name": "newOwner",
							"type": "address"
						}
					],
					"name": "transferOwnership",
					"outputs": [],
					"stateMutability": "nonpayable",
					"type": "function"
				}
			],
			"devdoc": {
				"errors": {
					"InvalidInitialization()": [
						{
							"details": "The contract is already initialized."
						}
					],
					"NotInitializing()": [
						{
							"details": "The contract is not initializing."
						}
					],
					"OwnableInvalidOwner(address)": [
						{
							"details": "The owner is not a valid owner account. (eg. `address(0)`)"
						}
					],
					"OwnableUnauthorizedAccount(address)": [
						{
							"details": "The caller account is not authorized to perform an operation."
						}
					]
				},
				"events": {
					"Initialized(uint64)": {
						"details": "Triggered when the contract has been initialized or reinitialized."
					}
				},
				"kind": "dev",
				"methods": {
					"acceptOwnership()": {
						"details": "The new owner accepts the ownership transfer."
					},
					"owner()": {
						"details": "Returns the address of the current owner."
					},
					"pendingOwner()": {
						"details": "Returns the address of the pending owner."
					},
					"renounceOwnership()": {
						"details": "Leaves the contract without owner. It will not be possible to call `onlyOwner` functions. Can only be called by the current owner. NOTE: Renouncing ownership will leave the contract without an owner, thereby disabling any functionality that is only available to the owner."
					},
					"transferOwnership(address)": {
						"details": "Starts the ownership transfer of the contract to a new account. Replaces the pending transfer if there is one. Can only be called by the current owner."
					}
				},
				"version": 1
			},
			"evm": {
				"assembly": "    /* \"ageVerifier.sol\":362:1975  contract AgeVerifier is ZKPVerifier {... */\n  mstore(0x40, 0x80)\n  callvalue\n  dup1\n  iszero\n  tag_1\n  jumpi\n  0x00\n  dup1\n  revert\ntag_1:\n  pop\n  dataSize(sub_0)\n  dup1\n  dataOffset(sub_0)\n  0x00\n  codecopy\n  0x00\n  return\nstop\n\nsub_0: assembly {\n        /* \"ageVerifier.sol\":362:1975  contract AgeVerifier is ZKPVerifier {... */\n      mstore(0x40, 0x80)\n      callvalue\n      dup1\n      iszero\n      tag_1\n      jumpi\n      0x00\n      dup1\n      revert\n    tag_1:\n      pop\n      jumpi(tag_2, lt(calldatasize, 0x04))\n      shr(0xe0, calldataload(0x00))\n      dup1\n      0x8da5cb5b\n      gt\n      tag_19\n      jumpi\n      dup1\n      0xc76d0845\n      gt\n      tag_20\n      jumpi\n      dup1\n      0xc76d0845\n      eq\n      tag_15\n      jumpi\n      dup1\n      0xcb0e0d7d\n      eq\n      tag_16\n      jumpi\n      dup1\n      0xe30c3978\n      eq\n      tag_17\n      jumpi\n      dup1\n      0xf2fde38b\n      eq\n      tag_18\n      jumpi\n      jump(tag_2)\n    tag_20:\n      dup1\n      0x8da5cb5b\n      eq\n      tag_11\n      jumpi\n      dup1\n      0x9f5223e0\n      eq\n      tag_12\n      jumpi\n      dup1\n      0xab7bcfb7\n      eq\n      tag_13\n      jumpi\n      dup1\n      0xb68967e2\n      eq\n      tag_14\n      jumpi\n      jump(tag_2)\n    tag_19:\n      dup1\n      0x6508e1b4\n      gt\n      tag_21\n      jumpi\n      dup1\n      0x6508e1b4\n      eq\n      tag_7\n      jumpi\n      dup1\n      0x65b07d58\n      eq\n      tag_8\n      jumpi\n      dup1\n      0x715018a6\n      eq\n      tag_9\n      jumpi\n      dup1\n      0x79ba5097\n      eq\n      tag_10\n      jumpi\n      jump(tag_2)\n    tag_21:\n      dup1\n      0x1905e7b1\n      eq\n      tag_3\n      jumpi\n      dup1\n      0x2a2d0c47\n      eq\n      tag_4\n      jumpi\n      dup1\n      0x2e01bb6f\n      eq\n      tag_5\n      jumpi\n      dup1\n      0x5f9e60d7\n      eq\n      tag_6\n      jumpi\n    tag_2:\n      0x00\n      dup1\n      revert\n        /* \"@iden3/contracts/verifiers/ZKPVerifier.sol\":624:676  uint256 public constant REQUESTS_RETURN_LIMIT = 1000 */\n    tag_3:\n      tag_22\n      tag_23\n      jump\t// in\n    tag_22:\n      mload(0x40)\n      tag_24\n      swap2\n      swap1\n      tag_25\n      jump\t// in\n    tag_24:\n      mload(0x40)\n      dup1\n      swap2\n      sub\n      swap1\n      return\n        /* \"ageVerifier.sol\":460:506  mapping(uint256 => address) public idToAddress */\n    tag_4:\n      tag_26\n      0x04\n      dup1\n      calldatasize\n      sub\n      dup2\n      add\n      swap1\n      tag_27\n      swap2\n      swap1\n      tag_28\n      jump\t// in\n    tag_27:\n      tag_29\n      jump\t// in\n    tag_26:\n      mload(0x40)\n      tag_30\n      swap2\n      swap1\n      tag_31\n      jump\t// in\n    tag_30:\n      mload(0x40)\n      dup1\n      swap2\n      sub\n      swap1\n      return\n        /* \"@iden3/contracts/verifiers/ZKPVerifier.sol\":4413:4574  function isProofSubmitted(address sender, uint64 requestID) public view returns (bool) {... */\n    tag_5:\n      tag_32\n      0x04\n      dup1\n      calldatasize\n      sub\n      dup2\n      add\n      swap1\n      tag_33\n      swap2\n      swap1\n      tag_34\n      jump\t// in\n    tag_33:\n      tag_35\n      jump\t// in\n    tag_32:\n      mload(0x40)\n      tag_36\n      swap2\n      swap1\n      tag_37\n      jump\t// in\n    tag_36:\n      mload(0x40)\n      dup1\n      swap2\n      sub\n      swap1\n      return\n        /* \"@iden3/contracts/verifiers/ZKPVerifier.sol\":3767:4407  function getZKPRequests(... */\n    tag_6:\n      tag_38\n      0x04\n      dup1\n      calldatasize\n      sub\n      dup2\n      add\n      swap1\n      tag_39\n      swap2\n      swap1\n      tag_40\n      jump\t// in\n    tag_39:\n      tag_41\n      jump\t// in\n    tag_38:\n      mload(0x40)\n      tag_42\n      swap2\n      swap1\n      tag_43\n      jump\t// in\n    tag_42:\n      mload(0x40)\n      dup1\n      swap2\n      sub\n      swap1\n      return\n        /* \"@iden3/contracts/verifiers/ZKPVerifier.sol\":3293:3421  function getZKPRequestsCount() public view returns (uint256) {... */\n    tag_7:\n      tag_44\n      tag_45\n      jump\t// in\n    tag_44:\n      mload(0x40)\n      tag_46\n      swap2\n      swap1\n      tag_25\n      jump\t// in\n    tag_46:\n      mload(0x40)\n      dup1\n      swap2\n      sub\n      swap1\n      return\n        /* \"ageVerifier.sol\":570:616  mapping(uint64 => bool) public pendingRequests */\n    tag_8:\n      tag_47\n      0x04\n      dup1\n      calldatasize\n      sub\n      dup2\n      add\n      swap1\n      tag_48\n      swap2\n      swap1\n      tag_49\n      jump\t// in\n    tag_48:\n      tag_50\n      jump\t// in\n    tag_47:\n      mload(0x40)\n      tag_51\n      swap2\n      swap1\n      tag_37\n      jump\t// in\n    tag_51:\n      mload(0x40)\n      dup1\n      swap2\n      sub\n      swap1\n      return\n        /* \"@openzeppelin/contracts-upgradeable/access/OwnableUpgradeable.sol\":3155:3256  function renounceOwnership() public virtual onlyOwner {... */\n    tag_9:\n      tag_52\n      tag_53\n      jump\t// in\n    tag_52:\n      stop\n        /* \"@openzeppelin/contracts-upgradeable/access/Ownable2StepUpgradeable.sol\":2774:3003  function acceptOwnership() public virtual {... */\n    tag_10:\n      tag_54\n      tag_55\n      jump\t// in\n    tag_54:\n      stop\n        /* \"@openzeppelin/contracts-upgradeable/access/OwnableUpgradeable.sol\":2441:2585  function owner() public view virtual returns (address) {... */\n    tag_11:\n      tag_56\n      tag_57\n      jump\t// in\n    tag_56:\n      mload(0x40)\n      tag_58\n      swap2\n      swap1\n      tag_31\n      jump\t// in\n    tag_58:\n      mload(0x40)\n      dup1\n      swap2\n      sub\n      swap1\n      return\n        /* \"@iden3/contracts/verifiers/ZKPVerifier.sol\":3016:3287  function setZKPRequest(... */\n    tag_12:\n      tag_59\n      0x04\n      dup1\n      calldatasize\n      sub\n      dup2\n      add\n      swap1\n      tag_60\n      swap2\n      swap1\n      tag_61\n      jump\t// in\n    tag_60:\n      tag_62\n      jump\t// in\n    tag_59:\n      stop\n        /* \"@iden3/contracts/verifiers/ZKPVerifier.sol\":3427:3761  function requestIdExists(uint64 requestId) public view override returns (bool) {... */\n    tag_13:\n      tag_63\n      0x04\n      dup1\n      calldatasize\n      sub\n      dup2\n      add\n      swap1\n      tag_64\n      swap2\n      swap1\n      tag_49\n      jump\t// in\n    tag_64:\n      tag_65\n      jump\t// in\n    tag_63:\n      mload(0x40)\n      tag_66\n      swap2\n      swap1\n      tag_37\n      jump\t// in\n    tag_66:\n      mload(0x40)\n      dup1\n      swap2\n      sub\n      swap1\n      return\n        /* \"@iden3/contracts/verifiers/ZKPVerifier.sol\":1925:2745  function submitZKPResponse(... */\n    tag_14:\n      tag_67\n      0x04\n      dup1\n      calldatasize\n      sub\n      dup2\n      add\n      swap1\n      tag_68\n      swap2\n      swap1\n      tag_69\n      jump\t// in\n    tag_68:\n      tag_70\n      jump\t// in\n    tag_67:\n      stop\n        /* \"@iden3/contracts/verifiers/ZKPVerifier.sol\":2751:3010  function getZKPRequest(... */\n    tag_15:\n      tag_71\n      0x04\n      dup1\n      calldatasize\n      sub\n      dup2\n      add\n      swap1\n      tag_72\n      swap2\n      swap1\n      tag_49\n      jump\t// in\n    tag_72:\n      tag_73\n      jump\t// in\n    tag_71:\n      mload(0x40)\n      tag_74\n      swap2\n      swap1\n      tag_75\n      jump\t// in\n    tag_74:\n      mload(0x40)\n      dup1\n      swap2\n      sub\n      swap1\n      return\n        /* \"ageVerifier.sol\":515:561  mapping(address => uint256) public addressToId */\n    tag_16:\n      tag_76\n      0x04\n      dup1\n      calldatasize\n      sub\n      dup2\n      add\n      swap1\n      tag_77\n      swap2\n      swap1\n      tag_78\n      jump\t// in\n    tag_77:\n      tag_79\n      jump\t// in\n    tag_76:\n      mload(0x40)\n      tag_80\n      swap2\n      swap1\n      tag_25\n      jump\t// in\n    tag_80:\n      mload(0x40)\n      dup1\n      swap2\n      sub\n      swap1\n      return\n        /* \"@openzeppelin/contracts-upgradeable/access/Ownable2StepUpgradeable.sol\":1680:1848  function pendingOwner() public view virtual returns (address) {... */\n    tag_17:\n      tag_81\n      tag_82\n      jump\t// in\n    tag_81:\n      mload(0x40)\n      tag_83\n      swap2\n      swap1\n      tag_31\n      jump\t// in\n    tag_83:\n      mload(0x40)\n      dup1\n      swap2\n      sub\n      swap1\n      return\n        /* \"@openzeppelin/contracts-upgradeable/access/Ownable2StepUpgradeable.sol\":2041:2288  function transferOwnership(address newOwner) public virtual override onlyOwner {... */\n    tag_18:\n      tag_84\n      0x04\n      dup1\n      calldatasize\n      sub\n      dup2\n      add\n      swap1\n      tag_85\n      swap2\n      swap1\n      tag_78\n      jump\t// in\n    tag_85:\n      tag_86\n      jump\t// in\n    tag_84:\n      stop\n        /* \"@iden3/contracts/verifiers/ZKPVerifier.sol\":624:676  uint256 public constant REQUESTS_RETURN_LIMIT = 1000 */\n    tag_23:\n        /* \"@iden3/contracts/verifiers/ZKPVerifier.sol\":672:676  1000 */\n      0x03e8\n        /* \"@iden3/contracts/verifiers/ZKPVerifier.sol\":624:676  uint256 public constant REQUESTS_RETURN_LIMIT = 1000 */\n      dup2\n      jump\t// out\n        /* \"ageVerifier.sol\":460:506  mapping(uint256 => address) public idToAddress */\n    tag_29:\n      mstore(0x20, 0x00)\n      dup1\n      0x00\n      mstore\n      keccak256(0x00, 0x40)\n      0x00\n      swap2\n      pop\n      sload\n      swap1\n      0x0100\n      exp\n      swap1\n      div\n      0xffffffffffffffffffffffffffffffffffffffff\n      and\n      dup2\n      jump\t// out\n        /* \"@iden3/contracts/verifiers/ZKPVerifier.sol\":4413:4574  function isProofSubmitted(address sender, uint64 requestID) public view returns (bool) {... */\n    tag_35:\n        /* \"@iden3/contracts/verifiers/ZKPVerifier.sol\":4494:4498  bool */\n      0x00\n        /* \"@iden3/contracts/verifiers/ZKPVerifier.sol\":4517:4541  _getZKPVerifierStorage() */\n      tag_88\n        /* \"@iden3/contracts/verifiers/ZKPVerifier.sol\":4517:4539  _getZKPVerifierStorage */\n      tag_89\n        /* \"@iden3/contracts/verifiers/ZKPVerifier.sol\":4517:4541  _getZKPVerifierStorage() */\n      jump\t// in\n    tag_88:\n        /* \"@iden3/contracts/verifiers/ZKPVerifier.sol\":4517:4548  _getZKPVerifierStorage().proofs */\n      0x00\n      add\n        /* \"@iden3/contracts/verifiers/ZKPVerifier.sol\":4517:4556  _getZKPVerifierStorage().proofs[sender] */\n      0x00\n        /* \"@iden3/contracts/verifiers/ZKPVerifier.sol\":4549:4555  sender */\n      dup5\n        /* \"@iden3/contracts/verifiers/ZKPVerifier.sol\":4517:4556  _getZKPVerifierStorage().proofs[sender] */\n      0xffffffffffffffffffffffffffffffffffffffff\n      and\n      0xffffffffffffffffffffffffffffffffffffffff\n      and\n      dup2\n      mstore\n      0x20\n      add\n      swap1\n      dup2\n      mstore\n      0x20\n      add\n      0x00\n      keccak256\n        /* \"@iden3/contracts/verifiers/ZKPVerifier.sol\":4517:4567  _getZKPVerifierStorage().proofs[sender][requestID] */\n      0x00\n        /* \"@iden3/contracts/verifiers/ZKPVerifier.sol\":4557:4566  requestID */\n      dup4\n        /* \"@iden3/contracts/verifiers/ZKPVerifier.sol\":4517:4567  _getZKPVerifierStorage().proofs[sender][requestID] */\n      0xffffffffffffffff\n      and\n      0xffffffffffffffff\n      and\n      dup2\n      mstore\n      0x20\n      add\n      swap1\n      dup2\n      mstore\n      0x20\n      add\n      0x00\n      keccak256\n      0x00\n      swap1\n      sload\n      swap1\n      0x0100\n      exp\n      swap1\n      div\n      0xff\n      and\n        /* \"@iden3/contracts/verifiers/ZKPVerifier.sol\":4510:4567  return _getZKPVerifierStorage().proofs[sender][requestID] */\n      swap1\n      pop\n        /* \"@iden3/contracts/verifiers/ZKPVerifier.sol\":4413:4574  function isProofSubmitted(address sender, uint64 requestID) public view returns (bool) {... */\n      swap3\n      swap2\n      pop\n      pop\n      jump\t// out\n        /* \"@iden3/contracts/verifiers/ZKPVerifier.sol\":3767:4407  function getZKPRequests(... */\n    tag_41:\n        /* \"@iden3/contracts/verifiers/ZKPVerifier.sol\":3870:3902  IZKPVerifier.ZKPRequest[] memory */\n      0x60\n        /* \"@iden3/contracts/verifiers/ZKPVerifier.sol\":3914:3942  ZKPVerifierStorage storage s */\n      0x00\n        /* \"@iden3/contracts/verifiers/ZKPVerifier.sol\":3945:3969  _getZKPVerifierStorage() */\n      tag_91\n        /* \"@iden3/contracts/verifiers/ZKPVerifier.sol\":3945:3967  _getZKPVerifierStorage */\n      tag_89\n        /* \"@iden3/contracts/verifiers/ZKPVerifier.sol\":3945:3969  _getZKPVerifierStorage() */\n      jump\t// in\n    tag_91:\n        /* \"@iden3/contracts/verifiers/ZKPVerifier.sol\":3914:3969  ZKPVerifierStorage storage s = _getZKPVerifierStorage() */\n      swap1\n      pop\n        /* \"@iden3/contracts/verifiers/ZKPVerifier.sol\":3980:3993  uint256 start */\n      0x00\n        /* \"@iden3/contracts/verifiers/ZKPVerifier.sol\":3995:4006  uint256 end */\n      dup1\n        /* \"@iden3/contracts/verifiers/ZKPVerifier.sol\":4010:4159  ArrayUtils.calculateBounds(... */\n      tag_92\n        /* \"@iden3/contracts/verifiers/ZKPVerifier.sol\":4050:4051  s */\n      dup4\n        /* \"@iden3/contracts/verifiers/ZKPVerifier.sol\":4050:4063  s._requestIds */\n      0x02\n      add\n        /* \"@iden3/contracts/verifiers/ZKPVerifier.sol\":4050:4070  s._requestIds.length */\n      dup1\n      sload\n      swap1\n      pop\n        /* \"@iden3/contracts/verifiers/ZKPVerifier.sol\":4084:4094  startIndex */\n      dup8\n        /* \"@iden3/contracts/verifiers/ZKPVerifier.sol\":4108:4114  length */\n      dup8\n        /* \"@iden3/contracts/verifiers/ZKPVerifier.sol\":672:676  1000 */\n      0x03e8\n        /* \"@iden3/contracts/verifiers/ZKPVerifier.sol\":4010:4036  ArrayUtils.calculateBounds */\n      tag_93\n        /* \"@iden3/contracts/verifiers/ZKPVerifier.sol\":4010:4159  ArrayUtils.calculateBounds(... */\n      jump\t// in\n    tag_92:\n        /* \"@iden3/contracts/verifiers/ZKPVerifier.sol\":3979:4159  (uint256 start, uint256 end) = ArrayUtils.calculateBounds(... */\n      swap2\n      pop\n      swap2\n      pop\n        /* \"@iden3/contracts/verifiers/ZKPVerifier.sol\":4170:4209  IZKPVerifier.ZKPRequest[] memory result */\n      0x00\n        /* \"@iden3/contracts/verifiers/ZKPVerifier.sol\":4248:4253  start */\n      dup3\n        /* \"@iden3/contracts/verifiers/ZKPVerifier.sol\":4242:4245  end */\n      dup3\n        /* \"@iden3/contracts/verifiers/ZKPVerifier.sol\":4242:4253  end - start */\n      tag_94\n      swap2\n      swap1\n      tag_95\n      jump\t// in\n    tag_94:\n        /* \"@iden3/contracts/verifiers/ZKPVerifier.sol\":4212:4254  new IZKPVerifier.ZKPRequest[](end - start) */\n      0xffffffffffffffff\n      dup2\n      gt\n      iszero\n      tag_96\n      jumpi\n      tag_97\n      tag_98\n      jump\t// in\n    tag_97:\n    tag_96:\n      mload(0x40)\n      swap1\n      dup1\n      dup3\n      mstore\n      dup1\n      0x20\n      mul\n      0x20\n      add\n      dup3\n      add\n      0x40\n      mstore\n      dup1\n      iszero\n      tag_99\n      jumpi\n      dup2\n      0x20\n      add\n    tag_100:\n      tag_101\n      tag_102\n      jump\t// in\n    tag_101:\n      dup2\n      mstore\n      0x20\n      add\n      swap1\n      0x01\n      swap1\n      sub\n      swap1\n      dup2\n      tag_100\n      jumpi\n      swap1\n      pop\n    tag_99:\n      pop\n        /* \"@iden3/contracts/verifiers/ZKPVerifier.sol\":4170:4254  IZKPVerifier.ZKPRequest[] memory result = new IZKPVerifier.ZKPRequest[](end - start) */\n      swap1\n      pop\n        /* \"@iden3/contracts/verifiers/ZKPVerifier.sol\":4270:4279  uint256 i */\n      0x00\n        /* \"@iden3/contracts/verifiers/ZKPVerifier.sol\":4282:4287  start */\n      dup4\n        /* \"@iden3/contracts/verifiers/ZKPVerifier.sol\":4270:4287  uint256 i = start */\n      swap1\n      pop\n        /* \"@iden3/contracts/verifiers/ZKPVerifier.sol\":4265:4377  for (uint256 i = start; i < end; i++) {... */\n    tag_103:\n        /* \"@iden3/contracts/verifiers/ZKPVerifier.sol\":4293:4296  end */\n      dup3\n        /* \"@iden3/contracts/verifiers/ZKPVerifier.sol\":4289:4290  i */\n      dup2\n        /* \"@iden3/contracts/verifiers/ZKPVerifier.sol\":4289:4296  i < end */\n      lt\n        /* \"@iden3/contracts/verifiers/ZKPVerifier.sol\":4265:4377  for (uint256 i = start; i < end; i++) {... */\n      iszero\n      tag_104\n      jumpi\n        /* \"@iden3/contracts/verifiers/ZKPVerifier.sol\":4337:4338  s */\n      dup5\n        /* \"@iden3/contracts/verifiers/ZKPVerifier.sol\":4337:4348  s._requests */\n      0x01\n      add\n        /* \"@iden3/contracts/verifiers/ZKPVerifier.sol\":4337:4366  s._requests[s._requestIds[i]] */\n      0x00\n        /* \"@iden3/contracts/verifiers/ZKPVerifier.sol\":4349:4350  s */\n      dup7\n        /* \"@iden3/contracts/verifiers/ZKPVerifier.sol\":4349:4362  s._requestIds */\n      0x02\n      add\n        /* \"@iden3/contracts/verifiers/ZKPVerifier.sol\":4363:4364  i */\n      dup4\n        /* \"@iden3/contracts/verifiers/ZKPVerifier.sol\":4349:4365  s._requestIds[i] */\n      dup2\n      sload\n      dup2\n      lt\n      tag_106\n      jumpi\n      tag_107\n      tag_108\n      jump\t// in\n    tag_107:\n    tag_106:\n      swap1\n      0x00\n      mstore\n      keccak256(0x00, 0x20)\n      swap1\n      0x04\n      swap2\n      dup3\n      dup3\n      div\n      add\n      swap2\n      swap1\n      mod\n      0x08\n      mul\n      swap1\n      sload\n      swap1\n      0x0100\n      exp\n      swap1\n      div\n      0xffffffffffffffff\n      and\n        /* \"@iden3/contracts/verifiers/ZKPVerifier.sol\":4337:4366  s._requests[s._requestIds[i]] */\n      0xffffffffffffffff\n      and\n      0xffffffffffffffff\n      and\n      dup2\n      mstore\n      0x20\n      add\n      swap1\n      dup2\n      mstore\n      0x20\n      add\n      0x00\n      keccak256\n        /* \"@iden3/contracts/verifiers/ZKPVerifier.sol\":4317:4366  result[i - start] = s._requests[s._requestIds[i]] */\n      mload(0x40)\n      dup1\n      0x60\n      add\n      0x40\n      mstore\n      swap1\n      dup2\n      0x00\n      dup3\n      add\n      dup1\n      sload\n      tag_110\n      swap1\n      tag_111\n      jump\t// in\n    tag_110:\n      dup1\n      0x1f\n      add\n      0x20\n      dup1\n      swap2\n      div\n      mul\n      0x20\n      add\n      mload(0x40)\n      swap1\n      dup2\n      add\n      0x40\n      mstore\n      dup1\n      swap3\n      swap2\n      swap1\n      dup2\n      dup2\n      mstore\n      0x20\n      add\n      dup3\n      dup1\n      sload\n      tag_112\n      swap1\n      tag_111\n      jump\t// in\n    tag_112:\n      dup1\n      iszero\n      tag_113\n      jumpi\n      dup1\n      0x1f\n      lt\n      tag_114\n      jumpi\n      0x0100\n      dup1\n      dup4\n      sload\n      div\n      mul\n      dup4\n      mstore\n      swap2\n      0x20\n      add\n      swap2\n      jump(tag_113)\n    tag_114:\n      dup3\n      add\n      swap2\n      swap1\n      0x00\n      mstore\n      keccak256(0x00, 0x20)\n      swap1\n    tag_115:\n      dup2\n      sload\n      dup2\n      mstore\n      swap1\n      0x01\n      add\n      swap1\n      0x20\n      add\n      dup1\n      dup4\n      gt\n      tag_115\n      jumpi\n      dup3\n      swap1\n      sub\n      0x1f\n      and\n      dup3\n      add\n      swap2\n    tag_113:\n      pop\n      pop\n      pop\n      pop\n      pop\n      dup2\n      mstore\n      0x20\n      add\n      0x01\n      dup3\n      add\n      0x00\n      swap1\n      sload\n      swap1\n      0x0100\n      exp\n      swap1\n      div\n      0xffffffffffffffffffffffffffffffffffffffff\n      and\n      0xffffffffffffffffffffffffffffffffffffffff\n      and\n      0xffffffffffffffffffffffffffffffffffffffff\n      and\n      dup2\n      mstore\n      0x20\n      add\n      0x02\n      dup3\n      add\n      dup1\n      sload\n      tag_116\n      swap1\n      tag_111\n      jump\t// in\n    tag_116:\n      dup1\n      0x1f\n      add\n      0x20\n      dup1\n      swap2\n      div\n      mul\n      0x20\n      add\n      mload(0x40)\n      swap1\n      dup2\n      add\n      0x40\n      mstore\n      dup1\n      swap3\n      swap2\n      swap1\n      dup2\n      dup2\n      mstore\n      0x20\n      add\n      dup3\n      dup1\n      sload\n      tag_117\n      swap1\n      tag_111\n      jump\t// in\n    tag_117:\n      dup1\n      iszero\n      tag_118\n      jumpi\n      dup1\n      0x1f\n      lt\n      tag_119\n      jumpi\n      0x0100\n      dup1\n      dup4\n      sload\n      div\n      mul\n      dup4\n      mstore\n      swap2\n      0x20\n      add\n      swap2\n      jump(tag_118)\n    tag_119:\n      dup3\n      add\n      swap2\n      swap1\n      0x00\n      mstore\n      keccak256(0x00, 0x20)\n      swap1\n    tag_120:\n      dup2\n      sload\n      dup2\n      mstore\n      swap1\n      0x01\n      add\n      swap1\n      0x20\n      add\n      dup1\n      dup4\n      gt\n      tag_120\n      jumpi\n      dup3\n      swap1\n      sub\n      0x1f\n      and\n      dup3\n      add\n      swap2\n    tag_118:\n      pop\n      pop\n      pop\n      pop\n      pop\n      dup2\n      mstore\n      pop\n      pop\n        /* \"@iden3/contracts/verifiers/ZKPVerifier.sol\":4317:4323  result */\n      dup3\n        /* \"@iden3/contracts/verifiers/ZKPVerifier.sol\":4328:4333  start */\n      dup6\n        /* \"@iden3/contracts/verifiers/ZKPVerifier.sol\":4324:4325  i */\n      dup4\n        /* \"@iden3/contracts/verifiers/ZKPVerifier.sol\":4324:4333  i - start */\n      tag_121\n      swap2\n      swap1\n      tag_95\n      jump\t// in\n    tag_121:\n        /* \"@iden3/contracts/verifiers/ZKPVerifier.sol\":4317:4334  result[i - start] */\n      dup2\n      mload\n      dup2\n      lt\n      tag_122\n      jumpi\n      tag_123\n      tag_108\n      jump\t// in\n    tag_123:\n    tag_122:\n      0x20\n      mul\n      0x20\n      add\n      add\n        /* \"@iden3/contracts/verifiers/ZKPVerifier.sol\":4317:4366  result[i - start] = s._requests[s._requestIds[i]] */\n      dup2\n      swap1\n      mstore\n      pop\n        /* \"@iden3/contracts/verifiers/ZKPVerifier.sol\":4298:4301  i++ */\n      dup1\n      dup1\n      tag_124\n      swap1\n      tag_125\n      jump\t// in\n    tag_124:\n      swap2\n      pop\n      pop\n        /* \"@iden3/contracts/verifiers/ZKPVerifier.sol\":4265:4377  for (uint256 i = start; i < end; i++) {... */\n      jump(tag_103)\n    tag_104:\n      pop\n        /* \"@iden3/contracts/verifiers/ZKPVerifier.sol\":4394:4400  result */\n      dup1\n        /* \"@iden3/contracts/verifiers/ZKPVerifier.sol\":4387:4400  return result */\n      swap5\n      pop\n      pop\n      pop\n      pop\n      pop\n        /* \"@iden3/contracts/verifiers/ZKPVerifier.sol\":3767:4407  function getZKPRequests(... */\n      swap3\n      swap2\n      pop\n      pop\n      jump\t// out\n        /* \"@iden3/contracts/verifiers/ZKPVerifier.sol\":3293:3421  function getZKPRequestsCount() public view returns (uint256) {... */\n    tag_45:\n        /* \"@iden3/contracts/verifiers/ZKPVerifier.sol\":3345:3352  uint256 */\n      0x00\n        /* \"@iden3/contracts/verifiers/ZKPVerifier.sol\":3371:3395  _getZKPVerifierStorage() */\n      tag_127\n        /* \"@iden3/contracts/verifiers/ZKPVerifier.sol\":3371:3393  _getZKPVerifierStorage */\n      tag_89\n        /* \"@iden3/contracts/verifiers/ZKPVerifier.sol\":3371:3395  _getZKPVerifierStorage() */\n      jump\t// in\n    tag_127:\n        /* \"@iden3/contracts/verifiers/ZKPVerifier.sol\":3371:3407  _getZKPVerifierStorage()._requestIds */\n      0x02\n      add\n        /* \"@iden3/contracts/verifiers/ZKPVerifier.sol\":3371:3414  _getZKPVerifierStorage()._requestIds.length */\n      dup1\n      sload\n      swap1\n      pop\n        /* \"@iden3/contracts/verifiers/ZKPVerifier.sol\":3364:3414  return _getZKPVerifierStorage()._requestIds.length */\n      swap1\n      pop\n        /* \"@iden3/contracts/verifiers/ZKPVerifier.sol\":3293:3421  function getZKPRequestsCount() public view returns (uint256) {... */\n      swap1\n      jump\t// out\n        /* \"ageVerifier.sol\":570:616  mapping(uint64 => bool) public pendingRequests */\n    tag_50:\n      mstore(0x20, 0x02)\n      dup1\n      0x00\n      mstore\n      keccak256(0x00, 0x40)\n      0x00\n      swap2\n      pop\n      sload\n      swap1\n      0x0100\n      exp\n      swap1\n      div\n      0xff\n      and\n      dup2\n      jump\t// out\n        /* \"@openzeppelin/contracts-upgradeable/access/OwnableUpgradeable.sol\":3155:3256  function renounceOwnership() public virtual onlyOwner {... */\n    tag_53:\n        /* \"@openzeppelin/contracts-upgradeable/access/OwnableUpgradeable.sol\":2334:2347  _checkOwner() */\n      tag_129\n        /* \"@openzeppelin/contracts-upgradeable/access/OwnableUpgradeable.sol\":2334:2345  _checkOwner */\n      tag_130\n        /* \"@openzeppelin/contracts-upgradeable/access/OwnableUpgradeable.sol\":2334:2347  _checkOwner() */\n      jump\t// in\n    tag_129:\n        /* \"@openzeppelin/contracts-upgradeable/access/OwnableUpgradeable.sol\":3219:3249  _transferOwnership(address(0)) */\n      tag_132\n        /* \"@openzeppelin/contracts-upgradeable/access/OwnableUpgradeable.sol\":3246:3247  0 */\n      0x00\n        /* \"@openzeppelin/contracts-upgradeable/access/OwnableUpgradeable.sol\":3219:3237  _transferOwnership */\n      tag_133\n        /* \"@openzeppelin/contracts-upgradeable/access/OwnableUpgradeable.sol\":3219:3249  _transferOwnership(address(0)) */\n      jump\t// in\n    tag_132:\n        /* \"@openzeppelin/contracts-upgradeable/access/OwnableUpgradeable.sol\":3155:3256  function renounceOwnership() public virtual onlyOwner {... */\n      jump\t// out\n        /* \"@openzeppelin/contracts-upgradeable/access/Ownable2StepUpgradeable.sol\":2774:3003  function acceptOwnership() public virtual {... */\n    tag_55:\n        /* \"@openzeppelin/contracts-upgradeable/access/Ownable2StepUpgradeable.sol\":2826:2840  address sender */\n      0x00\n        /* \"@openzeppelin/contracts-upgradeable/access/Ownable2StepUpgradeable.sol\":2843:2855  _msgSender() */\n      tag_135\n        /* \"@openzeppelin/contracts-upgradeable/access/Ownable2StepUpgradeable.sol\":2843:2853  _msgSender */\n      tag_136\n        /* \"@openzeppelin/contracts-upgradeable/access/Ownable2StepUpgradeable.sol\":2843:2855  _msgSender() */\n      jump\t// in\n    tag_135:\n        /* \"@openzeppelin/contracts-upgradeable/access/Ownable2StepUpgradeable.sol\":2826:2855  address sender = _msgSender() */\n      swap1\n      pop\n        /* \"@openzeppelin/contracts-upgradeable/access/Ownable2StepUpgradeable.sol\":2887:2893  sender */\n      dup1\n        /* \"@openzeppelin/contracts-upgradeable/access/Ownable2StepUpgradeable.sol\":2869:2893  pendingOwner() != sender */\n      0xffffffffffffffffffffffffffffffffffffffff\n      and\n        /* \"@openzeppelin/contracts-upgradeable/access/Ownable2StepUpgradeable.sol\":2869:2883  pendingOwner() */\n      tag_137\n        /* \"@openzeppelin/contracts-upgradeable/access/Ownable2StepUpgradeable.sol\":2869:2881  pendingOwner */\n      tag_82\n        /* \"@openzeppelin/contracts-upgradeable/access/Ownable2StepUpgradeable.sol\":2869:2883  pendingOwner() */\n      jump\t// in\n    tag_137:\n        /* \"@openzeppelin/contracts-upgradeable/access/Ownable2StepUpgradeable.sol\":2869:2893  pendingOwner() != sender */\n      0xffffffffffffffffffffffffffffffffffffffff\n      and\n      eq\n        /* \"@openzeppelin/contracts-upgradeable/access/Ownable2StepUpgradeable.sol\":2865:2961  if (pendingOwner() != sender) {... */\n      tag_138\n      jumpi\n        /* \"@openzeppelin/contracts-upgradeable/access/Ownable2StepUpgradeable.sol\":2943:2949  sender */\n      dup1\n        /* \"@openzeppelin/contracts-upgradeable/access/Ownable2StepUpgradeable.sol\":2916:2950  OwnableUnauthorizedAccount(sender) */\n      mload(0x40)\n      0x118cdaa700000000000000000000000000000000000000000000000000000000\n      dup2\n      mstore\n      0x04\n      add\n      tag_139\n      swap2\n      swap1\n      tag_31\n      jump\t// in\n    tag_139:\n      mload(0x40)\n      dup1\n      swap2\n      sub\n      swap1\n      revert\n        /* \"@openzeppelin/contracts-upgradeable/access/Ownable2StepUpgradeable.sol\":2865:2961  if (pendingOwner() != sender) {... */\n    tag_138:\n        /* \"@openzeppelin/contracts-upgradeable/access/Ownable2StepUpgradeable.sol\":2970:2996  _transferOwnership(sender) */\n      tag_140\n        /* \"@openzeppelin/contracts-upgradeable/access/Ownable2StepUpgradeable.sol\":2989:2995  sender */\n      dup2\n        /* \"@openzeppelin/contracts-upgradeable/access/Ownable2StepUpgradeable.sol\":2970:2988  _transferOwnership */\n      tag_133\n        /* \"@openzeppelin/contracts-upgradeable/access/Ownable2StepUpgradeable.sol\":2970:2996  _transferOwnership(sender) */\n      jump\t// in\n    tag_140:\n        /* \"@openzeppelin/contracts-upgradeable/access/Ownable2StepUpgradeable.sol\":2816:3003  {... */\n      pop\n        /* \"@openzeppelin/contracts-upgradeable/access/Ownable2StepUpgradeable.sol\":2774:3003  function acceptOwnership() public virtual {... */\n      jump\t// out\n        /* \"@openzeppelin/contracts-upgradeable/access/OwnableUpgradeable.sol\":2441:2585  function owner() public view virtual returns (address) {... */\n    tag_57:\n        /* \"@openzeppelin/contracts-upgradeable/access/OwnableUpgradeable.sol\":2487:2494  address */\n      0x00\n        /* \"@openzeppelin/contracts-upgradeable/access/OwnableUpgradeable.sol\":2506:2530  OwnableStorage storage $ */\n      dup1\n        /* \"@openzeppelin/contracts-upgradeable/access/OwnableUpgradeable.sol\":2533:2553  _getOwnableStorage() */\n      tag_142\n        /* \"@openzeppelin/contracts-upgradeable/access/OwnableUpgradeable.sol\":2533:2551  _getOwnableStorage */\n      tag_143\n        /* \"@openzeppelin/contracts-upgradeable/access/OwnableUpgradeable.sol\":2533:2553  _getOwnableStorage() */\n      jump\t// in\n    tag_142:\n        /* \"@openzeppelin/contracts-upgradeable/access/OwnableUpgradeable.sol\":2506:2553  OwnableStorage storage $ = _getOwnableStorage() */\n      swap1\n      pop\n        /* \"@openzeppelin/contracts-upgradeable/access/OwnableUpgradeable.sol\":2570:2571  $ */\n      dup1\n        /* \"@openzeppelin/contracts-upgradeable/access/OwnableUpgradeable.sol\":2570:2578  $._owner */\n      0x00\n      add\n      0x00\n      swap1\n      sload\n      swap1\n      0x0100\n      exp\n      swap1\n      div\n      0xffffffffffffffffffffffffffffffffffffffff\n      and\n        /* \"@openzeppelin/contracts-upgradeable/access/OwnableUpgradeable.sol\":2563:2578  return $._owner */\n      swap2\n      pop\n      pop\n        /* \"@openzeppelin/contracts-upgradeable/access/OwnableUpgradeable.sol\":2441:2585  function owner() public view virtual returns (address) {... */\n      swap1\n      jump\t// out\n        /* \"@iden3/contracts/verifiers/ZKPVerifier.sol\":3016:3287  function setZKPRequest(... */\n    tag_62:\n        /* \"@openzeppelin/contracts-upgradeable/access/OwnableUpgradeable.sol\":2334:2347  _checkOwner() */\n      tag_145\n        /* \"@openzeppelin/contracts-upgradeable/access/OwnableUpgradeable.sol\":2334:2345  _checkOwner */\n      tag_130\n        /* \"@openzeppelin/contracts-upgradeable/access/OwnableUpgradeable.sol\":2334:2347  _checkOwner() */\n      jump\t// in\n    tag_145:\n        /* \"@iden3/contracts/verifiers/ZKPVerifier.sol\":3144:3172  ZKPVerifierStorage storage s */\n      0x00\n        /* \"@iden3/contracts/verifiers/ZKPVerifier.sol\":3175:3199  _getZKPVerifierStorage() */\n      tag_147\n        /* \"@iden3/contracts/verifiers/ZKPVerifier.sol\":3175:3197  _getZKPVerifierStorage */\n      tag_89\n        /* \"@iden3/contracts/verifiers/ZKPVerifier.sol\":3175:3199  _getZKPVerifierStorage() */\n      jump\t// in\n    tag_147:\n        /* \"@iden3/contracts/verifiers/ZKPVerifier.sol\":3144:3199  ZKPVerifierStorage storage s = _getZKPVerifierStorage() */\n      swap1\n      pop\n        /* \"@iden3/contracts/verifiers/ZKPVerifier.sol\":3234:3241  request */\n      dup2\n        /* \"@iden3/contracts/verifiers/ZKPVerifier.sol\":3209:3210  s */\n      dup2\n        /* \"@iden3/contracts/verifiers/ZKPVerifier.sol\":3209:3220  s._requests */\n      0x01\n      add\n        /* \"@iden3/contracts/verifiers/ZKPVerifier.sol\":3209:3231  s._requests[requestId] */\n      0x00\n        /* \"@iden3/contracts/verifiers/ZKPVerifier.sol\":3221:3230  requestId */\n      dup6\n        /* \"@iden3/contracts/verifiers/ZKPVerifier.sol\":3209:3231  s._requests[requestId] */\n      0xffffffffffffffff\n      and\n      0xffffffffffffffff\n      and\n      dup2\n      mstore\n      0x20\n      add\n      swap1\n      dup2\n      mstore\n      0x20\n      add\n      0x00\n      keccak256\n        /* \"@iden3/contracts/verifiers/ZKPVerifier.sol\":3209:3241  s._requests[requestId] = request */\n      dup2\n      dup2\n      tag_148\n      swap2\n      swap1\n      tag_149\n      jump\t// in\n    tag_148:\n      swap1\n      pop\n      pop\n        /* \"@iden3/contracts/verifiers/ZKPVerifier.sol\":3251:3252  s */\n      dup1\n        /* \"@iden3/contracts/verifiers/ZKPVerifier.sol\":3251:3264  s._requestIds */\n      0x02\n      add\n        /* \"@iden3/contracts/verifiers/ZKPVerifier.sol\":3270:3279  requestId */\n      dup4\n        /* \"@iden3/contracts/verifiers/ZKPVerifier.sol\":3251:3280  s._requestIds.push(requestId) */\n      swap1\n      dup1\n      0x01\n      dup2\n      sload\n      add\n      dup1\n      dup3\n      sstore\n      dup1\n      swap2\n      pop\n      pop\n      0x01\n      swap1\n      sub\n      swap1\n      0x00\n      mstore\n      keccak256(0x00, 0x20)\n      swap1\n      0x04\n      swap2\n      dup3\n      dup3\n      div\n      add\n      swap2\n      swap1\n      mod\n      0x08\n      mul\n      swap1\n      swap2\n      swap1\n      swap2\n      swap1\n      swap2\n      0x0100\n      exp\n      dup2\n      sload\n      dup2\n      0xffffffffffffffff\n      mul\n      not\n      and\n      swap1\n      dup4\n      0xffffffffffffffff\n      and\n      mul\n      or\n      swap1\n      sstore\n      pop\n        /* \"@iden3/contracts/verifiers/ZKPVerifier.sol\":3134:3287  {... */\n      pop\n        /* \"@iden3/contracts/verifiers/ZKPVerifier.sol\":3016:3287  function setZKPRequest(... */\n      pop\n      pop\n      jump\t// out\n        /* \"@iden3/contracts/verifiers/ZKPVerifier.sol\":3427:3761  function requestIdExists(uint64 requestId) public view override returns (bool) {... */\n    tag_65:\n        /* \"@iden3/contracts/verifiers/ZKPVerifier.sol\":3500:3504  bool */\n      0x00\n        /* \"@iden3/contracts/verifiers/ZKPVerifier.sol\":3516:3544  ZKPVerifierStorage storage s */\n      dup1\n        /* \"@iden3/contracts/verifiers/ZKPVerifier.sol\":3547:3571  _getZKPVerifierStorage() */\n      tag_152\n        /* \"@iden3/contracts/verifiers/ZKPVerifier.sol\":3547:3569  _getZKPVerifierStorage */\n      tag_89\n        /* \"@iden3/contracts/verifiers/ZKPVerifier.sol\":3547:3571  _getZKPVerifierStorage() */\n      jump\t// in\n    tag_152:\n        /* \"@iden3/contracts/verifiers/ZKPVerifier.sol\":3516:3571  ZKPVerifierStorage storage s = _getZKPVerifierStorage() */\n      swap1\n      pop\n        /* \"@iden3/contracts/verifiers/ZKPVerifier.sol\":3586:3592  uint i */\n      0x00\n        /* \"@iden3/contracts/verifiers/ZKPVerifier.sol\":3581:3732  for (uint i = 0; i < s._requestIds.length; i++) {... */\n    tag_153:\n        /* \"@iden3/contracts/verifiers/ZKPVerifier.sol\":3602:3603  s */\n      dup2\n        /* \"@iden3/contracts/verifiers/ZKPVerifier.sol\":3602:3615  s._requestIds */\n      0x02\n      add\n        /* \"@iden3/contracts/verifiers/ZKPVerifier.sol\":3602:3622  s._requestIds.length */\n      dup1\n      sload\n      swap1\n      pop\n        /* \"@iden3/contracts/verifiers/ZKPVerifier.sol\":3598:3599  i */\n      dup2\n        /* \"@iden3/contracts/verifiers/ZKPVerifier.sol\":3598:3622  i < s._requestIds.length */\n      lt\n        /* \"@iden3/contracts/verifiers/ZKPVerifier.sol\":3581:3732  for (uint i = 0; i < s._requestIds.length; i++) {... */\n      iszero\n      tag_154\n      jumpi\n        /* \"@iden3/contracts/verifiers/ZKPVerifier.sol\":3667:3676  requestId */\n      dup4\n        /* \"@iden3/contracts/verifiers/ZKPVerifier.sol\":3647:3676  s._requestIds[i] == requestId */\n      0xffffffffffffffff\n      and\n        /* \"@iden3/contracts/verifiers/ZKPVerifier.sol\":3647:3648  s */\n      dup3\n        /* \"@iden3/contracts/verifiers/ZKPVerifier.sol\":3647:3660  s._requestIds */\n      0x02\n      add\n        /* \"@iden3/contracts/verifiers/ZKPVerifier.sol\":3661:3662  i */\n      dup3\n        /* \"@iden3/contracts/verifiers/ZKPVerifier.sol\":3647:3663  s._requestIds[i] */\n      dup2\n      sload\n      dup2\n      lt\n      tag_156\n      jumpi\n      tag_157\n      tag_108\n      jump\t// in\n    tag_157:\n    tag_156:\n      swap1\n      0x00\n      mstore\n      keccak256(0x00, 0x20)\n      swap1\n      0x04\n      swap2\n      dup3\n      dup3\n      div\n      add\n      swap2\n      swap1\n      mod\n      0x08\n      mul\n      swap1\n      sload\n      swap1\n      0x0100\n      exp\n      swap1\n      div\n      0xffffffffffffffff\n      and\n        /* \"@iden3/contracts/verifiers/ZKPVerifier.sol\":3647:3676  s._requestIds[i] == requestId */\n      0xffffffffffffffff\n      and\n      sub\n        /* \"@iden3/contracts/verifiers/ZKPVerifier.sol\":3643:3722  if (s._requestIds[i] == requestId) {... */\n      tag_159\n      jumpi\n        /* \"@iden3/contracts/verifiers/ZKPVerifier.sol\":3703:3707  true */\n      0x01\n        /* \"@iden3/contracts/verifiers/ZKPVerifier.sol\":3696:3707  return true */\n      swap3\n      pop\n      pop\n      pop\n      jump(tag_151)\n        /* \"@iden3/contracts/verifiers/ZKPVerifier.sol\":3643:3722  if (s._requestIds[i] == requestId) {... */\n    tag_159:\n        /* \"@iden3/contracts/verifiers/ZKPVerifier.sol\":3624:3627  i++ */\n      dup1\n      dup1\n      tag_160\n      swap1\n      tag_125\n      jump\t// in\n    tag_160:\n      swap2\n      pop\n      pop\n        /* \"@iden3/contracts/verifiers/ZKPVerifier.sol\":3581:3732  for (uint i = 0; i < s._requestIds.length; i++) {... */\n      jump(tag_153)\n    tag_154:\n      pop\n        /* \"@iden3/contracts/verifiers/ZKPVerifier.sol\":3749:3754  false */\n      0x00\n        /* \"@iden3/contracts/verifiers/ZKPVerifier.sol\":3742:3754  return false */\n      swap2\n      pop\n      pop\n        /* \"@iden3/contracts/verifiers/ZKPVerifier.sol\":3427:3761  function requestIdExists(uint64 requestId) public view override returns (bool) {... */\n    tag_151:\n      swap2\n      swap1\n      pop\n      jump\t// out\n        /* \"@iden3/contracts/verifiers/ZKPVerifier.sol\":1925:2745  function submitZKPResponse(... */\n    tag_70:\n        /* \"@iden3/contracts/verifiers/ZKPVerifier.sol\":2141:2169  ZKPVerifierStorage storage s */\n      0x00\n        /* \"@iden3/contracts/verifiers/ZKPVerifier.sol\":2172:2196  _getZKPVerifierStorage() */\n      tag_162\n        /* \"@iden3/contracts/verifiers/ZKPVerifier.sol\":2172:2194  _getZKPVerifierStorage */\n      tag_89\n        /* \"@iden3/contracts/verifiers/ZKPVerifier.sol\":2172:2196  _getZKPVerifierStorage() */\n      jump\t// in\n    tag_162:\n        /* \"@iden3/contracts/verifiers/ZKPVerifier.sol\":2141:2196  ZKPVerifierStorage storage s = _getZKPVerifierStorage() */\n      swap1\n      pop\n        /* \"@iden3/contracts/verifiers/ZKPVerifier.sol\":2206:2245  IZKPVerifier.ZKPRequest storage request */\n      0x00\n        /* \"@iden3/contracts/verifiers/ZKPVerifier.sol\":2248:2249  s */\n      dup2\n        /* \"@iden3/contracts/verifiers/ZKPVerifier.sol\":2248:2259  s._requests */\n      0x01\n      add\n        /* \"@iden3/contracts/verifiers/ZKPVerifier.sol\":2248:2270  s._requests[requestId] */\n      0x00\n        /* \"@iden3/contracts/verifiers/ZKPVerifier.sol\":2260:2269  requestId */\n      dup10\n        /* \"@iden3/contracts/verifiers/ZKPVerifier.sol\":2248:2270  s._requests[requestId] */\n      0xffffffffffffffff\n      and\n      0xffffffffffffffff\n      and\n      dup2\n      mstore\n      0x20\n      add\n      swap1\n      dup2\n      mstore\n      0x20\n      add\n      0x00\n      keccak256\n        /* \"@iden3/contracts/verifiers/ZKPVerifier.sol\":2206:2270  IZKPVerifier.ZKPRequest storage request = s._requests[requestId] */\n      swap1\n      pop\n        /* \"@iden3/contracts/verifiers/ZKPVerifier.sol\":2349:2350  0 */\n      0x00\n        /* \"@iden3/contracts/verifiers/ZKPVerifier.sol\":2302:2352  request.validator != ICircuitValidator(address(0)) */\n      0xffffffffffffffffffffffffffffffffffffffff\n      and\n        /* \"@iden3/contracts/verifiers/ZKPVerifier.sol\":2302:2309  request */\n      dup2\n        /* \"@iden3/contracts/verifiers/ZKPVerifier.sol\":2302:2319  request.validator */\n      0x01\n      add\n      0x00\n      swap1\n      sload\n      swap1\n      0x0100\n      exp\n      swap1\n      div\n      0xffffffffffffffffffffffffffffffffffffffff\n      and\n        /* \"@iden3/contracts/verifiers/ZKPVerifier.sol\":2302:2352  request.validator != ICircuitValidator(address(0)) */\n      0xffffffffffffffffffffffffffffffffffffffff\n      and\n      sub\n        /* \"@iden3/contracts/verifiers/ZKPVerifier.sol\":2281:2418  require(... */\n      tag_163\n      jumpi\n      mload(0x40)\n      0x08c379a000000000000000000000000000000000000000000000000000000000\n      dup2\n      mstore\n      0x04\n      add\n      tag_164\n      swap1\n      tag_165\n      jump\t// in\n    tag_164:\n      mload(0x40)\n      dup1\n      swap2\n      sub\n      swap1\n      revert\n    tag_163:\n        /* \"@iden3/contracts/verifiers/ZKPVerifier.sol\":2449:2505  _beforeProofSubmit(requestId, inputs, request.validator) */\n      tag_166\n        /* \"@iden3/contracts/verifiers/ZKPVerifier.sol\":2468:2477  requestId */\n      dup9\n        /* \"@iden3/contracts/verifiers/ZKPVerifier.sol\":2479:2485  inputs */\n      dup9\n      dup9\n        /* \"@iden3/contracts/verifiers/ZKPVerifier.sol\":2449:2505  _beforeProofSubmit(requestId, inputs, request.validator) */\n      dup1\n      dup1\n      0x20\n      mul\n      0x20\n      add\n      mload(0x40)\n      swap1\n      dup2\n      add\n      0x40\n      mstore\n      dup1\n      swap4\n      swap3\n      swap2\n      swap1\n      dup2\n      dup2\n      mstore\n      0x20\n      add\n      dup4\n      dup4\n      0x20\n      mul\n      dup1\n      dup3\n      dup5\n      calldatacopy\n      0x00\n      dup2\n      dup5\n      add\n      mstore\n      not(0x1f)\n      0x1f\n      dup3\n      add\n      and\n      swap1\n      pop\n      dup1\n      dup4\n      add\n      swap3\n      pop\n      pop\n      pop\n      pop\n      pop\n      pop\n      pop\n        /* \"@iden3/contracts/verifiers/ZKPVerifier.sol\":2487:2494  request */\n      dup4\n        /* \"@iden3/contracts/verifiers/ZKPVerifier.sol\":2487:2504  request.validator */\n      0x01\n      add\n      0x00\n      swap1\n      sload\n      swap1\n      0x0100\n      exp\n      swap1\n      div\n      0xffffffffffffffffffffffffffffffffffffffff\n      and\n        /* \"@iden3/contracts/verifiers/ZKPVerifier.sol\":2449:2467  _beforeProofSubmit */\n      tag_167\n        /* \"@iden3/contracts/verifiers/ZKPVerifier.sol\":2449:2505  _beforeProofSubmit(requestId, inputs, request.validator) */\n      jump\t// in\n    tag_166:\n        /* \"@iden3/contracts/verifiers/ZKPVerifier.sol\":2515:2522  request */\n      dup1\n        /* \"@iden3/contracts/verifiers/ZKPVerifier.sol\":2515:2532  request.validator */\n      0x01\n      add\n      0x00\n      swap1\n      sload\n      swap1\n      0x0100\n      exp\n      swap1\n      div\n      0xffffffffffffffffffffffffffffffffffffffff\n      and\n        /* \"@iden3/contracts/verifiers/ZKPVerifier.sol\":2515:2539  request.validator.verify */\n      0xffffffffffffffffffffffffffffffffffffffff\n      and\n      0xf177a69e\n        /* \"@iden3/contracts/verifiers/ZKPVerifier.sol\":2540:2546  inputs */\n      dup9\n      dup9\n        /* \"@iden3/contracts/verifiers/ZKPVerifier.sol\":2548:2549  a */\n      dup9\n        /* \"@iden3/contracts/verifiers/ZKPVerifier.sol\":2551:2552  b */\n      dup9\n        /* \"@iden3/contracts/verifiers/ZKPVerifier.sol\":2554:2555  c */\n      dup9\n        /* \"@iden3/contracts/verifiers/ZKPVerifier.sol\":2557:2564  request */\n      dup8\n        /* \"@iden3/contracts/verifiers/ZKPVerifier.sol\":2557:2569  request.data */\n      0x02\n      add\n        /* \"@iden3/contracts/verifiers/ZKPVerifier.sol\":2571:2581  msg.sender */\n      caller\n        /* \"@iden3/contracts/verifiers/ZKPVerifier.sol\":2515:2582  request.validator.verify(inputs, a, b, c, request.data, msg.sender) */\n      mload(0x40)\n      dup9\n      0xffffffff\n      and\n      0xe0\n      shl\n      dup2\n      mstore\n      0x04\n      add\n      tag_168\n      swap8\n      swap7\n      swap6\n      swap5\n      swap4\n      swap3\n      swap2\n      swap1\n      tag_169\n      jump\t// in\n    tag_168:\n      0x00\n      mload(0x40)\n      dup1\n      dup4\n      sub\n      dup2\n      dup7\n      gas\n      staticcall\n      iszero\n      dup1\n      iszero\n      tag_171\n      jumpi\n      returndatasize\n      0x00\n      dup1\n      returndatacopy\n      revert(0x00, returndatasize)\n    tag_171:\n      pop\n      pop\n      pop\n      pop\n      mload(0x40)\n      returndatasize\n      0x00\n      dup3\n      returndatacopy\n      returndatasize\n      not(0x1f)\n      0x1f\n      dup3\n      add\n      and\n      dup3\n      add\n      dup1\n      0x40\n      mstore\n      pop\n      dup2\n      add\n      swap1\n      tag_172\n      swap2\n      swap1\n      tag_173\n      jump\t// in\n    tag_172:\n      pop\n        /* \"@iden3/contracts/verifiers/ZKPVerifier.sol\":2626:2630  true */\n      0x01\n        /* \"@iden3/contracts/verifiers/ZKPVerifier.sol\":2592:2593  s */\n      dup3\n        /* \"@iden3/contracts/verifiers/ZKPVerifier.sol\":2592:2600  s.proofs */\n      0x00\n      add\n        /* \"@iden3/contracts/verifiers/ZKPVerifier.sol\":2592:2612  s.proofs[msg.sender] */\n      0x00\n        /* \"@iden3/contracts/verifiers/ZKPVerifier.sol\":2601:2611  msg.sender */\n      caller\n        /* \"@iden3/contracts/verifiers/ZKPVerifier.sol\":2592:2612  s.proofs[msg.sender] */\n      0xffffffffffffffffffffffffffffffffffffffff\n      and\n      0xffffffffffffffffffffffffffffffffffffffff\n      and\n      dup2\n      mstore\n      0x20\n      add\n      swap1\n      dup2\n      mstore\n      0x20\n      add\n      0x00\n      keccak256\n        /* \"@iden3/contracts/verifiers/ZKPVerifier.sol\":2592:2623  s.proofs[msg.sender][requestId] */\n      0x00\n        /* \"@iden3/contracts/verifiers/ZKPVerifier.sol\":2613:2622  requestId */\n      dup11\n        /* \"@iden3/contracts/verifiers/ZKPVerifier.sol\":2592:2623  s.proofs[msg.sender][requestId] */\n      0xffffffffffffffff\n      and\n      0xffffffffffffffff\n      and\n      dup2\n      mstore\n      0x20\n      add\n      swap1\n      dup2\n      mstore\n      0x20\n      add\n      0x00\n      keccak256\n      0x00\n        /* \"@iden3/contracts/verifiers/ZKPVerifier.sol\":2592:2630  s.proofs[msg.sender][requestId] = true */\n      0x0100\n      exp\n      dup2\n      sload\n      dup2\n      0xff\n      mul\n      not\n      and\n      swap1\n      dup4\n      iszero\n      iszero\n      mul\n      or\n      swap1\n      sstore\n      pop\n        /* \"@iden3/contracts/verifiers/ZKPVerifier.sol\":2683:2738  _afterProofSubmit(requestId, inputs, request.validator) */\n      tag_174\n        /* \"@iden3/contracts/verifiers/ZKPVerifier.sol\":2701:2710  requestId */\n      dup9\n        /* \"@iden3/contracts/verifiers/ZKPVerifier.sol\":2712:2718  inputs */\n      dup9\n      dup9\n        /* \"@iden3/contracts/verifiers/ZKPVerifier.sol\":2683:2738  _afterProofSubmit(requestId, inputs, request.validator) */\n      dup1\n      dup1\n      0x20\n      mul\n      0x20\n      add\n      mload(0x40)\n      swap1\n      dup2\n      add\n      0x40\n      mstore\n      dup1\n      swap4\n      swap3\n      swap2\n      swap1\n      dup2\n      dup2\n      mstore\n      0x20\n      add\n      dup4\n      dup4\n      0x20\n      mul\n      dup1\n      dup3\n      dup5\n      calldatacopy\n      0x00\n      dup2\n      dup5\n      add\n      mstore\n      not(0x1f)\n      0x1f\n      dup3\n      add\n      and\n      swap1\n      pop\n      dup1\n      dup4\n      add\n      swap3\n      pop\n      pop\n      pop\n      pop\n      pop\n      pop\n      pop\n        /* \"@iden3/contracts/verifiers/ZKPVerifier.sol\":2720:2727  request */\n      dup4\n        /* \"@iden3/contracts/verifiers/ZKPVerifier.sol\":2720:2737  request.validator */\n      0x01\n      add\n      0x00\n      swap1\n      sload\n      swap1\n      0x0100\n      exp\n      swap1\n      div\n      0xffffffffffffffffffffffffffffffffffffffff\n      and\n        /* \"@iden3/contracts/verifiers/ZKPVerifier.sol\":2683:2700  _afterProofSubmit */\n      tag_175\n        /* \"@iden3/contracts/verifiers/ZKPVerifier.sol\":2683:2738  _afterProofSubmit(requestId, inputs, request.validator) */\n      jump\t// in\n    tag_174:\n        /* \"@iden3/contracts/verifiers/ZKPVerifier.sol\":2131:2745  {... */\n      pop\n      pop\n        /* \"@iden3/contracts/verifiers/ZKPVerifier.sol\":1925:2745  function submitZKPResponse(... */\n      pop\n      pop\n      pop\n      pop\n      pop\n      pop\n      jump\t// out\n        /* \"@iden3/contracts/verifiers/ZKPVerifier.sol\":2751:3010  function getZKPRequest(... */\n    tag_73:\n        /* \"@iden3/contracts/verifiers/ZKPVerifier.sol\":2836:2866  IZKPVerifier.ZKPRequest memory */\n      tag_176\n      tag_102\n      jump\t// in\n    tag_176:\n        /* \"@iden3/contracts/verifiers/ZKPVerifier.sol\":2886:2912  requestIdExists(requestId) */\n      tag_178\n        /* \"@iden3/contracts/verifiers/ZKPVerifier.sol\":2902:2911  requestId */\n      dup3\n        /* \"@iden3/contracts/verifiers/ZKPVerifier.sol\":2886:2901  requestIdExists */\n      tag_65\n        /* \"@iden3/contracts/verifiers/ZKPVerifier.sol\":2886:2912  requestIdExists(requestId) */\n      jump\t// in\n    tag_178:\n        /* \"@iden3/contracts/verifiers/ZKPVerifier.sol\":2878:2941  require(requestIdExists(requestId), \"request id doesn't exist\") */\n      tag_179\n      jumpi\n      mload(0x40)\n      0x08c379a000000000000000000000000000000000000000000000000000000000\n      dup2\n      mstore\n      0x04\n      add\n      tag_180\n      swap1\n      tag_181\n      jump\t// in\n    tag_180:\n      mload(0x40)\n      dup1\n      swap2\n      sub\n      swap1\n      revert\n    tag_179:\n        /* \"@iden3/contracts/verifiers/ZKPVerifier.sol\":2958:2982  _getZKPVerifierStorage() */\n      tag_182\n        /* \"@iden3/contracts/verifiers/ZKPVerifier.sol\":2958:2980  _getZKPVerifierStorage */\n      tag_89\n        /* \"@iden3/contracts/verifiers/ZKPVerifier.sol\":2958:2982  _getZKPVerifierStorage() */\n      jump\t// in\n    tag_182:\n        /* \"@iden3/contracts/verifiers/ZKPVerifier.sol\":2958:2992  _getZKPVerifierStorage()._requests */\n      0x01\n      add\n        /* \"@iden3/contracts/verifiers/ZKPVerifier.sol\":2958:3003  _getZKPVerifierStorage()._requests[requestId] */\n      0x00\n        /* \"@iden3/contracts/verifiers/ZKPVerifier.sol\":2993:3002  requestId */\n      dup4\n        /* \"@iden3/contracts/verifiers/ZKPVerifier.sol\":2958:3003  _getZKPVerifierStorage()._requests[requestId] */\n      0xffffffffffffffff\n      and\n      0xffffffffffffffff\n      and\n      dup2\n      mstore\n      0x20\n      add\n      swap1\n      dup2\n      mstore\n      0x20\n      add\n      0x00\n      keccak256\n        /* \"@iden3/contracts/verifiers/ZKPVerifier.sol\":2951:3003  return _getZKPVerifierStorage()._requests[requestId] */\n      mload(0x40)\n      dup1\n      0x60\n      add\n      0x40\n      mstore\n      swap1\n      dup2\n      0x00\n      dup3\n      add\n      dup1\n      sload\n      tag_183\n      swap1\n      tag_111\n      jump\t// in\n    tag_183:\n      dup1\n      0x1f\n      add\n      0x20\n      dup1\n      swap2\n      div\n      mul\n      0x20\n      add\n      mload(0x40)\n      swap1\n      dup2\n      add\n      0x40\n      mstore\n      dup1\n      swap3\n      swap2\n      swap1\n      dup2\n      dup2\n      mstore\n      0x20\n      add\n      dup3\n      dup1\n      sload\n      tag_184\n      swap1\n      tag_111\n      jump\t// in\n    tag_184:\n      dup1\n      iszero\n      tag_185\n      jumpi\n      dup1\n      0x1f\n      lt\n      tag_186\n      jumpi\n      0x0100\n      dup1\n      dup4\n      sload\n      div\n      mul\n      dup4\n      mstore\n      swap2\n      0x20\n      add\n      swap2\n      jump(tag_185)\n    tag_186:\n      dup3\n      add\n      swap2\n      swap1\n      0x00\n      mstore\n      keccak256(0x00, 0x20)\n      swap1\n    tag_187:\n      dup2\n      sload\n      dup2\n      mstore\n      swap1\n      0x01\n      add\n      swap1\n      0x20\n      add\n      dup1\n      dup4\n      gt\n      tag_187\n      jumpi\n      dup3\n      swap1\n      sub\n      0x1f\n      and\n      dup3\n      add\n      swap2\n    tag_185:\n      pop\n      pop\n      pop\n      pop\n      pop\n      dup2\n      mstore\n      0x20\n      add\n      0x01\n      dup3\n      add\n      0x00\n      swap1\n      sload\n      swap1\n      0x0100\n      exp\n      swap1\n      div\n      0xffffffffffffffffffffffffffffffffffffffff\n      and\n      0xffffffffffffffffffffffffffffffffffffffff\n      and\n      0xffffffffffffffffffffffffffffffffffffffff\n      and\n      dup2\n      mstore\n      0x20\n      add\n      0x02\n      dup3\n      add\n      dup1\n      sload\n      tag_188\n      swap1\n      tag_111\n      jump\t// in\n    tag_188:\n      dup1\n      0x1f\n      add\n      0x20\n      dup1\n      swap2\n      div\n      mul\n      0x20\n      add\n      mload(0x40)\n      swap1\n      dup2\n      add\n      0x40\n      mstore\n      dup1\n      swap3\n      swap2\n      swap1\n      dup2\n      dup2\n      mstore\n      0x20\n      add\n      dup3\n      dup1\n      sload\n      tag_189\n      swap1\n      tag_111\n      jump\t// in\n    tag_189:\n      dup1\n      iszero\n      tag_190\n      jumpi\n      dup1\n      0x1f\n      lt\n      tag_191\n      jumpi\n      0x0100\n      dup1\n      dup4\n      sload\n      div\n      mul\n      dup4\n      mstore\n      swap2\n      0x20\n      add\n      swap2\n      jump(tag_190)\n    tag_191:\n      dup3\n      add\n      swap2\n      swap1\n      0x00\n      mstore\n      keccak256(0x00, 0x20)\n      swap1\n    tag_192:\n      dup2\n      sload\n      dup2\n      mstore\n      swap1\n      0x01\n      add\n      swap1\n      0x20\n      add\n      dup1\n      dup4\n      gt\n      tag_192\n      jumpi\n      dup3\n      swap1\n      sub\n      0x1f\n      and\n      dup3\n      add\n      swap2\n    tag_190:\n      pop\n      pop\n      pop\n      pop\n      pop\n      dup2\n      mstore\n      pop\n      pop\n      swap1\n      pop\n        /* \"@iden3/contracts/verifiers/ZKPVerifier.sol\":2751:3010  function getZKPRequest(... */\n      swap2\n      swap1\n      pop\n      jump\t// out\n        /* \"ageVerifier.sol\":515:561  mapping(address => uint256) public addressToId */\n    tag_79:\n      mstore(0x20, 0x01)\n      dup1\n      0x00\n      mstore\n      keccak256(0x00, 0x40)\n      0x00\n      swap2\n      pop\n      swap1\n      pop\n      sload\n      dup2\n      jump\t// out\n        /* \"@openzeppelin/contracts-upgradeable/access/Ownable2StepUpgradeable.sol\":1680:1848  function pendingOwner() public view virtual returns (address) {... */\n    tag_82:\n        /* \"@openzeppelin/contracts-upgradeable/access/Ownable2StepUpgradeable.sol\":1733:1740  address */\n      0x00\n        /* \"@openzeppelin/contracts-upgradeable/access/Ownable2StepUpgradeable.sol\":1752:1781  Ownable2StepStorage storage $ */\n      dup1\n        /* \"@openzeppelin/contracts-upgradeable/access/Ownable2StepUpgradeable.sol\":1784:1809  _getOwnable2StepStorage() */\n      tag_194\n        /* \"@openzeppelin/contracts-upgradeable/access/Ownable2StepUpgradeable.sol\":1784:1807  _getOwnable2StepStorage */\n      tag_195\n        /* \"@openzeppelin/contracts-upgradeable/access/Ownable2StepUpgradeable.sol\":1784:1809  _getOwnable2StepStorage() */\n      jump\t// in\n    tag_194:\n        /* \"@openzeppelin/contracts-upgradeable/access/Ownable2StepUpgradeable.sol\":1752:1809  Ownable2StepStorage storage $ = _getOwnable2StepStorage() */\n      swap1\n      pop\n        /* \"@openzeppelin/contracts-upgradeable/access/Ownable2StepUpgradeable.sol\":1826:1827  $ */\n      dup1\n        /* \"@openzeppelin/contracts-upgradeable/access/Ownable2StepUpgradeable.sol\":1826:1841  $._pendingOwner */\n      0x00\n      add\n      0x00\n      swap1\n      sload\n      swap1\n      0x0100\n      exp\n      swap1\n      div\n      0xffffffffffffffffffffffffffffffffffffffff\n      and\n        /* \"@openzeppelin/contracts-upgradeable/access/Ownable2StepUpgradeable.sol\":1819:1841  return $._pendingOwner */\n      swap2\n      pop\n      pop\n        /* \"@openzeppelin/contracts-upgradeable/access/Ownable2StepUpgradeable.sol\":1680:1848  function pendingOwner() public view virtual returns (address) {... */\n      swap1\n      jump\t// out\n        /* \"@openzeppelin/contracts-upgradeable/access/Ownable2StepUpgradeable.sol\":2041:2288  function transferOwnership(address newOwner) public virtual override onlyOwner {... */\n    tag_86:\n        /* \"@openzeppelin/contracts-upgradeable/access/OwnableUpgradeable.sol\":2334:2347  _checkOwner() */\n      tag_197\n        /* \"@openzeppelin/contracts-upgradeable/access/OwnableUpgradeable.sol\":2334:2345  _checkOwner */\n      tag_130\n        /* \"@openzeppelin/contracts-upgradeable/access/OwnableUpgradeable.sol\":2334:2347  _checkOwner() */\n      jump\t// in\n    tag_197:\n        /* \"@openzeppelin/contracts-upgradeable/access/Ownable2StepUpgradeable.sol\":2130:2159  Ownable2StepStorage storage $ */\n      0x00\n        /* \"@openzeppelin/contracts-upgradeable/access/Ownable2StepUpgradeable.sol\":2162:2187  _getOwnable2StepStorage() */\n      tag_199\n        /* \"@openzeppelin/contracts-upgradeable/access/Ownable2StepUpgradeable.sol\":2162:2185  _getOwnable2StepStorage */\n      tag_195\n        /* \"@openzeppelin/contracts-upgradeable/access/Ownable2StepUpgradeable.sol\":2162:2187  _getOwnable2StepStorage() */\n      jump\t// in\n    tag_199:\n        /* \"@openzeppelin/contracts-upgradeable/access/Ownable2StepUpgradeable.sol\":2130:2187  Ownable2StepStorage storage $ = _getOwnable2StepStorage() */\n      swap1\n      pop\n        /* \"@openzeppelin/contracts-upgradeable/access/Ownable2StepUpgradeable.sol\":2215:2223  newOwner */\n      dup2\n        /* \"@openzeppelin/contracts-upgradeable/access/Ownable2StepUpgradeable.sol\":2197:2198  $ */\n      dup2\n        /* \"@openzeppelin/contracts-upgradeable/access/Ownable2StepUpgradeable.sol\":2197:2212  $._pendingOwner */\n      0x00\n      add\n      0x00\n        /* \"@openzeppelin/contracts-upgradeable/access/Ownable2StepUpgradeable.sol\":2197:2223  $._pendingOwner = newOwner */\n      0x0100\n      exp\n      dup2\n      sload\n      dup2\n      0xffffffffffffffffffffffffffffffffffffffff\n      mul\n      not\n      and\n      swap1\n      dup4\n      0xffffffffffffffffffffffffffffffffffffffff\n      and\n      mul\n      or\n      swap1\n      sstore\n      pop\n        /* \"@openzeppelin/contracts-upgradeable/access/Ownable2StepUpgradeable.sol\":2272:2280  newOwner */\n      dup2\n        /* \"@openzeppelin/contracts-upgradeable/access/Ownable2StepUpgradeable.sol\":2238:2281  OwnershipTransferStarted(owner(), newOwner) */\n      0xffffffffffffffffffffffffffffffffffffffff\n      and\n        /* \"@openzeppelin/contracts-upgradeable/access/Ownable2StepUpgradeable.sol\":2263:2270  owner() */\n      tag_200\n        /* \"@openzeppelin/contracts-upgradeable/access/Ownable2StepUpgradeable.sol\":2263:2268  owner */\n      tag_57\n        /* \"@openzeppelin/contracts-upgradeable/access/Ownable2StepUpgradeable.sol\":2263:2270  owner() */\n      jump\t// in\n    tag_200:\n        /* \"@openzeppelin/contracts-upgradeable/access/Ownable2StepUpgradeable.sol\":2238:2281  OwnershipTransferStarted(owner(), newOwner) */\n      0xffffffffffffffffffffffffffffffffffffffff\n      and\n      0x38d16b8cac22d99fc7c124b9cd0de2d3fa1faef420bfe791d8c362d765e22700\n      mload(0x40)\n      mload(0x40)\n      dup1\n      swap2\n      sub\n      swap1\n      log3\n        /* \"@openzeppelin/contracts-upgradeable/access/Ownable2StepUpgradeable.sol\":2120:2288  {... */\n      pop\n        /* \"@openzeppelin/contracts-upgradeable/access/Ownable2StepUpgradeable.sol\":2041:2288  function transferOwnership(address newOwner) public virtual override onlyOwner {... */\n      pop\n      jump\t// out\n        /* \"@iden3/contracts/verifiers/ZKPVerifier.sol\":1313:1485  function _getZKPVerifierStorage() internal pure returns (ZKPVerifierStorage storage $) {... */\n    tag_89:\n        /* \"@iden3/contracts/verifiers/ZKPVerifier.sol\":1370:1398  ZKPVerifierStorage storage $ */\n      0x00\n        /* \"@iden3/contracts/verifiers/ZKPVerifier.sol\":1443:1469  ZKPVerifierStorageLocation */\n      0x512d18c55869273fec77e70d8a8586e3fb133e90f1db24c6bcf4ff3506ef6a00\n        /* \"@iden3/contracts/verifiers/ZKPVerifier.sol\":1433:1469  $.slot := ZKPVerifierStorageLocation */\n      swap1\n      pop\n        /* \"@iden3/contracts/verifiers/ZKPVerifier.sol\":1313:1485  function _getZKPVerifierStorage() internal pure returns (ZKPVerifierStorage storage $) {... */\n      swap1\n      jump\t// out\n        /* \"@iden3/contracts/lib/ArrayUtils.sol\":420:923  function calculateBounds(... */\n    tag_93:\n        /* \"@iden3/contracts/lib/ArrayUtils.sol\":571:578  uint256 */\n      0x00\n        /* \"@iden3/contracts/lib/ArrayUtils.sol\":580:587  uint256 */\n      dup1\n        /* \"@iden3/contracts/lib/ArrayUtils.sol\":616:617  0 */\n      0x00\n        /* \"@iden3/contracts/lib/ArrayUtils.sol\":607:613  length */\n      dup5\n        /* \"@iden3/contracts/lib/ArrayUtils.sol\":607:617  length > 0 */\n      gt\n        /* \"@iden3/contracts/lib/ArrayUtils.sol\":599:653  require(length > 0, \"Length should be greater than 0\") */\n      tag_203\n      jumpi\n      mload(0x40)\n      0x08c379a000000000000000000000000000000000000000000000000000000000\n      dup2\n      mstore\n      0x04\n      add\n      tag_204\n      swap1\n      tag_205\n      jump\t// in\n    tag_204:\n      mload(0x40)\n      dup1\n      swap2\n      sub\n      swap1\n      revert\n    tag_203:\n        /* \"@iden3/contracts/lib/ArrayUtils.sol\":681:686  limit */\n      dup3\n        /* \"@iden3/contracts/lib/ArrayUtils.sol\":671:677  length */\n      dup5\n        /* \"@iden3/contracts/lib/ArrayUtils.sol\":671:686  length <= limit */\n      gt\n      iszero\n        /* \"@iden3/contracts/lib/ArrayUtils.sol\":663:712  require(length <= limit, \"Length limit exceeded\") */\n      tag_206\n      jumpi\n      mload(0x40)\n      0x08c379a000000000000000000000000000000000000000000000000000000000\n      dup2\n      mstore\n      0x04\n      add\n      tag_207\n      swap1\n      tag_208\n      jump\t// in\n    tag_207:\n      mload(0x40)\n      dup1\n      swap2\n      sub\n      swap1\n      revert\n    tag_206:\n        /* \"@iden3/contracts/lib/ArrayUtils.sol\":738:747  arrLength */\n      dup6\n        /* \"@iden3/contracts/lib/ArrayUtils.sol\":730:735  start */\n      dup6\n        /* \"@iden3/contracts/lib/ArrayUtils.sol\":730:747  start < arrLength */\n      lt\n        /* \"@iden3/contracts/lib/ArrayUtils.sol\":722:777  require(start < arrLength, \"Start index out of bounds\") */\n      tag_209\n      jumpi\n      mload(0x40)\n      0x08c379a000000000000000000000000000000000000000000000000000000000\n      dup2\n      mstore\n      0x04\n      add\n      tag_210\n      swap1\n      tag_211\n      jump\t// in\n    tag_210:\n      mload(0x40)\n      dup1\n      swap2\n      sub\n      swap1\n      revert\n    tag_209:\n        /* \"@iden3/contracts/lib/ArrayUtils.sol\":788:799  uint256 end */\n      0x00\n        /* \"@iden3/contracts/lib/ArrayUtils.sol\":810:816  length */\n      dup5\n        /* \"@iden3/contracts/lib/ArrayUtils.sol\":802:807  start */\n      dup7\n        /* \"@iden3/contracts/lib/ArrayUtils.sol\":802:816  start + length */\n      tag_212\n      swap2\n      swap1\n      tag_213\n      jump\t// in\n    tag_212:\n        /* \"@iden3/contracts/lib/ArrayUtils.sol\":788:816  uint256 end = start + length */\n      swap1\n      pop\n        /* \"@iden3/contracts/lib/ArrayUtils.sol\":836:845  arrLength */\n      dup7\n        /* \"@iden3/contracts/lib/ArrayUtils.sol\":830:833  end */\n      dup2\n        /* \"@iden3/contracts/lib/ArrayUtils.sol\":830:845  end > arrLength */\n      gt\n        /* \"@iden3/contracts/lib/ArrayUtils.sol\":826:887  if (end > arrLength) {... */\n      iszero\n      tag_214\n      jumpi\n        /* \"@iden3/contracts/lib/ArrayUtils.sol\":867:876  arrLength */\n      dup7\n        /* \"@iden3/contracts/lib/ArrayUtils.sol\":861:876  end = arrLength */\n      swap1\n      pop\n        /* \"@iden3/contracts/lib/ArrayUtils.sol\":826:887  if (end > arrLength) {... */\n    tag_214:\n        /* \"@iden3/contracts/lib/ArrayUtils.sol\":905:910  start */\n      dup6\n        /* \"@iden3/contracts/lib/ArrayUtils.sol\":912:915  end */\n      dup2\n        /* \"@iden3/contracts/lib/ArrayUtils.sol\":897:916  return (start, end) */\n      swap3\n      pop\n      swap3\n      pop\n      pop\n        /* \"@iden3/contracts/lib/ArrayUtils.sol\":420:923  function calculateBounds(... */\n      swap5\n      pop\n      swap5\n      swap3\n      pop\n      pop\n      pop\n      jump\t// out\n        /* \"@openzeppelin/contracts-upgradeable/access/OwnableUpgradeable.sol\":2658:2820  function _checkOwner() internal view virtual {... */\n    tag_130:\n        /* \"@openzeppelin/contracts-upgradeable/access/OwnableUpgradeable.sol\":2728:2740  _msgSender() */\n      tag_216\n        /* \"@openzeppelin/contracts-upgradeable/access/OwnableUpgradeable.sol\":2728:2738  _msgSender */\n      tag_136\n        /* \"@openzeppelin/contracts-upgradeable/access/OwnableUpgradeable.sol\":2728:2740  _msgSender() */\n      jump\t// in\n    tag_216:\n        /* \"@openzeppelin/contracts-upgradeable/access/OwnableUpgradeable.sol\":2717:2740  owner() != _msgSender() */\n      0xffffffffffffffffffffffffffffffffffffffff\n      and\n        /* \"@openzeppelin/contracts-upgradeable/access/OwnableUpgradeable.sol\":2717:2724  owner() */\n      tag_217\n        /* \"@openzeppelin/contracts-upgradeable/access/OwnableUpgradeable.sol\":2717:2722  owner */\n      tag_57\n        /* \"@openzeppelin/contracts-upgradeable/access/OwnableUpgradeable.sol\":2717:2724  owner() */\n      jump\t// in\n    tag_217:\n        /* \"@openzeppelin/contracts-upgradeable/access/OwnableUpgradeable.sol\":2717:2740  owner() != _msgSender() */\n      0xffffffffffffffffffffffffffffffffffffffff\n      and\n      eq\n        /* \"@openzeppelin/contracts-upgradeable/access/OwnableUpgradeable.sol\":2713:2814  if (owner() != _msgSender()) {... */\n      tag_218\n      jumpi\n        /* \"@openzeppelin/contracts-upgradeable/access/OwnableUpgradeable.sol\":2790:2802  _msgSender() */\n      tag_219\n        /* \"@openzeppelin/contracts-upgradeable/access/OwnableUpgradeable.sol\":2790:2800  _msgSender */\n      tag_136\n        /* \"@openzeppelin/contracts-upgradeable/access/OwnableUpgradeable.sol\":2790:2802  _msgSender() */\n      jump\t// in\n    tag_219:\n        /* \"@openzeppelin/contracts-upgradeable/access/OwnableUpgradeable.sol\":2763:2803  OwnableUnauthorizedAccount(_msgSender()) */\n      mload(0x40)\n      0x118cdaa700000000000000000000000000000000000000000000000000000000\n      dup2\n      mstore\n      0x04\n      add\n      tag_220\n      swap2\n      swap1\n      tag_31\n      jump\t// in\n    tag_220:\n      mload(0x40)\n      dup1\n      swap2\n      sub\n      swap1\n      revert\n        /* \"@openzeppelin/contracts-upgradeable/access/OwnableUpgradeable.sol\":2713:2814  if (owner() != _msgSender()) {... */\n    tag_218:\n        /* \"@openzeppelin/contracts-upgradeable/access/OwnableUpgradeable.sol\":2658:2820  function _checkOwner() internal view virtual {... */\n      jump\t// out\n        /* \"@openzeppelin/contracts-upgradeable/access/Ownable2StepUpgradeable.sol\":2472:2694  function _transferOwnership(address newOwner) internal virtual override {... */\n    tag_133:\n        /* \"@openzeppelin/contracts-upgradeable/access/Ownable2StepUpgradeable.sol\":2554:2583  Ownable2StepStorage storage $ */\n      0x00\n        /* \"@openzeppelin/contracts-upgradeable/access/Ownable2StepUpgradeable.sol\":2586:2611  _getOwnable2StepStorage() */\n      tag_222\n        /* \"@openzeppelin/contracts-upgradeable/access/Ownable2StepUpgradeable.sol\":2586:2609  _getOwnable2StepStorage */\n      tag_195\n        /* \"@openzeppelin/contracts-upgradeable/access/Ownable2StepUpgradeable.sol\":2586:2611  _getOwnable2StepStorage() */\n      jump\t// in\n    tag_222:\n        /* \"@openzeppelin/contracts-upgradeable/access/Ownable2StepUpgradeable.sol\":2554:2611  Ownable2StepStorage storage $ = _getOwnable2StepStorage() */\n      swap1\n      pop\n        /* \"@openzeppelin/contracts-upgradeable/access/Ownable2StepUpgradeable.sol\":2628:2629  $ */\n      dup1\n        /* \"@openzeppelin/contracts-upgradeable/access/Ownable2StepUpgradeable.sol\":2628:2643  $._pendingOwner */\n      0x00\n      add\n      0x00\n        /* \"@openzeppelin/contracts-upgradeable/access/Ownable2StepUpgradeable.sol\":2621:2643  delete $._pendingOwner */\n      0x0100\n      exp\n      dup2\n      sload\n      swap1\n      0xffffffffffffffffffffffffffffffffffffffff\n      mul\n      not\n      and\n      swap1\n      sstore\n        /* \"@openzeppelin/contracts-upgradeable/access/Ownable2StepUpgradeable.sol\":2653:2687  super._transferOwnership(newOwner) */\n      tag_223\n        /* \"@openzeppelin/contracts-upgradeable/access/Ownable2StepUpgradeable.sol\":2678:2686  newOwner */\n      dup3\n        /* \"@openzeppelin/contracts-upgradeable/access/Ownable2StepUpgradeable.sol\":2653:2677  super._transferOwnership */\n      tag_224\n        /* \"@openzeppelin/contracts-upgradeable/access/Ownable2StepUpgradeable.sol\":2653:2687  super._transferOwnership(newOwner) */\n      jump\t// in\n    tag_223:\n        /* \"@openzeppelin/contracts-upgradeable/access/Ownable2StepUpgradeable.sol\":2544:2694  {... */\n      pop\n        /* \"@openzeppelin/contracts-upgradeable/access/Ownable2StepUpgradeable.sol\":2472:2694  function _transferOwnership(address newOwner) internal virtual override {... */\n      pop\n      jump\t// out\n        /* \"@openzeppelin/contracts-upgradeable/utils/ContextUpgradeable.sol\":887:983  function _msgSender() internal view virtual returns (address) {... */\n    tag_136:\n        /* \"@openzeppelin/contracts-upgradeable/utils/ContextUpgradeable.sol\":940:947  address */\n      0x00\n        /* \"@openzeppelin/contracts-upgradeable/utils/ContextUpgradeable.sol\":966:976  msg.sender */\n      caller\n        /* \"@openzeppelin/contracts-upgradeable/utils/ContextUpgradeable.sol\":959:976  return msg.sender */\n      swap1\n      pop\n        /* \"@openzeppelin/contracts-upgradeable/utils/ContextUpgradeable.sol\":887:983  function _msgSender() internal view virtual returns (address) {... */\n      swap1\n      jump\t// out\n        /* \"@openzeppelin/contracts-upgradeable/access/OwnableUpgradeable.sol\":1192:1351  function _getOwnableStorage() private pure returns (OwnableStorage storage $) {... */\n    tag_143:\n        /* \"@openzeppelin/contracts-upgradeable/access/OwnableUpgradeable.sol\":1244:1268  OwnableStorage storage $ */\n      0x00\n        /* \"@openzeppelin/contracts-upgradeable/access/OwnableUpgradeable.sol\":1313:1335  OwnableStorageLocation */\n      0x9016d09d72d40fdae2fd8ceac6b6234c7706214fd39c1cd1e609a0528c199300\n        /* \"@openzeppelin/contracts-upgradeable/access/OwnableUpgradeable.sol\":1303:1335  $.slot := OwnableStorageLocation */\n      swap1\n      pop\n        /* \"@openzeppelin/contracts-upgradeable/access/OwnableUpgradeable.sol\":1192:1351  function _getOwnableStorage() private pure returns (OwnableStorage storage $) {... */\n      swap1\n      jump\t// out\n        /* \"ageVerifier.sol\":625:1207  function _beforeProofSubmit(... */\n    tag_167:\n        /* \"ageVerifier.sol\":850:862  uint256 chal */\n      0x00\n        /* \"ageVerifier.sol\":865:874  validator */\n      dup2\n        /* \"ageVerifier.sol\":865:887  validator.inputIndexOf */\n      0xffffffffffffffffffffffffffffffffffffffff\n      and\n      0xb16a394f\n        /* \"ageVerifier.sol\":865:900  validator.inputIndexOf(\"challenge\") */\n      mload(0x40)\n      dup2\n      0xffffffff\n      and\n      0xe0\n      shl\n      dup2\n      mstore\n      0x04\n      add\n      tag_228\n      swap1\n      tag_229\n      jump\t// in\n    tag_228:\n      0x20\n      mload(0x40)\n      dup1\n      dup4\n      sub\n      dup2\n      dup7\n      gas\n      staticcall\n      iszero\n      dup1\n      iszero\n      tag_231\n      jumpi\n      returndatasize\n      0x00\n      dup1\n      returndatacopy\n      revert(0x00, returndatasize)\n    tag_231:\n      pop\n      pop\n      pop\n      pop\n      mload(0x40)\n      returndatasize\n      not(0x1f)\n      0x1f\n      dup3\n      add\n      and\n      dup3\n      add\n      dup1\n      0x40\n      mstore\n      pop\n      dup2\n      add\n      swap1\n      tag_232\n      swap2\n      swap1\n      tag_233\n      jump\t// in\n    tag_232:\n        /* \"ageVerifier.sol\":850:900  uint256 chal = validator.inputIndexOf(\"challenge\") */\n      swap1\n      pop\n        /* \"ageVerifier.sol\":1075:1083  12345678 */\n      0xbc614e\n        /* \"ageVerifier.sol\":1067:1071  chal */\n      dup2\n        /* \"ageVerifier.sol\":1067:1083  chal == 12345678 */\n      eq\n        /* \"ageVerifier.sol\":970:1151  require(... */\n      tag_234\n      jumpi\n      mload(0x40)\n      0x08c379a000000000000000000000000000000000000000000000000000000000\n      dup2\n      mstore\n      0x04\n      add\n      tag_235\n      swap1\n      tag_236\n      jump\t// in\n    tag_235:\n      mload(0x40)\n      dup1\n      swap2\n      sub\n      swap1\n      revert\n    tag_234:\n        /* \"ageVerifier.sol\":1193:1197  true */\n      0x01\n        /* \"ageVerifier.sol\":1164:1179  pendingRequests */\n      0x02\n        /* \"ageVerifier.sol\":1164:1190  pendingRequests[requestId] */\n      0x00\n        /* \"ageVerifier.sol\":1180:1189  requestId */\n      dup7\n        /* \"ageVerifier.sol\":1164:1190  pendingRequests[requestId] */\n      0xffffffffffffffff\n      and\n      0xffffffffffffffff\n      and\n      dup2\n      mstore\n      0x20\n      add\n      swap1\n      dup2\n      mstore\n      0x20\n      add\n      0x00\n      keccak256\n      0x00\n        /* \"ageVerifier.sol\":1164:1197  pendingRequests[requestId] = true */\n      0x0100\n      exp\n      dup2\n      sload\n      dup2\n      0xff\n      mul\n      not\n      and\n      swap1\n      dup4\n      iszero\n      iszero\n      mul\n      or\n      swap1\n      sstore\n      pop\n        /* \"ageVerifier.sol\":778:1207  {... */\n      pop\n        /* \"ageVerifier.sol\":625:1207  function _beforeProofSubmit(... */\n      pop\n      pop\n      pop\n      jump\t// out\n        /* \"ageVerifier.sol\":1215:1972  function _afterProofSubmit(... */\n    tag_175:\n        /* \"ageVerifier.sol\":1429:1430  0 */\n      0x00\n        /* \"ageVerifier.sol\":1400:1411  addressToId */\n      0x01\n        /* \"ageVerifier.sol\":1400:1425  addressToId[_msgSender()] */\n      0x00\n        /* \"ageVerifier.sol\":1412:1424  _msgSender() */\n      tag_238\n        /* \"ageVerifier.sol\":1412:1422  _msgSender */\n      tag_136\n        /* \"ageVerifier.sol\":1412:1424  _msgSender() */\n      jump\t// in\n    tag_238:\n        /* \"ageVerifier.sol\":1400:1425  addressToId[_msgSender()] */\n      0xffffffffffffffffffffffffffffffffffffffff\n      and\n      0xffffffffffffffffffffffffffffffffffffffff\n      and\n      dup2\n      mstore\n      0x20\n      add\n      swap1\n      dup2\n      mstore\n      0x20\n      add\n      0x00\n      keccak256\n      sload\n        /* \"ageVerifier.sol\":1400:1430  addressToId[_msgSender()] == 0 */\n      eq\n        /* \"ageVerifier.sol\":1400:1460  addressToId[_msgSender()] == 0 && pendingRequests[requestId] */\n      dup1\n      iszero\n      tag_239\n      jumpi\n      pop\n        /* \"ageVerifier.sol\":1434:1449  pendingRequests */\n      0x02\n        /* \"ageVerifier.sol\":1434:1460  pendingRequests[requestId] */\n      0x00\n        /* \"ageVerifier.sol\":1450:1459  requestId */\n      dup5\n        /* \"ageVerifier.sol\":1434:1460  pendingRequests[requestId] */\n      0xffffffffffffffff\n      and\n      0xffffffffffffffff\n      and\n      dup2\n      mstore\n      0x20\n      add\n      swap1\n      dup2\n      mstore\n      0x20\n      add\n      0x00\n      keccak256\n      0x00\n      swap1\n      sload\n      swap1\n      0x0100\n      exp\n      swap1\n      div\n      0xff\n      and\n        /* \"ageVerifier.sol\":1400:1460  addressToId[_msgSender()] == 0 && pendingRequests[requestId] */\n    tag_239:\n        /* \"ageVerifier.sol\":1377:1529  require( ... */\n      tag_240\n      jumpi\n      mload(0x40)\n      0x08c379a000000000000000000000000000000000000000000000000000000000\n      dup2\n      mstore\n      0x04\n      add\n      tag_241\n      swap1\n      tag_242\n      jump\t// in\n    tag_241:\n      mload(0x40)\n      dup1\n      swap2\n      sub\n      swap1\n      revert\n    tag_240:\n        /* \"ageVerifier.sol\":1566:1576  uint256 id */\n      0x00\n        /* \"ageVerifier.sol\":1579:1585  inputs */\n      dup3\n        /* \"ageVerifier.sol\":1586:1587  1 */\n      0x01\n        /* \"ageVerifier.sol\":1579:1588  inputs[1] */\n      dup2\n      mload\n      dup2\n      lt\n      tag_243\n      jumpi\n      tag_244\n      tag_108\n      jump\t// in\n    tag_244:\n    tag_243:\n      0x20\n      mul\n      0x20\n      add\n      add\n      mload\n        /* \"ageVerifier.sol\":1566:1588  uint256 id = inputs[1] */\n      swap1\n      pop\n        /* \"ageVerifier.sol\":1692:1693  0 */\n      0x00\n        /* \"ageVerifier.sol\":1665:1694  idToAddress[id] == address(0) */\n      0xffffffffffffffffffffffffffffffffffffffff\n      and\n        /* \"ageVerifier.sol\":1665:1676  idToAddress */\n      0x00\n        /* \"ageVerifier.sol\":1665:1680  idToAddress[id] */\n      dup1\n        /* \"ageVerifier.sol\":1677:1679  id */\n      dup4\n        /* \"ageVerifier.sol\":1665:1680  idToAddress[id] */\n      dup2\n      mstore\n      0x20\n      add\n      swap1\n      dup2\n      mstore\n      0x20\n      add\n      0x00\n      keccak256\n      0x00\n      swap1\n      sload\n      swap1\n      0x0100\n      exp\n      swap1\n      div\n      0xffffffffffffffffffffffffffffffffffffffff\n      and\n        /* \"ageVerifier.sol\":1665:1694  idToAddress[id] == address(0) */\n      0xffffffffffffffffffffffffffffffffffffffff\n      and\n      eq\n        /* \"ageVerifier.sol\":1665:1728  idToAddress[id] == address(0) && addressToId[_msgSender()] == 0 */\n      dup1\n      iszero\n      tag_245\n      jumpi\n      pop\n        /* \"ageVerifier.sol\":1727:1728  0 */\n      0x00\n        /* \"ageVerifier.sol\":1698:1709  addressToId */\n      0x01\n        /* \"ageVerifier.sol\":1698:1723  addressToId[_msgSender()] */\n      0x00\n        /* \"ageVerifier.sol\":1710:1722  _msgSender() */\n      tag_246\n        /* \"ageVerifier.sol\":1710:1720  _msgSender */\n      tag_136\n        /* \"ageVerifier.sol\":1710:1722  _msgSender() */\n      jump\t// in\n    tag_246:\n        /* \"ageVerifier.sol\":1698:1723  addressToId[_msgSender()] */\n      0xffffffffffffffffffffffffffffffffffffffff\n      and\n      0xffffffffffffffffffffffffffffffffffffffff\n      and\n      dup2\n      mstore\n      0x20\n      add\n      swap1\n      dup2\n      mstore\n      0x20\n      add\n      0x00\n      keccak256\n      sload\n        /* \"ageVerifier.sol\":1698:1728  addressToId[_msgSender()] == 0 */\n      eq\n        /* \"ageVerifier.sol\":1665:1728  idToAddress[id] == address(0) && addressToId[_msgSender()] == 0 */\n    tag_245:\n        /* \"ageVerifier.sol\":1661:1965  if (idToAddress[id] == address(0) && addressToId[_msgSender()] == 0) {... */\n      iszero\n      tag_247\n      jumpi\n        /* \"ageVerifier.sol\":1773:1775  id */\n      dup1\n        /* \"ageVerifier.sol\":1745:1756  addressToId */\n      0x01\n        /* \"ageVerifier.sol\":1745:1770  addressToId[_msgSender()] */\n      0x00\n        /* \"ageVerifier.sol\":1757:1769  _msgSender() */\n      tag_248\n        /* \"ageVerifier.sol\":1757:1767  _msgSender */\n      tag_136\n        /* \"ageVerifier.sol\":1757:1769  _msgSender() */\n      jump\t// in\n    tag_248:\n        /* \"ageVerifier.sol\":1745:1770  addressToId[_msgSender()] */\n      0xffffffffffffffffffffffffffffffffffffffff\n      and\n      0xffffffffffffffffffffffffffffffffffffffff\n      and\n      dup2\n      mstore\n      0x20\n      add\n      swap1\n      dup2\n      mstore\n      0x20\n      add\n      0x00\n      keccak256\n        /* \"ageVerifier.sol\":1745:1775  addressToId[_msgSender()] = id */\n      dup2\n      swap1\n      sstore\n      pop\n        /* \"ageVerifier.sol\":1808:1820  _msgSender() */\n      tag_249\n        /* \"ageVerifier.sol\":1808:1818  _msgSender */\n      tag_136\n        /* \"ageVerifier.sol\":1808:1820  _msgSender() */\n      jump\t// in\n    tag_249:\n        /* \"ageVerifier.sol\":1790:1801  idToAddress */\n      0x00\n        /* \"ageVerifier.sol\":1790:1805  idToAddress[id] */\n      dup1\n        /* \"ageVerifier.sol\":1802:1804  id */\n      dup4\n        /* \"ageVerifier.sol\":1790:1805  idToAddress[id] */\n      dup2\n      mstore\n      0x20\n      add\n      swap1\n      dup2\n      mstore\n      0x20\n      add\n      0x00\n      keccak256\n      0x00\n        /* \"ageVerifier.sol\":1790:1820  idToAddress[id] = _msgSender() */\n      0x0100\n      exp\n      dup2\n      sload\n      dup2\n      0xffffffffffffffffffffffffffffffffffffffff\n      mul\n      not\n      and\n      swap1\n      dup4\n      0xffffffffffffffffffffffffffffffffffffffff\n      and\n      mul\n      or\n      swap1\n      sstore\n      pop\n        /* \"ageVerifier.sol\":1948:1953  false */\n      0x00\n        /* \"ageVerifier.sol\":1919:1934  pendingRequests */\n      0x02\n        /* \"ageVerifier.sol\":1919:1945  pendingRequests[requestId] */\n      0x00\n        /* \"ageVerifier.sol\":1935:1944  requestId */\n      dup7\n        /* \"ageVerifier.sol\":1919:1945  pendingRequests[requestId] */\n      0xffffffffffffffff\n      and\n      0xffffffffffffffff\n      and\n      dup2\n      mstore\n      0x20\n      add\n      swap1\n      dup2\n      mstore\n      0x20\n      add\n      0x00\n      keccak256\n      0x00\n        /* \"ageVerifier.sol\":1919:1953  pendingRequests[requestId] = false */\n      0x0100\n      exp\n      dup2\n      sload\n      dup2\n      0xff\n      mul\n      not\n      and\n      swap1\n      dup4\n      iszero\n      iszero\n      mul\n      or\n      swap1\n      sstore\n      pop\n        /* \"ageVerifier.sol\":1661:1965  if (idToAddress[id] == address(0) && addressToId[_msgSender()] == 0) {... */\n    tag_247:\n        /* \"ageVerifier.sol\":1366:1972  {... */\n      pop\n        /* \"ageVerifier.sol\":1215:1972  function _afterProofSubmit(... */\n      pop\n      pop\n      pop\n      jump\t// out\n        /* \"@openzeppelin/contracts-upgradeable/access/Ownable2StepUpgradeable.sol\":1187:1361  function _getOwnable2StepStorage() private pure returns (Ownable2StepStorage storage $) {... */\n    tag_195:\n        /* \"@openzeppelin/contracts-upgradeable/access/Ownable2StepUpgradeable.sol\":1244:1273  Ownable2StepStorage storage $ */\n      0x00\n        /* \"@openzeppelin/contracts-upgradeable/access/Ownable2StepUpgradeable.sol\":1318:1345  Ownable2StepStorageLocation */\n      0x237e158222e3e6968b72b9db0d8043aacf074ad9f650f0d1606b4d82ee432c00\n        /* \"@openzeppelin/contracts-upgradeable/access/Ownable2StepUpgradeable.sol\":1308:1345  $.slot := Ownable2StepStorageLocation */\n      swap1\n      pop\n        /* \"@openzeppelin/contracts-upgradeable/access/Ownable2StepUpgradeable.sol\":1187:1361  function _getOwnable2StepStorage() private pure returns (Ownable2StepStorage storage $) {... */\n      swap1\n      jump\t// out\n        /* \"@openzeppelin/contracts-upgradeable/access/OwnableUpgradeable.sol\":3774:4022  function _transferOwnership(address newOwner) internal virtual {... */\n    tag_224:\n        /* \"@openzeppelin/contracts-upgradeable/access/OwnableUpgradeable.sol\":3847:3871  OwnableStorage storage $ */\n      0x00\n        /* \"@openzeppelin/contracts-upgradeable/access/OwnableUpgradeable.sol\":3874:3894  _getOwnableStorage() */\n      tag_252\n        /* \"@openzeppelin/contracts-upgradeable/access/OwnableUpgradeable.sol\":3874:3892  _getOwnableStorage */\n      tag_143\n        /* \"@openzeppelin/contracts-upgradeable/access/OwnableUpgradeable.sol\":3874:3894  _getOwnableStorage() */\n      jump\t// in\n    tag_252:\n        /* \"@openzeppelin/contracts-upgradeable/access/OwnableUpgradeable.sol\":3847:3894  OwnableStorage storage $ = _getOwnableStorage() */\n      swap1\n      pop\n        /* \"@openzeppelin/contracts-upgradeable/access/OwnableUpgradeable.sol\":3904:3920  address oldOwner */\n      0x00\n        /* \"@openzeppelin/contracts-upgradeable/access/OwnableUpgradeable.sol\":3923:3924  $ */\n      dup2\n        /* \"@openzeppelin/contracts-upgradeable/access/OwnableUpgradeable.sol\":3923:3931  $._owner */\n      0x00\n      add\n      0x00\n      swap1\n      sload\n      swap1\n      0x0100\n      exp\n      swap1\n      div\n      0xffffffffffffffffffffffffffffffffffffffff\n      and\n        /* \"@openzeppelin/contracts-upgradeable/access/OwnableUpgradeable.sol\":3904:3931  address oldOwner = $._owner */\n      swap1\n      pop\n        /* \"@openzeppelin/contracts-upgradeable/access/OwnableUpgradeable.sol\":3952:3960  newOwner */\n      dup3\n        /* \"@openzeppelin/contracts-upgradeable/access/OwnableUpgradeable.sol\":3941:3942  $ */\n      dup3\n        /* \"@openzeppelin/contracts-upgradeable/access/OwnableUpgradeable.sol\":3941:3949  $._owner */\n      0x00\n      add\n      0x00\n        /* \"@openzeppelin/contracts-upgradeable/access/OwnableUpgradeable.sol\":3941:3960  $._owner = newOwner */\n      0x0100\n      exp\n      dup2\n      sload\n      dup2\n      0xffffffffffffffffffffffffffffffffffffffff\n      mul\n      not\n      and\n      swap1\n      dup4\n      0xffffffffffffffffffffffffffffffffffffffff\n      and\n      mul\n      or\n      swap1\n      sstore\n      pop\n        /* \"@openzeppelin/contracts-upgradeable/access/OwnableUpgradeable.sol\":4006:4014  newOwner */\n      dup3\n        /* \"@openzeppelin/contracts-upgradeable/access/OwnableUpgradeable.sol\":3975:4015  OwnershipTransferred(oldOwner, newOwner) */\n      0xffffffffffffffffffffffffffffffffffffffff\n      and\n        /* \"@openzeppelin/contracts-upgradeable/access/OwnableUpgradeable.sol\":3996:4004  oldOwner */\n      dup2\n        /* \"@openzeppelin/contracts-upgradeable/access/OwnableUpgradeable.sol\":3975:4015  OwnershipTransferred(oldOwner, newOwner) */\n      0xffffffffffffffffffffffffffffffffffffffff\n      and\n      0x8be0079c531659141344cd1fd0a4f28419497f9722a3daafe3b4186f6b6457e0\n      mload(0x40)\n      mload(0x40)\n      dup1\n      swap2\n      sub\n      swap1\n      log3\n        /* \"@openzeppelin/contracts-upgradeable/access/OwnableUpgradeable.sol\":3837:4022  {... */\n      pop\n      pop\n        /* \"@openzeppelin/contracts-upgradeable/access/OwnableUpgradeable.sol\":3774:4022  function _transferOwnership(address newOwner) internal virtual {... */\n      pop\n      jump\t// out\n    tag_102:\n      mload(0x40)\n      dup1\n      0x60\n      add\n      0x40\n      mstore\n      dup1\n      0x60\n      dup2\n      mstore\n      0x20\n      add\n      and(0xffffffffffffffffffffffffffffffffffffffff, 0x00)\n      dup2\n      mstore\n      0x20\n      add\n      0x60\n      dup2\n      mstore\n      pop\n      swap1\n      jump\t// out\n        /* \"#utility.yul\":7:84   */\n    tag_253:\n        /* \"#utility.yul\":44:51   */\n      0x00\n        /* \"#utility.yul\":73:78   */\n      dup2\n        /* \"#utility.yul\":62:78   */\n      swap1\n      pop\n        /* \"#utility.yul\":7:84   */\n      swap2\n      swap1\n      pop\n      jump\t// out\n        /* \"#utility.yul\":90:208   */\n    tag_254:\n        /* \"#utility.yul\":177:201   */\n      tag_387\n        /* \"#utility.yul\":195:200   */\n      dup2\n        /* \"#utility.yul\":177:201   */\n      tag_253\n      jump\t// in\n    tag_387:\n        /* \"#utility.yul\":172:175   */\n      dup3\n        /* \"#utility.yul\":165:202   */\n      mstore\n        /* \"#utility.yul\":90:208   */\n      pop\n      pop\n      jump\t// out\n        /* \"#utility.yul\":214:436   */\n    tag_25:\n        /* \"#utility.yul\":307:311   */\n      0x00\n        /* \"#utility.yul\":345:347   */\n      0x20\n        /* \"#utility.yul\":334:343   */\n      dup3\n        /* \"#utility.yul\":330:348   */\n      add\n        /* \"#utility.yul\":322:348   */\n      swap1\n      pop\n        /* \"#utility.yul\":358:429   */\n      tag_389\n        /* \"#utility.yul\":426:427   */\n      0x00\n        /* \"#utility.yul\":415:424   */\n      dup4\n        /* \"#utility.yul\":411:428   */\n      add\n        /* \"#utility.yul\":402:408   */\n      dup5\n        /* \"#utility.yul\":358:429   */\n      tag_254\n      jump\t// in\n    tag_389:\n        /* \"#utility.yul\":214:436   */\n      swap3\n      swap2\n      pop\n      pop\n      jump\t// out\n        /* \"#utility.yul\":442:517   */\n    tag_255:\n        /* \"#utility.yul\":475:481   */\n      0x00\n        /* \"#utility.yul\":508:510   */\n      0x40\n        /* \"#utility.yul\":502:511   */\n      mload\n        /* \"#utility.yul\":492:511   */\n      swap1\n      pop\n        /* \"#utility.yul\":442:517   */\n      swap1\n      jump\t// out\n        /* \"#utility.yul\":523:640   */\n    tag_256:\n        /* \"#utility.yul\":632:633   */\n      0x00\n        /* \"#utility.yul\":629:630   */\n      dup1\n        /* \"#utility.yul\":622:634   */\n      revert\n        /* \"#utility.yul\":646:763   */\n    tag_257:\n        /* \"#utility.yul\":755:756   */\n      0x00\n        /* \"#utility.yul\":752:753   */\n      dup1\n        /* \"#utility.yul\":745:757   */\n      revert\n        /* \"#utility.yul\":769:891   */\n    tag_258:\n        /* \"#utility.yul\":842:866   */\n      tag_394\n        /* \"#utility.yul\":860:865   */\n      dup2\n        /* \"#utility.yul\":842:866   */\n      tag_253\n      jump\t// in\n    tag_394:\n        /* \"#utility.yul\":835:840   */\n      dup2\n        /* \"#utility.yul\":832:867   */\n      eq\n        /* \"#utility.yul\":822:885   */\n      tag_395\n      jumpi\n        /* \"#utility.yul\":881:882   */\n      0x00\n        /* \"#utility.yul\":878:879   */\n      dup1\n        /* \"#utility.yul\":871:883   */\n      revert\n        /* \"#utility.yul\":822:885   */\n    tag_395:\n        /* \"#utility.yul\":769:891   */\n      pop\n      jump\t// out\n        /* \"#utility.yul\":897:1036   */\n    tag_259:\n        /* \"#utility.yul\":943:948   */\n      0x00\n        /* \"#utility.yul\":981:987   */\n      dup2\n        /* \"#utility.yul\":968:988   */\n      calldataload\n        /* \"#utility.yul\":959:988   */\n      swap1\n      pop\n        /* \"#utility.yul\":997:1030   */\n      tag_397\n        /* \"#utility.yul\":1024:1029   */\n      dup2\n        /* \"#utility.yul\":997:1030   */\n      tag_258\n      jump\t// in\n    tag_397:\n        /* \"#utility.yul\":897:1036   */\n      swap3\n      swap2\n      pop\n      pop\n      jump\t// out\n        /* \"#utility.yul\":1042:1371   */\n    tag_28:\n        /* \"#utility.yul\":1101:1107   */\n      0x00\n        /* \"#utility.yul\":1150:1152   */\n      0x20\n        /* \"#utility.yul\":1138:1147   */\n      dup3\n        /* \"#utility.yul\":1129:1136   */\n      dup5\n        /* \"#utility.yul\":1125:1148   */\n      sub\n        /* \"#utility.yul\":1121:1153   */\n      slt\n        /* \"#utility.yul\":1118:1237   */\n      iszero\n      tag_399\n      jumpi\n        /* \"#utility.yul\":1156:1235   */\n      tag_400\n      tag_256\n      jump\t// in\n    tag_400:\n        /* \"#utility.yul\":1118:1237   */\n    tag_399:\n        /* \"#utility.yul\":1276:1277   */\n      0x00\n        /* \"#utility.yul\":1301:1354   */\n      tag_401\n        /* \"#utility.yul\":1346:1353   */\n      dup5\n        /* \"#utility.yul\":1337:1343   */\n      dup3\n        /* \"#utility.yul\":1326:1335   */\n      dup6\n        /* \"#utility.yul\":1322:1344   */\n      add\n        /* \"#utility.yul\":1301:1354   */\n      tag_259\n      jump\t// in\n    tag_401:\n        /* \"#utility.yul\":1291:1354   */\n      swap2\n      pop\n        /* \"#utility.yul\":1247:1364   */\n      pop\n        /* \"#utility.yul\":1042:1371   */\n      swap3\n      swap2\n      pop\n      pop\n      jump\t// out\n        /* \"#utility.yul\":1377:1503   */\n    tag_260:\n        /* \"#utility.yul\":1414:1421   */\n      0x00\n        /* \"#utility.yul\":1454:1496   */\n      0xffffffffffffffffffffffffffffffffffffffff\n        /* \"#utility.yul\":1447:1452   */\n      dup3\n        /* \"#utility.yul\":1443:1497   */\n      and\n        /* \"#utility.yul\":1432:1497   */\n      swap1\n      pop\n        /* \"#utility.yul\":1377:1503   */\n      swap2\n      swap1\n      pop\n      jump\t// out\n        /* \"#utility.yul\":1509:1605   */\n    tag_261:\n        /* \"#utility.yul\":1546:1553   */\n      0x00\n        /* \"#utility.yul\":1575:1599   */\n      tag_404\n        /* \"#utility.yul\":1593:1598   */\n      dup3\n        /* \"#utility.yul\":1575:1599   */\n      tag_260\n      jump\t// in\n    tag_404:\n        /* \"#utility.yul\":1564:1599   */\n      swap1\n      pop\n        /* \"#utility.yul\":1509:1605   */\n      swap2\n      swap1\n      pop\n      jump\t// out\n        /* \"#utility.yul\":1611:1729   */\n    tag_262:\n        /* \"#utility.yul\":1698:1722   */\n      tag_406\n        /* \"#utility.yul\":1716:1721   */\n      dup2\n        /* \"#utility.yul\":1698:1722   */\n      tag_261\n      jump\t// in\n    tag_406:\n        /* \"#utility.yul\":1693:1696   */\n      dup3\n        /* \"#utility.yul\":1686:1723   */\n      mstore\n        /* \"#utility.yul\":1611:1729   */\n      pop\n      pop\n      jump\t// out\n        /* \"#utility.yul\":1735:1957   */\n    tag_31:\n        /* \"#utility.yul\":1828:1832   */\n      0x00\n        /* \"#utility.yul\":1866:1868   */\n      0x20\n        /* \"#utility.yul\":1855:1864   */\n      dup3\n        /* \"#utility.yul\":1851:1869   */\n      add\n        /* \"#utility.yul\":1843:1869   */\n      swap1\n      pop\n        /* \"#utility.yul\":1879:1950   */\n      tag_408\n        /* \"#utility.yul\":1947:1948   */\n      0x00\n        /* \"#utility.yul\":1936:1945   */\n      dup4\n        /* \"#utility.yul\":1932:1949   */\n      add\n        /* \"#utility.yul\":1923:1929   */\n      dup5\n        /* \"#utility.yul\":1879:1950   */\n      tag_262\n      jump\t// in\n    tag_408:\n        /* \"#utility.yul\":1735:1957   */\n      swap3\n      swap2\n      pop\n      pop\n      jump\t// out\n        /* \"#utility.yul\":1963:2085   */\n    tag_263:\n        /* \"#utility.yul\":2036:2060   */\n      tag_410\n        /* \"#utility.yul\":2054:2059   */\n      dup2\n        /* \"#utility.yul\":2036:2060   */\n      tag_261\n      jump\t// in\n    tag_410:\n        /* \"#utility.yul\":2029:2034   */\n      dup2\n        /* \"#utility.yul\":2026:2061   */\n      eq\n        /* \"#utility.yul\":2016:2079   */\n      tag_411\n      jumpi\n        /* \"#utility.yul\":2075:2076   */\n      0x00\n        /* \"#utility.yul\":2072:2073   */\n      dup1\n        /* \"#utility.yul\":2065:2077   */\n      revert\n        /* \"#utility.yul\":2016:2079   */\n    tag_411:\n        /* \"#utility.yul\":1963:2085   */\n      pop\n      jump\t// out\n        /* \"#utility.yul\":2091:2230   */\n    tag_264:\n        /* \"#utility.yul\":2137:2142   */\n      0x00\n        /* \"#utility.yul\":2175:2181   */\n      dup2\n        /* \"#utility.yul\":2162:2182   */\n      calldataload\n        /* \"#utility.yul\":2153:2182   */\n      swap1\n      pop\n        /* \"#utility.yul\":2191:2224   */\n      tag_413\n        /* \"#utility.yul\":2218:2223   */\n      dup2\n        /* \"#utility.yul\":2191:2224   */\n      tag_263\n      jump\t// in\n    tag_413:\n        /* \"#utility.yul\":2091:2230   */\n      swap3\n      swap2\n      pop\n      pop\n      jump\t// out\n        /* \"#utility.yul\":2236:2337   */\n    tag_265:\n        /* \"#utility.yul\":2272:2279   */\n      0x00\n        /* \"#utility.yul\":2312:2330   */\n      0xffffffffffffffff\n        /* \"#utility.yul\":2305:2310   */\n      dup3\n        /* \"#utility.yul\":2301:2331   */\n      and\n        /* \"#utility.yul\":2290:2331   */\n      swap1\n      pop\n        /* \"#utility.yul\":2236:2337   */\n      swap2\n      swap1\n      pop\n      jump\t// out\n        /* \"#utility.yul\":2343:2463   */\n    tag_266:\n        /* \"#utility.yul\":2415:2438   */\n      tag_416\n        /* \"#utility.yul\":2432:2437   */\n      dup2\n        /* \"#utility.yul\":2415:2438   */\n      tag_265\n      jump\t// in\n    tag_416:\n        /* \"#utility.yul\":2408:2413   */\n      dup2\n        /* \"#utility.yul\":2405:2439   */\n      eq\n        /* \"#utility.yul\":2395:2457   */\n      tag_417\n      jumpi\n        /* \"#utility.yul\":2453:2454   */\n      0x00\n        /* \"#utility.yul\":2450:2451   */\n      dup1\n        /* \"#utility.yul\":2443:2455   */\n      revert\n        /* \"#utility.yul\":2395:2457   */\n    tag_417:\n        /* \"#utility.yul\":2343:2463   */\n      pop\n      jump\t// out\n        /* \"#utility.yul\":2469:2606   */\n    tag_267:\n        /* \"#utility.yul\":2514:2519   */\n      0x00\n        /* \"#utility.yul\":2552:2558   */\n      dup2\n        /* \"#utility.yul\":2539:2559   */\n      calldataload\n        /* \"#utility.yul\":2530:2559   */\n      swap1\n      pop\n        /* \"#utility.yul\":2568:2600   */\n      tag_419\n        /* \"#utility.yul\":2594:2599   */\n      dup2\n        /* \"#utility.yul\":2568:2600   */\n      tag_266\n      jump\t// in\n    tag_419:\n        /* \"#utility.yul\":2469:2606   */\n      swap3\n      swap2\n      pop\n      pop\n      jump\t// out\n        /* \"#utility.yul\":2612:3084   */\n    tag_34:\n        /* \"#utility.yul\":2679:2685   */\n      0x00\n        /* \"#utility.yul\":2687:2693   */\n      dup1\n        /* \"#utility.yul\":2736:2738   */\n      0x40\n        /* \"#utility.yul\":2724:2733   */\n      dup4\n        /* \"#utility.yul\":2715:2722   */\n      dup6\n        /* \"#utility.yul\":2711:2734   */\n      sub\n        /* \"#utility.yul\":2707:2739   */\n      slt\n        /* \"#utility.yul\":2704:2823   */\n      iszero\n      tag_421\n      jumpi\n        /* \"#utility.yul\":2742:2821   */\n      tag_422\n      tag_256\n      jump\t// in\n    tag_422:\n        /* \"#utility.yul\":2704:2823   */\n    tag_421:\n        /* \"#utility.yul\":2862:2863   */\n      0x00\n        /* \"#utility.yul\":2887:2940   */\n      tag_423\n        /* \"#utility.yul\":2932:2939   */\n      dup6\n        /* \"#utility.yul\":2923:2929   */\n      dup3\n        /* \"#utility.yul\":2912:2921   */\n      dup7\n        /* \"#utility.yul\":2908:2930   */\n      add\n        /* \"#utility.yul\":2887:2940   */\n      tag_264\n      jump\t// in\n    tag_423:\n        /* \"#utility.yul\":2877:2940   */\n      swap3\n      pop\n        /* \"#utility.yul\":2833:2950   */\n      pop\n        /* \"#utility.yul\":2989:2991   */\n      0x20\n        /* \"#utility.yul\":3015:3067   */\n      tag_424\n        /* \"#utility.yul\":3059:3066   */\n      dup6\n        /* \"#utility.yul\":3050:3056   */\n      dup3\n        /* \"#utility.yul\":3039:3048   */\n      dup7\n        /* \"#utility.yul\":3035:3057   */\n      add\n        /* \"#utility.yul\":3015:3067   */\n      tag_267\n      jump\t// in\n    tag_424:\n        /* \"#utility.yul\":3005:3067   */\n      swap2\n      pop\n        /* \"#utility.yul\":2960:3077   */\n      pop\n        /* \"#utility.yul\":2612:3084   */\n      swap3\n      pop\n      swap3\n      swap1\n      pop\n      jump\t// out\n        /* \"#utility.yul\":3090:3180   */\n    tag_268:\n        /* \"#utility.yul\":3124:3131   */\n      0x00\n        /* \"#utility.yul\":3167:3172   */\n      dup2\n        /* \"#utility.yul\":3160:3173   */\n      iszero\n        /* \"#utility.yul\":3153:3174   */\n      iszero\n        /* \"#utility.yul\":3142:3174   */\n      swap1\n      pop\n        /* \"#utility.yul\":3090:3180   */\n      swap2\n      swap1\n      pop\n      jump\t// out\n        /* \"#utility.yul\":3186:3295   */\n    tag_269:\n        /* \"#utility.yul\":3267:3288   */\n      tag_427\n        /* \"#utility.yul\":3282:3287   */\n      dup2\n        /* \"#utility.yul\":3267:3288   */\n      tag_268\n      jump\t// in\n    tag_427:\n        /* \"#utility.yul\":3262:3265   */\n      dup3\n        /* \"#utility.yul\":3255:3289   */\n      mstore\n        /* \"#utility.yul\":3186:3295   */\n      pop\n      pop\n      jump\t// out\n        /* \"#utility.yul\":3301:3511   */\n    tag_37:\n        /* \"#utility.yul\":3388:3392   */\n      0x00\n        /* \"#utility.yul\":3426:3428   */\n      0x20\n        /* \"#utility.yul\":3415:3424   */\n      dup3\n        /* \"#utility.yul\":3411:3429   */\n      add\n        /* \"#utility.yul\":3403:3429   */\n      swap1\n      pop\n        /* \"#utility.yul\":3439:3504   */\n      tag_429\n        /* \"#utility.yul\":3501:3502   */\n      0x00\n        /* \"#utility.yul\":3490:3499   */\n      dup4\n        /* \"#utility.yul\":3486:3503   */\n      add\n        /* \"#utility.yul\":3477:3483   */\n      dup5\n        /* \"#utility.yul\":3439:3504   */\n      tag_269\n      jump\t// in\n    tag_429:\n        /* \"#utility.yul\":3301:3511   */\n      swap3\n      swap2\n      pop\n      pop\n      jump\t// out\n        /* \"#utility.yul\":3517:3991   */\n    tag_40:\n        /* \"#utility.yul\":3585:3591   */\n      0x00\n        /* \"#utility.yul\":3593:3599   */\n      dup1\n        /* \"#utility.yul\":3642:3644   */\n      0x40\n        /* \"#utility.yul\":3630:3639   */\n      dup4\n        /* \"#utility.yul\":3621:3628   */\n      dup6\n        /* \"#utility.yul\":3617:3640   */\n      sub\n        /* \"#utility.yul\":3613:3645   */\n      slt\n        /* \"#utility.yul\":3610:3729   */\n      iszero\n      tag_431\n      jumpi\n        /* \"#utility.yul\":3648:3727   */\n      tag_432\n      tag_256\n      jump\t// in\n    tag_432:\n        /* \"#utility.yul\":3610:3729   */\n    tag_431:\n        /* \"#utility.yul\":3768:3769   */\n      0x00\n        /* \"#utility.yul\":3793:3846   */\n      tag_433\n        /* \"#utility.yul\":3838:3845   */\n      dup6\n        /* \"#utility.yul\":3829:3835   */\n      dup3\n        /* \"#utility.yul\":3818:3827   */\n      dup7\n        /* \"#utility.yul\":3814:3836   */\n      add\n        /* \"#utility.yul\":3793:3846   */\n      tag_259\n      jump\t// in\n    tag_433:\n        /* \"#utility.yul\":3783:3846   */\n      swap3\n      pop\n        /* \"#utility.yul\":3739:3856   */\n      pop\n        /* \"#utility.yul\":3895:3897   */\n      0x20\n        /* \"#utility.yul\":3921:3974   */\n      tag_434\n        /* \"#utility.yul\":3966:3973   */\n      dup6\n        /* \"#utility.yul\":3957:3963   */\n      dup3\n        /* \"#utility.yul\":3946:3955   */\n      dup7\n        /* \"#utility.yul\":3942:3964   */\n      add\n        /* \"#utility.yul\":3921:3974   */\n      tag_259\n      jump\t// in\n    tag_434:\n        /* \"#utility.yul\":3911:3974   */\n      swap2\n      pop\n        /* \"#utility.yul\":3866:3984   */\n      pop\n        /* \"#utility.yul\":3517:3991   */\n      swap3\n      pop\n      swap3\n      swap1\n      pop\n      jump\t// out\n        /* \"#utility.yul\":3997:4137   */\n    tag_270:\n        /* \"#utility.yul\":4090:4096   */\n      0x00\n        /* \"#utility.yul\":4124:4129   */\n      dup2\n        /* \"#utility.yul\":4118:4130   */\n      mload\n        /* \"#utility.yul\":4108:4130   */\n      swap1\n      pop\n        /* \"#utility.yul\":3997:4137   */\n      swap2\n      swap1\n      pop\n      jump\t// out\n        /* \"#utility.yul\":4143:4353   */\n    tag_271:\n        /* \"#utility.yul\":4268:4279   */\n      0x00\n        /* \"#utility.yul\":4302:4308   */\n      dup3\n        /* \"#utility.yul\":4297:4300   */\n      dup3\n        /* \"#utility.yul\":4290:4309   */\n      mstore\n        /* \"#utility.yul\":4342:4346   */\n      0x20\n        /* \"#utility.yul\":4337:4340   */\n      dup3\n        /* \"#utility.yul\":4333:4347   */\n      add\n        /* \"#utility.yul\":4318:4347   */\n      swap1\n      pop\n        /* \"#utility.yul\":4143:4353   */\n      swap3\n      swap2\n      pop\n      pop\n      jump\t// out\n        /* \"#utility.yul\":4359:4517   */\n    tag_272:\n        /* \"#utility.yul\":4452:4456   */\n      0x00\n        /* \"#utility.yul\":4475:4478   */\n      dup2\n        /* \"#utility.yul\":4467:4478   */\n      swap1\n      pop\n        /* \"#utility.yul\":4505:4509   */\n      0x20\n        /* \"#utility.yul\":4500:4503   */\n      dup3\n        /* \"#utility.yul\":4496:4510   */\n      add\n        /* \"#utility.yul\":4488:4510   */\n      swap1\n      pop\n        /* \"#utility.yul\":4359:4517   */\n      swap2\n      swap1\n      pop\n      jump\t// out\n        /* \"#utility.yul\":4523:4622   */\n    tag_273:\n        /* \"#utility.yul\":4575:4581   */\n      0x00\n        /* \"#utility.yul\":4609:4614   */\n      dup2\n        /* \"#utility.yul\":4603:4615   */\n      mload\n        /* \"#utility.yul\":4593:4615   */\n      swap1\n      pop\n        /* \"#utility.yul\":4523:4622   */\n      swap2\n      swap1\n      pop\n      jump\t// out\n        /* \"#utility.yul\":4628:4787   */\n    tag_274:\n        /* \"#utility.yul\":4702:4713   */\n      0x00\n        /* \"#utility.yul\":4736:4742   */\n      dup3\n        /* \"#utility.yul\":4731:4734   */\n      dup3\n        /* \"#utility.yul\":4724:4743   */\n      mstore\n        /* \"#utility.yul\":4776:4780   */\n      0x20\n        /* \"#utility.yul\":4771:4774   */\n      dup3\n        /* \"#utility.yul\":4767:4781   */\n      add\n        /* \"#utility.yul\":4752:4781   */\n      swap1\n      pop\n        /* \"#utility.yul\":4628:4787   */\n      swap3\n      swap2\n      pop\n      pop\n      jump\t// out\n        /* \"#utility.yul\":4793:5039   */\n    tag_275:\n        /* \"#utility.yul\":4874:4875   */\n      0x00\n        /* \"#utility.yul\":4884:4997   */\n    tag_441:\n        /* \"#utility.yul\":4898:4904   */\n      dup4\n        /* \"#utility.yul\":4895:4896   */\n      dup2\n        /* \"#utility.yul\":4892:4905   */\n      lt\n        /* \"#utility.yul\":4884:4997   */\n      iszero\n      tag_443\n      jumpi\n        /* \"#utility.yul\":4983:4984   */\n      dup1\n        /* \"#utility.yul\":4978:4981   */\n      dup3\n        /* \"#utility.yul\":4974:4985   */\n      add\n        /* \"#utility.yul\":4968:4986   */\n      mload\n        /* \"#utility.yul\":4964:4965   */\n      dup2\n        /* \"#utility.yul\":4959:4962   */\n      dup5\n        /* \"#utility.yul\":4955:4966   */\n      add\n        /* \"#utility.yul\":4948:4987   */\n      mstore\n        /* \"#utility.yul\":4920:4922   */\n      0x20\n        /* \"#utility.yul\":4917:4918   */\n      dup2\n        /* \"#utility.yul\":4913:4923   */\n      add\n        /* \"#utility.yul\":4908:4923   */\n      swap1\n      pop\n        /* \"#utility.yul\":4884:4997   */\n      jump(tag_441)\n    tag_443:\n        /* \"#utility.yul\":5031:5032   */\n      0x00\n        /* \"#utility.yul\":5022:5028   */\n      dup5\n        /* \"#utility.yul\":5017:5020   */\n      dup5\n        /* \"#utility.yul\":5013:5029   */\n      add\n        /* \"#utility.yul\":5006:5033   */\n      mstore\n        /* \"#utility.yul\":4855:5039   */\n      pop\n        /* \"#utility.yul\":4793:5039   */\n      pop\n      pop\n      pop\n      jump\t// out\n        /* \"#utility.yul\":5045:5147   */\n    tag_276:\n        /* \"#utility.yul\":5086:5092   */\n      0x00\n        /* \"#utility.yul\":5137:5139   */\n      0x1f\n        /* \"#utility.yul\":5133:5140   */\n      not\n        /* \"#utility.yul\":5128:5130   */\n      0x1f\n        /* \"#utility.yul\":5121:5126   */\n      dup4\n        /* \"#utility.yul\":5117:5131   */\n      add\n        /* \"#utility.yul\":5113:5141   */\n      and\n        /* \"#utility.yul\":5103:5141   */\n      swap1\n      pop\n        /* \"#utility.yul\":5045:5147   */\n      swap2\n      swap1\n      pop\n      jump\t// out\n        /* \"#utility.yul\":5153:5510   */\n    tag_277:\n        /* \"#utility.yul\":5231:5234   */\n      0x00\n        /* \"#utility.yul\":5259:5298   */\n      tag_446\n        /* \"#utility.yul\":5292:5297   */\n      dup3\n        /* \"#utility.yul\":5259:5298   */\n      tag_273\n      jump\t// in\n    tag_446:\n        /* \"#utility.yul\":5314:5375   */\n      tag_447\n        /* \"#utility.yul\":5368:5374   */\n      dup2\n        /* \"#utility.yul\":5363:5366   */\n      dup6\n        /* \"#utility.yul\":5314:5375   */\n      tag_274\n      jump\t// in\n    tag_447:\n        /* \"#utility.yul\":5307:5375   */\n      swap4\n      pop\n        /* \"#utility.yul\":5384:5449   */\n      tag_448\n        /* \"#utility.yul\":5442:5448   */\n      dup2\n        /* \"#utility.yul\":5437:5440   */\n      dup6\n        /* \"#utility.yul\":5430:5434   */\n      0x20\n        /* \"#utility.yul\":5423:5428   */\n      dup7\n        /* \"#utility.yul\":5419:5435   */\n      add\n        /* \"#utility.yul\":5384:5449   */\n      tag_275\n      jump\t// in\n    tag_448:\n        /* \"#utility.yul\":5474:5503   */\n      tag_449\n        /* \"#utility.yul\":5496:5502   */\n      dup2\n        /* \"#utility.yul\":5474:5503   */\n      tag_276\n      jump\t// in\n    tag_449:\n        /* \"#utility.yul\":5469:5472   */\n      dup5\n        /* \"#utility.yul\":5465:5504   */\n      add\n        /* \"#utility.yul\":5458:5504   */\n      swap2\n      pop\n        /* \"#utility.yul\":5235:5510   */\n      pop\n        /* \"#utility.yul\":5153:5510   */\n      swap3\n      swap2\n      pop\n      pop\n      jump\t// out\n        /* \"#utility.yul\":5516:5576   */\n    tag_278:\n        /* \"#utility.yul\":5544:5547   */\n      0x00\n        /* \"#utility.yul\":5565:5570   */\n      dup2\n        /* \"#utility.yul\":5558:5570   */\n      swap1\n      pop\n        /* \"#utility.yul\":5516:5576   */\n      swap2\n      swap1\n      pop\n      jump\t// out\n        /* \"#utility.yul\":5582:5724   */\n    tag_279:\n        /* \"#utility.yul\":5632:5641   */\n      0x00\n        /* \"#utility.yul\":5665:5718   */\n      tag_452\n        /* \"#utility.yul\":5683:5717   */\n      tag_453\n        /* \"#utility.yul\":5692:5716   */\n      tag_454\n        /* \"#utility.yul\":5710:5715   */\n      dup5\n        /* \"#utility.yul\":5692:5716   */\n      tag_260\n      jump\t// in\n    tag_454:\n        /* \"#utility.yul\":5683:5717   */\n      tag_278\n      jump\t// in\n    tag_453:\n        /* \"#utility.yul\":5665:5718   */\n      tag_260\n      jump\t// in\n    tag_452:\n        /* \"#utility.yul\":5652:5718   */\n      swap1\n      pop\n        /* \"#utility.yul\":5582:5724   */\n      swap2\n      swap1\n      pop\n      jump\t// out\n        /* \"#utility.yul\":5730:5856   */\n    tag_280:\n        /* \"#utility.yul\":5780:5789   */\n      0x00\n        /* \"#utility.yul\":5813:5850   */\n      tag_456\n        /* \"#utility.yul\":5844:5849   */\n      dup3\n        /* \"#utility.yul\":5813:5850   */\n      tag_279\n      jump\t// in\n    tag_456:\n        /* \"#utility.yul\":5800:5850   */\n      swap1\n      pop\n        /* \"#utility.yul\":5730:5856   */\n      swap2\n      swap1\n      pop\n      jump\t// out\n        /* \"#utility.yul\":5862:6012   */\n    tag_281:\n        /* \"#utility.yul\":5936:5945   */\n      0x00\n        /* \"#utility.yul\":5969:6006   */\n      tag_458\n        /* \"#utility.yul\":6000:6005   */\n      dup3\n        /* \"#utility.yul\":5969:6006   */\n      tag_280\n      jump\t// in\n    tag_458:\n        /* \"#utility.yul\":5956:6006   */\n      swap1\n      pop\n        /* \"#utility.yul\":5862:6012   */\n      swap2\n      swap1\n      pop\n      jump\t// out\n        /* \"#utility.yul\":6018:6187   */\n    tag_282:\n        /* \"#utility.yul\":6119:6180   */\n      tag_460\n        /* \"#utility.yul\":6174:6179   */\n      dup2\n        /* \"#utility.yul\":6119:6180   */\n      tag_281\n      jump\t// in\n    tag_460:\n        /* \"#utility.yul\":6114:6117   */\n      dup3\n        /* \"#utility.yul\":6107:6181   */\n      mstore\n        /* \"#utility.yul\":6018:6187   */\n      pop\n      pop\n      jump\t// out\n        /* \"#utility.yul\":6193:6291   */\n    tag_283:\n        /* \"#utility.yul\":6244:6250   */\n      0x00\n        /* \"#utility.yul\":6278:6283   */\n      dup2\n        /* \"#utility.yul\":6272:6284   */\n      mload\n        /* \"#utility.yul\":6262:6284   */\n      swap1\n      pop\n        /* \"#utility.yul\":6193:6291   */\n      swap2\n      swap1\n      pop\n      jump\t// out\n        /* \"#utility.yul\":6297:6455   */\n    tag_284:\n        /* \"#utility.yul\":6370:6381   */\n      0x00\n        /* \"#utility.yul\":6404:6410   */\n      dup3\n        /* \"#utility.yul\":6399:6402   */\n      dup3\n        /* \"#utility.yul\":6392:6411   */\n      mstore\n        /* \"#utility.yul\":6444:6448   */\n      0x20\n        /* \"#utility.yul\":6439:6442   */\n      dup3\n        /* \"#utility.yul\":6435:6449   */\n      add\n        /* \"#utility.yul\":6420:6449   */\n      swap1\n      pop\n        /* \"#utility.yul\":6297:6455   */\n      swap3\n      swap2\n      pop\n      pop\n      jump\t// out\n        /* \"#utility.yul\":6461:6814   */\n    tag_285:\n        /* \"#utility.yul\":6537:6540   */\n      0x00\n        /* \"#utility.yul\":6565:6603   */\n      tag_464\n        /* \"#utility.yul\":6597:6602   */\n      dup3\n        /* \"#utility.yul\":6565:6603   */\n      tag_283\n      jump\t// in\n    tag_464:\n        /* \"#utility.yul\":6619:6679   */\n      tag_465\n        /* \"#utility.yul\":6672:6678   */\n      dup2\n        /* \"#utility.yul\":6667:6670   */\n      dup6\n        /* \"#utility.yul\":6619:6679   */\n      tag_284\n      jump\t// in\n    tag_465:\n        /* \"#utility.yul\":6612:6679   */\n      swap4\n      pop\n        /* \"#utility.yul\":6688:6753   */\n      tag_466\n        /* \"#utility.yul\":6746:6752   */\n      dup2\n        /* \"#utility.yul\":6741:6744   */\n      dup6\n        /* \"#utility.yul\":6734:6738   */\n      0x20\n        /* \"#utility.yul\":6727:6732   */\n      dup7\n        /* \"#utility.yul\":6723:6739   */\n      add\n        /* \"#utility.yul\":6688:6753   */\n      tag_275\n      jump\t// in\n    tag_466:\n        /* \"#utility.yul\":6778:6807   */\n      tag_467\n        /* \"#utility.yul\":6800:6806   */\n      dup2\n        /* \"#utility.yul\":6778:6807   */\n      tag_276\n      jump\t// in\n    tag_467:\n        /* \"#utility.yul\":6773:6776   */\n      dup5\n        /* \"#utility.yul\":6769:6808   */\n      add\n        /* \"#utility.yul\":6762:6808   */\n      swap2\n      pop\n        /* \"#utility.yul\":6541:6814   */\n      pop\n        /* \"#utility.yul\":6461:6814   */\n      swap3\n      swap2\n      pop\n      pop\n      jump\t// out\n        /* \"#utility.yul\":6892:7766   */\n    tag_286:\n        /* \"#utility.yul\":7003:7006   */\n      0x00\n        /* \"#utility.yul\":7039:7043   */\n      0x60\n        /* \"#utility.yul\":7034:7037   */\n      dup4\n        /* \"#utility.yul\":7030:7044   */\n      add\n        /* \"#utility.yul\":7130:7134   */\n      0x00\n        /* \"#utility.yul\":7123:7128   */\n      dup4\n        /* \"#utility.yul\":7119:7135   */\n      add\n        /* \"#utility.yul\":7113:7136   */\n      mload\n        /* \"#utility.yul\":7183:7186   */\n      dup5\n        /* \"#utility.yul\":7177:7181   */\n      dup3\n        /* \"#utility.yul\":7173:7187   */\n      sub\n        /* \"#utility.yul\":7166:7170   */\n      0x00\n        /* \"#utility.yul\":7161:7164   */\n      dup7\n        /* \"#utility.yul\":7157:7171   */\n      add\n        /* \"#utility.yul\":7150:7188   */\n      mstore\n        /* \"#utility.yul\":7209:7282   */\n      tag_469\n        /* \"#utility.yul\":7277:7281   */\n      dup3\n        /* \"#utility.yul\":7263:7275   */\n      dup3\n        /* \"#utility.yul\":7209:7282   */\n      tag_277\n      jump\t// in\n    tag_469:\n        /* \"#utility.yul\":7201:7282   */\n      swap2\n      pop\n        /* \"#utility.yul\":7054:7293   */\n      pop\n        /* \"#utility.yul\":7380:7384   */\n      0x20\n        /* \"#utility.yul\":7373:7378   */\n      dup4\n        /* \"#utility.yul\":7369:7385   */\n      add\n        /* \"#utility.yul\":7363:7386   */\n      mload\n        /* \"#utility.yul\":7399:7486   */\n      tag_470\n        /* \"#utility.yul\":7480:7484   */\n      0x20\n        /* \"#utility.yul\":7475:7478   */\n      dup7\n        /* \"#utility.yul\":7471:7485   */\n      add\n        /* \"#utility.yul\":7457:7469   */\n      dup3\n        /* \"#utility.yul\":7399:7486   */\n      tag_282\n      jump\t// in\n    tag_470:\n        /* \"#utility.yul\":7303:7496   */\n      pop\n        /* \"#utility.yul\":7578:7582   */\n      0x40\n        /* \"#utility.yul\":7571:7576   */\n      dup4\n        /* \"#utility.yul\":7567:7583   */\n      add\n        /* \"#utility.yul\":7561:7584   */\n      mload\n        /* \"#utility.yul\":7631:7634   */\n      dup5\n        /* \"#utility.yul\":7625:7629   */\n      dup3\n        /* \"#utility.yul\":7621:7635   */\n      sub\n        /* \"#utility.yul\":7614:7618   */\n      0x40\n        /* \"#utility.yul\":7609:7612   */\n      dup7\n        /* \"#utility.yul\":7605:7619   */\n      add\n        /* \"#utility.yul\":7598:7636   */\n      mstore\n        /* \"#utility.yul\":7657:7728   */\n      tag_471\n        /* \"#utility.yul\":7723:7727   */\n      dup3\n        /* \"#utility.yul\":7709:7721   */\n      dup3\n        /* \"#utility.yul\":7657:7728   */\n      tag_285\n      jump\t// in\n    tag_471:\n        /* \"#utility.yul\":7649:7728   */\n      swap2\n      pop\n        /* \"#utility.yul\":7506:7739   */\n      pop\n        /* \"#utility.yul\":7756:7760   */\n      dup1\n        /* \"#utility.yul\":7749:7760   */\n      swap2\n      pop\n        /* \"#utility.yul\":7008:7766   */\n      pop\n        /* \"#utility.yul\":6892:7766   */\n      swap3\n      swap2\n      pop\n      pop\n      jump\t// out\n        /* \"#utility.yul\":7772:8032   */\n    tag_287:\n        /* \"#utility.yul\":7893:7903   */\n      0x00\n        /* \"#utility.yul\":7928:8026   */\n      tag_473\n        /* \"#utility.yul\":8022:8025   */\n      dup4\n        /* \"#utility.yul\":8014:8020   */\n      dup4\n        /* \"#utility.yul\":7928:8026   */\n      tag_286\n      jump\t// in\n    tag_473:\n        /* \"#utility.yul\":7914:8026   */\n      swap1\n      pop\n        /* \"#utility.yul\":7772:8032   */\n      swap3\n      swap2\n      pop\n      pop\n      jump\t// out\n        /* \"#utility.yul\":8038:8177   */\n    tag_288:\n        /* \"#utility.yul\":8134:8138   */\n      0x00\n        /* \"#utility.yul\":8166:8170   */\n      0x20\n        /* \"#utility.yul\":8161:8164   */\n      dup3\n        /* \"#utility.yul\":8157:8171   */\n      add\n        /* \"#utility.yul\":8149:8171   */\n      swap1\n      pop\n        /* \"#utility.yul\":8038:8177   */\n      swap2\n      swap1\n      pop\n      jump\t// out\n        /* \"#utility.yul\":8259:9378   */\n    tag_289:\n        /* \"#utility.yul\":8430:8433   */\n      0x00\n        /* \"#utility.yul\":8459:8539   */\n      tag_476\n        /* \"#utility.yul\":8533:8538   */\n      dup3\n        /* \"#utility.yul\":8459:8539   */\n      tag_270\n      jump\t// in\n    tag_476:\n        /* \"#utility.yul\":8555:8667   */\n      tag_477\n        /* \"#utility.yul\":8660:8666   */\n      dup2\n        /* \"#utility.yul\":8655:8658   */\n      dup6\n        /* \"#utility.yul\":8555:8667   */\n      tag_271\n      jump\t// in\n    tag_477:\n        /* \"#utility.yul\":8548:8667   */\n      swap4\n      pop\n        /* \"#utility.yul\":8693:8696   */\n      dup4\n        /* \"#utility.yul\":8738:8742   */\n      0x20\n        /* \"#utility.yul\":8730:8736   */\n      dup3\n        /* \"#utility.yul\":8726:8743   */\n      mul\n        /* \"#utility.yul\":8721:8724   */\n      dup6\n        /* \"#utility.yul\":8717:8744   */\n      add\n        /* \"#utility.yul\":8768:8850   */\n      tag_478\n        /* \"#utility.yul\":8844:8849   */\n      dup6\n        /* \"#utility.yul\":8768:8850   */\n      tag_272\n      jump\t// in\n    tag_478:\n        /* \"#utility.yul\":8873:8880   */\n      dup1\n        /* \"#utility.yul\":8904:8905   */\n      0x00\n        /* \"#utility.yul\":8889:9333   */\n    tag_479:\n        /* \"#utility.yul\":8914:8920   */\n      dup6\n        /* \"#utility.yul\":8911:8912   */\n      dup2\n        /* \"#utility.yul\":8908:8921   */\n      lt\n        /* \"#utility.yul\":8889:9333   */\n      iszero\n      tag_481\n      jumpi\n        /* \"#utility.yul\":8985:8994   */\n      dup5\n        /* \"#utility.yul\":8979:8983   */\n      dup5\n        /* \"#utility.yul\":8975:8995   */\n      sub\n        /* \"#utility.yul\":8970:8973   */\n      dup10\n        /* \"#utility.yul\":8963:8996   */\n      mstore\n        /* \"#utility.yul\":9036:9042   */\n      dup2\n        /* \"#utility.yul\":9030:9043   */\n      mload\n        /* \"#utility.yul\":9064:9180   */\n      tag_482\n        /* \"#utility.yul\":9175:9179   */\n      dup6\n        /* \"#utility.yul\":9160:9173   */\n      dup3\n        /* \"#utility.yul\":9064:9180   */\n      tag_287\n      jump\t// in\n    tag_482:\n        /* \"#utility.yul\":9056:9180   */\n      swap5\n      pop\n        /* \"#utility.yul\":9203:9289   */\n      tag_483\n        /* \"#utility.yul\":9282:9288   */\n      dup4\n        /* \"#utility.yul\":9203:9289   */\n      tag_288\n      jump\t// in\n    tag_483:\n        /* \"#utility.yul\":9193:9289   */\n      swap3\n      pop\n        /* \"#utility.yul\":9318:9322   */\n      0x20\n        /* \"#utility.yul\":9313:9316   */\n      dup11\n        /* \"#utility.yul\":9309:9323   */\n      add\n        /* \"#utility.yul\":9302:9323   */\n      swap10\n      pop\n        /* \"#utility.yul\":8949:9333   */\n      pop\n        /* \"#utility.yul\":8936:8937   */\n      0x01\n        /* \"#utility.yul\":8933:8934   */\n      dup2\n        /* \"#utility.yul\":8929:8938   */\n      add\n        /* \"#utility.yul\":8924:8938   */\n      swap1\n      pop\n        /* \"#utility.yul\":8889:9333   */\n      jump(tag_479)\n    tag_481:\n        /* \"#utility.yul\":8893:8907   */\n      pop\n        /* \"#utility.yul\":9349:9353   */\n      dup3\n        /* \"#utility.yul\":9342:9353   */\n      swap8\n      pop\n        /* \"#utility.yul\":9369:9372   */\n      dup8\n        /* \"#utility.yul\":9362:9372   */\n      swap6\n      pop\n        /* \"#utility.yul\":8435:9378   */\n      pop\n      pop\n      pop\n      pop\n      pop\n        /* \"#utility.yul\":8259:9378   */\n      swap3\n      swap2\n      pop\n      pop\n      jump\t// out\n        /* \"#utility.yul\":9384:9861   */\n    tag_43:\n        /* \"#utility.yul\":9579:9583   */\n      0x00\n        /* \"#utility.yul\":9617:9619   */\n      0x20\n        /* \"#utility.yul\":9606:9615   */\n      dup3\n        /* \"#utility.yul\":9602:9620   */\n      add\n        /* \"#utility.yul\":9594:9620   */\n      swap1\n      pop\n        /* \"#utility.yul\":9666:9675   */\n      dup2\n        /* \"#utility.yul\":9660:9664   */\n      dup2\n        /* \"#utility.yul\":9656:9676   */\n      sub\n        /* \"#utility.yul\":9652:9653   */\n      0x00\n        /* \"#utility.yul\":9641:9650   */\n      dup4\n        /* \"#utility.yul\":9637:9654   */\n      add\n        /* \"#utility.yul\":9630:9677   */\n      mstore\n        /* \"#utility.yul\":9694:9854   */\n      tag_485\n        /* \"#utility.yul\":9849:9853   */\n      dup2\n        /* \"#utility.yul\":9840:9846   */\n      dup5\n        /* \"#utility.yul\":9694:9854   */\n      tag_289\n      jump\t// in\n    tag_485:\n        /* \"#utility.yul\":9686:9854   */\n      swap1\n      pop\n        /* \"#utility.yul\":9384:9861   */\n      swap3\n      swap2\n      pop\n      pop\n      jump\t// out\n        /* \"#utility.yul\":9867:10194   */\n    tag_49:\n        /* \"#utility.yul\":9925:9931   */\n      0x00\n        /* \"#utility.yul\":9974:9976   */\n      0x20\n        /* \"#utility.yul\":9962:9971   */\n      dup3\n        /* \"#utility.yul\":9953:9960   */\n      dup5\n        /* \"#utility.yul\":9949:9972   */\n      sub\n        /* \"#utility.yul\":9945:9977   */\n      slt\n        /* \"#utility.yul\":9942:10061   */\n      iszero\n      tag_487\n      jumpi\n        /* \"#utility.yul\":9980:10059   */\n      tag_488\n      tag_256\n      jump\t// in\n    tag_488:\n        /* \"#utility.yul\":9942:10061   */\n    tag_487:\n        /* \"#utility.yul\":10100:10101   */\n      0x00\n        /* \"#utility.yul\":10125:10177   */\n      tag_489\n        /* \"#utility.yul\":10169:10176   */\n      dup5\n        /* \"#utility.yul\":10160:10166   */\n      dup3\n        /* \"#utility.yul\":10149:10158   */\n      dup6\n        /* \"#utility.yul\":10145:10167   */\n      add\n        /* \"#utility.yul\":10125:10177   */\n      tag_267\n      jump\t// in\n    tag_489:\n        /* \"#utility.yul\":10115:10177   */\n      swap2\n      pop\n        /* \"#utility.yul\":10071:10187   */\n      pop\n        /* \"#utility.yul\":9867:10194   */\n      swap3\n      swap2\n      pop\n      pop\n      jump\t// out\n        /* \"#utility.yul\":10200:10317   */\n    tag_290:\n        /* \"#utility.yul\":10309:10310   */\n      0x00\n        /* \"#utility.yul\":10306:10307   */\n      dup1\n        /* \"#utility.yul\":10299:10311   */\n      revert\n        /* \"#utility.yul\":10361:10593   */\n    tag_291:\n        /* \"#utility.yul\":10435:10440   */\n      0x00\n        /* \"#utility.yul\":10476:10478   */\n      0x60\n        /* \"#utility.yul\":10467:10473   */\n      dup3\n        /* \"#utility.yul\":10462:10465   */\n      dup5\n        /* \"#utility.yul\":10458:10474   */\n      sub\n        /* \"#utility.yul\":10454:10479   */\n      slt\n        /* \"#utility.yul\":10451:10563   */\n      iszero\n      tag_492\n      jumpi\n        /* \"#utility.yul\":10482:10561   */\n      tag_493\n      tag_290\n      jump\t// in\n    tag_493:\n        /* \"#utility.yul\":10451:10563   */\n    tag_492:\n        /* \"#utility.yul\":10581:10587   */\n      dup2\n        /* \"#utility.yul\":10572:10587   */\n      swap1\n      pop\n        /* \"#utility.yul\":10361:10593   */\n      swap3\n      swap2\n      pop\n      pop\n      jump\t// out\n        /* \"#utility.yul\":10599:11287   */\n    tag_61:\n        /* \"#utility.yul\":10694:10700   */\n      0x00\n        /* \"#utility.yul\":10702:10708   */\n      dup1\n        /* \"#utility.yul\":10751:10753   */\n      0x40\n        /* \"#utility.yul\":10739:10748   */\n      dup4\n        /* \"#utility.yul\":10730:10737   */\n      dup6\n        /* \"#utility.yul\":10726:10749   */\n      sub\n        /* \"#utility.yul\":10722:10754   */\n      slt\n        /* \"#utility.yul\":10719:10838   */\n      iszero\n      tag_495\n      jumpi\n        /* \"#utility.yul\":10757:10836   */\n      tag_496\n      tag_256\n      jump\t// in\n    tag_496:\n        /* \"#utility.yul\":10719:10838   */\n    tag_495:\n        /* \"#utility.yul\":10877:10878   */\n      0x00\n        /* \"#utility.yul\":10902:10954   */\n      tag_497\n        /* \"#utility.yul\":10946:10953   */\n      dup6\n        /* \"#utility.yul\":10937:10943   */\n      dup3\n        /* \"#utility.yul\":10926:10935   */\n      dup7\n        /* \"#utility.yul\":10922:10944   */\n      add\n        /* \"#utility.yul\":10902:10954   */\n      tag_267\n      jump\t// in\n    tag_497:\n        /* \"#utility.yul\":10892:10954   */\n      swap3\n      pop\n        /* \"#utility.yul\":10848:10964   */\n      pop\n        /* \"#utility.yul\":11031:11033   */\n      0x20\n        /* \"#utility.yul\":11020:11029   */\n      dup4\n        /* \"#utility.yul\":11016:11034   */\n      add\n        /* \"#utility.yul\":11003:11035   */\n      calldataload\n        /* \"#utility.yul\":11062:11080   */\n      0xffffffffffffffff\n        /* \"#utility.yul\":11054:11060   */\n      dup2\n        /* \"#utility.yul\":11051:11081   */\n      gt\n        /* \"#utility.yul\":11048:11165   */\n      iszero\n      tag_498\n      jumpi\n        /* \"#utility.yul\":11084:11163   */\n      tag_499\n      tag_257\n      jump\t// in\n    tag_499:\n        /* \"#utility.yul\":11048:11165   */\n    tag_498:\n        /* \"#utility.yul\":11189:11270   */\n      tag_500\n        /* \"#utility.yul\":11262:11269   */\n      dup6\n        /* \"#utility.yul\":11253:11259   */\n      dup3\n        /* \"#utility.yul\":11242:11251   */\n      dup7\n        /* \"#utility.yul\":11238:11260   */\n      add\n        /* \"#utility.yul\":11189:11270   */\n      tag_291\n      jump\t// in\n    tag_500:\n        /* \"#utility.yul\":11179:11270   */\n      swap2\n      pop\n        /* \"#utility.yul\":10974:11280   */\n      pop\n        /* \"#utility.yul\":10599:11287   */\n      swap3\n      pop\n      swap3\n      swap1\n      pop\n      jump\t// out\n        /* \"#utility.yul\":11293:11410   */\n    tag_292:\n        /* \"#utility.yul\":11402:11403   */\n      0x00\n        /* \"#utility.yul\":11399:11400   */\n      dup1\n        /* \"#utility.yul\":11392:11404   */\n      revert\n        /* \"#utility.yul\":11416:11533   */\n    tag_293:\n        /* \"#utility.yul\":11525:11526   */\n      0x00\n        /* \"#utility.yul\":11522:11523   */\n      dup1\n        /* \"#utility.yul\":11515:11527   */\n      revert\n        /* \"#utility.yul\":11539:11656   */\n    tag_294:\n        /* \"#utility.yul\":11648:11649   */\n      0x00\n        /* \"#utility.yul\":11645:11646   */\n      dup1\n        /* \"#utility.yul\":11638:11650   */\n      revert\n        /* \"#utility.yul\":11679:12247   */\n    tag_295:\n        /* \"#utility.yul\":11752:11760   */\n      0x00\n        /* \"#utility.yul\":11762:11768   */\n      dup1\n        /* \"#utility.yul\":11812:11815   */\n      dup4\n        /* \"#utility.yul\":11805:11809   */\n      0x1f\n        /* \"#utility.yul\":11797:11803   */\n      dup5\n        /* \"#utility.yul\":11793:11810   */\n      add\n        /* \"#utility.yul\":11789:11816   */\n      slt\n        /* \"#utility.yul\":11779:11901   */\n      tag_505\n      jumpi\n        /* \"#utility.yul\":11820:11899   */\n      tag_506\n      tag_292\n      jump\t// in\n    tag_506:\n        /* \"#utility.yul\":11779:11901   */\n    tag_505:\n        /* \"#utility.yul\":11933:11939   */\n      dup3\n        /* \"#utility.yul\":11920:11940   */\n      calldataload\n        /* \"#utility.yul\":11910:11940   */\n      swap1\n      pop\n        /* \"#utility.yul\":11963:11981   */\n      0xffffffffffffffff\n        /* \"#utility.yul\":11955:11961   */\n      dup2\n        /* \"#utility.yul\":11952:11982   */\n      gt\n        /* \"#utility.yul\":11949:12066   */\n      iszero\n      tag_507\n      jumpi\n        /* \"#utility.yul\":11985:12064   */\n      tag_508\n      tag_293\n      jump\t// in\n    tag_508:\n        /* \"#utility.yul\":11949:12066   */\n    tag_507:\n        /* \"#utility.yul\":12099:12103   */\n      0x20\n        /* \"#utility.yul\":12091:12097   */\n      dup4\n        /* \"#utility.yul\":12087:12104   */\n      add\n        /* \"#utility.yul\":12075:12104   */\n      swap2\n      pop\n        /* \"#utility.yul\":12153:12156   */\n      dup4\n        /* \"#utility.yul\":12145:12149   */\n      0x20\n        /* \"#utility.yul\":12137:12143   */\n      dup3\n        /* \"#utility.yul\":12133:12150   */\n      mul\n        /* \"#utility.yul\":12123:12131   */\n      dup4\n        /* \"#utility.yul\":12119:12151   */\n      add\n        /* \"#utility.yul\":12116:12157   */\n      gt\n        /* \"#utility.yul\":12113:12241   */\n      iszero\n      tag_509\n      jumpi\n        /* \"#utility.yul\":12160:12239   */\n      tag_510\n      tag_294\n      jump\t// in\n    tag_510:\n        /* \"#utility.yul\":12113:12241   */\n    tag_509:\n        /* \"#utility.yul\":11679:12247   */\n      swap3\n      pop\n      swap3\n      swap1\n      pop\n      jump\t// out\n        /* \"#utility.yul\":12271:12520   */\n    tag_296:\n        /* \"#utility.yul\":12342:12350   */\n      0x00\n        /* \"#utility.yul\":12373:12379   */\n      dup2\n        /* \"#utility.yul\":12361:12379   */\n      swap1\n      pop\n        /* \"#utility.yul\":12426:12429   */\n      dup3\n        /* \"#utility.yul\":12418:12422   */\n      0x20\n        /* \"#utility.yul\":12412:12416   */\n      0x02\n        /* \"#utility.yul\":12408:12423   */\n      mul\n        /* \"#utility.yul\":12398:12406   */\n      dup3\n        /* \"#utility.yul\":12394:12424   */\n      add\n        /* \"#utility.yul\":12391:12430   */\n      gt\n        /* \"#utility.yul\":12388:12514   */\n      iszero\n      tag_512\n      jumpi\n        /* \"#utility.yul\":12433:12512   */\n      tag_513\n      tag_294\n      jump\t// in\n    tag_513:\n        /* \"#utility.yul\":12388:12514   */\n    tag_512:\n        /* \"#utility.yul\":12271:12520   */\n      swap3\n      swap2\n      pop\n      pop\n      jump\t// out\n        /* \"#utility.yul\":12547:12821   */\n    tag_297:\n        /* \"#utility.yul\":12643:12651   */\n      0x00\n        /* \"#utility.yul\":12674:12680   */\n      dup2\n        /* \"#utility.yul\":12662:12680   */\n      swap1\n      pop\n        /* \"#utility.yul\":12727:12730   */\n      dup3\n        /* \"#utility.yul\":12719:12723   */\n      0x40\n        /* \"#utility.yul\":12713:12717   */\n      0x02\n        /* \"#utility.yul\":12709:12724   */\n      mul\n        /* \"#utility.yul\":12699:12707   */\n      dup3\n        /* \"#utility.yul\":12695:12725   */\n      add\n        /* \"#utility.yul\":12692:12731   */\n      gt\n        /* \"#utility.yul\":12689:12815   */\n      iszero\n      tag_515\n      jumpi\n        /* \"#utility.yul\":12734:12813   */\n      tag_516\n      tag_294\n      jump\t// in\n    tag_516:\n        /* \"#utility.yul\":12689:12815   */\n    tag_515:\n        /* \"#utility.yul\":12547:12821   */\n      swap3\n      swap2\n      pop\n      pop\n      jump\t// out\n        /* \"#utility.yul\":12827:14167   */\n    tag_69:\n        /* \"#utility.yul\":13048:13054   */\n      0x00\n        /* \"#utility.yul\":13056:13062   */\n      dup1\n        /* \"#utility.yul\":13064:13070   */\n      0x00\n        /* \"#utility.yul\":13072:13078   */\n      dup1\n        /* \"#utility.yul\":13080:13086   */\n      0x00\n        /* \"#utility.yul\":13088:13094   */\n      dup1\n        /* \"#utility.yul\":13137:13140   */\n      0x0140\n        /* \"#utility.yul\":13125:13134   */\n      dup8\n        /* \"#utility.yul\":13116:13123   */\n      dup10\n        /* \"#utility.yul\":13112:13135   */\n      sub\n        /* \"#utility.yul\":13108:13141   */\n      slt\n        /* \"#utility.yul\":13105:13225   */\n      iszero\n      tag_518\n      jumpi\n        /* \"#utility.yul\":13144:13223   */\n      tag_519\n      tag_256\n      jump\t// in\n    tag_519:\n        /* \"#utility.yul\":13105:13225   */\n    tag_518:\n        /* \"#utility.yul\":13264:13265   */\n      0x00\n        /* \"#utility.yul\":13289:13341   */\n      tag_520\n        /* \"#utility.yul\":13333:13340   */\n      dup10\n        /* \"#utility.yul\":13324:13330   */\n      dup3\n        /* \"#utility.yul\":13313:13322   */\n      dup11\n        /* \"#utility.yul\":13309:13331   */\n      add\n        /* \"#utility.yul\":13289:13341   */\n      tag_267\n      jump\t// in\n    tag_520:\n        /* \"#utility.yul\":13279:13341   */\n      swap7\n      pop\n        /* \"#utility.yul\":13235:13351   */\n      pop\n        /* \"#utility.yul\":13418:13420   */\n      0x20\n        /* \"#utility.yul\":13407:13416   */\n      dup8\n        /* \"#utility.yul\":13403:13421   */\n      add\n        /* \"#utility.yul\":13390:13422   */\n      calldataload\n        /* \"#utility.yul\":13449:13467   */\n      0xffffffffffffffff\n        /* \"#utility.yul\":13441:13447   */\n      dup2\n        /* \"#utility.yul\":13438:13468   */\n      gt\n        /* \"#utility.yul\":13435:13552   */\n      iszero\n      tag_521\n      jumpi\n        /* \"#utility.yul\":13471:13550   */\n      tag_522\n      tag_257\n      jump\t// in\n    tag_522:\n        /* \"#utility.yul\":13435:13552   */\n    tag_521:\n        /* \"#utility.yul\":13584:13664   */\n      tag_523\n        /* \"#utility.yul\":13656:13663   */\n      dup10\n        /* \"#utility.yul\":13647:13653   */\n      dup3\n        /* \"#utility.yul\":13636:13645   */\n      dup11\n        /* \"#utility.yul\":13632:13654   */\n      add\n        /* \"#utility.yul\":13584:13664   */\n      tag_295\n      jump\t// in\n    tag_523:\n        /* \"#utility.yul\":13566:13664   */\n      swap6\n      pop\n      swap6\n      pop\n        /* \"#utility.yul\":13361:13674   */\n      pop\n        /* \"#utility.yul\":13713:13715   */\n      0x40\n        /* \"#utility.yul\":13739:13817   */\n      tag_524\n        /* \"#utility.yul\":13809:13816   */\n      dup10\n        /* \"#utility.yul\":13800:13806   */\n      dup3\n        /* \"#utility.yul\":13789:13798   */\n      dup11\n        /* \"#utility.yul\":13785:13807   */\n      add\n        /* \"#utility.yul\":13739:13817   */\n      tag_296\n      jump\t// in\n    tag_524:\n        /* \"#utility.yul\":13729:13817   */\n      swap4\n      pop\n        /* \"#utility.yul\":13684:13827   */\n      pop\n        /* \"#utility.yul\":13866:13869   */\n      0x80\n        /* \"#utility.yul\":13893:13996   */\n      tag_525\n        /* \"#utility.yul\":13988:13995   */\n      dup10\n        /* \"#utility.yul\":13979:13985   */\n      dup3\n        /* \"#utility.yul\":13968:13977   */\n      dup11\n        /* \"#utility.yul\":13964:13986   */\n      add\n        /* \"#utility.yul\":13893:13996   */\n      tag_297\n      jump\t// in\n    tag_525:\n        /* \"#utility.yul\":13883:13996   */\n      swap3\n      pop\n        /* \"#utility.yul\":13837:14006   */\n      pop\n        /* \"#utility.yul\":14045:14048   */\n      0x0100\n        /* \"#utility.yul\":14072:14150   */\n      tag_526\n        /* \"#utility.yul\":14142:14149   */\n      dup10\n        /* \"#utility.yul\":14133:14139   */\n      dup3\n        /* \"#utility.yul\":14122:14131   */\n      dup11\n        /* \"#utility.yul\":14118:14140   */\n      add\n        /* \"#utility.yul\":14072:14150   */\n      tag_296\n      jump\t// in\n    tag_526:\n        /* \"#utility.yul\":14062:14150   */\n      swap2\n      pop\n        /* \"#utility.yul\":14016:14160   */\n      pop\n        /* \"#utility.yul\":12827:14167   */\n      swap3\n      swap6\n      pop\n      swap3\n      swap6\n      pop\n      swap3\n      swap6\n      jump\t// out\n        /* \"#utility.yul\":14245:15129   */\n    tag_298:\n        /* \"#utility.yul\":14366:14369   */\n      0x00\n        /* \"#utility.yul\":14402:14406   */\n      0x60\n        /* \"#utility.yul\":14397:14400   */\n      dup4\n        /* \"#utility.yul\":14393:14407   */\n      add\n        /* \"#utility.yul\":14493:14497   */\n      0x00\n        /* \"#utility.yul\":14486:14491   */\n      dup4\n        /* \"#utility.yul\":14482:14498   */\n      add\n        /* \"#utility.yul\":14476:14499   */\n      mload\n        /* \"#utility.yul\":14546:14549   */\n      dup5\n        /* \"#utility.yul\":14540:14544   */\n      dup3\n        /* \"#utility.yul\":14536:14550   */\n      sub\n        /* \"#utility.yul\":14529:14533   */\n      0x00\n        /* \"#utility.yul\":14524:14527   */\n      dup7\n        /* \"#utility.yul\":14520:14534   */\n      add\n        /* \"#utility.yul\":14513:14551   */\n      mstore\n        /* \"#utility.yul\":14572:14645   */\n      tag_528\n        /* \"#utility.yul\":14640:14644   */\n      dup3\n        /* \"#utility.yul\":14626:14638   */\n      dup3\n        /* \"#utility.yul\":14572:14645   */\n      tag_277\n      jump\t// in\n    tag_528:\n        /* \"#utility.yul\":14564:14645   */\n      swap2\n      pop\n        /* \"#utility.yul\":14417:14656   */\n      pop\n        /* \"#utility.yul\":14743:14747   */\n      0x20\n        /* \"#utility.yul\":14736:14741   */\n      dup4\n        /* \"#utility.yul\":14732:14748   */\n      add\n        /* \"#utility.yul\":14726:14749   */\n      mload\n        /* \"#utility.yul\":14762:14849   */\n      tag_529\n        /* \"#utility.yul\":14843:14847   */\n      0x20\n        /* \"#utility.yul\":14838:14841   */\n      dup7\n        /* \"#utility.yul\":14834:14848   */\n      add\n        /* \"#utility.yul\":14820:14832   */\n      dup3\n        /* \"#utility.yul\":14762:14849   */\n      tag_282\n      jump\t// in\n    tag_529:\n        /* \"#utility.yul\":14666:14859   */\n      pop\n        /* \"#utility.yul\":14941:14945   */\n      0x40\n        /* \"#utility.yul\":14934:14939   */\n      dup4\n        /* \"#utility.yul\":14930:14946   */\n      add\n        /* \"#utility.yul\":14924:14947   */\n      mload\n        /* \"#utility.yul\":14994:14997   */\n      dup5\n        /* \"#utility.yul\":14988:14992   */\n      dup3\n        /* \"#utility.yul\":14984:14998   */\n      sub\n        /* \"#utility.yul\":14977:14981   */\n      0x40\n        /* \"#utility.yul\":14972:14975   */\n      dup7\n        /* \"#utility.yul\":14968:14982   */\n      add\n        /* \"#utility.yul\":14961:14999   */\n      mstore\n        /* \"#utility.yul\":15020:15091   */\n      tag_530\n        /* \"#utility.yul\":15086:15090   */\n      dup3\n        /* \"#utility.yul\":15072:15084   */\n      dup3\n        /* \"#utility.yul\":15020:15091   */\n      tag_285\n      jump\t// in\n    tag_530:\n        /* \"#utility.yul\":15012:15091   */\n      swap2\n      pop\n        /* \"#utility.yul\":14869:15102   */\n      pop\n        /* \"#utility.yul\":15119:15123   */\n      dup1\n        /* \"#utility.yul\":15112:15123   */\n      swap2\n      pop\n        /* \"#utility.yul\":14371:15129   */\n      pop\n        /* \"#utility.yul\":14245:15129   */\n      swap3\n      swap2\n      pop\n      pop\n      jump\t// out\n        /* \"#utility.yul\":15135:15512   */\n    tag_75:\n        /* \"#utility.yul\":15280:15284   */\n      0x00\n        /* \"#utility.yul\":15318:15320   */\n      0x20\n        /* \"#utility.yul\":15307:15316   */\n      dup3\n        /* \"#utility.yul\":15303:15321   */\n      add\n        /* \"#utility.yul\":15295:15321   */\n      swap1\n      pop\n        /* \"#utility.yul\":15367:15376   */\n      dup2\n        /* \"#utility.yul\":15361:15365   */\n      dup2\n        /* \"#utility.yul\":15357:15377   */\n      sub\n        /* \"#utility.yul\":15353:15354   */\n      0x00\n        /* \"#utility.yul\":15342:15351   */\n      dup4\n        /* \"#utility.yul\":15338:15355   */\n      add\n        /* \"#utility.yul\":15331:15378   */\n      mstore\n        /* \"#utility.yul\":15395:15505   */\n      tag_532\n        /* \"#utility.yul\":15500:15504   */\n      dup2\n        /* \"#utility.yul\":15491:15497   */\n      dup5\n        /* \"#utility.yul\":15395:15505   */\n      tag_298\n      jump\t// in\n    tag_532:\n        /* \"#utility.yul\":15387:15505   */\n      swap1\n      pop\n        /* \"#utility.yul\":15135:15512   */\n      swap3\n      swap2\n      pop\n      pop\n      jump\t// out\n        /* \"#utility.yul\":15518:15847   */\n    tag_78:\n        /* \"#utility.yul\":15577:15583   */\n      0x00\n        /* \"#utility.yul\":15626:15628   */\n      0x20\n        /* \"#utility.yul\":15614:15623   */\n      dup3\n        /* \"#utility.yul\":15605:15612   */\n      dup5\n        /* \"#utility.yul\":15601:15624   */\n      sub\n        /* \"#utility.yul\":15597:15629   */\n      slt\n        /* \"#utility.yul\":15594:15713   */\n      iszero\n      tag_534\n      jumpi\n        /* \"#utility.yul\":15632:15711   */\n      tag_535\n      tag_256\n      jump\t// in\n    tag_535:\n        /* \"#utility.yul\":15594:15713   */\n    tag_534:\n        /* \"#utility.yul\":15752:15753   */\n      0x00\n        /* \"#utility.yul\":15777:15830   */\n      tag_536\n        /* \"#utility.yul\":15822:15829   */\n      dup5\n        /* \"#utility.yul\":15813:15819   */\n      dup3\n        /* \"#utility.yul\":15802:15811   */\n      dup6\n        /* \"#utility.yul\":15798:15820   */\n      add\n        /* \"#utility.yul\":15777:15830   */\n      tag_264\n      jump\t// in\n    tag_536:\n        /* \"#utility.yul\":15767:15830   */\n      swap2\n      pop\n        /* \"#utility.yul\":15723:15840   */\n      pop\n        /* \"#utility.yul\":15518:15847   */\n      swap3\n      swap2\n      pop\n      pop\n      jump\t// out\n        /* \"#utility.yul\":15853:16033   */\n    tag_299:\n        /* \"#utility.yul\":15901:15978   */\n      0x4e487b7100000000000000000000000000000000000000000000000000000000\n        /* \"#utility.yul\":15898:15899   */\n      0x00\n        /* \"#utility.yul\":15891:15979   */\n      mstore\n        /* \"#utility.yul\":15998:16002   */\n      0x11\n        /* \"#utility.yul\":15995:15996   */\n      0x04\n        /* \"#utility.yul\":15988:16003   */\n      mstore\n        /* \"#utility.yul\":16022:16026   */\n      0x24\n        /* \"#utility.yul\":16019:16020   */\n      0x00\n        /* \"#utility.yul\":16012:16027   */\n      revert\n        /* \"#utility.yul\":16039:16233   */\n    tag_95:\n        /* \"#utility.yul\":16079:16083   */\n      0x00\n        /* \"#utility.yul\":16099:16119   */\n      tag_539\n        /* \"#utility.yul\":16117:16118   */\n      dup3\n        /* \"#utility.yul\":16099:16119   */\n      tag_253\n      jump\t// in\n    tag_539:\n        /* \"#utility.yul\":16094:16119   */\n      swap2\n      pop\n        /* \"#utility.yul\":16133:16153   */\n      tag_540\n        /* \"#utility.yul\":16151:16152   */\n      dup4\n        /* \"#utility.yul\":16133:16153   */\n      tag_253\n      jump\t// in\n    tag_540:\n        /* \"#utility.yul\":16128:16153   */\n      swap3\n      pop\n        /* \"#utility.yul\":16177:16178   */\n      dup3\n        /* \"#utility.yul\":16174:16175   */\n      dup3\n        /* \"#utility.yul\":16170:16179   */\n      sub\n        /* \"#utility.yul\":16162:16179   */\n      swap1\n      pop\n        /* \"#utility.yul\":16201:16202   */\n      dup2\n        /* \"#utility.yul\":16195:16199   */\n      dup2\n        /* \"#utility.yul\":16192:16203   */\n      gt\n        /* \"#utility.yul\":16189:16226   */\n      iszero\n      tag_541\n      jumpi\n        /* \"#utility.yul\":16206:16224   */\n      tag_542\n      tag_299\n      jump\t// in\n    tag_542:\n        /* \"#utility.yul\":16189:16226   */\n    tag_541:\n        /* \"#utility.yul\":16039:16233   */\n      swap3\n      swap2\n      pop\n      pop\n      jump\t// out\n        /* \"#utility.yul\":16239:16419   */\n    tag_98:\n        /* \"#utility.yul\":16287:16364   */\n      0x4e487b7100000000000000000000000000000000000000000000000000000000\n        /* \"#utility.yul\":16284:16285   */\n      0x00\n        /* \"#utility.yul\":16277:16365   */\n      mstore\n        /* \"#utility.yul\":16384:16388   */\n      0x41\n        /* \"#utility.yul\":16381:16382   */\n      0x04\n        /* \"#utility.yul\":16374:16389   */\n      mstore\n        /* \"#utility.yul\":16408:16412   */\n      0x24\n        /* \"#utility.yul\":16405:16406   */\n      0x00\n        /* \"#utility.yul\":16398:16413   */\n      revert\n        /* \"#utility.yul\":16425:16605   */\n    tag_108:\n        /* \"#utility.yul\":16473:16550   */\n      0x4e487b7100000000000000000000000000000000000000000000000000000000\n        /* \"#utility.yul\":16470:16471   */\n      0x00\n        /* \"#utility.yul\":16463:16551   */\n      mstore\n        /* \"#utility.yul\":16570:16574   */\n      0x32\n        /* \"#utility.yul\":16567:16568   */\n      0x04\n        /* \"#utility.yul\":16560:16575   */\n      mstore\n        /* \"#utility.yul\":16594:16598   */\n      0x24\n        /* \"#utility.yul\":16591:16592   */\n      0x00\n        /* \"#utility.yul\":16584:16599   */\n      revert\n        /* \"#utility.yul\":16611:16791   */\n    tag_300:\n        /* \"#utility.yul\":16659:16736   */\n      0x4e487b7100000000000000000000000000000000000000000000000000000000\n        /* \"#utility.yul\":16656:16657   */\n      0x00\n        /* \"#utility.yul\":16649:16737   */\n      mstore\n        /* \"#utility.yul\":16756:16760   */\n      0x22\n        /* \"#utility.yul\":16753:16754   */\n      0x04\n        /* \"#utility.yul\":16746:16761   */\n      mstore\n        /* \"#utility.yul\":16780:16784   */\n      0x24\n        /* \"#utility.yul\":16777:16778   */\n      0x00\n        /* \"#utility.yul\":16770:16785   */\n      revert\n        /* \"#utility.yul\":16797:17117   */\n    tag_111:\n        /* \"#utility.yul\":16841:16847   */\n      0x00\n        /* \"#utility.yul\":16878:16879   */\n      0x02\n        /* \"#utility.yul\":16872:16876   */\n      dup3\n        /* \"#utility.yul\":16868:16880   */\n      div\n        /* \"#utility.yul\":16858:16880   */\n      swap1\n      pop\n        /* \"#utility.yul\":16925:16926   */\n      0x01\n        /* \"#utility.yul\":16919:16923   */\n      dup3\n        /* \"#utility.yul\":16915:16927   */\n      and\n        /* \"#utility.yul\":16946:16964   */\n      dup1\n        /* \"#utility.yul\":16936:17017   */\n      tag_547\n      jumpi\n        /* \"#utility.yul\":17002:17006   */\n      0x7f\n        /* \"#utility.yul\":16994:17000   */\n      dup3\n        /* \"#utility.yul\":16990:17007   */\n      and\n        /* \"#utility.yul\":16980:17007   */\n      swap2\n      pop\n        /* \"#utility.yul\":16936:17017   */\n    tag_547:\n        /* \"#utility.yul\":17064:17066   */\n      0x20\n        /* \"#utility.yul\":17056:17062   */\n      dup3\n        /* \"#utility.yul\":17053:17067   */\n      lt\n        /* \"#utility.yul\":17033:17051   */\n      dup2\n        /* \"#utility.yul\":17030:17068   */\n      sub\n        /* \"#utility.yul\":17027:17111   */\n      tag_548\n      jumpi\n        /* \"#utility.yul\":17083:17101   */\n      tag_549\n      tag_300\n      jump\t// in\n    tag_549:\n        /* \"#utility.yul\":17027:17111   */\n    tag_548:\n        /* \"#utility.yul\":16848:17117   */\n      pop\n        /* \"#utility.yul\":16797:17117   */\n      swap2\n      swap1\n      pop\n      jump\t// out\n        /* \"#utility.yul\":17123:17356   */\n    tag_125:\n        /* \"#utility.yul\":17162:17165   */\n      0x00\n        /* \"#utility.yul\":17185:17209   */\n      tag_551\n        /* \"#utility.yul\":17203:17208   */\n      dup3\n        /* \"#utility.yul\":17185:17209   */\n      tag_253\n      jump\t// in\n    tag_551:\n        /* \"#utility.yul\":17176:17209   */\n      swap2\n      pop\n        /* \"#utility.yul\":17231:17297   */\n      0xffffffffffffffffffffffffffffffffffffffffffffffffffffffffffffffff\n        /* \"#utility.yul\":17224:17229   */\n      dup3\n        /* \"#utility.yul\":17221:17298   */\n      sub\n        /* \"#utility.yul\":17218:17321   */\n      tag_552\n      jumpi\n        /* \"#utility.yul\":17301:17319   */\n      tag_553\n      tag_299\n      jump\t// in\n    tag_553:\n        /* \"#utility.yul\":17218:17321   */\n    tag_552:\n        /* \"#utility.yul\":17348:17349   */\n      0x01\n        /* \"#utility.yul\":17341:17346   */\n      dup3\n        /* \"#utility.yul\":17337:17350   */\n      add\n        /* \"#utility.yul\":17330:17350   */\n      swap1\n      pop\n        /* \"#utility.yul\":17123:17356   */\n      swap2\n      swap1\n      pop\n      jump\t// out\n        /* \"#utility.yul\":17548:17665   */\n    tag_302:\n        /* \"#utility.yul\":17657:17658   */\n      0x00\n        /* \"#utility.yul\":17654:17655   */\n      dup1\n        /* \"#utility.yul\":17647:17659   */\n      revert\n        /* \"#utility.yul\":17671:17788   */\n    tag_303:\n        /* \"#utility.yul\":17780:17781   */\n      0x00\n        /* \"#utility.yul\":17777:17778   */\n      dup1\n        /* \"#utility.yul\":17770:17782   */\n      revert\n        /* \"#utility.yul\":17794:17911   */\n    tag_304:\n        /* \"#utility.yul\":17903:17904   */\n      0x00\n        /* \"#utility.yul\":17900:17901   */\n      dup1\n        /* \"#utility.yul\":17893:17905   */\n      revert\n        /* \"#utility.yul\":17917:18642   */\n    tag_305:\n        /* \"#utility.yul\":17995:17999   */\n      0x00\n        /* \"#utility.yul\":18001:18007   */\n      dup1\n        /* \"#utility.yul\":18057:18068   */\n      dup4\n        /* \"#utility.yul\":18044:18069   */\n      calldataload\n        /* \"#utility.yul\":18157:18158   */\n      0x01\n        /* \"#utility.yul\":18151:18155   */\n      0x20\n        /* \"#utility.yul\":18147:18159   */\n      sub\n        /* \"#utility.yul\":18136:18144   */\n      dup5\n        /* \"#utility.yul\":18120:18134   */\n      calldatasize\n        /* \"#utility.yul\":18116:18145   */\n      sub\n        /* \"#utility.yul\":18112:18160   */\n      sub\n        /* \"#utility.yul\":18092:18110   */\n      dup2\n        /* \"#utility.yul\":18088:18161   */\n      slt\n        /* \"#utility.yul\":18078:18246   */\n      tag_559\n      jumpi\n        /* \"#utility.yul\":18165:18244   */\n      tag_560\n      tag_302\n      jump\t// in\n    tag_560:\n        /* \"#utility.yul\":18078:18246   */\n    tag_559:\n        /* \"#utility.yul\":18277:18295   */\n      dup1\n        /* \"#utility.yul\":18267:18275   */\n      dup5\n        /* \"#utility.yul\":18263:18296   */\n      add\n        /* \"#utility.yul\":18255:18296   */\n      swap3\n      pop\n        /* \"#utility.yul\":18329:18333   */\n      dup3\n        /* \"#utility.yul\":18316:18334   */\n      calldataload\n        /* \"#utility.yul\":18306:18334   */\n      swap2\n      pop\n        /* \"#utility.yul\":18357:18375   */\n      0xffffffffffffffff\n        /* \"#utility.yul\":18349:18355   */\n      dup3\n        /* \"#utility.yul\":18346:18376   */\n      gt\n        /* \"#utility.yul\":18343:18460   */\n      iszero\n      tag_561\n      jumpi\n        /* \"#utility.yul\":18379:18458   */\n      tag_562\n      tag_303\n      jump\t// in\n    tag_562:\n        /* \"#utility.yul\":18343:18460   */\n    tag_561:\n        /* \"#utility.yul\":18487:18489   */\n      0x20\n        /* \"#utility.yul\":18481:18485   */\n      dup4\n        /* \"#utility.yul\":18477:18490   */\n      add\n        /* \"#utility.yul\":18469:18490   */\n      swap3\n      pop\n        /* \"#utility.yul\":18544:18548   */\n      0x01\n        /* \"#utility.yul\":18536:18542   */\n      dup3\n        /* \"#utility.yul\":18532:18549   */\n      mul\n        /* \"#utility.yul\":18516:18530   */\n      calldatasize\n        /* \"#utility.yul\":18512:18550   */\n      sub\n        /* \"#utility.yul\":18506:18510   */\n      dup4\n        /* \"#utility.yul\":18502:18551   */\n      sgt\n        /* \"#utility.yul\":18499:18635   */\n      iszero\n      tag_563\n      jumpi\n        /* \"#utility.yul\":18554:18633   */\n      tag_564\n      tag_304\n      jump\t// in\n    tag_564:\n        /* \"#utility.yul\":18499:18635   */\n    tag_563:\n        /* \"#utility.yul\":18008:18642   */\n      pop\n        /* \"#utility.yul\":17917:18642   */\n      swap3\n      pop\n      swap3\n      swap1\n      pop\n      jump\t// out\n        /* \"#utility.yul\":18648:18745   */\n    tag_306:\n        /* \"#utility.yul\":18707:18713   */\n      0x00\n        /* \"#utility.yul\":18735:18738   */\n      dup3\n        /* \"#utility.yul\":18725:18738   */\n      swap1\n      pop\n        /* \"#utility.yul\":18648:18745   */\n      swap3\n      swap2\n      pop\n      pop\n      jump\t// out\n        /* \"#utility.yul\":18751:18892   */\n    tag_307:\n        /* \"#utility.yul\":18800:18804   */\n      0x00\n        /* \"#utility.yul\":18823:18826   */\n      dup2\n        /* \"#utility.yul\":18815:18826   */\n      swap1\n      pop\n        /* \"#utility.yul\":18846:18849   */\n      dup2\n        /* \"#utility.yul\":18843:18844   */\n      0x00\n        /* \"#utility.yul\":18836:18850   */\n      mstore\n        /* \"#utility.yul\":18880:18884   */\n      0x20\n        /* \"#utility.yul\":18877:18878   */\n      0x00\n        /* \"#utility.yul\":18867:18885   */\n      keccak256\n        /* \"#utility.yul\":18859:18885   */\n      swap1\n      pop\n        /* \"#utility.yul\":18751:18892   */\n      swap2\n      swap1\n      pop\n      jump\t// out\n        /* \"#utility.yul\":18898:18991   */\n    tag_308:\n        /* \"#utility.yul\":18935:18941   */\n      0x00\n        /* \"#utility.yul\":18982:18984   */\n      0x20\n        /* \"#utility.yul\":18977:18979   */\n      0x1f\n        /* \"#utility.yul\":18970:18975   */\n      dup4\n        /* \"#utility.yul\":18966:18980   */\n      add\n        /* \"#utility.yul\":18962:18985   */\n      div\n        /* \"#utility.yul\":18952:18985   */\n      swap1\n      pop\n        /* \"#utility.yul\":18898:18991   */\n      swap2\n      swap1\n      pop\n      jump\t// out\n        /* \"#utility.yul\":18997:19104   */\n    tag_309:\n        /* \"#utility.yul\":19041:19049   */\n      0x00\n        /* \"#utility.yul\":19091:19096   */\n      dup3\n        /* \"#utility.yul\":19085:19089   */\n      dup3\n        /* \"#utility.yul\":19081:19097   */\n      shl\n        /* \"#utility.yul\":19060:19097   */\n      swap1\n      pop\n        /* \"#utility.yul\":18997:19104   */\n      swap3\n      swap2\n      pop\n      pop\n      jump\t// out\n        /* \"#utility.yul\":19110:19503   */\n    tag_310:\n        /* \"#utility.yul\":19179:19185   */\n      0x00\n        /* \"#utility.yul\":19229:19230   */\n      0x08\n        /* \"#utility.yul\":19217:19227   */\n      dup4\n        /* \"#utility.yul\":19213:19231   */\n      mul\n        /* \"#utility.yul\":19252:19349   */\n      tag_570\n        /* \"#utility.yul\":19282:19348   */\n      0xffffffffffffffffffffffffffffffffffffffffffffffffffffffffffffffff\n        /* \"#utility.yul\":19271:19280   */\n      dup3\n        /* \"#utility.yul\":19252:19349   */\n      tag_309\n      jump\t// in\n    tag_570:\n        /* \"#utility.yul\":19370:19409   */\n      tag_571\n        /* \"#utility.yul\":19400:19408   */\n      dup7\n        /* \"#utility.yul\":19389:19398   */\n      dup4\n        /* \"#utility.yul\":19370:19409   */\n      tag_309\n      jump\t// in\n    tag_571:\n        /* \"#utility.yul\":19358:19409   */\n      swap6\n      pop\n        /* \"#utility.yul\":19442:19446   */\n      dup1\n        /* \"#utility.yul\":19438:19447   */\n      not\n        /* \"#utility.yul\":19431:19436   */\n      dup5\n        /* \"#utility.yul\":19427:19448   */\n      and\n        /* \"#utility.yul\":19418:19448   */\n      swap4\n      pop\n        /* \"#utility.yul\":19491:19495   */\n      dup1\n        /* \"#utility.yul\":19481:19489   */\n      dup7\n        /* \"#utility.yul\":19477:19496   */\n      and\n        /* \"#utility.yul\":19470:19475   */\n      dup5\n        /* \"#utility.yul\":19467:19497   */\n      or\n        /* \"#utility.yul\":19457:19497   */\n      swap3\n      pop\n        /* \"#utility.yul\":19186:19503   */\n      pop\n      pop\n        /* \"#utility.yul\":19110:19503   */\n      swap4\n      swap3\n      pop\n      pop\n      pop\n      jump\t// out\n        /* \"#utility.yul\":19509:19651   */\n    tag_311:\n        /* \"#utility.yul\":19559:19568   */\n      0x00\n        /* \"#utility.yul\":19592:19645   */\n      tag_573\n        /* \"#utility.yul\":19610:19644   */\n      tag_574\n        /* \"#utility.yul\":19619:19643   */\n      tag_575\n        /* \"#utility.yul\":19637:19642   */\n      dup5\n        /* \"#utility.yul\":19619:19643   */\n      tag_253\n      jump\t// in\n    tag_575:\n        /* \"#utility.yul\":19610:19644   */\n      tag_278\n      jump\t// in\n    tag_574:\n        /* \"#utility.yul\":19592:19645   */\n      tag_253\n      jump\t// in\n    tag_573:\n        /* \"#utility.yul\":19579:19645   */\n      swap1\n      pop\n        /* \"#utility.yul\":19509:19651   */\n      swap2\n      swap1\n      pop\n      jump\t// out\n        /* \"#utility.yul\":19657:19732   */\n    tag_312:\n        /* \"#utility.yul\":19700:19703   */\n      0x00\n        /* \"#utility.yul\":19721:19726   */\n      dup2\n        /* \"#utility.yul\":19714:19726   */\n      swap1\n      pop\n        /* \"#utility.yul\":19657:19732   */\n      swap2\n      swap1\n      pop\n      jump\t// out\n        /* \"#utility.yul\":19738:20007   */\n    tag_313:\n        /* \"#utility.yul\":19848:19887   */\n      tag_578\n        /* \"#utility.yul\":19879:19886   */\n      dup4\n        /* \"#utility.yul\":19848:19887   */\n      tag_311\n      jump\t// in\n    tag_578:\n        /* \"#utility.yul\":19909:20000   */\n      tag_579\n        /* \"#utility.yul\":19958:19999   */\n      tag_580\n        /* \"#utility.yul\":19982:19998   */\n      dup3\n        /* \"#utility.yul\":19958:19999   */\n      tag_312\n      jump\t// in\n    tag_580:\n        /* \"#utility.yul\":19950:19956   */\n      dup5\n        /* \"#utility.yul\":19943:19947   */\n      dup5\n        /* \"#utility.yul\":19937:19948   */\n      sload\n        /* \"#utility.yul\":19909:20000   */\n      tag_310\n      jump\t// in\n    tag_579:\n        /* \"#utility.yul\":19903:19907   */\n      dup3\n        /* \"#utility.yul\":19896:20001   */\n      sstore\n        /* \"#utility.yul\":19814:20007   */\n      pop\n        /* \"#utility.yul\":19738:20007   */\n      pop\n      pop\n      pop\n      jump\t// out\n        /* \"#utility.yul\":20013:20086   */\n    tag_314:\n        /* \"#utility.yul\":20058:20061   */\n      0x00\n        /* \"#utility.yul\":20013:20086   */\n      swap1\n      jump\t// out\n        /* \"#utility.yul\":20092:20281   */\n    tag_315:\n        /* \"#utility.yul\":20169:20201   */\n      tag_583\n      tag_314\n      jump\t// in\n    tag_583:\n        /* \"#utility.yul\":20210:20275   */\n      tag_584\n        /* \"#utility.yul\":20268:20274   */\n      dup2\n        /* \"#utility.yul\":20260:20266   */\n      dup5\n        /* \"#utility.yul\":20254:20258   */\n      dup5\n        /* \"#utility.yul\":20210:20275   */\n      tag_313\n      jump\t// in\n    tag_584:\n        /* \"#utility.yul\":20145:20281   */\n      pop\n        /* \"#utility.yul\":20092:20281   */\n      pop\n      pop\n      jump\t// out\n        /* \"#utility.yul\":20287:20473   */\n    tag_316:\n        /* \"#utility.yul\":20347:20467   */\n    tag_586:\n        /* \"#utility.yul\":20364:20367   */\n      dup2\n        /* \"#utility.yul\":20357:20362   */\n      dup2\n        /* \"#utility.yul\":20354:20368   */\n      lt\n        /* \"#utility.yul\":20347:20467   */\n      iszero\n      tag_588\n      jumpi\n        /* \"#utility.yul\":20418:20457   */\n      tag_589\n        /* \"#utility.yul\":20455:20456   */\n      0x00\n        /* \"#utility.yul\":20448:20453   */\n      dup3\n        /* \"#utility.yul\":20418:20457   */\n      tag_315\n      jump\t// in\n    tag_589:\n        /* \"#utility.yul\":20391:20392   */\n      0x01\n        /* \"#utility.yul\":20384:20389   */\n      dup2\n        /* \"#utility.yul\":20380:20393   */\n      add\n        /* \"#utility.yul\":20371:20393   */\n      swap1\n      pop\n        /* \"#utility.yul\":20347:20467   */\n      jump(tag_586)\n    tag_588:\n        /* \"#utility.yul\":20287:20473   */\n      pop\n      pop\n      jump\t// out\n        /* \"#utility.yul\":20479:21022   */\n    tag_317:\n        /* \"#utility.yul\":20580:20582   */\n      0x1f\n        /* \"#utility.yul\":20575:20578   */\n      dup3\n        /* \"#utility.yul\":20572:20583   */\n      gt\n        /* \"#utility.yul\":20569:21015   */\n      iszero\n      tag_591\n      jumpi\n        /* \"#utility.yul\":20614:20652   */\n      tag_592\n        /* \"#utility.yul\":20646:20651   */\n      dup2\n        /* \"#utility.yul\":20614:20652   */\n      tag_307\n      jump\t// in\n    tag_592:\n        /* \"#utility.yul\":20698:20727   */\n      tag_593\n        /* \"#utility.yul\":20716:20726   */\n      dup5\n        /* \"#utility.yul\":20698:20727   */\n      tag_308\n      jump\t// in\n    tag_593:\n        /* \"#utility.yul\":20688:20696   */\n      dup2\n        /* \"#utility.yul\":20684:20728   */\n      add\n        /* \"#utility.yul\":20881:20883   */\n      0x20\n        /* \"#utility.yul\":20869:20879   */\n      dup6\n        /* \"#utility.yul\":20866:20884   */\n      lt\n        /* \"#utility.yul\":20863:20912   */\n      iszero\n      tag_594\n      jumpi\n        /* \"#utility.yul\":20902:20910   */\n      dup2\n        /* \"#utility.yul\":20887:20910   */\n      swap1\n      pop\n        /* \"#utility.yul\":20863:20912   */\n    tag_594:\n        /* \"#utility.yul\":20925:21005   */\n      tag_595\n        /* \"#utility.yul\":20981:21003   */\n      tag_596\n        /* \"#utility.yul\":20999:21002   */\n      dup6\n        /* \"#utility.yul\":20981:21003   */\n      tag_308\n      jump\t// in\n    tag_596:\n        /* \"#utility.yul\":20971:20979   */\n      dup4\n        /* \"#utility.yul\":20967:21004   */\n      add\n        /* \"#utility.yul\":20954:20965   */\n      dup3\n        /* \"#utility.yul\":20925:21005   */\n      tag_316\n      jump\t// in\n    tag_595:\n        /* \"#utility.yul\":20584:21015   */\n      pop\n      pop\n        /* \"#utility.yul\":20569:21015   */\n    tag_591:\n        /* \"#utility.yul\":20479:21022   */\n      pop\n      pop\n      pop\n      jump\t// out\n        /* \"#utility.yul\":21028:21145   */\n    tag_318:\n        /* \"#utility.yul\":21082:21090   */\n      0x00\n        /* \"#utility.yul\":21132:21137   */\n      dup3\n        /* \"#utility.yul\":21126:21130   */\n      dup3\n        /* \"#utility.yul\":21122:21138   */\n      shr\n        /* \"#utility.yul\":21101:21138   */\n      swap1\n      pop\n        /* \"#utility.yul\":21028:21145   */\n      swap3\n      swap2\n      pop\n      pop\n      jump\t// out\n        /* \"#utility.yul\":21151:21320   */\n    tag_319:\n        /* \"#utility.yul\":21195:21201   */\n      0x00\n        /* \"#utility.yul\":21228:21279   */\n      tag_599\n        /* \"#utility.yul\":21276:21277   */\n      0x00\n        /* \"#utility.yul\":21272:21278   */\n      not\n        /* \"#utility.yul\":21264:21269   */\n      dup5\n        /* \"#utility.yul\":21261:21262   */\n      0x08\n        /* \"#utility.yul\":21257:21270   */\n      mul\n        /* \"#utility.yul\":21228:21279   */\n      tag_318\n      jump\t// in\n    tag_599:\n        /* \"#utility.yul\":21224:21280   */\n      not\n        /* \"#utility.yul\":21309:21313   */\n      dup1\n        /* \"#utility.yul\":21303:21307   */\n      dup4\n        /* \"#utility.yul\":21299:21314   */\n      and\n        /* \"#utility.yul\":21289:21314   */\n      swap2\n      pop\n        /* \"#utility.yul\":21202:21320   */\n      pop\n        /* \"#utility.yul\":21151:21320   */\n      swap3\n      swap2\n      pop\n      pop\n      jump\t// out\n        /* \"#utility.yul\":21325:21620   */\n    tag_320:\n        /* \"#utility.yul\":21401:21405   */\n      0x00\n        /* \"#utility.yul\":21547:21576   */\n      tag_601\n        /* \"#utility.yul\":21572:21575   */\n      dup4\n        /* \"#utility.yul\":21566:21570   */\n      dup4\n        /* \"#utility.yul\":21547:21576   */\n      tag_319\n      jump\t// in\n    tag_601:\n        /* \"#utility.yul\":21539:21576   */\n      swap2\n      pop\n        /* \"#utility.yul\":21609:21612   */\n      dup3\n        /* \"#utility.yul\":21606:21607   */\n      0x02\n        /* \"#utility.yul\":21602:21613   */\n      mul\n        /* \"#utility.yul\":21596:21600   */\n      dup3\n        /* \"#utility.yul\":21593:21614   */\n      or\n        /* \"#utility.yul\":21585:21614   */\n      swap1\n      pop\n        /* \"#utility.yul\":21325:21620   */\n      swap3\n      swap2\n      pop\n      pop\n      jump\t// out\n        /* \"#utility.yul\":21625:23028   */\n    tag_321:\n        /* \"#utility.yul\":21749:21793   */\n      tag_603\n        /* \"#utility.yul\":21789:21792   */\n      dup4\n        /* \"#utility.yul\":21784:21787   */\n      dup4\n        /* \"#utility.yul\":21749:21793   */\n      tag_306\n      jump\t// in\n    tag_603:\n        /* \"#utility.yul\":21858:21876   */\n      0xffffffffffffffff\n        /* \"#utility.yul\":21850:21856   */\n      dup2\n        /* \"#utility.yul\":21847:21877   */\n      gt\n        /* \"#utility.yul\":21844:21900   */\n      iszero\n      tag_604\n      jumpi\n        /* \"#utility.yul\":21880:21898   */\n      tag_605\n      tag_98\n      jump\t// in\n    tag_605:\n        /* \"#utility.yul\":21844:21900   */\n    tag_604:\n        /* \"#utility.yul\":21924:21962   */\n      tag_606\n        /* \"#utility.yul\":21956:21960   */\n      dup3\n        /* \"#utility.yul\":21950:21961   */\n      sload\n        /* \"#utility.yul\":21924:21962   */\n      tag_111\n      jump\t// in\n    tag_606:\n        /* \"#utility.yul\":22009:22076   */\n      tag_607\n        /* \"#utility.yul\":22069:22075   */\n      dup3\n        /* \"#utility.yul\":22061:22067   */\n      dup3\n        /* \"#utility.yul\":22055:22059   */\n      dup6\n        /* \"#utility.yul\":22009:22076   */\n      tag_317\n      jump\t// in\n    tag_607:\n        /* \"#utility.yul\":22103:22104   */\n      0x00\n        /* \"#utility.yul\":22132:22134   */\n      0x1f\n        /* \"#utility.yul\":22124:22130   */\n      dup4\n        /* \"#utility.yul\":22121:22135   */\n      gt\n        /* \"#utility.yul\":22149:22150   */\n      0x01\n        /* \"#utility.yul\":22144:22776   */\n      dup2\n      eq\n      tag_609\n      jumpi\n        /* \"#utility.yul\":22820:22821   */\n      0x00\n        /* \"#utility.yul\":22837:22843   */\n      dup5\n        /* \"#utility.yul\":22834:22918   */\n      iszero\n      tag_610\n      jumpi\n        /* \"#utility.yul\":22893:22902   */\n      dup3\n        /* \"#utility.yul\":22888:22891   */\n      dup8\n        /* \"#utility.yul\":22884:22903   */\n      add\n        /* \"#utility.yul\":22871:22904   */\n      calldataload\n        /* \"#utility.yul\":22862:22904   */\n      swap1\n      pop\n        /* \"#utility.yul\":22834:22918   */\n    tag_610:\n        /* \"#utility.yul\":22944:23011   */\n      tag_611\n        /* \"#utility.yul\":23004:23010   */\n      dup6\n        /* \"#utility.yul\":22997:23002   */\n      dup3\n        /* \"#utility.yul\":22944:23011   */\n      tag_320\n      jump\t// in\n    tag_611:\n        /* \"#utility.yul\":22938:22942   */\n      dup7\n        /* \"#utility.yul\":22931:23012   */\n      sstore\n        /* \"#utility.yul\":22793:23022   */\n      pop\n        /* \"#utility.yul\":22114:23022   */\n      jump(tag_608)\n        /* \"#utility.yul\":22144:22776   */\n    tag_609:\n        /* \"#utility.yul\":22196:22200   */\n      0x1f\n        /* \"#utility.yul\":22192:22201   */\n      not\n        /* \"#utility.yul\":22184:22190   */\n      dup5\n        /* \"#utility.yul\":22180:22202   */\n      and\n        /* \"#utility.yul\":22230:22267   */\n      tag_612\n        /* \"#utility.yul\":22262:22266   */\n      dup7\n        /* \"#utility.yul\":22230:22267   */\n      tag_307\n      jump\t// in\n    tag_612:\n        /* \"#utility.yul\":22289:22290   */\n      0x00\n        /* \"#utility.yul\":22303:22518   */\n    tag_613:\n        /* \"#utility.yul\":22317:22324   */\n      dup3\n        /* \"#utility.yul\":22314:22315   */\n      dup2\n        /* \"#utility.yul\":22311:22325   */\n      lt\n        /* \"#utility.yul\":22303:22518   */\n      iszero\n      tag_615\n      jumpi\n        /* \"#utility.yul\":22403:22412   */\n      dup5\n        /* \"#utility.yul\":22398:22401   */\n      dup10\n        /* \"#utility.yul\":22394:22413   */\n      add\n        /* \"#utility.yul\":22381:22414   */\n      calldataload\n        /* \"#utility.yul\":22373:22379   */\n      dup3\n        /* \"#utility.yul\":22366:22415   */\n      sstore\n        /* \"#utility.yul\":22454:22455   */\n      0x01\n        /* \"#utility.yul\":22446:22452   */\n      dup3\n        /* \"#utility.yul\":22442:22456   */\n      add\n        /* \"#utility.yul\":22432:22456   */\n      swap2\n      pop\n        /* \"#utility.yul\":22501:22503   */\n      0x20\n        /* \"#utility.yul\":22490:22499   */\n      dup6\n        /* \"#utility.yul\":22486:22504   */\n      add\n        /* \"#utility.yul\":22473:22504   */\n      swap5\n      pop\n        /* \"#utility.yul\":22340:22344   */\n      0x20\n        /* \"#utility.yul\":22337:22338   */\n      dup2\n        /* \"#utility.yul\":22333:22345   */\n      add\n        /* \"#utility.yul\":22328:22345   */\n      swap1\n      pop\n        /* \"#utility.yul\":22303:22518   */\n      jump(tag_613)\n    tag_615:\n        /* \"#utility.yul\":22546:22552   */\n      dup7\n        /* \"#utility.yul\":22537:22544   */\n      dup4\n        /* \"#utility.yul\":22534:22553   */\n      lt\n        /* \"#utility.yul\":22531:22717   */\n      iszero\n      tag_616\n      jumpi\n        /* \"#utility.yul\":22611:22620   */\n      dup5\n        /* \"#utility.yul\":22606:22609   */\n      dup10\n        /* \"#utility.yul\":22602:22621   */\n      add\n        /* \"#utility.yul\":22589:22622   */\n      calldataload\n        /* \"#utility.yul\":22654:22702   */\n      tag_617\n        /* \"#utility.yul\":22696:22700   */\n      0x1f\n        /* \"#utility.yul\":22688:22694   */\n      dup10\n        /* \"#utility.yul\":22684:22701   */\n      and\n        /* \"#utility.yul\":22673:22682   */\n      dup3\n        /* \"#utility.yul\":22654:22702   */\n      tag_319\n      jump\t// in\n    tag_617:\n        /* \"#utility.yul\":22646:22652   */\n      dup4\n        /* \"#utility.yul\":22639:22703   */\n      sstore\n        /* \"#utility.yul\":22554:22717   */\n      pop\n        /* \"#utility.yul\":22531:22717   */\n    tag_616:\n        /* \"#utility.yul\":22763:22764   */\n      0x01\n        /* \"#utility.yul\":22759:22760   */\n      0x02\n        /* \"#utility.yul\":22751:22757   */\n      dup9\n        /* \"#utility.yul\":22747:22761   */\n      mul\n        /* \"#utility.yul\":22743:22765   */\n      add\n        /* \"#utility.yul\":22737:22741   */\n      dup9\n        /* \"#utility.yul\":22730:22766   */\n      sstore\n        /* \"#utility.yul\":22151:22776   */\n      pop\n      pop\n      pop\n        /* \"#utility.yul\":22114:23022   */\n    tag_608:\n      pop\n        /* \"#utility.yul\":21724:23028   */\n      pop\n      pop\n      pop\n        /* \"#utility.yul\":21625:23028   */\n      pop\n      pop\n      pop\n      jump\t// out\n        /* \"#utility.yul\":23034:23252   */\n    tag_322:\n        /* \"#utility.yul\":23149:23246   */\n      tag_619\n        /* \"#utility.yul\":23238:23245   */\n      dup4\n        /* \"#utility.yul\":23229:23236   */\n      dup4\n        /* \"#utility.yul\":23223:23227   */\n      dup4\n        /* \"#utility.yul\":23149:23246   */\n      tag_321\n      jump\t// in\n    tag_619:\n        /* \"#utility.yul\":23034:23252   */\n      pop\n      pop\n      pop\n      jump\t// out\n        /* \"#utility.yul\":23258:23378   */\n    tag_323:\n        /* \"#utility.yul\":23319:23326   */\n      0x00\n        /* \"#utility.yul\":23348:23372   */\n      tag_621\n        /* \"#utility.yul\":23366:23371   */\n      dup3\n        /* \"#utility.yul\":23348:23372   */\n      tag_261\n      jump\t// in\n    tag_621:\n        /* \"#utility.yul\":23337:23372   */\n      swap1\n      pop\n        /* \"#utility.yul\":23258:23378   */\n      swap2\n      swap1\n      pop\n      jump\t// out\n        /* \"#utility.yul\":23384:23554   */\n    tag_324:\n        /* \"#utility.yul\":23481:23529   */\n      tag_623\n        /* \"#utility.yul\":23523:23528   */\n      dup2\n        /* \"#utility.yul\":23481:23529   */\n      tag_323\n      jump\t// in\n    tag_623:\n        /* \"#utility.yul\":23474:23479   */\n      dup2\n        /* \"#utility.yul\":23471:23530   */\n      eq\n        /* \"#utility.yul\":23461:23548   */\n      tag_624\n      jumpi\n        /* \"#utility.yul\":23544:23545   */\n      0x00\n        /* \"#utility.yul\":23541:23542   */\n      dup1\n        /* \"#utility.yul\":23534:23546   */\n      revert\n        /* \"#utility.yul\":23461:23548   */\n    tag_624:\n        /* \"#utility.yul\":23384:23554   */\n      pop\n      jump\t// out\n        /* \"#utility.yul\":23560:23794   */\n    tag_325:\n        /* \"#utility.yul\":23629:23640   */\n      0x00\n        /* \"#utility.yul\":23678:23681   */\n      dup2\n        /* \"#utility.yul\":23665:23682   */\n      calldataload\n        /* \"#utility.yul\":23691:23748   */\n      tag_626\n        /* \"#utility.yul\":23742:23747   */\n      dup2\n        /* \"#utility.yul\":23691:23748   */\n      tag_324\n      jump\t// in\n    tag_626:\n        /* \"#utility.yul\":23782:23787   */\n      dup1\n        /* \"#utility.yul\":23758:23787   */\n      swap2\n      pop\n        /* \"#utility.yul\":23641:23794   */\n      pop\n        /* \"#utility.yul\":23560:23794   */\n      swap2\n      swap1\n      pop\n      jump\t// out\n        /* \"#utility.yul\":23800:23892   */\n    tag_326:\n        /* \"#utility.yul\":23832:23840   */\n      0x00\n        /* \"#utility.yul\":23879:23884   */\n      dup2\n        /* \"#utility.yul\":23876:23877   */\n      0x00\n        /* \"#utility.yul\":23872:23885   */\n      shl\n        /* \"#utility.yul\":23851:23885   */\n      swap1\n      pop\n        /* \"#utility.yul\":23800:23892   */\n      swap2\n      swap1\n      pop\n      jump\t// out\n        /* \"#utility.yul\":23898:24164   */\n    tag_327:\n        /* \"#utility.yul\":23956:23962   */\n      0x00\n        /* \"#utility.yul\":23985:24027   */\n      0xffffffffffffffffffffffffffffffffffffffff\n        /* \"#utility.yul\":24048:24070   */\n      tag_629\n        /* \"#utility.yul\":24061:24069   */\n      dup5\n        /* \"#utility.yul\":24048:24070   */\n      tag_326\n      jump\t// in\n    tag_629:\n        /* \"#utility.yul\":24036:24070   */\n      swap4\n      pop\n        /* \"#utility.yul\":24103:24107   */\n      dup1\n        /* \"#utility.yul\":24099:24108   */\n      not\n        /* \"#utility.yul\":24092:24097   */\n      dup4\n        /* \"#utility.yul\":24088:24109   */\n      and\n        /* \"#utility.yul\":24079:24109   */\n      swap3\n      pop\n        /* \"#utility.yul\":24152:24156   */\n      dup1\n        /* \"#utility.yul\":24142:24150   */\n      dup5\n        /* \"#utility.yul\":24138:24157   */\n      and\n        /* \"#utility.yul\":24131:24136   */\n      dup4\n        /* \"#utility.yul\":24128:24158   */\n      or\n        /* \"#utility.yul\":24118:24158   */\n      swap2\n      pop\n        /* \"#utility.yul\":23963:24164   */\n      pop\n        /* \"#utility.yul\":23898:24164   */\n      swap3\n      swap2\n      pop\n      pop\n      jump\t// out\n        /* \"#utility.yul\":24170:24320   */\n    tag_328:\n        /* \"#utility.yul\":24244:24253   */\n      0x00\n        /* \"#utility.yul\":24277:24314   */\n      tag_631\n        /* \"#utility.yul\":24308:24313   */\n      dup3\n        /* \"#utility.yul\":24277:24314   */\n      tag_279\n      jump\t// in\n    tag_631:\n        /* \"#utility.yul\":24264:24314   */\n      swap1\n      pop\n        /* \"#utility.yul\":24170:24320   */\n      swap2\n      swap1\n      pop\n      jump\t// out\n        /* \"#utility.yul\":24326:24524   */\n    tag_329:\n        /* \"#utility.yul\":24424:24433   */\n      0x00\n        /* \"#utility.yul\":24457:24518   */\n      tag_633\n        /* \"#utility.yul\":24512:24517   */\n      dup3\n        /* \"#utility.yul\":24457:24518   */\n      tag_328\n      jump\t// in\n    tag_633:\n        /* \"#utility.yul\":24444:24518   */\n      swap1\n      pop\n        /* \"#utility.yul\":24326:24524   */\n      swap2\n      swap1\n      pop\n      jump\t// out\n        /* \"#utility.yul\":24530:24629   */\n    tag_330:\n        /* \"#utility.yul\":24597:24600   */\n      0x00\n        /* \"#utility.yul\":24618:24623   */\n      dup2\n        /* \"#utility.yul\":24611:24623   */\n      swap1\n      pop\n        /* \"#utility.yul\":24530:24629   */\n      swap2\n      swap1\n      pop\n      jump\t// out\n        /* \"#utility.yul\":24635:25017   */\n    tag_331:\n        /* \"#utility.yul\":24793:24880   */\n      tag_636\n        /* \"#utility.yul\":24872:24879   */\n      dup3\n        /* \"#utility.yul\":24793:24880   */\n      tag_329\n      jump\t// in\n    tag_636:\n        /* \"#utility.yul\":24902:25010   */\n      tag_637\n        /* \"#utility.yul\":24944:25009   */\n      tag_638\n        /* \"#utility.yul\":24992:25008   */\n      dup3\n        /* \"#utility.yul\":24944:25009   */\n      tag_330\n      jump\t// in\n    tag_638:\n        /* \"#utility.yul\":24937:24941   */\n      dup4\n        /* \"#utility.yul\":24931:24942   */\n      sload\n        /* \"#utility.yul\":24902:25010   */\n      tag_327\n      jump\t// in\n    tag_637:\n        /* \"#utility.yul\":24896:24900   */\n      dup3\n        /* \"#utility.yul\":24889:25011   */\n      sstore\n        /* \"#utility.yul\":24759:25017   */\n      pop\n        /* \"#utility.yul\":24635:25017   */\n      pop\n      pop\n      jump\t// out\n        /* \"#utility.yul\":25023:25747   */\n    tag_332:\n        /* \"#utility.yul\":25100:25104   */\n      0x00\n        /* \"#utility.yul\":25106:25112   */\n      dup1\n        /* \"#utility.yul\":25162:25173   */\n      dup4\n        /* \"#utility.yul\":25149:25174   */\n      calldataload\n        /* \"#utility.yul\":25262:25263   */\n      0x01\n        /* \"#utility.yul\":25256:25260   */\n      0x20\n        /* \"#utility.yul\":25252:25264   */\n      sub\n        /* \"#utility.yul\":25241:25249   */\n      dup5\n        /* \"#utility.yul\":25225:25239   */\n      calldatasize\n        /* \"#utility.yul\":25221:25250   */\n      sub\n        /* \"#utility.yul\":25217:25265   */\n      sub\n        /* \"#utility.yul\":25197:25215   */\n      dup2\n        /* \"#utility.yul\":25193:25266   */\n      slt\n        /* \"#utility.yul\":25183:25351   */\n      tag_640\n      jumpi\n        /* \"#utility.yul\":25270:25349   */\n      tag_641\n      tag_302\n      jump\t// in\n    tag_641:\n        /* \"#utility.yul\":25183:25351   */\n    tag_640:\n        /* \"#utility.yul\":25382:25400   */\n      dup1\n        /* \"#utility.yul\":25372:25380   */\n      dup5\n        /* \"#utility.yul\":25368:25401   */\n      add\n        /* \"#utility.yul\":25360:25401   */\n      swap3\n      pop\n        /* \"#utility.yul\":25434:25438   */\n      dup3\n        /* \"#utility.yul\":25421:25439   */\n      calldataload\n        /* \"#utility.yul\":25411:25439   */\n      swap2\n      pop\n        /* \"#utility.yul\":25462:25480   */\n      0xffffffffffffffff\n        /* \"#utility.yul\":25454:25460   */\n      dup3\n        /* \"#utility.yul\":25451:25481   */\n      gt\n        /* \"#utility.yul\":25448:25565   */\n      iszero\n      tag_642\n      jumpi\n        /* \"#utility.yul\":25484:25563   */\n      tag_643\n      tag_303\n      jump\t// in\n    tag_643:\n        /* \"#utility.yul\":25448:25565   */\n    tag_642:\n        /* \"#utility.yul\":25592:25594   */\n      0x20\n        /* \"#utility.yul\":25586:25590   */\n      dup4\n        /* \"#utility.yul\":25582:25595   */\n      add\n        /* \"#utility.yul\":25574:25595   */\n      swap3\n      pop\n        /* \"#utility.yul\":25649:25653   */\n      0x01\n        /* \"#utility.yul\":25641:25647   */\n      dup3\n        /* \"#utility.yul\":25637:25654   */\n      mul\n        /* \"#utility.yul\":25621:25635   */\n      calldatasize\n        /* \"#utility.yul\":25617:25655   */\n      sub\n        /* \"#utility.yul\":25611:25615   */\n      dup4\n        /* \"#utility.yul\":25607:25656   */\n      sgt\n        /* \"#utility.yul\":25604:25740   */\n      iszero\n      tag_644\n      jumpi\n        /* \"#utility.yul\":25659:25738   */\n      tag_645\n      tag_304\n      jump\t// in\n    tag_645:\n        /* \"#utility.yul\":25604:25740   */\n    tag_644:\n        /* \"#utility.yul\":25113:25747   */\n      pop\n        /* \"#utility.yul\":25023:25747   */\n      swap3\n      pop\n      swap3\n      swap1\n      pop\n      jump\t// out\n        /* \"#utility.yul\":25753:25849   */\n    tag_333:\n        /* \"#utility.yul\":25811:25817   */\n      0x00\n        /* \"#utility.yul\":25839:25842   */\n      dup3\n        /* \"#utility.yul\":25829:25842   */\n      swap1\n      pop\n        /* \"#utility.yul\":25753:25849   */\n      swap3\n      swap2\n      pop\n      pop\n      jump\t// out\n        /* \"#utility.yul\":25855:25995   */\n    tag_334:\n        /* \"#utility.yul\":25903:25907   */\n      0x00\n        /* \"#utility.yul\":25926:25929   */\n      dup2\n        /* \"#utility.yul\":25918:25929   */\n      swap1\n      pop\n        /* \"#utility.yul\":25949:25952   */\n      dup2\n        /* \"#utility.yul\":25946:25947   */\n      0x00\n        /* \"#utility.yul\":25939:25953   */\n      mstore\n        /* \"#utility.yul\":25983:25987   */\n      0x20\n        /* \"#utility.yul\":25980:25981   */\n      0x00\n        /* \"#utility.yul\":25970:25988   */\n      keccak256\n        /* \"#utility.yul\":25962:25988   */\n      swap1\n      pop\n        /* \"#utility.yul\":25855:25995   */\n      swap2\n      swap1\n      pop\n      jump\t// out\n        /* \"#utility.yul\":26001:26542   */\n    tag_335:\n        /* \"#utility.yul\":26101:26103   */\n      0x1f\n        /* \"#utility.yul\":26096:26099   */\n      dup3\n        /* \"#utility.yul\":26093:26104   */\n      gt\n        /* \"#utility.yul\":26090:26535   */\n      iszero\n      tag_649\n      jumpi\n        /* \"#utility.yul\":26135:26172   */\n      tag_650\n        /* \"#utility.yul\":26166:26171   */\n      dup2\n        /* \"#utility.yul\":26135:26172   */\n      tag_334\n      jump\t// in\n    tag_650:\n        /* \"#utility.yul\":26218:26247   */\n      tag_651\n        /* \"#utility.yul\":26236:26246   */\n      dup5\n        /* \"#utility.yul\":26218:26247   */\n      tag_308\n      jump\t// in\n    tag_651:\n        /* \"#utility.yul\":26208:26216   */\n      dup2\n        /* \"#utility.yul\":26204:26248   */\n      add\n        /* \"#utility.yul\":26401:26403   */\n      0x20\n        /* \"#utility.yul\":26389:26399   */\n      dup6\n        /* \"#utility.yul\":26386:26404   */\n      lt\n        /* \"#utility.yul\":26383:26432   */\n      iszero\n      tag_652\n      jumpi\n        /* \"#utility.yul\":26422:26430   */\n      dup2\n        /* \"#utility.yul\":26407:26430   */\n      swap1\n      pop\n        /* \"#utility.yul\":26383:26432   */\n    tag_652:\n        /* \"#utility.yul\":26445:26525   */\n      tag_653\n        /* \"#utility.yul\":26501:26523   */\n      tag_654\n        /* \"#utility.yul\":26519:26522   */\n      dup6\n        /* \"#utility.yul\":26501:26523   */\n      tag_308\n      jump\t// in\n    tag_654:\n        /* \"#utility.yul\":26491:26499   */\n      dup4\n        /* \"#utility.yul\":26487:26524   */\n      add\n        /* \"#utility.yul\":26474:26485   */\n      dup3\n        /* \"#utility.yul\":26445:26525   */\n      tag_316\n      jump\t// in\n    tag_653:\n        /* \"#utility.yul\":26105:26535   */\n      pop\n      pop\n        /* \"#utility.yul\":26090:26535   */\n    tag_649:\n        /* \"#utility.yul\":26001:26542   */\n      pop\n      pop\n      pop\n      jump\t// out\n        /* \"#utility.yul\":26548:27946   */\n    tag_336:\n        /* \"#utility.yul\":26670:26713   */\n      tag_656\n        /* \"#utility.yul\":26709:26712   */\n      dup4\n        /* \"#utility.yul\":26704:26707   */\n      dup4\n        /* \"#utility.yul\":26670:26713   */\n      tag_333\n      jump\t// in\n    tag_656:\n        /* \"#utility.yul\":26778:26796   */\n      0xffffffffffffffff\n        /* \"#utility.yul\":26770:26776   */\n      dup2\n        /* \"#utility.yul\":26767:26797   */\n      gt\n        /* \"#utility.yul\":26764:26820   */\n      iszero\n      tag_657\n      jumpi\n        /* \"#utility.yul\":26800:26818   */\n      tag_658\n      tag_98\n      jump\t// in\n    tag_658:\n        /* \"#utility.yul\":26764:26820   */\n    tag_657:\n        /* \"#utility.yul\":26844:26882   */\n      tag_659\n        /* \"#utility.yul\":26876:26880   */\n      dup3\n        /* \"#utility.yul\":26870:26881   */\n      sload\n        /* \"#utility.yul\":26844:26882   */\n      tag_111\n      jump\t// in\n    tag_659:\n        /* \"#utility.yul\":26929:26995   */\n      tag_660\n        /* \"#utility.yul\":26988:26994   */\n      dup3\n        /* \"#utility.yul\":26980:26986   */\n      dup3\n        /* \"#utility.yul\":26974:26978   */\n      dup6\n        /* \"#utility.yul\":26929:26995   */\n      tag_335\n      jump\t// in\n    tag_660:\n        /* \"#utility.yul\":27022:27023   */\n      0x00\n        /* \"#utility.yul\":27051:27053   */\n      0x1f\n        /* \"#utility.yul\":27043:27049   */\n      dup4\n        /* \"#utility.yul\":27040:27054   */\n      gt\n        /* \"#utility.yul\":27068:27069   */\n      0x01\n        /* \"#utility.yul\":27063:27694   */\n      dup2\n      eq\n      tag_662\n      jumpi\n        /* \"#utility.yul\":27738:27739   */\n      0x00\n        /* \"#utility.yul\":27755:27761   */\n      dup5\n        /* \"#utility.yul\":27752:27836   */\n      iszero\n      tag_663\n      jumpi\n        /* \"#utility.yul\":27811:27820   */\n      dup3\n        /* \"#utility.yul\":27806:27809   */\n      dup8\n        /* \"#utility.yul\":27802:27821   */\n      add\n        /* \"#utility.yul\":27789:27822   */\n      calldataload\n        /* \"#utility.yul\":27780:27822   */\n      swap1\n      pop\n        /* \"#utility.yul\":27752:27836   */\n    tag_663:\n        /* \"#utility.yul\":27862:27929   */\n      tag_664\n        /* \"#utility.yul\":27922:27928   */\n      dup6\n        /* \"#utility.yul\":27915:27920   */\n      dup3\n        /* \"#utility.yul\":27862:27929   */\n      tag_320\n      jump\t// in\n    tag_664:\n        /* \"#utility.yul\":27856:27860   */\n      dup7\n        /* \"#utility.yul\":27849:27930   */\n      sstore\n        /* \"#utility.yul\":27711:27940   */\n      pop\n        /* \"#utility.yul\":27033:27940   */\n      jump(tag_661)\n        /* \"#utility.yul\":27063:27694   */\n    tag_662:\n        /* \"#utility.yul\":27115:27119   */\n      0x1f\n        /* \"#utility.yul\":27111:27120   */\n      not\n        /* \"#utility.yul\":27103:27109   */\n      dup5\n        /* \"#utility.yul\":27099:27121   */\n      and\n        /* \"#utility.yul\":27149:27185   */\n      tag_665\n        /* \"#utility.yul\":27180:27184   */\n      dup7\n        /* \"#utility.yul\":27149:27185   */\n      tag_334\n      jump\t// in\n    tag_665:\n        /* \"#utility.yul\":27207:27208   */\n      0x00\n        /* \"#utility.yul\":27221:27436   */\n    tag_666:\n        /* \"#utility.yul\":27235:27242   */\n      dup3\n        /* \"#utility.yul\":27232:27233   */\n      dup2\n        /* \"#utility.yul\":27229:27243   */\n      lt\n        /* \"#utility.yul\":27221:27436   */\n      iszero\n      tag_668\n      jumpi\n        /* \"#utility.yul\":27321:27330   */\n      dup5\n        /* \"#utility.yul\":27316:27319   */\n      dup10\n        /* \"#utility.yul\":27312:27331   */\n      add\n        /* \"#utility.yul\":27299:27332   */\n      calldataload\n        /* \"#utility.yul\":27291:27297   */\n      dup3\n        /* \"#utility.yul\":27284:27333   */\n      sstore\n        /* \"#utility.yul\":27372:27373   */\n      0x01\n        /* \"#utility.yul\":27364:27370   */\n      dup3\n        /* \"#utility.yul\":27360:27374   */\n      add\n        /* \"#utility.yul\":27350:27374   */\n      swap2\n      pop\n        /* \"#utility.yul\":27419:27421   */\n      0x20\n        /* \"#utility.yul\":27408:27417   */\n      dup6\n        /* \"#utility.yul\":27404:27422   */\n      add\n        /* \"#utility.yul\":27391:27422   */\n      swap5\n      pop\n        /* \"#utility.yul\":27258:27262   */\n      0x20\n        /* \"#utility.yul\":27255:27256   */\n      dup2\n        /* \"#utility.yul\":27251:27263   */\n      add\n        /* \"#utility.yul\":27246:27263   */\n      swap1\n      pop\n        /* \"#utility.yul\":27221:27436   */\n      jump(tag_666)\n    tag_668:\n        /* \"#utility.yul\":27464:27470   */\n      dup7\n        /* \"#utility.yul\":27455:27462   */\n      dup4\n        /* \"#utility.yul\":27452:27471   */\n      lt\n        /* \"#utility.yul\":27449:27635   */\n      iszero\n      tag_669\n      jumpi\n        /* \"#utility.yul\":27529:27538   */\n      dup5\n        /* \"#utility.yul\":27524:27527   */\n      dup10\n        /* \"#utility.yul\":27520:27539   */\n      add\n        /* \"#utility.yul\":27507:27540   */\n      calldataload\n        /* \"#utility.yul\":27572:27620   */\n      tag_670\n        /* \"#utility.yul\":27614:27618   */\n      0x1f\n        /* \"#utility.yul\":27606:27612   */\n      dup10\n        /* \"#utility.yul\":27602:27619   */\n      and\n        /* \"#utility.yul\":27591:27600   */\n      dup3\n        /* \"#utility.yul\":27572:27620   */\n      tag_319\n      jump\t// in\n    tag_670:\n        /* \"#utility.yul\":27564:27570   */\n      dup4\n        /* \"#utility.yul\":27557:27621   */\n      sstore\n        /* \"#utility.yul\":27472:27635   */\n      pop\n        /* \"#utility.yul\":27449:27635   */\n    tag_669:\n        /* \"#utility.yul\":27681:27682   */\n      0x01\n        /* \"#utility.yul\":27677:27678   */\n      0x02\n        /* \"#utility.yul\":27669:27675   */\n      dup9\n        /* \"#utility.yul\":27665:27679   */\n      mul\n        /* \"#utility.yul\":27661:27683   */\n      add\n        /* \"#utility.yul\":27655:27659   */\n      dup9\n        /* \"#utility.yul\":27648:27684   */\n      sstore\n        /* \"#utility.yul\":27070:27694   */\n      pop\n      pop\n      pop\n        /* \"#utility.yul\":27033:27940   */\n    tag_661:\n      pop\n        /* \"#utility.yul\":26645:27946   */\n      pop\n      pop\n      pop\n        /* \"#utility.yul\":26548:27946   */\n      pop\n      pop\n      pop\n      jump\t// out\n        /* \"#utility.yul\":27952:28166   */\n    tag_337:\n        /* \"#utility.yul\":28065:28160   */\n      tag_672\n        /* \"#utility.yul\":28152:28159   */\n      dup4\n        /* \"#utility.yul\":28143:28150   */\n      dup4\n        /* \"#utility.yul\":28137:28141   */\n      dup4\n        /* \"#utility.yul\":28065:28160   */\n      tag_336\n      jump\t// in\n    tag_672:\n        /* \"#utility.yul\":27952:28166   */\n      pop\n      pop\n      pop\n      jump\t// out\n        /* \"#utility.yul\":28172:29440   */\n    tag_338:\n        /* \"#utility.yul\":28350:28351   */\n      0x00\n        /* \"#utility.yul\":28344:28348   */\n      dup2\n        /* \"#utility.yul\":28340:28352   */\n      add\n        /* \"#utility.yul\":28396:28397   */\n      0x00\n        /* \"#utility.yul\":28389:28394   */\n      dup4\n        /* \"#utility.yul\":28385:28398   */\n      add\n        /* \"#utility.yul\":28461:28524   */\n      tag_674\n        /* \"#utility.yul\":28511:28523   */\n      dup2\n        /* \"#utility.yul\":28504:28509   */\n      dup6\n        /* \"#utility.yul\":28461:28524   */\n      tag_305\n      jump\t// in\n    tag_674:\n        /* \"#utility.yul\":28538:28650   */\n      tag_675\n        /* \"#utility.yul\":28636:28649   */\n      dup2\n        /* \"#utility.yul\":28621:28634   */\n      dup4\n        /* \"#utility.yul\":28609:28619   */\n      dup7\n        /* \"#utility.yul\":28538:28650   */\n      tag_322\n      jump\t// in\n    tag_675:\n        /* \"#utility.yul\":28307:28661   */\n      pop\n      pop\n      pop\n      pop\n        /* \"#utility.yul\":28714:28715   */\n      0x01\n        /* \"#utility.yul\":28708:28712   */\n      dup2\n        /* \"#utility.yul\":28704:28716   */\n      add\n        /* \"#utility.yul\":28760:28762   */\n      0x20\n        /* \"#utility.yul\":28753:28758   */\n      dup4\n        /* \"#utility.yul\":28749:28763   */\n      add\n        /* \"#utility.yul\":28811:28823   */\n      dup1\n        /* \"#utility.yul\":28854:28920   */\n      tag_676\n        /* \"#utility.yul\":28906:28919   */\n      dup2\n        /* \"#utility.yul\":28854:28920   */\n      tag_325\n      jump\t// in\n    tag_676:\n        /* \"#utility.yul\":28837:28920   */\n      swap1\n      pop\n        /* \"#utility.yul\":28934:29060   */\n      tag_677\n        /* \"#utility.yul\":29046:29059   */\n      dup2\n        /* \"#utility.yul\":29034:29044   */\n      dup5\n        /* \"#utility.yul\":28934:29060   */\n      tag_331\n      jump\t// in\n    tag_677:\n        /* \"#utility.yul\":28671:29071   */\n      pop\n      pop\n      pop\n        /* \"#utility.yul\":29124:29125   */\n      0x02\n        /* \"#utility.yul\":29118:29122   */\n      dup2\n        /* \"#utility.yul\":29114:29126   */\n      add\n        /* \"#utility.yul\":29170:29172   */\n      0x40\n        /* \"#utility.yul\":29163:29168   */\n      dup4\n        /* \"#utility.yul\":29159:29173   */\n      add\n        /* \"#utility.yul\":29236:29298   */\n      tag_678\n        /* \"#utility.yul\":29285:29297   */\n      dup2\n        /* \"#utility.yul\":29278:29283   */\n      dup6\n        /* \"#utility.yul\":29236:29298   */\n      tag_332\n      jump\t// in\n    tag_678:\n        /* \"#utility.yul\":29312:29422   */\n      tag_679\n        /* \"#utility.yul\":29408:29421   */\n      dup2\n        /* \"#utility.yul\":29393:29406   */\n      dup4\n        /* \"#utility.yul\":29381:29391   */\n      dup7\n        /* \"#utility.yul\":29312:29422   */\n      tag_337\n      jump\t// in\n    tag_679:\n        /* \"#utility.yul\":29081:29433   */\n      pop\n      pop\n      pop\n      pop\n        /* \"#utility.yul\":28172:29440   */\n      pop\n      pop\n      jump\t// out\n        /* \"#utility.yul\":29446:29706   */\n    tag_149:\n        /* \"#utility.yul\":29584:29700   */\n      tag_681\n        /* \"#utility.yul\":29692:29699   */\n      dup3\n        /* \"#utility.yul\":29686:29690   */\n      dup3\n        /* \"#utility.yul\":29584:29700   */\n      tag_338\n      jump\t// in\n    tag_681:\n        /* \"#utility.yul\":29446:29706   */\n      pop\n      pop\n      jump\t// out\n        /* \"#utility.yul\":29712:29881   */\n    tag_339:\n        /* \"#utility.yul\":29796:29807   */\n      0x00\n        /* \"#utility.yul\":29830:29836   */\n      dup3\n        /* \"#utility.yul\":29825:29828   */\n      dup3\n        /* \"#utility.yul\":29818:29837   */\n      mstore\n        /* \"#utility.yul\":29870:29874   */\n      0x20\n        /* \"#utility.yul\":29865:29868   */\n      dup3\n        /* \"#utility.yul\":29861:29875   */\n      add\n        /* \"#utility.yul\":29846:29875   */\n      swap1\n      pop\n        /* \"#utility.yul\":29712:29881   */\n      swap3\n      swap2\n      pop\n      pop\n      jump\t// out\n        /* \"#utility.yul\":29887:30114   */\n    tag_340:\n        /* \"#utility.yul\":30027:30061   */\n      0x76616c696461746f72206973206e6f742073657420666f722074686973207265\n        /* \"#utility.yul\":30023:30024   */\n      0x00\n        /* \"#utility.yul\":30015:30021   */\n      dup3\n        /* \"#utility.yul\":30011:30025   */\n      add\n        /* \"#utility.yul\":30004:30062   */\n      mstore\n        /* \"#utility.yul\":30096:30106   */\n      0x7175657374206964000000000000000000000000000000000000000000000000\n        /* \"#utility.yul\":30091:30093   */\n      0x20\n        /* \"#utility.yul\":30083:30089   */\n      dup3\n        /* \"#utility.yul\":30079:30094   */\n      add\n        /* \"#utility.yul\":30072:30107   */\n      mstore\n        /* \"#utility.yul\":29887:30114   */\n      pop\n      jump\t// out\n        /* \"#utility.yul\":30120:30486   */\n    tag_341:\n        /* \"#utility.yul\":30262:30265   */\n      0x00\n        /* \"#utility.yul\":30283:30350   */\n      tag_685\n        /* \"#utility.yul\":30347:30349   */\n      0x28\n        /* \"#utility.yul\":30342:30345   */\n      dup4\n        /* \"#utility.yul\":30283:30350   */\n      tag_339\n      jump\t// in\n    tag_685:\n        /* \"#utility.yul\":30276:30350   */\n      swap2\n      pop\n        /* \"#utility.yul\":30359:30452   */\n      tag_686\n        /* \"#utility.yul\":30448:30451   */\n      dup3\n        /* \"#utility.yul\":30359:30452   */\n      tag_340\n      jump\t// in\n    tag_686:\n        /* \"#utility.yul\":30477:30479   */\n      0x40\n        /* \"#utility.yul\":30472:30475   */\n      dup3\n        /* \"#utility.yul\":30468:30480   */\n      add\n        /* \"#utility.yul\":30461:30480   */\n      swap1\n      pop\n        /* \"#utility.yul\":30120:30486   */\n      swap2\n      swap1\n      pop\n      jump\t// out\n        /* \"#utility.yul\":30492:30911   */\n    tag_165:\n        /* \"#utility.yul\":30658:30662   */\n      0x00\n        /* \"#utility.yul\":30696:30698   */\n      0x20\n        /* \"#utility.yul\":30685:30694   */\n      dup3\n        /* \"#utility.yul\":30681:30699   */\n      add\n        /* \"#utility.yul\":30673:30699   */\n      swap1\n      pop\n        /* \"#utility.yul\":30745:30754   */\n      dup2\n        /* \"#utility.yul\":30739:30743   */\n      dup2\n        /* \"#utility.yul\":30735:30755   */\n      sub\n        /* \"#utility.yul\":30731:30732   */\n      0x00\n        /* \"#utility.yul\":30720:30729   */\n      dup4\n        /* \"#utility.yul\":30716:30733   */\n      add\n        /* \"#utility.yul\":30709:30756   */\n      mstore\n        /* \"#utility.yul\":30773:30904   */\n      tag_688\n        /* \"#utility.yul\":30899:30903   */\n      dup2\n        /* \"#utility.yul\":30773:30904   */\n      tag_341\n      jump\t// in\n    tag_688:\n        /* \"#utility.yul\":30765:30904   */\n      swap1\n      pop\n        /* \"#utility.yul\":30492:30911   */\n      swap2\n      swap1\n      pop\n      jump\t// out\n        /* \"#utility.yul\":30917:31101   */\n    tag_342:\n        /* \"#utility.yul\":31016:31027   */\n      0x00\n        /* \"#utility.yul\":31050:31056   */\n      dup3\n        /* \"#utility.yul\":31045:31048   */\n      dup3\n        /* \"#utility.yul\":31038:31057   */\n      mstore\n        /* \"#utility.yul\":31090:31094   */\n      0x20\n        /* \"#utility.yul\":31085:31088   */\n      dup3\n        /* \"#utility.yul\":31081:31095   */\n      add\n        /* \"#utility.yul\":31066:31095   */\n      swap1\n      pop\n        /* \"#utility.yul\":30917:31101   */\n      swap3\n      swap2\n      pop\n      pop\n      jump\t// out\n        /* \"#utility.yul\":31107:31224   */\n    tag_343:\n        /* \"#utility.yul\":31216:31217   */\n      0x00\n        /* \"#utility.yul\":31213:31214   */\n      dup1\n        /* \"#utility.yul\":31206:31218   */\n      revert\n        /* \"#utility.yul\":31230:31328   */\n    tag_344:\n        /* \"#utility.yul\":31314:31320   */\n      dup3\n        /* \"#utility.yul\":31309:31312   */\n      dup2\n        /* \"#utility.yul\":31304:31307   */\n      dup4\n        /* \"#utility.yul\":31291:31321   */\n      calldatacopy\n        /* \"#utility.yul\":31230:31328   */\n      pop\n      pop\n      pop\n      jump\t// out\n        /* \"#utility.yul\":31364:31901   */\n    tag_345:\n        /* \"#utility.yul\":31492:31495   */\n      0x00\n        /* \"#utility.yul\":31513:31599   */\n      tag_693\n        /* \"#utility.yul\":31592:31598   */\n      dup4\n        /* \"#utility.yul\":31587:31590   */\n      dup6\n        /* \"#utility.yul\":31513:31599   */\n      tag_342\n      jump\t// in\n    tag_693:\n        /* \"#utility.yul\":31506:31599   */\n      swap4\n      pop\n        /* \"#utility.yul\":31623:31689   */\n      0x07ffffffffffffffffffffffffffffffffffffffffffffffffffffffffffffff\n        /* \"#utility.yul\":31615:31621   */\n      dup4\n        /* \"#utility.yul\":31612:31690   */\n      gt\n        /* \"#utility.yul\":31609:31774   */\n      iszero\n      tag_694\n      jumpi\n        /* \"#utility.yul\":31693:31772   */\n      tag_695\n      tag_343\n      jump\t// in\n    tag_695:\n        /* \"#utility.yul\":31609:31774   */\n    tag_694:\n        /* \"#utility.yul\":31805:31809   */\n      0x20\n        /* \"#utility.yul\":31797:31803   */\n      dup4\n        /* \"#utility.yul\":31793:31810   */\n      mul\n        /* \"#utility.yul\":31783:31810   */\n      swap3\n      pop\n        /* \"#utility.yul\":31820:31863   */\n      tag_696\n        /* \"#utility.yul\":31856:31862   */\n      dup4\n        /* \"#utility.yul\":31851:31854   */\n      dup6\n        /* \"#utility.yul\":31844:31849   */\n      dup5\n        /* \"#utility.yul\":31820:31863   */\n      tag_344\n      jump\t// in\n    tag_696:\n        /* \"#utility.yul\":31888:31894   */\n      dup3\n        /* \"#utility.yul\":31883:31886   */\n      dup5\n        /* \"#utility.yul\":31879:31895   */\n      add\n        /* \"#utility.yul\":31872:31895   */\n      swap1\n      pop\n        /* \"#utility.yul\":31364:31901   */\n      swap4\n      swap3\n      pop\n      pop\n      pop\n      jump\t// out\n        /* \"#utility.yul\":31939:32109   */\n    tag_346:\n        /* \"#utility.yul\":32062:32103   */\n      tag_698\n        /* \"#utility.yul\":32098:32102   */\n      0x40\n        /* \"#utility.yul\":32093:32096   */\n      dup4\n        /* \"#utility.yul\":32086:32091   */\n      dup4\n        /* \"#utility.yul\":32062:32103   */\n      tag_344\n      jump\t// in\n    tag_698:\n        /* \"#utility.yul\":31939:32109   */\n      pop\n      pop\n      jump\t// out\n        /* \"#utility.yul\":32115:32246   */\n    tag_347:\n        /* \"#utility.yul\":32207:32213   */\n      0x00\n        /* \"#utility.yul\":32235:32239   */\n      0x02\n        /* \"#utility.yul\":32225:32239   */\n      swap1\n      pop\n        /* \"#utility.yul\":32115:32246   */\n      swap2\n      swap1\n      pop\n      jump\t// out\n        /* \"#utility.yul\":32252:32418   */\n    tag_348:\n        /* \"#utility.yul\":32372:32383   */\n      0x00\n        /* \"#utility.yul\":32409:32412   */\n      dup2\n        /* \"#utility.yul\":32394:32412   */\n      swap1\n      pop\n        /* \"#utility.yul\":32252:32418   */\n      swap3\n      swap2\n      pop\n      pop\n      jump\t// out\n        /* \"#utility.yul\":32424:32549   */\n    tag_349:\n        /* \"#utility.yul\":32516:32520   */\n      0x00\n        /* \"#utility.yul\":32539:32542   */\n      dup2\n        /* \"#utility.yul\":32531:32542   */\n      swap1\n      pop\n        /* \"#utility.yul\":32424:32549   */\n      swap2\n      swap1\n      pop\n      jump\t// out\n        /* \"#utility.yul\":32587:32747   */\n    tag_350:\n        /* \"#utility.yul\":32700:32741   */\n      tag_703\n        /* \"#utility.yul\":32736:32740   */\n      0x40\n        /* \"#utility.yul\":32731:32734   */\n      dup4\n        /* \"#utility.yul\":32724:32729   */\n      dup4\n        /* \"#utility.yul\":32700:32741   */\n      tag_344\n      jump\t// in\n    tag_703:\n        /* \"#utility.yul\":32587:32747   */\n      pop\n      pop\n      jump\t// out\n        /* \"#utility.yul\":32753:33028   */\n    tag_351:\n        /* \"#utility.yul\":32870:32880   */\n      0x00\n        /* \"#utility.yul\":32891:32985   */\n      tag_705\n        /* \"#utility.yul\":32981:32984   */\n      dup4\n        /* \"#utility.yul\":32973:32979   */\n      dup4\n        /* \"#utility.yul\":32891:32985   */\n      tag_350\n      jump\t// in\n    tag_705:\n        /* \"#utility.yul\":33017:33021   */\n      0x40\n        /* \"#utility.yul\":33012:33015   */\n      dup4\n        /* \"#utility.yul\":33008:33022   */\n      add\n        /* \"#utility.yul\":32994:33022   */\n      swap1\n      pop\n        /* \"#utility.yul\":32753:33028   */\n      swap3\n      swap2\n      pop\n      pop\n      jump\t// out\n        /* \"#utility.yul\":33034:33145   */\n    tag_352:\n        /* \"#utility.yul\":33111:33116   */\n      0x00\n        /* \"#utility.yul\":33136:33139   */\n      dup3\n        /* \"#utility.yul\":33127:33139   */\n      swap1\n      pop\n        /* \"#utility.yul\":33034:33145   */\n      swap3\n      swap2\n      pop\n      pop\n      jump\t// out\n        /* \"#utility.yul\":33151:33289   */\n    tag_353:\n        /* \"#utility.yul\":33246:33250   */\n      0x00\n        /* \"#utility.yul\":33278:33282   */\n      0x40\n        /* \"#utility.yul\":33273:33276   */\n      dup3\n        /* \"#utility.yul\":33269:33283   */\n      add\n        /* \"#utility.yul\":33261:33283   */\n      swap1\n      pop\n        /* \"#utility.yul\":33151:33289   */\n      swap2\n      swap1\n      pop\n      jump\t// out\n        /* \"#utility.yul\":33333:34283   */\n    tag_354:\n        /* \"#utility.yul\":33519:33598   */\n      tag_709\n        /* \"#utility.yul\":33592:33597   */\n      dup2\n        /* \"#utility.yul\":33519:33598   */\n      tag_347\n      jump\t// in\n    tag_709:\n        /* \"#utility.yul\":33614:33721   */\n      tag_710\n        /* \"#utility.yul\":33714:33720   */\n      dup2\n        /* \"#utility.yul\":33709:33712   */\n      dup5\n        /* \"#utility.yul\":33614:33721   */\n      tag_348\n      jump\t// in\n    tag_710:\n        /* \"#utility.yul\":33607:33721   */\n      swap3\n      pop\n        /* \"#utility.yul\":33745:33826   */\n      tag_711\n        /* \"#utility.yul\":33820:33825   */\n      dup3\n        /* \"#utility.yul\":33745:33826   */\n      tag_349\n      jump\t// in\n    tag_711:\n        /* \"#utility.yul\":33849:33856   */\n      dup1\n        /* \"#utility.yul\":33880:33881   */\n      0x00\n        /* \"#utility.yul\":33865:34276   */\n    tag_712:\n        /* \"#utility.yul\":33890:33896   */\n      dup4\n        /* \"#utility.yul\":33887:33888   */\n      dup2\n        /* \"#utility.yul\":33884:33897   */\n      lt\n        /* \"#utility.yul\":33865:34276   */\n      iszero\n      tag_714\n      jumpi\n        /* \"#utility.yul\":33960:34027   */\n      tag_715\n        /* \"#utility.yul\":34020:34026   */\n      dup3\n        /* \"#utility.yul\":34011:34018   */\n      dup5\n        /* \"#utility.yul\":33960:34027   */\n      tag_352\n      jump\t// in\n    tag_715:\n        /* \"#utility.yul\":34047:34158   */\n      tag_716\n        /* \"#utility.yul\":34154:34157   */\n      dup8\n        /* \"#utility.yul\":34139:34152   */\n      dup3\n        /* \"#utility.yul\":34047:34158   */\n      tag_351\n      jump\t// in\n    tag_716:\n        /* \"#utility.yul\":34040:34158   */\n      swap7\n      pop\n        /* \"#utility.yul\":34181:34266   */\n      tag_717\n        /* \"#utility.yul\":34259:34265   */\n      dup4\n        /* \"#utility.yul\":34181:34266   */\n      tag_353\n      jump\t// in\n    tag_717:\n        /* \"#utility.yul\":34171:34266   */\n      swap3\n      pop\n        /* \"#utility.yul\":33925:34276   */\n      pop\n        /* \"#utility.yul\":33912:33913   */\n      0x01\n        /* \"#utility.yul\":33909:33910   */\n      dup2\n        /* \"#utility.yul\":33905:33914   */\n      add\n        /* \"#utility.yul\":33900:33914   */\n      swap1\n      pop\n        /* \"#utility.yul\":33865:34276   */\n      jump(tag_712)\n    tag_714:\n        /* \"#utility.yul\":33869:33883   */\n      pop\n        /* \"#utility.yul\":33495:34283   */\n      pop\n      pop\n      pop\n        /* \"#utility.yul\":33333:34283   */\n      pop\n      pop\n      jump\t// out\n        /* \"#utility.yul\":34289:34457   */\n    tag_355:\n        /* \"#utility.yul\":34372:34383   */\n      0x00\n        /* \"#utility.yul\":34406:34412   */\n      dup3\n        /* \"#utility.yul\":34401:34404   */\n      dup3\n        /* \"#utility.yul\":34394:34413   */\n      mstore\n        /* \"#utility.yul\":34446:34450   */\n      0x20\n        /* \"#utility.yul\":34441:34444   */\n      dup3\n        /* \"#utility.yul\":34437:34451   */\n      add\n        /* \"#utility.yul\":34422:34451   */\n      swap1\n      pop\n        /* \"#utility.yul\":34289:34457   */\n      swap3\n      swap2\n      pop\n      pop\n      jump\t// out\n        /* \"#utility.yul\":34485:35312   */\n    tag_356:\n        /* \"#utility.yul\":34568:34571   */\n      0x00\n        /* \"#utility.yul\":34605:34610   */\n      dup2\n        /* \"#utility.yul\":34599:34611   */\n      sload\n        /* \"#utility.yul\":34634:34670   */\n      tag_720\n        /* \"#utility.yul\":34660:34669   */\n      dup2\n        /* \"#utility.yul\":34634:34670   */\n      tag_111\n      jump\t// in\n    tag_720:\n        /* \"#utility.yul\":34686:34756   */\n      tag_721\n        /* \"#utility.yul\":34749:34755   */\n      dup2\n        /* \"#utility.yul\":34744:34747   */\n      dup7\n        /* \"#utility.yul\":34686:34756   */\n      tag_355\n      jump\t// in\n    tag_721:\n        /* \"#utility.yul\":34679:34756   */\n      swap5\n      pop\n        /* \"#utility.yul\":34787:34788   */\n      0x01\n        /* \"#utility.yul\":34776:34785   */\n      dup3\n        /* \"#utility.yul\":34772:34789   */\n      and\n        /* \"#utility.yul\":34803:34804   */\n      0x00\n        /* \"#utility.yul\":34798:34962   */\n      dup2\n      eq\n      tag_723\n      jumpi\n        /* \"#utility.yul\":34976:34977   */\n      0x01\n        /* \"#utility.yul\":34971:35306   */\n      dup2\n      eq\n      tag_724\n      jumpi\n        /* \"#utility.yul\":34765:35306   */\n      jump(tag_722)\n        /* \"#utility.yul\":34798:34962   */\n    tag_723:\n        /* \"#utility.yul\":34882:34886   */\n      0xff\n        /* \"#utility.yul\":34878:34887   */\n      not\n        /* \"#utility.yul\":34867:34876   */\n      dup4\n        /* \"#utility.yul\":34863:34888   */\n      and\n        /* \"#utility.yul\":34858:34861   */\n      dup7\n        /* \"#utility.yul\":34851:34889   */\n      mstore\n        /* \"#utility.yul\":34942:34948   */\n      dup2\n        /* \"#utility.yul\":34935:34949   */\n      iszero\n        /* \"#utility.yul\":34928:34950   */\n      iszero\n        /* \"#utility.yul\":34922:34926   */\n      0x20\n        /* \"#utility.yul\":34918:34951   */\n      mul\n        /* \"#utility.yul\":34913:34916   */\n      dup7\n        /* \"#utility.yul\":34909:34952   */\n      add\n        /* \"#utility.yul\":34902:34952   */\n      swap4\n      pop\n        /* \"#utility.yul\":34798:34962   */\n      jump(tag_722)\n        /* \"#utility.yul\":34971:35306   */\n    tag_724:\n        /* \"#utility.yul\":35038:35075   */\n      tag_725\n        /* \"#utility.yul\":35069:35074   */\n      dup6\n        /* \"#utility.yul\":35038:35075   */\n      tag_334\n      jump\t// in\n    tag_725:\n        /* \"#utility.yul\":35097:35098   */\n      0x00\n        /* \"#utility.yul\":35111:35265   */\n    tag_726:\n        /* \"#utility.yul\":35125:35131   */\n      dup4\n        /* \"#utility.yul\":35122:35123   */\n      dup2\n        /* \"#utility.yul\":35119:35132   */\n      lt\n        /* \"#utility.yul\":35111:35265   */\n      iszero\n      tag_728\n      jumpi\n        /* \"#utility.yul\":35199:35206   */\n      dup2\n        /* \"#utility.yul\":35193:35207   */\n      sload\n        /* \"#utility.yul\":35189:35190   */\n      dup2\n        /* \"#utility.yul\":35184:35187   */\n      dup10\n        /* \"#utility.yul\":35180:35191   */\n      add\n        /* \"#utility.yul\":35173:35208   */\n      mstore\n        /* \"#utility.yul\":35249:35250   */\n      0x01\n        /* \"#utility.yul\":35240:35247   */\n      dup3\n        /* \"#utility.yul\":35236:35251   */\n      add\n        /* \"#utility.yul\":35225:35251   */\n      swap2\n      pop\n        /* \"#utility.yul\":35147:35151   */\n      0x20\n        /* \"#utility.yul\":35144:35145   */\n      dup2\n        /* \"#utility.yul\":35140:35152   */\n      add\n        /* \"#utility.yul\":35135:35152   */\n      swap1\n      pop\n        /* \"#utility.yul\":35111:35265   */\n      jump(tag_726)\n    tag_728:\n        /* \"#utility.yul\":35294:35295   */\n      dup1\n        /* \"#utility.yul\":35289:35292   */\n      dup9\n        /* \"#utility.yul\":35285:35296   */\n      add\n        /* \"#utility.yul\":35278:35296   */\n      swap6\n      pop\n        /* \"#utility.yul\":34978:35306   */\n      pop\n      pop\n        /* \"#utility.yul\":34765:35306   */\n    tag_722:\n      pop\n        /* \"#utility.yul\":34572:35312   */\n      pop\n      pop\n        /* \"#utility.yul\":34485:35312   */\n      swap3\n      swap2\n      pop\n      pop\n      jump\t// out\n        /* \"#utility.yul\":35318:36730   */\n    tag_169:\n        /* \"#utility.yul\":35818:35822   */\n      0x00\n        /* \"#utility.yul\":35856:35859   */\n      0x0160\n        /* \"#utility.yul\":35845:35854   */\n      dup3\n        /* \"#utility.yul\":35841:35860   */\n      add\n        /* \"#utility.yul\":35833:35860   */\n      swap1\n      pop\n        /* \"#utility.yul\":35906:35915   */\n      dup2\n        /* \"#utility.yul\":35900:35904   */\n      dup2\n        /* \"#utility.yul\":35896:35916   */\n      sub\n        /* \"#utility.yul\":35892:35893   */\n      0x00\n        /* \"#utility.yul\":35881:35890   */\n      dup4\n        /* \"#utility.yul\":35877:35894   */\n      add\n        /* \"#utility.yul\":35870:35917   */\n      mstore\n        /* \"#utility.yul\":35934:36052   */\n      tag_730\n        /* \"#utility.yul\":36047:36051   */\n      dup2\n        /* \"#utility.yul\":36038:36044   */\n      dup10\n        /* \"#utility.yul\":36030:36036   */\n      dup12\n        /* \"#utility.yul\":35934:36052   */\n      tag_345\n      jump\t// in\n    tag_730:\n        /* \"#utility.yul\":35926:36052   */\n      swap1\n      pop\n        /* \"#utility.yul\":36062:36182   */\n      tag_731\n        /* \"#utility.yul\":36178:36180   */\n      0x20\n        /* \"#utility.yul\":36167:36176   */\n      dup4\n        /* \"#utility.yul\":36163:36181   */\n      add\n        /* \"#utility.yul\":36154:36160   */\n      dup9\n        /* \"#utility.yul\":36062:36182   */\n      tag_346\n      jump\t// in\n    tag_731:\n        /* \"#utility.yul\":36192:36360   */\n      tag_732\n        /* \"#utility.yul\":36356:36358   */\n      0x60\n        /* \"#utility.yul\":36345:36354   */\n      dup4\n        /* \"#utility.yul\":36341:36359   */\n      add\n        /* \"#utility.yul\":36332:36338   */\n      dup8\n        /* \"#utility.yul\":36192:36360   */\n      tag_354\n      jump\t// in\n    tag_732:\n        /* \"#utility.yul\":36370:36491   */\n      tag_733\n        /* \"#utility.yul\":36486:36489   */\n      0xe0\n        /* \"#utility.yul\":36475:36484   */\n      dup4\n        /* \"#utility.yul\":36471:36490   */\n      add\n        /* \"#utility.yul\":36462:36468   */\n      dup7\n        /* \"#utility.yul\":36370:36491   */\n      tag_346\n      jump\t// in\n    tag_733:\n        /* \"#utility.yul\":36539:36548   */\n      dup2\n        /* \"#utility.yul\":36533:36537   */\n      dup2\n        /* \"#utility.yul\":36529:36549   */\n      sub\n        /* \"#utility.yul\":36523:36526   */\n      0x0120\n        /* \"#utility.yul\":36512:36521   */\n      dup4\n        /* \"#utility.yul\":36508:36527   */\n      add\n        /* \"#utility.yul\":36501:36550   */\n      mstore\n        /* \"#utility.yul\":36567:36640   */\n      tag_734\n        /* \"#utility.yul\":36635:36639   */\n      dup2\n        /* \"#utility.yul\":36626:36632   */\n      dup6\n        /* \"#utility.yul\":36567:36640   */\n      tag_356\n      jump\t// in\n    tag_734:\n        /* \"#utility.yul\":36559:36640   */\n      swap1\n      pop\n        /* \"#utility.yul\":36650:36723   */\n      tag_735\n        /* \"#utility.yul\":36718:36721   */\n      0x0140\n        /* \"#utility.yul\":36707:36716   */\n      dup4\n        /* \"#utility.yul\":36703:36722   */\n      add\n        /* \"#utility.yul\":36694:36700   */\n      dup5\n        /* \"#utility.yul\":36650:36723   */\n      tag_262\n      jump\t// in\n    tag_735:\n        /* \"#utility.yul\":35318:36730   */\n      swap9\n      swap8\n      pop\n      pop\n      pop\n      pop\n      pop\n      pop\n      pop\n      pop\n      jump\t// out\n        /* \"#utility.yul\":36736:37017   */\n    tag_357:\n        /* \"#utility.yul\":36819:36846   */\n      tag_737\n        /* \"#utility.yul\":36841:36845   */\n      dup3\n        /* \"#utility.yul\":36819:36846   */\n      tag_276\n      jump\t// in\n    tag_737:\n        /* \"#utility.yul\":36811:36817   */\n      dup2\n        /* \"#utility.yul\":36807:36847   */\n      add\n        /* \"#utility.yul\":36949:36955   */\n      dup2\n        /* \"#utility.yul\":36937:36947   */\n      dup2\n        /* \"#utility.yul\":36934:36956   */\n      lt\n        /* \"#utility.yul\":36913:36931   */\n      0xffffffffffffffff\n        /* \"#utility.yul\":36901:36911   */\n      dup3\n        /* \"#utility.yul\":36898:36932   */\n      gt\n        /* \"#utility.yul\":36895:36957   */\n      or\n        /* \"#utility.yul\":36892:36980   */\n      iszero\n      tag_738\n      jumpi\n        /* \"#utility.yul\":36960:36978   */\n      tag_739\n      tag_98\n      jump\t// in\n    tag_739:\n        /* \"#utility.yul\":36892:36980   */\n    tag_738:\n        /* \"#utility.yul\":37000:37010   */\n      dup1\n        /* \"#utility.yul\":36996:36998   */\n      0x40\n        /* \"#utility.yul\":36989:37011   */\n      mstore\n        /* \"#utility.yul\":36779:37017   */\n      pop\n        /* \"#utility.yul\":36736:37017   */\n      pop\n      pop\n      jump\t// out\n        /* \"#utility.yul\":37023:37152   */\n    tag_358:\n        /* \"#utility.yul\":37057:37063   */\n      0x00\n        /* \"#utility.yul\":37084:37104   */\n      tag_741\n      tag_255\n      jump\t// in\n    tag_741:\n        /* \"#utility.yul\":37074:37104   */\n      swap1\n      pop\n        /* \"#utility.yul\":37113:37146   */\n      tag_742\n        /* \"#utility.yul\":37141:37145   */\n      dup3\n        /* \"#utility.yul\":37133:37139   */\n      dup3\n        /* \"#utility.yul\":37113:37146   */\n      tag_357\n      jump\t// in\n    tag_742:\n        /* \"#utility.yul\":37023:37152   */\n      swap2\n      swap1\n      pop\n      jump\t// out\n        /* \"#utility.yul\":37158:37499   */\n    tag_359:\n        /* \"#utility.yul\":37265:37269   */\n      0x00\n        /* \"#utility.yul\":37355:37373   */\n      0xffffffffffffffff\n        /* \"#utility.yul\":37347:37353   */\n      dup3\n        /* \"#utility.yul\":37344:37374   */\n      gt\n        /* \"#utility.yul\":37341:37397   */\n      iszero\n      tag_744\n      jumpi\n        /* \"#utility.yul\":37377:37395   */\n      tag_745\n      tag_98\n      jump\t// in\n    tag_745:\n        /* \"#utility.yul\":37341:37397   */\n    tag_744:\n        /* \"#utility.yul\":37427:37431   */\n      0x20\n        /* \"#utility.yul\":37419:37425   */\n      dup3\n        /* \"#utility.yul\":37415:37432   */\n      mul\n        /* \"#utility.yul\":37407:37432   */\n      swap1\n      pop\n        /* \"#utility.yul\":37487:37491   */\n      0x20\n        /* \"#utility.yul\":37481:37485   */\n      dup2\n        /* \"#utility.yul\":37477:37492   */\n      add\n        /* \"#utility.yul\":37469:37492   */\n      swap1\n      pop\n        /* \"#utility.yul\":37158:37499   */\n      swap2\n      swap1\n      pop\n      jump\t// out\n        /* \"#utility.yul\":37505:37622   */\n    tag_360:\n        /* \"#utility.yul\":37614:37615   */\n      0x00\n        /* \"#utility.yul\":37611:37612   */\n      dup1\n        /* \"#utility.yul\":37604:37616   */\n      revert\n        /* \"#utility.yul\":37628:37745   */\n    tag_361:\n        /* \"#utility.yul\":37737:37738   */\n      0x00\n        /* \"#utility.yul\":37734:37735   */\n      dup1\n        /* \"#utility.yul\":37727:37739   */\n      revert\n        /* \"#utility.yul\":37751:37868   */\n    tag_362:\n        /* \"#utility.yul\":37860:37861   */\n      0x00\n        /* \"#utility.yul\":37857:37858   */\n      dup1\n        /* \"#utility.yul\":37850:37862   */\n      revert\n        /* \"#utility.yul\":37874:38182   */\n    tag_363:\n        /* \"#utility.yul\":37936:37940   */\n      0x00\n        /* \"#utility.yul\":38026:38044   */\n      0xffffffffffffffff\n        /* \"#utility.yul\":38018:38024   */\n      dup3\n        /* \"#utility.yul\":38015:38045   */\n      gt\n        /* \"#utility.yul\":38012:38068   */\n      iszero\n      tag_750\n      jumpi\n        /* \"#utility.yul\":38048:38066   */\n      tag_751\n      tag_98\n      jump\t// in\n    tag_751:\n        /* \"#utility.yul\":38012:38068   */\n    tag_750:\n        /* \"#utility.yul\":38086:38115   */\n      tag_752\n        /* \"#utility.yul\":38108:38114   */\n      dup3\n        /* \"#utility.yul\":38086:38115   */\n      tag_276\n      jump\t// in\n    tag_752:\n        /* \"#utility.yul\":38078:38115   */\n      swap1\n      pop\n        /* \"#utility.yul\":38170:38174   */\n      0x20\n        /* \"#utility.yul\":38164:38168   */\n      dup2\n        /* \"#utility.yul\":38160:38175   */\n      add\n        /* \"#utility.yul\":38152:38175   */\n      swap1\n      pop\n        /* \"#utility.yul\":37874:38182   */\n      swap2\n      swap1\n      pop\n      jump\t// out\n        /* \"#utility.yul\":38188:38622   */\n    tag_364:\n        /* \"#utility.yul\":38277:38282   */\n      0x00\n        /* \"#utility.yul\":38302:38368   */\n      tag_754\n        /* \"#utility.yul\":38318:38367   */\n      tag_755\n        /* \"#utility.yul\":38360:38366   */\n      dup5\n        /* \"#utility.yul\":38318:38367   */\n      tag_363\n      jump\t// in\n    tag_755:\n        /* \"#utility.yul\":38302:38368   */\n      tag_358\n      jump\t// in\n    tag_754:\n        /* \"#utility.yul\":38293:38368   */\n      swap1\n      pop\n        /* \"#utility.yul\":38391:38397   */\n      dup3\n        /* \"#utility.yul\":38384:38389   */\n      dup2\n        /* \"#utility.yul\":38377:38398   */\n      mstore\n        /* \"#utility.yul\":38429:38433   */\n      0x20\n        /* \"#utility.yul\":38422:38427   */\n      dup2\n        /* \"#utility.yul\":38418:38434   */\n      add\n        /* \"#utility.yul\":38467:38470   */\n      dup5\n        /* \"#utility.yul\":38458:38464   */\n      dup5\n        /* \"#utility.yul\":38453:38456   */\n      dup5\n        /* \"#utility.yul\":38449:38465   */\n      add\n        /* \"#utility.yul\":38446:38471   */\n      gt\n        /* \"#utility.yul\":38443:38555   */\n      iszero\n      tag_756\n      jumpi\n        /* \"#utility.yul\":38474:38553   */\n      tag_757\n      tag_362\n      jump\t// in\n    tag_757:\n        /* \"#utility.yul\":38443:38555   */\n    tag_756:\n        /* \"#utility.yul\":38564:38616   */\n      tag_758\n        /* \"#utility.yul\":38609:38615   */\n      dup5\n        /* \"#utility.yul\":38604:38607   */\n      dup3\n        /* \"#utility.yul\":38599:38602   */\n      dup6\n        /* \"#utility.yul\":38564:38616   */\n      tag_275\n      jump\t// in\n    tag_758:\n        /* \"#utility.yul\":38283:38622   */\n      pop\n        /* \"#utility.yul\":38188:38622   */\n      swap4\n      swap3\n      pop\n      pop\n      pop\n      jump\t// out\n        /* \"#utility.yul\":38642:38997   */\n    tag_365:\n        /* \"#utility.yul\":38709:38714   */\n      0x00\n        /* \"#utility.yul\":38758:38761   */\n      dup3\n        /* \"#utility.yul\":38751:38755   */\n      0x1f\n        /* \"#utility.yul\":38743:38749   */\n      dup4\n        /* \"#utility.yul\":38739:38756   */\n      add\n        /* \"#utility.yul\":38735:38762   */\n      slt\n        /* \"#utility.yul\":38725:38847   */\n      tag_760\n      jumpi\n        /* \"#utility.yul\":38766:38845   */\n      tag_761\n      tag_292\n      jump\t// in\n    tag_761:\n        /* \"#utility.yul\":38725:38847   */\n    tag_760:\n        /* \"#utility.yul\":38876:38882   */\n      dup2\n        /* \"#utility.yul\":38870:38883   */\n      mload\n        /* \"#utility.yul\":38901:38991   */\n      tag_762\n        /* \"#utility.yul\":38987:38990   */\n      dup5\n        /* \"#utility.yul\":38979:38985   */\n      dup3\n        /* \"#utility.yul\":38972:38976   */\n      0x20\n        /* \"#utility.yul\":38964:38970   */\n      dup7\n        /* \"#utility.yul\":38960:38977   */\n      add\n        /* \"#utility.yul\":38901:38991   */\n      tag_364\n      jump\t// in\n    tag_762:\n        /* \"#utility.yul\":38892:38991   */\n      swap2\n      pop\n        /* \"#utility.yul\":38715:38997   */\n      pop\n        /* \"#utility.yul\":38642:38997   */\n      swap3\n      swap2\n      pop\n      pop\n      jump\t// out\n        /* \"#utility.yul\":39003:39146   */\n    tag_366:\n        /* \"#utility.yul\":39060:39065   */\n      0x00\n        /* \"#utility.yul\":39091:39097   */\n      dup2\n        /* \"#utility.yul\":39085:39098   */\n      mload\n        /* \"#utility.yul\":39076:39098   */\n      swap1\n      pop\n        /* \"#utility.yul\":39107:39140   */\n      tag_764\n        /* \"#utility.yul\":39134:39139   */\n      dup2\n        /* \"#utility.yul\":39107:39140   */\n      tag_258\n      jump\t// in\n    tag_764:\n        /* \"#utility.yul\":39003:39146   */\n      swap3\n      swap2\n      pop\n      pop\n      jump\t// out\n        /* \"#utility.yul\":39200:39980   */\n    tag_367:\n        /* \"#utility.yul\":39290:39295   */\n      0x00\n        /* \"#utility.yul\":39334:39338   */\n      0x40\n        /* \"#utility.yul\":39322:39331   */\n      dup3\n        /* \"#utility.yul\":39317:39320   */\n      dup5\n        /* \"#utility.yul\":39313:39332   */\n      sub\n        /* \"#utility.yul\":39309:39339   */\n      slt\n        /* \"#utility.yul\":39306:39423   */\n      iszero\n      tag_766\n      jumpi\n        /* \"#utility.yul\":39342:39421   */\n      tag_767\n      tag_360\n      jump\t// in\n    tag_767:\n        /* \"#utility.yul\":39306:39423   */\n    tag_766:\n        /* \"#utility.yul\":39441:39462   */\n      tag_768\n        /* \"#utility.yul\":39457:39461   */\n      0x40\n        /* \"#utility.yul\":39441:39462   */\n      tag_358\n      jump\t// in\n    tag_768:\n        /* \"#utility.yul\":39432:39462   */\n      swap1\n      pop\n        /* \"#utility.yul\":39541:39542   */\n      0x00\n        /* \"#utility.yul\":39530:39539   */\n      dup3\n        /* \"#utility.yul\":39526:39543   */\n      add\n        /* \"#utility.yul\":39520:39544   */\n      mload\n        /* \"#utility.yul\":39571:39589   */\n      0xffffffffffffffff\n        /* \"#utility.yul\":39563:39569   */\n      dup2\n        /* \"#utility.yul\":39560:39590   */\n      gt\n        /* \"#utility.yul\":39557:39674   */\n      iszero\n      tag_769\n      jumpi\n        /* \"#utility.yul\":39593:39672   */\n      tag_770\n      tag_361\n      jump\t// in\n    tag_770:\n        /* \"#utility.yul\":39557:39674   */\n    tag_769:\n        /* \"#utility.yul\":39713:39783   */\n      tag_771\n        /* \"#utility.yul\":39779:39782   */\n      dup5\n        /* \"#utility.yul\":39770:39776   */\n      dup3\n        /* \"#utility.yul\":39759:39768   */\n      dup6\n        /* \"#utility.yul\":39755:39777   */\n      add\n        /* \"#utility.yul\":39713:39783   */\n      tag_365\n      jump\t// in\n    tag_771:\n        /* \"#utility.yul\":39706:39710   */\n      0x00\n        /* \"#utility.yul\":39699:39704   */\n      dup4\n        /* \"#utility.yul\":39695:39711   */\n      add\n        /* \"#utility.yul\":39688:39784   */\n      mstore\n        /* \"#utility.yul\":39472:39795   */\n      pop\n        /* \"#utility.yul\":39860:39862   */\n      0x20\n        /* \"#utility.yul\":39901:39961   */\n      tag_772\n        /* \"#utility.yul\":39957:39960   */\n      dup5\n        /* \"#utility.yul\":39948:39954   */\n      dup3\n        /* \"#utility.yul\":39937:39946   */\n      dup6\n        /* \"#utility.yul\":39933:39955   */\n      add\n        /* \"#utility.yul\":39901:39961   */\n      tag_366\n      jump\t// in\n    tag_772:\n        /* \"#utility.yul\":39894:39898   */\n      0x20\n        /* \"#utility.yul\":39887:39892   */\n      dup4\n        /* \"#utility.yul\":39883:39899   */\n      add\n        /* \"#utility.yul\":39876:39962   */\n      mstore\n        /* \"#utility.yul\":39805:39973   */\n      pop\n        /* \"#utility.yul\":39200:39980   */\n      swap3\n      swap2\n      pop\n      pop\n      jump\t// out\n        /* \"#utility.yul\":40036:41056   */\n    tag_368:\n        /* \"#utility.yul\":40173:40178   */\n      0x00\n        /* \"#utility.yul\":40198:40309   */\n      tag_774\n        /* \"#utility.yul\":40214:40308   */\n      tag_775\n        /* \"#utility.yul\":40301:40307   */\n      dup5\n        /* \"#utility.yul\":40214:40308   */\n      tag_359\n      jump\t// in\n    tag_775:\n        /* \"#utility.yul\":40198:40309   */\n      tag_358\n      jump\t// in\n    tag_774:\n        /* \"#utility.yul\":40189:40309   */\n      swap1\n      pop\n        /* \"#utility.yul\":40329:40334   */\n      dup1\n        /* \"#utility.yul\":40358:40364   */\n      dup4\n        /* \"#utility.yul\":40351:40356   */\n      dup3\n        /* \"#utility.yul\":40344:40365   */\n      mstore\n        /* \"#utility.yul\":40392:40396   */\n      0x20\n        /* \"#utility.yul\":40385:40390   */\n      dup3\n        /* \"#utility.yul\":40381:40397   */\n      add\n        /* \"#utility.yul\":40374:40397   */\n      swap1\n      pop\n        /* \"#utility.yul\":40445:40449   */\n      0x20\n        /* \"#utility.yul\":40437:40443   */\n      dup5\n        /* \"#utility.yul\":40433:40450   */\n      mul\n        /* \"#utility.yul\":40425:40431   */\n      dup4\n        /* \"#utility.yul\":40421:40451   */\n      add\n        /* \"#utility.yul\":40474:40477   */\n      dup6\n        /* \"#utility.yul\":40466:40472   */\n      dup2\n        /* \"#utility.yul\":40463:40478   */\n      gt\n        /* \"#utility.yul\":40460:40582   */\n      iszero\n      tag_776\n      jumpi\n        /* \"#utility.yul\":40493:40572   */\n      tag_777\n      tag_294\n      jump\t// in\n    tag_777:\n        /* \"#utility.yul\":40460:40582   */\n    tag_776:\n        /* \"#utility.yul\":40608:40614   */\n      dup4\n        /* \"#utility.yul\":40591:41050   */\n    tag_778:\n        /* \"#utility.yul\":40625:40631   */\n      dup2\n        /* \"#utility.yul\":40620:40623   */\n      dup2\n        /* \"#utility.yul\":40617:40632   */\n      lt\n        /* \"#utility.yul\":40591:41050   */\n      iszero\n      tag_780\n      jumpi\n        /* \"#utility.yul\":40707:40710   */\n      dup1\n        /* \"#utility.yul\":40701:40711   */\n      mload\n        /* \"#utility.yul\":40743:40761   */\n      0xffffffffffffffff\n        /* \"#utility.yul\":40730:40741   */\n      dup2\n        /* \"#utility.yul\":40727:40762   */\n      gt\n        /* \"#utility.yul\":40724:40846   */\n      iszero\n      tag_781\n      jumpi\n        /* \"#utility.yul\":40765:40844   */\n      tag_782\n      tag_292\n      jump\t// in\n    tag_782:\n        /* \"#utility.yul\":40724:40846   */\n    tag_781:\n        /* \"#utility.yul\":40889:40900   */\n      dup1\n        /* \"#utility.yul\":40881:40887   */\n      dup7\n        /* \"#utility.yul\":40877:40901   */\n      add\n        /* \"#utility.yul\":40927:41005   */\n      tag_783\n        /* \"#utility.yul\":41001:41004   */\n      dup10\n        /* \"#utility.yul\":40989:40999   */\n      dup3\n        /* \"#utility.yul\":40927:41005   */\n      tag_367\n      jump\t// in\n    tag_783:\n        /* \"#utility.yul\":40922:40925   */\n      dup6\n        /* \"#utility.yul\":40915:41006   */\n      mstore\n        /* \"#utility.yul\":41035:41039   */\n      0x20\n        /* \"#utility.yul\":41030:41033   */\n      dup6\n        /* \"#utility.yul\":41026:41040   */\n      add\n        /* \"#utility.yul\":41019:41040   */\n      swap5\n      pop\n        /* \"#utility.yul\":40667:41050   */\n      pop\n      pop\n        /* \"#utility.yul\":40651:40655   */\n      0x20\n        /* \"#utility.yul\":40646:40649   */\n      dup2\n        /* \"#utility.yul\":40642:40656   */\n      add\n        /* \"#utility.yul\":40635:40656   */\n      swap1\n      pop\n        /* \"#utility.yul\":40591:41050   */\n      jump(tag_778)\n    tag_780:\n        /* \"#utility.yul\":40595:40616   */\n      pop\n        /* \"#utility.yul\":40179:41056   */\n      pop\n      pop\n        /* \"#utility.yul\":40036:41056   */\n      swap4\n      swap3\n      pop\n      pop\n      pop\n      jump\t// out\n        /* \"#utility.yul\":41112:41557   */\n    tag_369:\n        /* \"#utility.yul\":41224:41229   */\n      0x00\n        /* \"#utility.yul\":41273:41276   */\n      dup3\n        /* \"#utility.yul\":41266:41270   */\n      0x1f\n        /* \"#utility.yul\":41258:41264   */\n      dup4\n        /* \"#utility.yul\":41254:41271   */\n      add\n        /* \"#utility.yul\":41250:41277   */\n      slt\n        /* \"#utility.yul\":41240:41362   */\n      tag_785\n      jumpi\n        /* \"#utility.yul\":41281:41360   */\n      tag_786\n      tag_292\n      jump\t// in\n    tag_786:\n        /* \"#utility.yul\":41240:41362   */\n    tag_785:\n        /* \"#utility.yul\":41391:41397   */\n      dup2\n        /* \"#utility.yul\":41385:41398   */\n      mload\n        /* \"#utility.yul\":41416:41551   */\n      tag_787\n        /* \"#utility.yul\":41547:41550   */\n      dup5\n        /* \"#utility.yul\":41539:41545   */\n      dup3\n        /* \"#utility.yul\":41532:41536   */\n      0x20\n        /* \"#utility.yul\":41524:41530   */\n      dup7\n        /* \"#utility.yul\":41520:41537   */\n      add\n        /* \"#utility.yul\":41416:41551   */\n      tag_368\n      jump\t// in\n    tag_787:\n        /* \"#utility.yul\":41407:41551   */\n      swap2\n      pop\n        /* \"#utility.yul\":41230:41557   */\n      pop\n        /* \"#utility.yul\":41112:41557   */\n      swap3\n      swap2\n      pop\n      pop\n      jump\t// out\n        /* \"#utility.yul\":41563:42177   */\n    tag_173:\n        /* \"#utility.yul\":41688:41694   */\n      0x00\n        /* \"#utility.yul\":41737:41739   */\n      0x20\n        /* \"#utility.yul\":41725:41734   */\n      dup3\n        /* \"#utility.yul\":41716:41723   */\n      dup5\n        /* \"#utility.yul\":41712:41735   */\n      sub\n        /* \"#utility.yul\":41708:41740   */\n      slt\n        /* \"#utility.yul\":41705:41824   */\n      iszero\n      tag_789\n      jumpi\n        /* \"#utility.yul\":41743:41822   */\n      tag_790\n      tag_256\n      jump\t// in\n    tag_790:\n        /* \"#utility.yul\":41705:41824   */\n    tag_789:\n        /* \"#utility.yul\":41884:41885   */\n      0x00\n        /* \"#utility.yul\":41873:41882   */\n      dup3\n        /* \"#utility.yul\":41869:41886   */\n      add\n        /* \"#utility.yul\":41863:41887   */\n      mload\n        /* \"#utility.yul\":41914:41932   */\n      0xffffffffffffffff\n        /* \"#utility.yul\":41906:41912   */\n      dup2\n        /* \"#utility.yul\":41903:41933   */\n      gt\n        /* \"#utility.yul\":41900:42017   */\n      iszero\n      tag_791\n      jumpi\n        /* \"#utility.yul\":41936:42015   */\n      tag_792\n      tag_257\n      jump\t// in\n    tag_792:\n        /* \"#utility.yul\":41900:42017   */\n    tag_791:\n        /* \"#utility.yul\":42041:42160   */\n      tag_793\n        /* \"#utility.yul\":42152:42159   */\n      dup5\n        /* \"#utility.yul\":42143:42149   */\n      dup3\n        /* \"#utility.yul\":42132:42141   */\n      dup6\n        /* \"#utility.yul\":42128:42150   */\n      add\n        /* \"#utility.yul\":42041:42160   */\n      tag_369\n      jump\t// in\n    tag_793:\n        /* \"#utility.yul\":42031:42160   */\n      swap2\n      pop\n        /* \"#utility.yul\":41834:42170   */\n      pop\n        /* \"#utility.yul\":41563:42177   */\n      swap3\n      swap2\n      pop\n      pop\n      jump\t// out\n        /* \"#utility.yul\":42183:42357   */\n    tag_370:\n        /* \"#utility.yul\":42323:42349   */\n      0x7265717565737420696420646f65736e27742065786973740000000000000000\n        /* \"#utility.yul\":42319:42320   */\n      0x00\n        /* \"#utility.yul\":42311:42317   */\n      dup3\n        /* \"#utility.yul\":42307:42321   */\n      add\n        /* \"#utility.yul\":42300:42350   */\n      mstore\n        /* \"#utility.yul\":42183:42357   */\n      pop\n      jump\t// out\n        /* \"#utility.yul\":42363:42729   */\n    tag_371:\n        /* \"#utility.yul\":42505:42508   */\n      0x00\n        /* \"#utility.yul\":42526:42593   */\n      tag_796\n        /* \"#utility.yul\":42590:42592   */\n      0x18\n        /* \"#utility.yul\":42585:42588   */\n      dup4\n        /* \"#utility.yul\":42526:42593   */\n      tag_339\n      jump\t// in\n    tag_796:\n        /* \"#utility.yul\":42519:42593   */\n      swap2\n      pop\n        /* \"#utility.yul\":42602:42695   */\n      tag_797\n        /* \"#utility.yul\":42691:42694   */\n      dup3\n        /* \"#utility.yul\":42602:42695   */\n      tag_370\n      jump\t// in\n    tag_797:\n        /* \"#utility.yul\":42720:42722   */\n      0x20\n        /* \"#utility.yul\":42715:42718   */\n      dup3\n        /* \"#utility.yul\":42711:42723   */\n      add\n        /* \"#utility.yul\":42704:42723   */\n      swap1\n      pop\n        /* \"#utility.yul\":42363:42729   */\n      swap2\n      swap1\n      pop\n      jump\t// out\n        /* \"#utility.yul\":42735:43154   */\n    tag_181:\n        /* \"#utility.yul\":42901:42905   */\n      0x00\n        /* \"#utility.yul\":42939:42941   */\n      0x20\n        /* \"#utility.yul\":42928:42937   */\n      dup3\n        /* \"#utility.yul\":42924:42942   */\n      add\n        /* \"#utility.yul\":42916:42942   */\n      swap1\n      pop\n        /* \"#utility.yul\":42988:42997   */\n      dup2\n        /* \"#utility.yul\":42982:42986   */\n      dup2\n        /* \"#utility.yul\":42978:42998   */\n      sub\n        /* \"#utility.yul\":42974:42975   */\n      0x00\n        /* \"#utility.yul\":42963:42972   */\n      dup4\n        /* \"#utility.yul\":42959:42976   */\n      add\n        /* \"#utility.yul\":42952:42999   */\n      mstore\n        /* \"#utility.yul\":43016:43147   */\n      tag_799\n        /* \"#utility.yul\":43142:43146   */\n      dup2\n        /* \"#utility.yul\":43016:43147   */\n      tag_371\n      jump\t// in\n    tag_799:\n        /* \"#utility.yul\":43008:43147   */\n      swap1\n      pop\n        /* \"#utility.yul\":42735:43154   */\n      swap2\n      swap1\n      pop\n      jump\t// out\n        /* \"#utility.yul\":43160:43341   */\n    tag_372:\n        /* \"#utility.yul\":43300:43333   */\n      0x4c656e6774682073686f756c642062652067726561746572207468616e203000\n        /* \"#utility.yul\":43296:43297   */\n      0x00\n        /* \"#utility.yul\":43288:43294   */\n      dup3\n        /* \"#utility.yul\":43284:43298   */\n      add\n        /* \"#utility.yul\":43277:43334   */\n      mstore\n        /* \"#utility.yul\":43160:43341   */\n      pop\n      jump\t// out\n        /* \"#utility.yul\":43347:43713   */\n    tag_373:\n        /* \"#utility.yul\":43489:43492   */\n      0x00\n        /* \"#utility.yul\":43510:43577   */\n      tag_802\n        /* \"#utility.yul\":43574:43576   */\n      0x1f\n        /* \"#utility.yul\":43569:43572   */\n      dup4\n        /* \"#utility.yul\":43510:43577   */\n      tag_339\n      jump\t// in\n    tag_802:\n        /* \"#utility.yul\":43503:43577   */\n      swap2\n      pop\n        /* \"#utility.yul\":43586:43679   */\n      tag_803\n        /* \"#utility.yul\":43675:43678   */\n      dup3\n        /* \"#utility.yul\":43586:43679   */\n      tag_372\n      jump\t// in\n    tag_803:\n        /* \"#utility.yul\":43704:43706   */\n      0x20\n        /* \"#utility.yul\":43699:43702   */\n      dup3\n        /* \"#utility.yul\":43695:43707   */\n      add\n        /* \"#utility.yul\":43688:43707   */\n      swap1\n      pop\n        /* \"#utility.yul\":43347:43713   */\n      swap2\n      swap1\n      pop\n      jump\t// out\n        /* \"#utility.yul\":43719:44138   */\n    tag_205:\n        /* \"#utility.yul\":43885:43889   */\n      0x00\n        /* \"#utility.yul\":43923:43925   */\n      0x20\n        /* \"#utility.yul\":43912:43921   */\n      dup3\n        /* \"#utility.yul\":43908:43926   */\n      add\n        /* \"#utility.yul\":43900:43926   */\n      swap1\n      pop\n        /* \"#utility.yul\":43972:43981   */\n      dup2\n        /* \"#utility.yul\":43966:43970   */\n      dup2\n        /* \"#utility.yul\":43962:43982   */\n      sub\n        /* \"#utility.yul\":43958:43959   */\n      0x00\n        /* \"#utility.yul\":43947:43956   */\n      dup4\n        /* \"#utility.yul\":43943:43960   */\n      add\n        /* \"#utility.yul\":43936:43983   */\n      mstore\n        /* \"#utility.yul\":44000:44131   */\n      tag_805\n        /* \"#utility.yul\":44126:44130   */\n      dup2\n        /* \"#utility.yul\":44000:44131   */\n      tag_373\n      jump\t// in\n    tag_805:\n        /* \"#utility.yul\":43992:44131   */\n      swap1\n      pop\n        /* \"#utility.yul\":43719:44138   */\n      swap2\n      swap1\n      pop\n      jump\t// out\n        /* \"#utility.yul\":44144:44315   */\n    tag_374:\n        /* \"#utility.yul\":44284:44307   */\n      0x4c656e677468206c696d69742065786365656465640000000000000000000000\n        /* \"#utility.yul\":44280:44281   */\n      0x00\n        /* \"#utility.yul\":44272:44278   */\n      dup3\n        /* \"#utility.yul\":44268:44282   */\n      add\n        /* \"#utility.yul\":44261:44308   */\n      mstore\n        /* \"#utility.yul\":44144:44315   */\n      pop\n      jump\t// out\n        /* \"#utility.yul\":44321:44687   */\n    tag_375:\n        /* \"#utility.yul\":44463:44466   */\n      0x00\n        /* \"#utility.yul\":44484:44551   */\n      tag_808\n        /* \"#utility.yul\":44548:44550   */\n      0x15\n        /* \"#utility.yul\":44543:44546   */\n      dup4\n        /* \"#utility.yul\":44484:44551   */\n      tag_339\n      jump\t// in\n    tag_808:\n        /* \"#utility.yul\":44477:44551   */\n      swap2\n      pop\n        /* \"#utility.yul\":44560:44653   */\n      tag_809\n        /* \"#utility.yul\":44649:44652   */\n      dup3\n        /* \"#utility.yul\":44560:44653   */\n      tag_374\n      jump\t// in\n    tag_809:\n        /* \"#utility.yul\":44678:44680   */\n      0x20\n        /* \"#utility.yul\":44673:44676   */\n      dup3\n        /* \"#utility.yul\":44669:44681   */\n      add\n        /* \"#utility.yul\":44662:44681   */\n      swap1\n      pop\n        /* \"#utility.yul\":44321:44687   */\n      swap2\n      swap1\n      pop\n      jump\t// out\n        /* \"#utility.yul\":44693:45112   */\n    tag_208:\n        /* \"#utility.yul\":44859:44863   */\n      0x00\n        /* \"#utility.yul\":44897:44899   */\n      0x20\n        /* \"#utility.yul\":44886:44895   */\n      dup3\n        /* \"#utility.yul\":44882:44900   */\n      add\n        /* \"#utility.yul\":44874:44900   */\n      swap1\n      pop\n        /* \"#utility.yul\":44946:44955   */\n      dup2\n        /* \"#utility.yul\":44940:44944   */\n      dup2\n        /* \"#utility.yul\":44936:44956   */\n      sub\n        /* \"#utility.yul\":44932:44933   */\n      0x00\n        /* \"#utility.yul\":44921:44930   */\n      dup4\n        /* \"#utility.yul\":44917:44934   */\n      add\n        /* \"#utility.yul\":44910:44957   */\n      mstore\n        /* \"#utility.yul\":44974:45105   */\n      tag_811\n        /* \"#utility.yul\":45100:45104   */\n      dup2\n        /* \"#utility.yul\":44974:45105   */\n      tag_375\n      jump\t// in\n    tag_811:\n        /* \"#utility.yul\":44966:45105   */\n      swap1\n      pop\n        /* \"#utility.yul\":44693:45112   */\n      swap2\n      swap1\n      pop\n      jump\t// out\n        /* \"#utility.yul\":45118:45293   */\n    tag_376:\n        /* \"#utility.yul\":45258:45285   */\n      0x537461727420696e646578206f7574206f6620626f756e647300000000000000\n        /* \"#utility.yul\":45254:45255   */\n      0x00\n        /* \"#utility.yul\":45246:45252   */\n      dup3\n        /* \"#utility.yul\":45242:45256   */\n      add\n        /* \"#utility.yul\":45235:45286   */\n      mstore\n        /* \"#utility.yul\":45118:45293   */\n      pop\n      jump\t// out\n        /* \"#utility.yul\":45299:45665   */\n    tag_377:\n        /* \"#utility.yul\":45441:45444   */\n      0x00\n        /* \"#utility.yul\":45462:45529   */\n      tag_814\n        /* \"#utility.yul\":45526:45528   */\n      0x19\n        /* \"#utility.yul\":45521:45524   */\n      dup4\n        /* \"#utility.yul\":45462:45529   */\n      tag_339\n      jump\t// in\n    tag_814:\n        /* \"#utility.yul\":45455:45529   */\n      swap2\n      pop\n        /* \"#utility.yul\":45538:45631   */\n      tag_815\n        /* \"#utility.yul\":45627:45630   */\n      dup3\n        /* \"#utility.yul\":45538:45631   */\n      tag_376\n      jump\t// in\n    tag_815:\n        /* \"#utility.yul\":45656:45658   */\n      0x20\n        /* \"#utility.yul\":45651:45654   */\n      dup3\n        /* \"#utility.yul\":45647:45659   */\n      add\n        /* \"#utility.yul\":45640:45659   */\n      swap1\n      pop\n        /* \"#utility.yul\":45299:45665   */\n      swap2\n      swap1\n      pop\n      jump\t// out\n        /* \"#utility.yul\":45671:46090   */\n    tag_211:\n        /* \"#utility.yul\":45837:45841   */\n      0x00\n        /* \"#utility.yul\":45875:45877   */\n      0x20\n        /* \"#utility.yul\":45864:45873   */\n      dup3\n        /* \"#utility.yul\":45860:45878   */\n      add\n        /* \"#utility.yul\":45852:45878   */\n      swap1\n      pop\n        /* \"#utility.yul\":45924:45933   */\n      dup2\n        /* \"#utility.yul\":45918:45922   */\n      dup2\n        /* \"#utility.yul\":45914:45934   */\n      sub\n        /* \"#utility.yul\":45910:45911   */\n      0x00\n        /* \"#utility.yul\":45899:45908   */\n      dup4\n        /* \"#utility.yul\":45895:45912   */\n      add\n        /* \"#utility.yul\":45888:45935   */\n      mstore\n        /* \"#utility.yul\":45952:46083   */\n      tag_817\n        /* \"#utility.yul\":46078:46082   */\n      dup2\n        /* \"#utility.yul\":45952:46083   */\n      tag_377\n      jump\t// in\n    tag_817:\n        /* \"#utility.yul\":45944:46083   */\n      swap1\n      pop\n        /* \"#utility.yul\":45671:46090   */\n      swap2\n      swap1\n      pop\n      jump\t// out\n        /* \"#utility.yul\":46096:46287   */\n    tag_213:\n        /* \"#utility.yul\":46136:46139   */\n      0x00\n        /* \"#utility.yul\":46155:46175   */\n      tag_819\n        /* \"#utility.yul\":46173:46174   */\n      dup3\n        /* \"#utility.yul\":46155:46175   */\n      tag_253\n      jump\t// in\n    tag_819:\n        /* \"#utility.yul\":46150:46175   */\n      swap2\n      pop\n        /* \"#utility.yul\":46189:46209   */\n      tag_820\n        /* \"#utility.yul\":46207:46208   */\n      dup4\n        /* \"#utility.yul\":46189:46209   */\n      tag_253\n      jump\t// in\n    tag_820:\n        /* \"#utility.yul\":46184:46209   */\n      swap3\n      pop\n        /* \"#utility.yul\":46232:46233   */\n      dup3\n        /* \"#utility.yul\":46229:46230   */\n      dup3\n        /* \"#utility.yul\":46225:46234   */\n      add\n        /* \"#utility.yul\":46218:46234   */\n      swap1\n      pop\n        /* \"#utility.yul\":46253:46256   */\n      dup1\n        /* \"#utility.yul\":46250:46251   */\n      dup3\n        /* \"#utility.yul\":46247:46257   */\n      gt\n        /* \"#utility.yul\":46244:46280   */\n      iszero\n      tag_821\n      jumpi\n        /* \"#utility.yul\":46260:46278   */\n      tag_822\n      tag_299\n      jump\t// in\n    tag_822:\n        /* \"#utility.yul\":46244:46280   */\n    tag_821:\n        /* \"#utility.yul\":46096:46287   */\n      swap3\n      swap2\n      pop\n      pop\n      jump\t// out\n        /* \"#utility.yul\":46293:46452   */\n    tag_378:\n        /* \"#utility.yul\":46433:46444   */\n      0x6368616c6c656e67650000000000000000000000000000000000000000000000\n        /* \"#utility.yul\":46429:46430   */\n      0x00\n        /* \"#utility.yul\":46421:46427   */\n      dup3\n        /* \"#utility.yul\":46417:46431   */\n      add\n        /* \"#utility.yul\":46410:46445   */\n      mstore\n        /* \"#utility.yul\":46293:46452   */\n      pop\n      jump\t// out\n        /* \"#utility.yul\":46458:46823   */\n    tag_379:\n        /* \"#utility.yul\":46600:46603   */\n      0x00\n        /* \"#utility.yul\":46621:46687   */\n      tag_825\n        /* \"#utility.yul\":46685:46686   */\n      0x09\n        /* \"#utility.yul\":46680:46683   */\n      dup4\n        /* \"#utility.yul\":46621:46687   */\n      tag_339\n      jump\t// in\n    tag_825:\n        /* \"#utility.yul\":46614:46687   */\n      swap2\n      pop\n        /* \"#utility.yul\":46696:46789   */\n      tag_826\n        /* \"#utility.yul\":46785:46788   */\n      dup3\n        /* \"#utility.yul\":46696:46789   */\n      tag_378\n      jump\t// in\n    tag_826:\n        /* \"#utility.yul\":46814:46816   */\n      0x20\n        /* \"#utility.yul\":46809:46812   */\n      dup3\n        /* \"#utility.yul\":46805:46817   */\n      add\n        /* \"#utility.yul\":46798:46817   */\n      swap1\n      pop\n        /* \"#utility.yul\":46458:46823   */\n      swap2\n      swap1\n      pop\n      jump\t// out\n        /* \"#utility.yul\":46829:47248   */\n    tag_229:\n        /* \"#utility.yul\":46995:46999   */\n      0x00\n        /* \"#utility.yul\":47033:47035   */\n      0x20\n        /* \"#utility.yul\":47022:47031   */\n      dup3\n        /* \"#utility.yul\":47018:47036   */\n      add\n        /* \"#utility.yul\":47010:47036   */\n      swap1\n      pop\n        /* \"#utility.yul\":47082:47091   */\n      dup2\n        /* \"#utility.yul\":47076:47080   */\n      dup2\n        /* \"#utility.yul\":47072:47092   */\n      sub\n        /* \"#utility.yul\":47068:47069   */\n      0x00\n        /* \"#utility.yul\":47057:47066   */\n      dup4\n        /* \"#utility.yul\":47053:47070   */\n      add\n        /* \"#utility.yul\":47046:47093   */\n      mstore\n        /* \"#utility.yul\":47110:47241   */\n      tag_828\n        /* \"#utility.yul\":47236:47240   */\n      dup2\n        /* \"#utility.yul\":47110:47241   */\n      tag_379\n      jump\t// in\n    tag_828:\n        /* \"#utility.yul\":47102:47241   */\n      swap1\n      pop\n        /* \"#utility.yul\":46829:47248   */\n      swap2\n      swap1\n      pop\n      jump\t// out\n        /* \"#utility.yul\":47254:47605   */\n    tag_233:\n        /* \"#utility.yul\":47324:47330   */\n      0x00\n        /* \"#utility.yul\":47373:47375   */\n      0x20\n        /* \"#utility.yul\":47361:47370   */\n      dup3\n        /* \"#utility.yul\":47352:47359   */\n      dup5\n        /* \"#utility.yul\":47348:47371   */\n      sub\n        /* \"#utility.yul\":47344:47376   */\n      slt\n        /* \"#utility.yul\":47341:47460   */\n      iszero\n      tag_830\n      jumpi\n        /* \"#utility.yul\":47379:47458   */\n      tag_831\n      tag_256\n      jump\t// in\n    tag_831:\n        /* \"#utility.yul\":47341:47460   */\n    tag_830:\n        /* \"#utility.yul\":47499:47500   */\n      0x00\n        /* \"#utility.yul\":47524:47588   */\n      tag_832\n        /* \"#utility.yul\":47580:47587   */\n      dup5\n        /* \"#utility.yul\":47571:47577   */\n      dup3\n        /* \"#utility.yul\":47560:47569   */\n      dup6\n        /* \"#utility.yul\":47556:47578   */\n      add\n        /* \"#utility.yul\":47524:47588   */\n      tag_366\n      jump\t// in\n    tag_832:\n        /* \"#utility.yul\":47514:47588   */\n      swap2\n      pop\n        /* \"#utility.yul\":47470:47598   */\n      pop\n        /* \"#utility.yul\":47254:47605   */\n      swap3\n      swap2\n      pop\n      pop\n      jump\t// out\n        /* \"#utility.yul\":47611:47838   */\n    tag_380:\n        /* \"#utility.yul\":47751:47785   */\n      0x6164647265737320696e2070726f6f66206973206e6f7420612073656e646572\n        /* \"#utility.yul\":47747:47748   */\n      0x00\n        /* \"#utility.yul\":47739:47745   */\n      dup3\n        /* \"#utility.yul\":47735:47749   */\n      add\n        /* \"#utility.yul\":47728:47786   */\n      mstore\n        /* \"#utility.yul\":47820:47830   */\n      0x2061646472657373000000000000000000000000000000000000000000000000\n        /* \"#utility.yul\":47815:47817   */\n      0x20\n        /* \"#utility.yul\":47807:47813   */\n      dup3\n        /* \"#utility.yul\":47803:47818   */\n      add\n        /* \"#utility.yul\":47796:47831   */\n      mstore\n        /* \"#utility.yul\":47611:47838   */\n      pop\n      jump\t// out\n        /* \"#utility.yul\":47844:48210   */\n    tag_381:\n        /* \"#utility.yul\":47986:47989   */\n      0x00\n        /* \"#utility.yul\":48007:48074   */\n      tag_835\n        /* \"#utility.yul\":48071:48073   */\n      0x28\n        /* \"#utility.yul\":48066:48069   */\n      dup4\n        /* \"#utility.yul\":48007:48074   */\n      tag_339\n      jump\t// in\n    tag_835:\n        /* \"#utility.yul\":48000:48074   */\n      swap2\n      pop\n        /* \"#utility.yul\":48083:48176   */\n      tag_836\n        /* \"#utility.yul\":48172:48175   */\n      dup3\n        /* \"#utility.yul\":48083:48176   */\n      tag_380\n      jump\t// in\n    tag_836:\n        /* \"#utility.yul\":48201:48203   */\n      0x40\n        /* \"#utility.yul\":48196:48199   */\n      dup3\n        /* \"#utility.yul\":48192:48204   */\n      add\n        /* \"#utility.yul\":48185:48204   */\n      swap1\n      pop\n        /* \"#utility.yul\":47844:48210   */\n      swap2\n      swap1\n      pop\n      jump\t// out\n        /* \"#utility.yul\":48216:48635   */\n    tag_236:\n        /* \"#utility.yul\":48382:48386   */\n      0x00\n        /* \"#utility.yul\":48420:48422   */\n      0x20\n        /* \"#utility.yul\":48409:48418   */\n      dup3\n        /* \"#utility.yul\":48405:48423   */\n      add\n        /* \"#utility.yul\":48397:48423   */\n      swap1\n      pop\n        /* \"#utility.yul\":48469:48478   */\n      dup2\n        /* \"#utility.yul\":48463:48467   */\n      dup2\n        /* \"#utility.yul\":48459:48479   */\n      sub\n        /* \"#utility.yul\":48455:48456   */\n      0x00\n        /* \"#utility.yul\":48444:48453   */\n      dup4\n        /* \"#utility.yul\":48440:48457   */\n      add\n        /* \"#utility.yul\":48433:48480   */\n      mstore\n        /* \"#utility.yul\":48497:48628   */\n      tag_838\n        /* \"#utility.yul\":48623:48627   */\n      dup2\n        /* \"#utility.yul\":48497:48628   */\n      tag_381\n      jump\t// in\n    tag_838:\n        /* \"#utility.yul\":48489:48628   */\n      swap1\n      pop\n        /* \"#utility.yul\":48216:48635   */\n      swap2\n      swap1\n      pop\n      jump\t// out\n        /* \"#utility.yul\":48641:48869   */\n    tag_382:\n        /* \"#utility.yul\":48781:48815   */\n      0x70726f6f662063616e206e6f74206265207375626d6974746564206d6f726520\n        /* \"#utility.yul\":48777:48778   */\n      0x00\n        /* \"#utility.yul\":48769:48775   */\n      dup3\n        /* \"#utility.yul\":48765:48779   */\n      add\n        /* \"#utility.yul\":48758:48816   */\n      mstore\n        /* \"#utility.yul\":48850:48861   */\n      0x7468616e206f6e63650000000000000000000000000000000000000000000000\n        /* \"#utility.yul\":48845:48847   */\n      0x20\n        /* \"#utility.yul\":48837:48843   */\n      dup3\n        /* \"#utility.yul\":48833:48848   */\n      add\n        /* \"#utility.yul\":48826:48862   */\n      mstore\n        /* \"#utility.yul\":48641:48869   */\n      pop\n      jump\t// out\n        /* \"#utility.yul\":48875:49241   */\n    tag_383:\n        /* \"#utility.yul\":49017:49020   */\n      0x00\n        /* \"#utility.yul\":49038:49105   */\n      tag_841\n        /* \"#utility.yul\":49102:49104   */\n      0x29\n        /* \"#utility.yul\":49097:49100   */\n      dup4\n        /* \"#utility.yul\":49038:49105   */\n      tag_339\n      jump\t// in\n    tag_841:\n        /* \"#utility.yul\":49031:49105   */\n      swap2\n      pop\n        /* \"#utility.yul\":49114:49207   */\n      tag_842\n        /* \"#utility.yul\":49203:49206   */\n      dup3\n        /* \"#utility.yul\":49114:49207   */\n      tag_382\n      jump\t// in\n    tag_842:\n        /* \"#utility.yul\":49232:49234   */\n      0x40\n        /* \"#utility.yul\":49227:49230   */\n      dup3\n        /* \"#utility.yul\":49223:49235   */\n      add\n        /* \"#utility.yul\":49216:49235   */\n      swap1\n      pop\n        /* \"#utility.yul\":48875:49241   */\n      swap2\n      swap1\n      pop\n      jump\t// out\n        /* \"#utility.yul\":49247:49666   */\n    tag_242:\n        /* \"#utility.yul\":49413:49417   */\n      0x00\n        /* \"#utility.yul\":49451:49453   */\n      0x20\n        /* \"#utility.yul\":49440:49449   */\n      dup3\n        /* \"#utility.yul\":49436:49454   */\n      add\n        /* \"#utility.yul\":49428:49454   */\n      swap1\n      pop\n        /* \"#utility.yul\":49500:49509   */\n      dup2\n        /* \"#utility.yul\":49494:49498   */\n      dup2\n        /* \"#utility.yul\":49490:49510   */\n      sub\n        /* \"#utility.yul\":49486:49487   */\n      0x00\n        /* \"#utility.yul\":49475:49484   */\n      dup4\n        /* \"#utility.yul\":49471:49488   */\n      add\n        /* \"#utility.yul\":49464:49511   */\n      mstore\n        /* \"#utility.yul\":49528:49659   */\n      tag_844\n        /* \"#utility.yul\":49654:49658   */\n      dup2\n        /* \"#utility.yul\":49528:49659   */\n      tag_383\n      jump\t// in\n    tag_844:\n        /* \"#utility.yul\":49520:49659   */\n      swap1\n      pop\n        /* \"#utility.yul\":49247:49666   */\n      swap2\n      swap1\n      pop\n      jump\t// out\n\n    auxdata: 0xa2646970667358221220d1ebd103df694ca742befb6e275abb4d5e226713e7e82c693ab8bdbced77544064736f6c63430008140033\n}\n",
				"bytecode": {
					"linkReferences": {},
					"object": "608060405234801561000f575f80fd5b50612cbd8061001d5f395ff3fe608060405234801561000f575f80fd5b50600436106100fe575f3560e01c80638da5cb5b11610095578063c76d084511610064578063c76d084514610298578063cb0e0d7d146102c8578063e30c3978146102f8578063f2fde38b14610316576100fe565b80638da5cb5b146102125780639f5223e014610230578063ab7bcfb71461024c578063b68967e21461027c576100fe565b80636508e1b4116100d15780636508e1b4146101b057806365b07d58146101ce578063715018a6146101fe57806379ba509714610208576100fe565b80631905e7b1146101025780632a2d0c47146101205780632e01bb6f146101505780635f9e60d714610180575b5f80fd5b61010a610332565b6040516101179190611594565b60405180910390f35b61013a600480360381019061013591906115e8565b610338565b6040516101479190611652565b60405180910390f35b61016a600480360381019061016591906116d2565b610367565b604051610177919061172a565b60405180910390f35b61019a60048036038101906101959190611743565b6103e5565b6040516101a791906119c7565b60405180910390f35b6101b86106a9565b6040516101c59190611594565b60405180910390f35b6101e860048036038101906101e391906119e7565b6106be565b6040516101f5919061172a565b60405180910390f35b6102066106db565b005b6102106106ee565b005b61021a61077c565b6040516102279190611652565b60405180910390f35b61024a60048036038101906102459190611a34565b6107b1565b005b610266600480360381019061026191906119e7565b610856565b604051610273919061172a565b60405180910390f35b61029660048036038101906102919190611b31565b6108f4565b005b6102b260048036038101906102ad91906119e7565b610bc7565b6040516102bf9190611c1d565b60405180910390f35b6102e260048036038101906102dd9190611c3d565b610dcb565b6040516102ef9190611594565b60405180910390f35b610300610de0565b60405161030d9190611652565b60405180910390f35b610330600480360381019061032b9190611c3d565b610e15565b005b6103e881565b5f602052805f5260405f205f915054906101000a900473ffffffffffffffffffffffffffffffffffffffff1681565b5f610370610ece565b5f015f8473ffffffffffffffffffffffffffffffffffffffff1673ffffffffffffffffffffffffffffffffffffffff1681526020019081526020015f205f8367ffffffffffffffff1667ffffffffffffffff1681526020019081526020015f205f9054906101000a900460ff16905092915050565b60605f6103f0610ece565b90505f80610409836002018054905087876103e8610ef5565b915091505f828261041a9190611c95565b67ffffffffffffffff81111561043357610432611cc8565b5b60405190808252806020026020018201604052801561046c57816020015b610459611546565b8152602001906001900390816104515790505b5090505f8390505b8281101561069b57846001015f86600201838154811061049757610496611cf5565b5b905f5260205f2090600491828204019190066008029054906101000a900467ffffffffffffffff1667ffffffffffffffff1667ffffffffffffffff1681526020019081526020015f206040518060600160405290815f820180546104fa90611d4f565b80601f016020809104026020016040519081016040528092919081815260200182805461052690611d4f565b80156105715780601f1061054857610100808354040283529160200191610571565b820191905f5260205f20905b81548152906001019060200180831161055457829003601f168201915b50505050508152602001600182015f9054906101000a900473ffffffffffffffffffffffffffffffffffffffff1673ffffffffffffffffffffffffffffffffffffffff1673ffffffffffffffffffffffffffffffffffffffff1681526020016002820180546105df90611d4f565b80601f016020809104026020016040519081016040528092919081815260200182805461060b90611d4f565b80156106565780601f1061062d57610100808354040283529160200191610656565b820191905f5260205f20905b81548152906001019060200180831161063957829003601f168201915b50505050508152505082858361066c9190611c95565b8151811061067d5761067c611cf5565b5b6020026020010181905250808061069390611d7f565b915050610474565b508094505050505092915050565b5f6106b2610ece565b60020180549050905090565b6002602052805f5260405f205f915054906101000a900460ff1681565b6106e3610fe9565b6106ec5f611070565b565b5f6106f76110ad565b90508073ffffffffffffffffffffffffffffffffffffffff16610718610de0565b73ffffffffffffffffffffffffffffffffffffffff161461077057806040517f118cdaa70000000000000000000000000000000000000000000000000000000081526004016107679190611652565b60405180910390fd5b61077981611070565b50565b5f806107866110b4565b9050805f015f9054906101000a900473ffffffffffffffffffffffffffffffffffffffff1691505090565b6107b9610fe9565b5f6107c2610ece565b905081816001015f8567ffffffffffffffff1667ffffffffffffffff1681526020019081526020015f2081816107f8919061237f565b9050508060020183908060018154018082558091505060019003905f5260205f2090600491828204019190066008029091909190916101000a81548167ffffffffffffffff021916908367ffffffffffffffff160217905550505050565b5f80610860610ece565b90505f5b81600201805490508110156108e9578367ffffffffffffffff1682600201828154811061089457610893611cf5565b5b905f5260205f2090600491828204019190066008029054906101000a900467ffffffffffffffff1667ffffffffffffffff16036108d6576001925050506108ef565b80806108e190611d7f565b915050610864565b505f9150505b919050565b5f6108fd610ece565b90505f816001015f8967ffffffffffffffff1667ffffffffffffffff1681526020019081526020015f2090505f73ffffffffffffffffffffffffffffffffffffffff16816001015f9054906101000a900473ffffffffffffffffffffffffffffffffffffffff1673ffffffffffffffffffffffffffffffffffffffff16036109ba576040517f08c379a00000000000000000000000000000000000000000000000000000000081526004016109b19061240d565b60405180910390fd5b610a28888888808060200260200160405190810160405280939291908181526020018383602002808284375f81840152601f19601f82011690508083019250505050505050836001015f9054906101000a900473ffffffffffffffffffffffffffffffffffffffff166110db565b806001015f9054906101000a900473ffffffffffffffffffffffffffffffffffffffff1673ffffffffffffffffffffffffffffffffffffffff1663f177a69e888888888887600201336040518863ffffffff1660e01b8152600401610a9397969594939291906125fc565b5f60405180830381865afa158015610aad573d5f803e3d5ffd5b505050506040513d5f823e3d601f19601f82011682018060405250810190610ad591906128be565b506001825f015f3373ffffffffffffffffffffffffffffffffffffffff1673ffffffffffffffffffffffffffffffffffffffff1681526020019081526020015f205f8a67ffffffffffffffff1667ffffffffffffffff1681526020019081526020015f205f6101000a81548160ff021916908315150217905550610bbd888888808060200260200160405190810160405280939291908181526020018383602002808284375f81840152601f19601f82011690508083019250505050505050836001015f9054906101000a900473ffffffffffffffffffffffffffffffffffffffff166111dc565b5050505050505050565b610bcf611546565b610bd882610856565b610c17576040517f08c379a0000000000000000000000000000000000000000000000000000000008152600401610c0e9061294f565b60405180910390fd5b610c1f610ece565b6001015f8367ffffffffffffffff1667ffffffffffffffff1681526020019081526020015f206040518060600160405290815f82018054610c5f90611d4f565b80601f0160208091040260200160405190810160405280929190818152602001828054610c8b90611d4f565b8015610cd65780601f10610cad57610100808354040283529160200191610cd6565b820191905f5260205f20905b815481529060010190602001808311610cb957829003601f168201915b50505050508152602001600182015f9054906101000a900473ffffffffffffffffffffffffffffffffffffffff1673ffffffffffffffffffffffffffffffffffffffff1673ffffffffffffffffffffffffffffffffffffffff168152602001600282018054610d4490611d4f565b80601f0160208091040260200160405190810160405280929190818152602001828054610d7090611d4f565b8015610dbb5780601f10610d9257610100808354040283529160200191610dbb565b820191905f5260205f20905b815481529060010190602001808311610d9e57829003601f168201915b5050505050815250509050919050565b6001602052805f5260405f205f915090505481565b5f80610dea61144e565b9050805f015f9054906101000a900473ffffffffffffffffffffffffffffffffffffffff1691505090565b610e1d610fe9565b5f610e2661144e565b905081815f015f6101000a81548173ffffffffffffffffffffffffffffffffffffffff021916908373ffffffffffffffffffffffffffffffffffffffff1602179055508173ffffffffffffffffffffffffffffffffffffffff16610e8861077c565b73ffffffffffffffffffffffffffffffffffffffff167f38d16b8cac22d99fc7c124b9cd0de2d3fa1faef420bfe791d8c362d765e2270060405160405180910390a35050565b5f7f512d18c55869273fec77e70d8a8586e3fb133e90f1db24c6bcf4ff3506ef6a00905090565b5f805f8411610f39576040517f08c379a0000000000000000000000000000000000000000000000000000000008152600401610f30906129b7565b60405180910390fd5b82841115610f7c576040517f08c379a0000000000000000000000000000000000000000000000000000000008152600401610f7390612a1f565b60405180910390fd5b858510610fbe576040517f08c379a0000000000000000000000000000000000000000000000000000000008152600401610fb590612a87565b60405180910390fd5b5f8486610fcb9190612aa5565b905086811115610fd9578690505b8581925092505094509492505050565b610ff16110ad565b73ffffffffffffffffffffffffffffffffffffffff1661100f61077c565b73ffffffffffffffffffffffffffffffffffffffff161461106e576110326110ad565b6040517f118cdaa70000000000000000000000000000000000000000000000000000000081526004016110659190611652565b60405180910390fd5b565b5f61107961144e565b9050805f015f6101000a81549073ffffffffffffffffffffffffffffffffffffffff02191690556110a982611475565b5050565b5f33905090565b5f7f9016d09d72d40fdae2fd8ceac6b6234c7706214fd39c1cd1e609a0528c199300905090565b5f8173ffffffffffffffffffffffffffffffffffffffff1663b16a394f6040518163ffffffff1660e01b815260040161111390612b22565b602060405180830381865afa15801561112e573d5f803e3d5ffd5b505050506040513d601f19601f820116820180604052508101906111529190612b40565b905062bc614e8114611199576040517f08c379a000000000000000000000000000000000000000000000000000000000815260040161119090612bdb565b60405180910390fd5b600160025f8667ffffffffffffffff1667ffffffffffffffff1681526020019081526020015f205f6101000a81548160ff02191690831515021790555050505050565b5f60015f6111e86110ad565b73ffffffffffffffffffffffffffffffffffffffff1673ffffffffffffffffffffffffffffffffffffffff1681526020019081526020015f205414801561125d575060025f8467ffffffffffffffff1667ffffffffffffffff1681526020019081526020015f205f9054906101000a900460ff165b61129c576040517f08c379a000000000000000000000000000000000000000000000000000000000815260040161129390612c69565b60405180910390fd5b5f826001815181106112b1576112b0611cf5565b5b602002602001015190505f73ffffffffffffffffffffffffffffffffffffffff165f808381526020019081526020015f205f9054906101000a900473ffffffffffffffffffffffffffffffffffffffff1673ffffffffffffffffffffffffffffffffffffffff1614801561136857505f60015f61132c6110ad565b73ffffffffffffffffffffffffffffffffffffffff1673ffffffffffffffffffffffffffffffffffffffff1681526020019081526020015f2054145b15611448578060015f6113796110ad565b73ffffffffffffffffffffffffffffffffffffffff1673ffffffffffffffffffffffffffffffffffffffff1681526020019081526020015f20819055506113be6110ad565b5f808381526020019081526020015f205f6101000a81548173ffffffffffffffffffffffffffffffffffffffff021916908373ffffffffffffffffffffffffffffffffffffffff1602179055505f60025f8667ffffffffffffffff1667ffffffffffffffff1681526020019081526020015f205f6101000a81548160ff0219169083151502179055505b50505050565b5f7f237e158222e3e6968b72b9db0d8043aacf074ad9f650f0d1606b4d82ee432c00905090565b5f61147e6110b4565b90505f815f015f9054906101000a900473ffffffffffffffffffffffffffffffffffffffff16905082825f015f6101000a81548173ffffffffffffffffffffffffffffffffffffffff021916908373ffffffffffffffffffffffffffffffffffffffff1602179055508273ffffffffffffffffffffffffffffffffffffffff168173ffffffffffffffffffffffffffffffffffffffff167f8be0079c531659141344cd1fd0a4f28419497f9722a3daafe3b4186f6b6457e060405160405180910390a3505050565b6040518060600160405280606081526020015f73ffffffffffffffffffffffffffffffffffffffff168152602001606081525090565b5f819050919050565b61158e8161157c565b82525050565b5f6020820190506115a75f830184611585565b92915050565b5f604051905090565b5f80fd5b5f80fd5b6115c78161157c565b81146115d1575f80fd5b50565b5f813590506115e2816115be565b92915050565b5f602082840312156115fd576115fc6115b6565b5b5f61160a848285016115d4565b91505092915050565b5f73ffffffffffffffffffffffffffffffffffffffff82169050919050565b5f61163c82611613565b9050919050565b61164c81611632565b82525050565b5f6020820190506116655f830184611643565b92915050565b61167481611632565b811461167e575f80fd5b50565b5f8135905061168f8161166b565b92915050565b5f67ffffffffffffffff82169050919050565b6116b181611695565b81146116bb575f80fd5b50565b5f813590506116cc816116a8565b92915050565b5f80604083850312156116e8576116e76115b6565b5b5f6116f585828601611681565b9250506020611706858286016116be565b9150509250929050565b5f8115159050919050565b61172481611710565b82525050565b5f60208201905061173d5f83018461171b565b92915050565b5f8060408385031215611759576117586115b6565b5b5f611766858286016115d4565b9250506020611777858286016115d4565b9150509250929050565b5f81519050919050565b5f82825260208201905092915050565b5f819050602082019050919050565b5f81519050919050565b5f82825260208201905092915050565b5f5b838110156117e15780820151818401526020810190506117c6565b5f8484015250505050565b5f601f19601f8301169050919050565b5f611806826117aa565b61181081856117b4565b93506118208185602086016117c4565b611829816117ec565b840191505092915050565b5f819050919050565b5f61185761185261184d84611613565b611834565b611613565b9050919050565b5f6118688261183d565b9050919050565b5f6118798261185e565b9050919050565b6118898161186f565b82525050565b5f81519050919050565b5f82825260208201905092915050565b5f6118b38261188f565b6118bd8185611899565b93506118cd8185602086016117c4565b6118d6816117ec565b840191505092915050565b5f606083015f8301518482035f8601526118fb82826117fc565b91505060208301516119106020860182611880565b506040830151848203604086015261192882826118a9565b9150508091505092915050565b5f61194083836118e1565b905092915050565b5f602082019050919050565b5f61195e82611781565b611968818561178b565b93508360208202850161197a8561179b565b805f5b858110156119b557848403895281516119968582611935565b94506119a183611948565b925060208a0199505060018101905061197d565b50829750879550505050505092915050565b5f6020820190508181035f8301526119df8184611954565b905092915050565b5f602082840312156119fc576119fb6115b6565b5b5f611a09848285016116be565b91505092915050565b5f80fd5b5f60608284031215611a2b57611a2a611a12565b5b81905092915050565b5f8060408385031215611a4a57611a496115b6565b5b5f611a57858286016116be565b925050602083013567ffffffffffffffff811115611a7857611a776115ba565b5b611a8485828601611a16565b9150509250929050565b5f80fd5b5f80fd5b5f80fd5b5f8083601f840112611aaf57611aae611a8e565b5b8235905067ffffffffffffffff811115611acc57611acb611a92565b5b602083019150836020820283011115611ae857611ae7611a96565b5b9250929050565b5f81905082602060020282011115611b0a57611b09611a96565b5b92915050565b5f81905082604060020282011115611b2b57611b2a611a96565b5b92915050565b5f805f805f806101408789031215611b4c57611b4b6115b6565b5b5f611b5989828a016116be565b965050602087013567ffffffffffffffff811115611b7a57611b796115ba565b5b611b8689828a01611a9a565b95509550506040611b9989828a01611aef565b9350506080611baa89828a01611b10565b925050610100611bbc89828a01611aef565b9150509295509295509295565b5f606083015f8301518482035f860152611be382826117fc565b9150506020830151611bf86020860182611880565b5060408301518482036040860152611c1082826118a9565b9150508091505092915050565b5f6020820190508181035f830152611c358184611bc9565b905092915050565b5f60208284031215611c5257611c516115b6565b5b5f611c5f84828501611681565b91505092915050565b7f4e487b71000000000000000000000000000000000000000000000000000000005f52601160045260245ffd5b5f611c9f8261157c565b9150611caa8361157c565b9250828203905081811115611cc257611cc1611c68565b5b92915050565b7f4e487b71000000000000000000000000000000000000000000000000000000005f52604160045260245ffd5b7f4e487b71000000000000000000000000000000000000000000000000000000005f52603260045260245ffd5b7f4e487b71000000000000000000000000000000000000000000000000000000005f52602260045260245ffd5b5f6002820490506001821680611d6657607f821691505b602082108103611d7957611d78611d22565b5b50919050565b5f611d898261157c565b91507fffffffffffffffffffffffffffffffffffffffffffffffffffffffffffffffff8203611dbb57611dba611c68565b5b600182019050919050565b5f80fd5b5f80fd5b5f80fd5b5f8083356001602003843603038112611dee57611ded611dc6565b5b80840192508235915067ffffffffffffffff821115611e1057611e0f611dca565b5b602083019250600182023603831315611e2c57611e2b611dce565b5b509250929050565b5f82905092915050565b5f819050815f5260205f209050919050565b5f6020601f8301049050919050565b5f82821b905092915050565b5f60088302611e9a7fffffffffffffffffffffffffffffffffffffffffffffffffffffffffffffffff82611e5f565b611ea48683611e5f565b95508019841693508086168417925050509392505050565b5f611ed6611ed1611ecc8461157c565b611834565b61157c565b9050919050565b5f819050919050565b611eef83611ebc565b611f03611efb82611edd565b848454611e6b565b825550505050565b5f90565b611f17611f0b565b611f22818484611ee6565b505050565b5b81811015611f4557611f3a5f82611f0f565b600181019050611f28565b5050565b601f821115611f8a57611f5b81611e3e565b611f6484611e50565b81016020851015611f73578190505b611f87611f7f85611e50565b830182611f27565b50505b505050565b5f82821c905092915050565b5f611faa5f1984600802611f8f565b1980831691505092915050565b5f611fc28383611f9b565b9150826002028217905092915050565b611fdc8383611e34565b67ffffffffffffffff811115611ff557611ff4611cc8565b5b611fff8254611d4f565b61200a828285611f49565b5f601f831160018114612037575f8415612025578287013590505b61202f8582611fb7565b865550612096565b601f19841661204586611e3e565b5f5b8281101561206c57848901358255600182019150602085019450602081019050612047565b868310156120895784890135612085601f891682611f9b565b8355505b6001600288020188555050505b50505050505050565b6120aa838383611fd2565b505050565b5f6120b982611632565b9050919050565b6120c9816120af565b81146120d3575f80fd5b50565b5f81356120e2816120c0565b80915050919050565b5f815f1b9050919050565b5f73ffffffffffffffffffffffffffffffffffffffff612115846120eb565b9350801983169250808416831791505092915050565b5f6121358261183d565b9050919050565b5f6121468261212b565b9050919050565b5f819050919050565b61215f8261213c565b61217261216b8261214d565b83546120f6565b8255505050565b5f808335600160200384360303811261219557612194611dc6565b5b80840192508235915067ffffffffffffffff8211156121b7576121b6611dca565b5b6020830192506001820236038313156121d3576121d2611dce565b5b509250929050565b5f82905092915050565b5f819050815f5260205f209050919050565b601f82111561223857612209816121e5565b61221284611e50565b81016020851015612221578190505b61223561222d85611e50565b830182611f27565b50505b505050565b61224783836121db565b67ffffffffffffffff8111156122605761225f611cc8565b5b61226a8254611d4f565b6122758282856121f7565b5f601f8311600181146122a2575f8415612290578287013590505b61229a8582611fb7565b865550612301565b601f1984166122b0866121e5565b5f5b828110156122d7578489013582556001820191506020850194506020810190506122b2565b868310156122f457848901356122f0601f891682611f9b565b8355505b6001600288020188555050505b50505050505050565b61231583838361223d565b505050565b5f81015f830161232a8185611dd2565b61233581838661209f565b5050505060018101602083018061234b816120d6565b90506123578184612156565b505050600281016040830161236c8185612179565b61237781838661230a565b505050505050565b612389828261231a565b5050565b5f82825260208201905092915050565b7f76616c696461746f72206973206e6f742073657420666f7220746869732072655f8201527f7175657374206964000000000000000000000000000000000000000000000000602082015250565b5f6123f760288361238d565b91506124028261239d565b604082019050919050565b5f6020820190508181035f830152612424816123eb565b9050919050565b5f82825260208201905092915050565b5f80fd5b82818337505050565b5f612453838561242b565b93507f07ffffffffffffffffffffffffffffffffffffffffffffffffffffffffffffff8311156124865761248561243b565b5b60208302925061249783858461243f565b82840190509392505050565b6124af6040838361243f565b5050565b5f60029050919050565b5f81905092915050565b5f819050919050565b6124dc6040838361243f565b5050565b5f6124eb83836124d0565b60408301905092915050565b5f82905092915050565b5f604082019050919050565b612516816124b3565b61252081846124bd565b925061252b826124c7565b805f5b838110156125635761254082846124f7565b61254a87826124e0565b965061255583612501565b92505060018101905061252e565b505050505050565b5f82825260208201905092915050565b5f815461258781611d4f565b612591818661256b565b9450600182165f81146125ab57600181146125c1576125f3565b60ff1983168652811515602002860193506125f3565b6125ca856121e5565b5f5b838110156125eb578154818901526001820191506020810190506125cc565b808801955050505b50505092915050565b5f610160820190508181035f83015261261681898b612448565b905061262560208301886124a3565b612632606083018761250d565b61263f60e08301866124a3565b818103610120830152612652818561257b565b9050612662610140830184611643565b98975050505050505050565b612677826117ec565b810181811067ffffffffffffffff8211171561269657612695611cc8565b5b80604052505050565b5f6126a86115ad565b90506126b4828261266e565b919050565b5f67ffffffffffffffff8211156126d3576126d2611cc8565b5b602082029050602081019050919050565b5f80fd5b5f80fd5b5f80fd5b5f67ffffffffffffffff82111561270a57612709611cc8565b5b612713826117ec565b9050602081019050919050565b5f61273261272d846126f0565b61269f565b90508281526020810184848401111561274e5761274d6126ec565b5b6127598482856117c4565b509392505050565b5f82601f83011261277557612774611a8e565b5b8151612785848260208601612720565b91505092915050565b5f8151905061279c816115be565b92915050565b5f604082840312156127b7576127b66126e4565b5b6127c1604061269f565b90505f82015167ffffffffffffffff8111156127e0576127df6126e8565b5b6127ec84828501612761565b5f8301525060206127ff8482850161278e565b60208301525092915050565b5f61281d612818846126b9565b61269f565b905080838252602082019050602084028301858111156128405761283f611a96565b5b835b8181101561288757805167ffffffffffffffff81111561286557612864611a8e565b5b80860161287289826127a2565b85526020850194505050602081019050612842565b5050509392505050565b5f82601f8301126128a5576128a4611a8e565b5b81516128b584826020860161280b565b91505092915050565b5f602082840312156128d3576128d26115b6565b5b5f82015167ffffffffffffffff8111156128f0576128ef6115ba565b5b6128fc84828501612891565b91505092915050565b7f7265717565737420696420646f65736e277420657869737400000000000000005f82015250565b5f61293960188361238d565b915061294482612905565b602082019050919050565b5f6020820190508181035f8301526129668161292d565b9050919050565b7f4c656e6774682073686f756c642062652067726561746572207468616e2030005f82015250565b5f6129a1601f8361238d565b91506129ac8261296d565b602082019050919050565b5f6020820190508181035f8301526129ce81612995565b9050919050565b7f4c656e677468206c696d697420657863656564656400000000000000000000005f82015250565b5f612a0960158361238d565b9150612a14826129d5565b602082019050919050565b5f6020820190508181035f830152612a36816129fd565b9050919050565b7f537461727420696e646578206f7574206f6620626f756e6473000000000000005f82015250565b5f612a7160198361238d565b9150612a7c82612a3d565b602082019050919050565b5f6020820190508181035f830152612a9e81612a65565b9050919050565b5f612aaf8261157c565b9150612aba8361157c565b9250828201905080821115612ad257612ad1611c68565b5b92915050565b7f6368616c6c656e676500000000000000000000000000000000000000000000005f82015250565b5f612b0c60098361238d565b9150612b1782612ad8565b602082019050919050565b5f6020820190508181035f830152612b3981612b00565b9050919050565b5f60208284031215612b5557612b546115b6565b5b5f612b628482850161278e565b91505092915050565b7f6164647265737320696e2070726f6f66206973206e6f7420612073656e6465725f8201527f2061646472657373000000000000000000000000000000000000000000000000602082015250565b5f612bc560288361238d565b9150612bd082612b6b565b604082019050919050565b5f6020820190508181035f830152612bf281612bb9565b9050919050565b7f70726f6f662063616e206e6f74206265207375626d6974746564206d6f7265205f8201527f7468616e206f6e63650000000000000000000000000000000000000000000000602082015250565b5f612c5360298361238d565b9150612c5e82612bf9565b604082019050919050565b5f6020820190508181035f830152612c8081612c47565b905091905056fea2646970667358221220d1ebd103df694ca742befb6e275abb4d5e226713e7e82c693ab8bdbced77544064736f6c63430008140033",
					"opcodes": "PUSH1 0x80 PUSH1 0x40 MSTORE CALLVALUE DUP1 ISZERO PUSH2 0xF JUMPI PUSH0 DUP1 REVERT JUMPDEST POP PUSH2 0x2CBD DUP1 PUSH2 0x1D PUSH0 CODECOPY PUSH0 RETURN INVALID PUSH1 0x80 PUSH1 0x40 MSTORE CALLVALUE DUP1 ISZERO PUSH2 0xF JUMPI PUSH0 DUP1 REVERT JUMPDEST POP PUSH1 0x4 CALLDATASIZE LT PUSH2 0xFE JUMPI PUSH0 CALLDATALOAD PUSH1 0xE0 SHR DUP1 PUSH4 0x8DA5CB5B GT PUSH2 0x95 JUMPI DUP1 PUSH4 0xC76D0845 GT PUSH2 0x64 JUMPI DUP1 PUSH4 0xC76D0845 EQ PUSH2 0x298 JUMPI DUP1 PUSH4 0xCB0E0D7D EQ PUSH2 0x2C8 JUMPI DUP1 PUSH4 0xE30C3978 EQ PUSH2 0x2F8 JUMPI DUP1 PUSH4 0xF2FDE38B EQ PUSH2 0x316 JUMPI PUSH2 0xFE JUMP JUMPDEST DUP1 PUSH4 0x8DA5CB5B EQ PUSH2 0x212 JUMPI DUP1 PUSH4 0x9F5223E0 EQ PUSH2 0x230 JUMPI DUP1 PUSH4 0xAB7BCFB7 EQ PUSH2 0x24C JUMPI DUP1 PUSH4 0xB68967E2 EQ PUSH2 0x27C JUMPI PUSH2 0xFE JUMP JUMPDEST DUP1 PUSH4 0x6508E1B4 GT PUSH2 0xD1 JUMPI DUP1 PUSH4 0x6508E1B4 EQ PUSH2 0x1B0 JUMPI DUP1 PUSH4 0x65B07D58 EQ PUSH2 0x1CE JUMPI DUP1 PUSH4 0x715018A6 EQ PUSH2 0x1FE JUMPI DUP1 PUSH4 0x79BA5097 EQ PUSH2 0x208 JUMPI PUSH2 0xFE JUMP JUMPDEST DUP1 PUSH4 0x1905E7B1 EQ PUSH2 0x102 JUMPI DUP1 PUSH4 0x2A2D0C47 EQ PUSH2 0x120 JUMPI DUP1 PUSH4 0x2E01BB6F EQ PUSH2 0x150 JUMPI DUP1 PUSH4 0x5F9E60D7 EQ PUSH2 0x180 JUMPI JUMPDEST PUSH0 DUP1 REVERT JUMPDEST PUSH2 0x10A PUSH2 0x332 JUMP JUMPDEST PUSH1 0x40 MLOAD PUSH2 0x117 SWAP2 SWAP1 PUSH2 0x1594 JUMP JUMPDEST PUSH1 0x40 MLOAD DUP1 SWAP2 SUB SWAP1 RETURN JUMPDEST PUSH2 0x13A PUSH1 0x4 DUP1 CALLDATASIZE SUB DUP2 ADD SWAP1 PUSH2 0x135 SWAP2 SWAP1 PUSH2 0x15E8 JUMP JUMPDEST PUSH2 0x338 JUMP JUMPDEST PUSH1 0x40 MLOAD PUSH2 0x147 SWAP2 SWAP1 PUSH2 0x1652 JUMP JUMPDEST PUSH1 0x40 MLOAD DUP1 SWAP2 SUB SWAP1 RETURN JUMPDEST PUSH2 0x16A PUSH1 0x4 DUP1 CALLDATASIZE SUB DUP2 ADD SWAP1 PUSH2 0x165 SWAP2 SWAP1 PUSH2 0x16D2 JUMP JUMPDEST PUSH2 0x367 JUMP JUMPDEST PUSH1 0x40 MLOAD PUSH2 0x177 SWAP2 SWAP1 PUSH2 0x172A JUMP JUMPDEST PUSH1 0x40 MLOAD DUP1 SWAP2 SUB SWAP1 RETURN JUMPDEST PUSH2 0x19A PUSH1 0x4 DUP1 CALLDATASIZE SUB DUP2 ADD SWAP1 PUSH2 0x195 SWAP2 SWAP1 PUSH2 0x1743 JUMP JUMPDEST PUSH2 0x3E5 JUMP JUMPDEST PUSH1 0x40 MLOAD PUSH2 0x1A7 SWAP2 SWAP1 PUSH2 0x19C7 JUMP JUMPDEST PUSH1 0x40 MLOAD DUP1 SWAP2 SUB SWAP1 RETURN JUMPDEST PUSH2 0x1B8 PUSH2 0x6A9 JUMP JUMPDEST PUSH1 0x40 MLOAD PUSH2 0x1C5 SWAP2 SWAP1 PUSH2 0x1594 JUMP JUMPDEST PUSH1 0x40 MLOAD DUP1 SWAP2 SUB SWAP1 RETURN JUMPDEST PUSH2 0x1E8 PUSH1 0x4 DUP1 CALLDATASIZE SUB DUP2 ADD SWAP1 PUSH2 0x1E3 SWAP2 SWAP1 PUSH2 0x19E7 JUMP JUMPDEST PUSH2 0x6BE JUMP JUMPDEST PUSH1 0x40 MLOAD PUSH2 0x1F5 SWAP2 SWAP1 PUSH2 0x172A JUMP JUMPDEST PUSH1 0x40 MLOAD DUP1 SWAP2 SUB SWAP1 RETURN JUMPDEST PUSH2 0x206 PUSH2 0x6DB JUMP JUMPDEST STOP JUMPDEST PUSH2 0x210 PUSH2 0x6EE JUMP JUMPDEST STOP JUMPDEST PUSH2 0x21A PUSH2 0x77C JUMP JUMPDEST PUSH1 0x40 MLOAD PUSH2 0x227 SWAP2 SWAP1 PUSH2 0x1652 JUMP JUMPDEST PUSH1 0x40 MLOAD DUP1 SWAP2 SUB SWAP1 RETURN JUMPDEST PUSH2 0x24A PUSH1 0x4 DUP1 CALLDATASIZE SUB DUP2 ADD SWAP1 PUSH2 0x245 SWAP2 SWAP1 PUSH2 0x1A34 JUMP JUMPDEST PUSH2 0x7B1 JUMP JUMPDEST STOP JUMPDEST PUSH2 0x266 PUSH1 0x4 DUP1 CALLDATASIZE SUB DUP2 ADD SWAP1 PUSH2 0x261 SWAP2 SWAP1 PUSH2 0x19E7 JUMP JUMPDEST PUSH2 0x856 JUMP JUMPDEST PUSH1 0x40 MLOAD PUSH2 0x273 SWAP2 SWAP1 PUSH2 0x172A JUMP JUMPDEST PUSH1 0x40 MLOAD DUP1 SWAP2 SUB SWAP1 RETURN JUMPDEST PUSH2 0x296 PUSH1 0x4 DUP1 CALLDATASIZE SUB DUP2 ADD SWAP1 PUSH2 0x291 SWAP2 SWAP1 PUSH2 0x1B31 JUMP JUMPDEST PUSH2 0x8F4 JUMP JUMPDEST STOP JUMPDEST PUSH2 0x2B2 PUSH1 0x4 DUP1 CALLDATASIZE SUB DUP2 ADD SWAP1 PUSH2 0x2AD SWAP2 SWAP1 PUSH2 0x19E7 JUMP JUMPDEST PUSH2 0xBC7 JUMP JUMPDEST PUSH1 0x40 MLOAD PUSH2 0x2BF SWAP2 SWAP1 PUSH2 0x1C1D JUMP JUMPDEST PUSH1 0x40 MLOAD DUP1 SWAP2 SUB SWAP1 RETURN JUMPDEST PUSH2 0x2E2 PUSH1 0x4 DUP1 CALLDATASIZE SUB DUP2 ADD SWAP1 PUSH2 0x2DD SWAP2 SWAP1 PUSH2 0x1C3D JUMP JUMPDEST PUSH2 0xDCB JUMP JUMPDEST PUSH1 0x40 MLOAD PUSH2 0x2EF SWAP2 SWAP1 PUSH2 0x1594 JUMP JUMPDEST PUSH1 0x40 MLOAD DUP1 SWAP2 SUB SWAP1 RETURN JUMPDEST PUSH2 0x300 PUSH2 0xDE0 JUMP JUMPDEST PUSH1 0x40 MLOAD PUSH2 0x30D SWAP2 SWAP1 PUSH2 0x1652 JUMP JUMPDEST PUSH1 0x40 MLOAD DUP1 SWAP2 SUB SWAP1 RETURN JUMPDEST PUSH2 0x330 PUSH1 0x4 DUP1 CALLDATASIZE SUB DUP2 ADD SWAP1 PUSH2 0x32B SWAP2 SWAP1 PUSH2 0x1C3D JUMP JUMPDEST PUSH2 0xE15 JUMP JUMPDEST STOP JUMPDEST PUSH2 0x3E8 DUP2 JUMP JUMPDEST PUSH0 PUSH1 0x20 MSTORE DUP1 PUSH0 MSTORE PUSH1 0x40 PUSH0 KECCAK256 PUSH0 SWAP2 POP SLOAD SWAP1 PUSH2 0x100 EXP SWAP1 DIV PUSH20 0xFFFFFFFFFFFFFFFFFFFFFFFFFFFFFFFFFFFFFFFF AND DUP2 JUMP JUMPDEST PUSH0 PUSH2 0x370 PUSH2 0xECE JUMP JUMPDEST PUSH0 ADD PUSH0 DUP5 PUSH20 0xFFFFFFFFFFFFFFFFFFFFFFFFFFFFFFFFFFFFFFFF AND PUSH20 0xFFFFFFFFFFFFFFFFFFFFFFFFFFFFFFFFFFFFFFFF AND DUP2 MSTORE PUSH1 0x20 ADD SWAP1 DUP2 MSTORE PUSH1 0x20 ADD PUSH0 KECCAK256 PUSH0 DUP4 PUSH8 0xFFFFFFFFFFFFFFFF AND PUSH8 0xFFFFFFFFFFFFFFFF AND DUP2 MSTORE PUSH1 0x20 ADD SWAP1 DUP2 MSTORE PUSH1 0x20 ADD PUSH0 KECCAK256 PUSH0 SWAP1 SLOAD SWAP1 PUSH2 0x100 EXP SWAP1 DIV PUSH1 0xFF AND SWAP1 POP SWAP3 SWAP2 POP POP JUMP JUMPDEST PUSH1 0x60 PUSH0 PUSH2 0x3F0 PUSH2 0xECE JUMP JUMPDEST SWAP1 POP PUSH0 DUP1 PUSH2 0x409 DUP4 PUSH1 0x2 ADD DUP1 SLOAD SWAP1 POP DUP8 DUP8 PUSH2 0x3E8 PUSH2 0xEF5 JUMP JUMPDEST SWAP2 POP SWAP2 POP PUSH0 DUP3 DUP3 PUSH2 0x41A SWAP2 SWAP1 PUSH2 0x1C95 JUMP JUMPDEST PUSH8 0xFFFFFFFFFFFFFFFF DUP2 GT ISZERO PUSH2 0x433 JUMPI PUSH2 0x432 PUSH2 0x1CC8 JUMP JUMPDEST JUMPDEST PUSH1 0x40 MLOAD SWAP1 DUP1 DUP3 MSTORE DUP1 PUSH1 0x20 MUL PUSH1 0x20 ADD DUP3 ADD PUSH1 0x40 MSTORE DUP1 ISZERO PUSH2 0x46C JUMPI DUP2 PUSH1 0x20 ADD JUMPDEST PUSH2 0x459 PUSH2 0x1546 JUMP JUMPDEST DUP2 MSTORE PUSH1 0x20 ADD SWAP1 PUSH1 0x1 SWAP1 SUB SWAP1 DUP2 PUSH2 0x451 JUMPI SWAP1 POP JUMPDEST POP SWAP1 POP PUSH0 DUP4 SWAP1 POP JUMPDEST DUP3 DUP2 LT ISZERO PUSH2 0x69B JUMPI DUP5 PUSH1 0x1 ADD PUSH0 DUP7 PUSH1 0x2 ADD DUP4 DUP2 SLOAD DUP2 LT PUSH2 0x497 JUMPI PUSH2 0x496 PUSH2 0x1CF5 JUMP JUMPDEST JUMPDEST SWAP1 PUSH0 MSTORE PUSH1 0x20 PUSH0 KECCAK256 SWAP1 PUSH1 0x4 SWAP2 DUP3 DUP3 DIV ADD SWAP2 SWAP1 MOD PUSH1 0x8 MUL SWAP1 SLOAD SWAP1 PUSH2 0x100 EXP SWAP1 DIV PUSH8 0xFFFFFFFFFFFFFFFF AND PUSH8 0xFFFFFFFFFFFFFFFF AND PUSH8 0xFFFFFFFFFFFFFFFF AND DUP2 MSTORE PUSH1 0x20 ADD SWAP1 DUP2 MSTORE PUSH1 0x20 ADD PUSH0 KECCAK256 PUSH1 0x40 MLOAD DUP1 PUSH1 0x60 ADD PUSH1 0x40 MSTORE SWAP1 DUP2 PUSH0 DUP3 ADD DUP1 SLOAD PUSH2 0x4FA SWAP1 PUSH2 0x1D4F JUMP JUMPDEST DUP1 PUSH1 0x1F ADD PUSH1 0x20 DUP1 SWAP2 DIV MUL PUSH1 0x20 ADD PUSH1 0x40 MLOAD SWAP1 DUP2 ADD PUSH1 0x40 MSTORE DUP1 SWAP3 SWAP2 SWAP1 DUP2 DUP2 MSTORE PUSH1 0x20 ADD DUP3 DUP1 SLOAD PUSH2 0x526 SWAP1 PUSH2 0x1D4F JUMP JUMPDEST DUP1 ISZERO PUSH2 0x571 JUMPI DUP1 PUSH1 0x1F LT PUSH2 0x548 JUMPI PUSH2 0x100 DUP1 DUP4 SLOAD DIV MUL DUP4 MSTORE SWAP2 PUSH1 0x20 ADD SWAP2 PUSH2 0x571 JUMP JUMPDEST DUP3 ADD SWAP2 SWAP1 PUSH0 MSTORE PUSH1 0x20 PUSH0 KECCAK256 SWAP1 JUMPDEST DUP2 SLOAD DUP2 MSTORE SWAP1 PUSH1 0x1 ADD SWAP1 PUSH1 0x20 ADD DUP1 DUP4 GT PUSH2 0x554 JUMPI DUP3 SWAP1 SUB PUSH1 0x1F AND DUP3 ADD SWAP2 JUMPDEST POP POP POP POP POP DUP2 MSTORE PUSH1 0x20 ADD PUSH1 0x1 DUP3 ADD PUSH0 SWAP1 SLOAD SWAP1 PUSH2 0x100 EXP SWAP1 DIV PUSH20 0xFFFFFFFFFFFFFFFFFFFFFFFFFFFFFFFFFFFFFFFF AND PUSH20 0xFFFFFFFFFFFFFFFFFFFFFFFFFFFFFFFFFFFFFFFF AND PUSH20 0xFFFFFFFFFFFFFFFFFFFFFFFFFFFFFFFFFFFFFFFF AND DUP2 MSTORE PUSH1 0x20 ADD PUSH1 0x2 DUP3 ADD DUP1 SLOAD PUSH2 0x5DF SWAP1 PUSH2 0x1D4F JUMP JUMPDEST DUP1 PUSH1 0x1F ADD PUSH1 0x20 DUP1 SWAP2 DIV MUL PUSH1 0x20 ADD PUSH1 0x40 MLOAD SWAP1 DUP2 ADD PUSH1 0x40 MSTORE DUP1 SWAP3 SWAP2 SWAP1 DUP2 DUP2 MSTORE PUSH1 0x20 ADD DUP3 DUP1 SLOAD PUSH2 0x60B SWAP1 PUSH2 0x1D4F JUMP JUMPDEST DUP1 ISZERO PUSH2 0x656 JUMPI DUP1 PUSH1 0x1F LT PUSH2 0x62D JUMPI PUSH2 0x100 DUP1 DUP4 SLOAD DIV MUL DUP4 MSTORE SWAP2 PUSH1 0x20 ADD SWAP2 PUSH2 0x656 JUMP JUMPDEST DUP3 ADD SWAP2 SWAP1 PUSH0 MSTORE PUSH1 0x20 PUSH0 KECCAK256 SWAP1 JUMPDEST DUP2 SLOAD DUP2 MSTORE SWAP1 PUSH1 0x1 ADD SWAP1 PUSH1 0x20 ADD DUP1 DUP4 GT PUSH2 0x639 JUMPI DUP3 SWAP1 SUB PUSH1 0x1F AND DUP3 ADD SWAP2 JUMPDEST POP POP POP POP POP DUP2 MSTORE POP POP DUP3 DUP6 DUP4 PUSH2 0x66C SWAP2 SWAP1 PUSH2 0x1C95 JUMP JUMPDEST DUP2 MLOAD DUP2 LT PUSH2 0x67D JUMPI PUSH2 0x67C PUSH2 0x1CF5 JUMP JUMPDEST JUMPDEST PUSH1 0x20 MUL PUSH1 0x20 ADD ADD DUP2 SWAP1 MSTORE POP DUP1 DUP1 PUSH2 0x693 SWAP1 PUSH2 0x1D7F JUMP JUMPDEST SWAP2 POP POP PUSH2 0x474 JUMP JUMPDEST POP DUP1 SWAP5 POP POP POP POP POP SWAP3 SWAP2 POP POP JUMP JUMPDEST PUSH0 PUSH2 0x6B2 PUSH2 0xECE JUMP JUMPDEST PUSH1 0x2 ADD DUP1 SLOAD SWAP1 POP SWAP1 POP SWAP1 JUMP JUMPDEST PUSH1 0x2 PUSH1 0x20 MSTORE DUP1 PUSH0 MSTORE PUSH1 0x40 PUSH0 KECCAK256 PUSH0 SWAP2 POP SLOAD SWAP1 PUSH2 0x100 EXP SWAP1 DIV PUSH1 0xFF AND DUP2 JUMP JUMPDEST PUSH2 0x6E3 PUSH2 0xFE9 JUMP JUMPDEST PUSH2 0x6EC PUSH0 PUSH2 0x1070 JUMP JUMPDEST JUMP JUMPDEST PUSH0 PUSH2 0x6F7 PUSH2 0x10AD JUMP JUMPDEST SWAP1 POP DUP1 PUSH20 0xFFFFFFFFFFFFFFFFFFFFFFFFFFFFFFFFFFFFFFFF AND PUSH2 0x718 PUSH2 0xDE0 JUMP JUMPDEST PUSH20 0xFFFFFFFFFFFFFFFFFFFFFFFFFFFFFFFFFFFFFFFF AND EQ PUSH2 0x770 JUMPI DUP1 PUSH1 0x40 MLOAD PUSH32 0x118CDAA700000000000000000000000000000000000000000000000000000000 DUP2 MSTORE PUSH1 0x4 ADD PUSH2 0x767 SWAP2 SWAP1 PUSH2 0x1652 JUMP JUMPDEST PUSH1 0x40 MLOAD DUP1 SWAP2 SUB SWAP1 REVERT JUMPDEST PUSH2 0x779 DUP2 PUSH2 0x1070 JUMP JUMPDEST POP JUMP JUMPDEST PUSH0 DUP1 PUSH2 0x786 PUSH2 0x10B4 JUMP JUMPDEST SWAP1 POP DUP1 PUSH0 ADD PUSH0 SWAP1 SLOAD SWAP1 PUSH2 0x100 EXP SWAP1 DIV PUSH20 0xFFFFFFFFFFFFFFFFFFFFFFFFFFFFFFFFFFFFFFFF AND SWAP2 POP POP SWAP1 JUMP JUMPDEST PUSH2 0x7B9 PUSH2 0xFE9 JUMP JUMPDEST PUSH0 PUSH2 0x7C2 PUSH2 0xECE JUMP JUMPDEST SWAP1 POP DUP2 DUP2 PUSH1 0x1 ADD PUSH0 DUP6 PUSH8 0xFFFFFFFFFFFFFFFF AND PUSH8 0xFFFFFFFFFFFFFFFF AND DUP2 MSTORE PUSH1 0x20 ADD SWAP1 DUP2 MSTORE PUSH1 0x20 ADD PUSH0 KECCAK256 DUP2 DUP2 PUSH2 0x7F8 SWAP2 SWAP1 PUSH2 0x237F JUMP JUMPDEST SWAP1 POP POP DUP1 PUSH1 0x2 ADD DUP4 SWAP1 DUP1 PUSH1 0x1 DUP2 SLOAD ADD DUP1 DUP3 SSTORE DUP1 SWAP2 POP POP PUSH1 0x1 SWAP1 SUB SWAP1 PUSH0 MSTORE PUSH1 0x20 PUSH0 KECCAK256 SWAP1 PUSH1 0x4 SWAP2 DUP3 DUP3 DIV ADD SWAP2 SWAP1 MOD PUSH1 0x8 MUL SWAP1 SWAP2 SWAP1 SWAP2 SWAP1 SWAP2 PUSH2 0x100 EXP DUP2 SLOAD DUP2 PUSH8 0xFFFFFFFFFFFFFFFF MUL NOT AND SWAP1 DUP4 PUSH8 0xFFFFFFFFFFFFFFFF AND MUL OR SWAP1 SSTORE POP POP POP POP JUMP JUMPDEST PUSH0 DUP1 PUSH2 0x860 PUSH2 0xECE JUMP JUMPDEST SWAP1 POP PUSH0 JUMPDEST DUP2 PUSH1 0x2 ADD DUP1 SLOAD SWAP1 POP DUP2 LT ISZERO PUSH2 0x8E9 JUMPI DUP4 PUSH8 0xFFFFFFFFFFFFFFFF AND DUP3 PUSH1 0x2 ADD DUP3 DUP2 SLOAD DUP2 LT PUSH2 0x894 JUMPI PUSH2 0x893 PUSH2 0x1CF5 JUMP JUMPDEST JUMPDEST SWAP1 PUSH0 MSTORE PUSH1 0x20 PUSH0 KECCAK256 SWAP1 PUSH1 0x4 SWAP2 DUP3 DUP3 DIV ADD SWAP2 SWAP1 MOD PUSH1 0x8 MUL SWAP1 SLOAD SWAP1 PUSH2 0x100 EXP SWAP1 DIV PUSH8 0xFFFFFFFFFFFFFFFF AND PUSH8 0xFFFFFFFFFFFFFFFF AND SUB PUSH2 0x8D6 JUMPI PUSH1 0x1 SWAP3 POP POP POP PUSH2 0x8EF JUMP JUMPDEST DUP1 DUP1 PUSH2 0x8E1 SWAP1 PUSH2 0x1D7F JUMP JUMPDEST SWAP2 POP POP PUSH2 0x864 JUMP JUMPDEST POP PUSH0 SWAP2 POP POP JUMPDEST SWAP2 SWAP1 POP JUMP JUMPDEST PUSH0 PUSH2 0x8FD PUSH2 0xECE JUMP JUMPDEST SWAP1 POP PUSH0 DUP2 PUSH1 0x1 ADD PUSH0 DUP10 PUSH8 0xFFFFFFFFFFFFFFFF AND PUSH8 0xFFFFFFFFFFFFFFFF AND DUP2 MSTORE PUSH1 0x20 ADD SWAP1 DUP2 MSTORE PUSH1 0x20 ADD PUSH0 KECCAK256 SWAP1 POP PUSH0 PUSH20 0xFFFFFFFFFFFFFFFFFFFFFFFFFFFFFFFFFFFFFFFF AND DUP2 PUSH1 0x1 ADD PUSH0 SWAP1 SLOAD SWAP1 PUSH2 0x100 EXP SWAP1 DIV PUSH20 0xFFFFFFFFFFFFFFFFFFFFFFFFFFFFFFFFFFFFFFFF AND PUSH20 0xFFFFFFFFFFFFFFFFFFFFFFFFFFFFFFFFFFFFFFFF AND SUB PUSH2 0x9BA JUMPI PUSH1 0x40 MLOAD PUSH32 0x8C379A000000000000000000000000000000000000000000000000000000000 DUP2 MSTORE PUSH1 0x4 ADD PUSH2 0x9B1 SWAP1 PUSH2 0x240D JUMP JUMPDEST PUSH1 0x40 MLOAD DUP1 SWAP2 SUB SWAP1 REVERT JUMPDEST PUSH2 0xA28 DUP9 DUP9 DUP9 DUP1 DUP1 PUSH1 0x20 MUL PUSH1 0x20 ADD PUSH1 0x40 MLOAD SWAP1 DUP2 ADD PUSH1 0x40 MSTORE DUP1 SWAP4 SWAP3 SWAP2 SWAP1 DUP2 DUP2 MSTORE PUSH1 0x20 ADD DUP4 DUP4 PUSH1 0x20 MUL DUP1 DUP3 DUP5 CALLDATACOPY PUSH0 DUP2 DUP5 ADD MSTORE PUSH1 0x1F NOT PUSH1 0x1F DUP3 ADD AND SWAP1 POP DUP1 DUP4 ADD SWAP3 POP POP POP POP POP POP POP DUP4 PUSH1 0x1 ADD PUSH0 SWAP1 SLOAD SWAP1 PUSH2 0x100 EXP SWAP1 DIV PUSH20 0xFFFFFFFFFFFFFFFFFFFFFFFFFFFFFFFFFFFFFFFF AND PUSH2 0x10DB JUMP JUMPDEST DUP1 PUSH1 0x1 ADD PUSH0 SWAP1 SLOAD SWAP1 PUSH2 0x100 EXP SWAP1 DIV PUSH20 0xFFFFFFFFFFFFFFFFFFFFFFFFFFFFFFFFFFFFFFFF AND PUSH20 0xFFFFFFFFFFFFFFFFFFFFFFFFFFFFFFFFFFFFFFFF AND PUSH4 0xF177A69E DUP9 DUP9 DUP9 DUP9 DUP9 DUP8 PUSH1 0x2 ADD CALLER PUSH1 0x40 MLOAD DUP9 PUSH4 0xFFFFFFFF AND PUSH1 0xE0 SHL DUP2 MSTORE PUSH1 0x4 ADD PUSH2 0xA93 SWAP8 SWAP7 SWAP6 SWAP5 SWAP4 SWAP3 SWAP2 SWAP1 PUSH2 0x25FC JUMP JUMPDEST PUSH0 PUSH1 0x40 MLOAD DUP1 DUP4 SUB DUP2 DUP7 GAS STATICCALL ISZERO DUP1 ISZERO PUSH2 0xAAD JUMPI RETURNDATASIZE PUSH0 DUP1 RETURNDATACOPY RETURNDATASIZE PUSH0 REVERT JUMPDEST POP POP POP POP PUSH1 0x40 MLOAD RETURNDATASIZE PUSH0 DUP3 RETURNDATACOPY RETURNDATASIZE PUSH1 0x1F NOT PUSH1 0x1F DUP3 ADD AND DUP3 ADD DUP1 PUSH1 0x40 MSTORE POP DUP2 ADD SWAP1 PUSH2 0xAD5 SWAP2 SWAP1 PUSH2 0x28BE JUMP JUMPDEST POP PUSH1 0x1 DUP3 PUSH0 ADD PUSH0 CALLER PUSH20 0xFFFFFFFFFFFFFFFFFFFFFFFFFFFFFFFFFFFFFFFF AND PUSH20 0xFFFFFFFFFFFFFFFFFFFFFFFFFFFFFFFFFFFFFFFF AND DUP2 MSTORE PUSH1 0x20 ADD SWAP1 DUP2 MSTORE PUSH1 0x20 ADD PUSH0 KECCAK256 PUSH0 DUP11 PUSH8 0xFFFFFFFFFFFFFFFF AND PUSH8 0xFFFFFFFFFFFFFFFF AND DUP2 MSTORE PUSH1 0x20 ADD SWAP1 DUP2 MSTORE PUSH1 0x20 ADD PUSH0 KECCAK256 PUSH0 PUSH2 0x100 EXP DUP2 SLOAD DUP2 PUSH1 0xFF MUL NOT AND SWAP1 DUP4 ISZERO ISZERO MUL OR SWAP1 SSTORE POP PUSH2 0xBBD DUP9 DUP9 DUP9 DUP1 DUP1 PUSH1 0x20 MUL PUSH1 0x20 ADD PUSH1 0x40 MLOAD SWAP1 DUP2 ADD PUSH1 0x40 MSTORE DUP1 SWAP4 SWAP3 SWAP2 SWAP1 DUP2 DUP2 MSTORE PUSH1 0x20 ADD DUP4 DUP4 PUSH1 0x20 MUL DUP1 DUP3 DUP5 CALLDATACOPY PUSH0 DUP2 DUP5 ADD MSTORE PUSH1 0x1F NOT PUSH1 0x1F DUP3 ADD AND SWAP1 POP DUP1 DUP4 ADD SWAP3 POP POP POP POP POP POP POP DUP4 PUSH1 0x1 ADD PUSH0 SWAP1 SLOAD SWAP1 PUSH2 0x100 EXP SWAP1 DIV PUSH20 0xFFFFFFFFFFFFFFFFFFFFFFFFFFFFFFFFFFFFFFFF AND PUSH2 0x11DC JUMP JUMPDEST POP POP POP POP POP POP POP POP JUMP JUMPDEST PUSH2 0xBCF PUSH2 0x1546 JUMP JUMPDEST PUSH2 0xBD8 DUP3 PUSH2 0x856 JUMP JUMPDEST PUSH2 0xC17 JUMPI PUSH1 0x40 MLOAD PUSH32 0x8C379A000000000000000000000000000000000000000000000000000000000 DUP2 MSTORE PUSH1 0x4 ADD PUSH2 0xC0E SWAP1 PUSH2 0x294F JUMP JUMPDEST PUSH1 0x40 MLOAD DUP1 SWAP2 SUB SWAP1 REVERT JUMPDEST PUSH2 0xC1F PUSH2 0xECE JUMP JUMPDEST PUSH1 0x1 ADD PUSH0 DUP4 PUSH8 0xFFFFFFFFFFFFFFFF AND PUSH8 0xFFFFFFFFFFFFFFFF AND DUP2 MSTORE PUSH1 0x20 ADD SWAP1 DUP2 MSTORE PUSH1 0x20 ADD PUSH0 KECCAK256 PUSH1 0x40 MLOAD DUP1 PUSH1 0x60 ADD PUSH1 0x40 MSTORE SWAP1 DUP2 PUSH0 DUP3 ADD DUP1 SLOAD PUSH2 0xC5F SWAP1 PUSH2 0x1D4F JUMP JUMPDEST DUP1 PUSH1 0x1F ADD PUSH1 0x20 DUP1 SWAP2 DIV MUL PUSH1 0x20 ADD PUSH1 0x40 MLOAD SWAP1 DUP2 ADD PUSH1 0x40 MSTORE DUP1 SWAP3 SWAP2 SWAP1 DUP2 DUP2 MSTORE PUSH1 0x20 ADD DUP3 DUP1 SLOAD PUSH2 0xC8B SWAP1 PUSH2 0x1D4F JUMP JUMPDEST DUP1 ISZERO PUSH2 0xCD6 JUMPI DUP1 PUSH1 0x1F LT PUSH2 0xCAD JUMPI PUSH2 0x100 DUP1 DUP4 SLOAD DIV MUL DUP4 MSTORE SWAP2 PUSH1 0x20 ADD SWAP2 PUSH2 0xCD6 JUMP JUMPDEST DUP3 ADD SWAP2 SWAP1 PUSH0 MSTORE PUSH1 0x20 PUSH0 KECCAK256 SWAP1 JUMPDEST DUP2 SLOAD DUP2 MSTORE SWAP1 PUSH1 0x1 ADD SWAP1 PUSH1 0x20 ADD DUP1 DUP4 GT PUSH2 0xCB9 JUMPI DUP3 SWAP1 SUB PUSH1 0x1F AND DUP3 ADD SWAP2 JUMPDEST POP POP POP POP POP DUP2 MSTORE PUSH1 0x20 ADD PUSH1 0x1 DUP3 ADD PUSH0 SWAP1 SLOAD SWAP1 PUSH2 0x100 EXP SWAP1 DIV PUSH20 0xFFFFFFFFFFFFFFFFFFFFFFFFFFFFFFFFFFFFFFFF AND PUSH20 0xFFFFFFFFFFFFFFFFFFFFFFFFFFFFFFFFFFFFFFFF AND PUSH20 0xFFFFFFFFFFFFFFFFFFFFFFFFFFFFFFFFFFFFFFFF AND DUP2 MSTORE PUSH1 0x20 ADD PUSH1 0x2 DUP3 ADD DUP1 SLOAD PUSH2 0xD44 SWAP1 PUSH2 0x1D4F JUMP JUMPDEST DUP1 PUSH1 0x1F ADD PUSH1 0x20 DUP1 SWAP2 DIV MUL PUSH1 0x20 ADD PUSH1 0x40 MLOAD SWAP1 DUP2 ADD PUSH1 0x40 MSTORE DUP1 SWAP3 SWAP2 SWAP1 DUP2 DUP2 MSTORE PUSH1 0x20 ADD DUP3 DUP1 SLOAD PUSH2 0xD70 SWAP1 PUSH2 0x1D4F JUMP JUMPDEST DUP1 ISZERO PUSH2 0xDBB JUMPI DUP1 PUSH1 0x1F LT PUSH2 0xD92 JUMPI PUSH2 0x100 DUP1 DUP4 SLOAD DIV MUL DUP4 MSTORE SWAP2 PUSH1 0x20 ADD SWAP2 PUSH2 0xDBB JUMP JUMPDEST DUP3 ADD SWAP2 SWAP1 PUSH0 MSTORE PUSH1 0x20 PUSH0 KECCAK256 SWAP1 JUMPDEST DUP2 SLOAD DUP2 MSTORE SWAP1 PUSH1 0x1 ADD SWAP1 PUSH1 0x20 ADD DUP1 DUP4 GT PUSH2 0xD9E JUMPI DUP3 SWAP1 SUB PUSH1 0x1F AND DUP3 ADD SWAP2 JUMPDEST POP POP POP POP POP DUP2 MSTORE POP POP SWAP1 POP SWAP2 SWAP1 POP JUMP JUMPDEST PUSH1 0x1 PUSH1 0x20 MSTORE DUP1 PUSH0 MSTORE PUSH1 0x40 PUSH0 KECCAK256 PUSH0 SWAP2 POP SWAP1 POP SLOAD DUP2 JUMP JUMPDEST PUSH0 DUP1 PUSH2 0xDEA PUSH2 0x144E JUMP JUMPDEST SWAP1 POP DUP1 PUSH0 ADD PUSH0 SWAP1 SLOAD SWAP1 PUSH2 0x100 EXP SWAP1 DIV PUSH20 0xFFFFFFFFFFFFFFFFFFFFFFFFFFFFFFFFFFFFFFFF AND SWAP2 POP POP SWAP1 JUMP JUMPDEST PUSH2 0xE1D PUSH2 0xFE9 JUMP JUMPDEST PUSH0 PUSH2 0xE26 PUSH2 0x144E JUMP JUMPDEST SWAP1 POP DUP2 DUP2 PUSH0 ADD PUSH0 PUSH2 0x100 EXP DUP2 SLOAD DUP2 PUSH20 0xFFFFFFFFFFFFFFFFFFFFFFFFFFFFFFFFFFFFFFFF MUL NOT AND SWAP1 DUP4 PUSH20 0xFFFFFFFFFFFFFFFFFFFFFFFFFFFFFFFFFFFFFFFF AND MUL OR SWAP1 SSTORE POP DUP2 PUSH20 0xFFFFFFFFFFFFFFFFFFFFFFFFFFFFFFFFFFFFFFFF AND PUSH2 0xE88 PUSH2 0x77C JUMP JUMPDEST PUSH20 0xFFFFFFFFFFFFFFFFFFFFFFFFFFFFFFFFFFFFFFFF AND PUSH32 0x38D16B8CAC22D99FC7C124B9CD0DE2D3FA1FAEF420BFE791D8C362D765E22700 PUSH1 0x40 MLOAD PUSH1 0x40 MLOAD DUP1 SWAP2 SUB SWAP1 LOG3 POP POP JUMP JUMPDEST PUSH0 PUSH32 0x512D18C55869273FEC77E70D8A8586E3FB133E90F1DB24C6BCF4FF3506EF6A00 SWAP1 POP SWAP1 JUMP JUMPDEST PUSH0 DUP1 PUSH0 DUP5 GT PUSH2 0xF39 JUMPI PUSH1 0x40 MLOAD PUSH32 0x8C379A000000000000000000000000000000000000000000000000000000000 DUP2 MSTORE PUSH1 0x4 ADD PUSH2 0xF30 SWAP1 PUSH2 0x29B7 JUMP JUMPDEST PUSH1 0x40 MLOAD DUP1 SWAP2 SUB SWAP1 REVERT JUMPDEST DUP3 DUP5 GT ISZERO PUSH2 0xF7C JUMPI PUSH1 0x40 MLOAD PUSH32 0x8C379A000000000000000000000000000000000000000000000000000000000 DUP2 MSTORE PUSH1 0x4 ADD PUSH2 0xF73 SWAP1 PUSH2 0x2A1F JUMP JUMPDEST PUSH1 0x40 MLOAD DUP1 SWAP2 SUB SWAP1 REVERT JUMPDEST DUP6 DUP6 LT PUSH2 0xFBE JUMPI PUSH1 0x40 MLOAD PUSH32 0x8C379A000000000000000000000000000000000000000000000000000000000 DUP2 MSTORE PUSH1 0x4 ADD PUSH2 0xFB5 SWAP1 PUSH2 0x2A87 JUMP JUMPDEST PUSH1 0x40 MLOAD DUP1 SWAP2 SUB SWAP1 REVERT JUMPDEST PUSH0 DUP5 DUP7 PUSH2 0xFCB SWAP2 SWAP1 PUSH2 0x2AA5 JUMP JUMPDEST SWAP1 POP DUP7 DUP2 GT ISZERO PUSH2 0xFD9 JUMPI DUP7 SWAP1 POP JUMPDEST DUP6 DUP2 SWAP3 POP SWAP3 POP POP SWAP5 POP SWAP5 SWAP3 POP POP POP JUMP JUMPDEST PUSH2 0xFF1 PUSH2 0x10AD JUMP JUMPDEST PUSH20 0xFFFFFFFFFFFFFFFFFFFFFFFFFFFFFFFFFFFFFFFF AND PUSH2 0x100F PUSH2 0x77C JUMP JUMPDEST PUSH20 0xFFFFFFFFFFFFFFFFFFFFFFFFFFFFFFFFFFFFFFFF AND EQ PUSH2 0x106E JUMPI PUSH2 0x1032 PUSH2 0x10AD JUMP JUMPDEST PUSH1 0x40 MLOAD PUSH32 0x118CDAA700000000000000000000000000000000000000000000000000000000 DUP2 MSTORE PUSH1 0x4 ADD PUSH2 0x1065 SWAP2 SWAP1 PUSH2 0x1652 JUMP JUMPDEST PUSH1 0x40 MLOAD DUP1 SWAP2 SUB SWAP1 REVERT JUMPDEST JUMP JUMPDEST PUSH0 PUSH2 0x1079 PUSH2 0x144E JUMP JUMPDEST SWAP1 POP DUP1 PUSH0 ADD PUSH0 PUSH2 0x100 EXP DUP2 SLOAD SWAP1 PUSH20 0xFFFFFFFFFFFFFFFFFFFFFFFFFFFFFFFFFFFFFFFF MUL NOT AND SWAP1 SSTORE PUSH2 0x10A9 DUP3 PUSH2 0x1475 JUMP JUMPDEST POP POP JUMP JUMPDEST PUSH0 CALLER SWAP1 POP SWAP1 JUMP JUMPDEST PUSH0 PUSH32 0x9016D09D72D40FDAE2FD8CEAC6B6234C7706214FD39C1CD1E609A0528C199300 SWAP1 POP SWAP1 JUMP JUMPDEST PUSH0 DUP2 PUSH20 0xFFFFFFFFFFFFFFFFFFFFFFFFFFFFFFFFFFFFFFFF AND PUSH4 0xB16A394F PUSH1 0x40 MLOAD DUP2 PUSH4 0xFFFFFFFF AND PUSH1 0xE0 SHL DUP2 MSTORE PUSH1 0x4 ADD PUSH2 0x1113 SWAP1 PUSH2 0x2B22 JUMP JUMPDEST PUSH1 0x20 PUSH1 0x40 MLOAD DUP1 DUP4 SUB DUP2 DUP7 GAS STATICCALL ISZERO DUP1 ISZERO PUSH2 0x112E JUMPI RETURNDATASIZE PUSH0 DUP1 RETURNDATACOPY RETURNDATASIZE PUSH0 REVERT JUMPDEST POP POP POP POP PUSH1 0x40 MLOAD RETURNDATASIZE PUSH1 0x1F NOT PUSH1 0x1F DUP3 ADD AND DUP3 ADD DUP1 PUSH1 0x40 MSTORE POP DUP2 ADD SWAP1 PUSH2 0x1152 SWAP2 SWAP1 PUSH2 0x2B40 JUMP JUMPDEST SWAP1 POP PUSH3 0xBC614E DUP2 EQ PUSH2 0x1199 JUMPI PUSH1 0x40 MLOAD PUSH32 0x8C379A000000000000000000000000000000000000000000000000000000000 DUP2 MSTORE PUSH1 0x4 ADD PUSH2 0x1190 SWAP1 PUSH2 0x2BDB JUMP JUMPDEST PUSH1 0x40 MLOAD DUP1 SWAP2 SUB SWAP1 REVERT JUMPDEST PUSH1 0x1 PUSH1 0x2 PUSH0 DUP7 PUSH8 0xFFFFFFFFFFFFFFFF AND PUSH8 0xFFFFFFFFFFFFFFFF AND DUP2 MSTORE PUSH1 0x20 ADD SWAP1 DUP2 MSTORE PUSH1 0x20 ADD PUSH0 KECCAK256 PUSH0 PUSH2 0x100 EXP DUP2 SLOAD DUP2 PUSH1 0xFF MUL NOT AND SWAP1 DUP4 ISZERO ISZERO MUL OR SWAP1 SSTORE POP POP POP POP POP JUMP JUMPDEST PUSH0 PUSH1 0x1 PUSH0 PUSH2 0x11E8 PUSH2 0x10AD JUMP JUMPDEST PUSH20 0xFFFFFFFFFFFFFFFFFFFFFFFFFFFFFFFFFFFFFFFF AND PUSH20 0xFFFFFFFFFFFFFFFFFFFFFFFFFFFFFFFFFFFFFFFF AND DUP2 MSTORE PUSH1 0x20 ADD SWAP1 DUP2 MSTORE PUSH1 0x20 ADD PUSH0 KECCAK256 SLOAD EQ DUP1 ISZERO PUSH2 0x125D JUMPI POP PUSH1 0x2 PUSH0 DUP5 PUSH8 0xFFFFFFFFFFFFFFFF AND PUSH8 0xFFFFFFFFFFFFFFFF AND DUP2 MSTORE PUSH1 0x20 ADD SWAP1 DUP2 MSTORE PUSH1 0x20 ADD PUSH0 KECCAK256 PUSH0 SWAP1 SLOAD SWAP1 PUSH2 0x100 EXP SWAP1 DIV PUSH1 0xFF AND JUMPDEST PUSH2 0x129C JUMPI PUSH1 0x40 MLOAD PUSH32 0x8C379A000000000000000000000000000000000000000000000000000000000 DUP2 MSTORE PUSH1 0x4 ADD PUSH2 0x1293 SWAP1 PUSH2 0x2C69 JUMP JUMPDEST PUSH1 0x40 MLOAD DUP1 SWAP2 SUB SWAP1 REVERT JUMPDEST PUSH0 DUP3 PUSH1 0x1 DUP2 MLOAD DUP2 LT PUSH2 0x12B1 JUMPI PUSH2 0x12B0 PUSH2 0x1CF5 JUMP JUMPDEST JUMPDEST PUSH1 0x20 MUL PUSH1 0x20 ADD ADD MLOAD SWAP1 POP PUSH0 PUSH20 0xFFFFFFFFFFFFFFFFFFFFFFFFFFFFFFFFFFFFFFFF AND PUSH0 DUP1 DUP4 DUP2 MSTORE PUSH1 0x20 ADD SWAP1 DUP2 MSTORE PUSH1 0x20 ADD PUSH0 KECCAK256 PUSH0 SWAP1 SLOAD SWAP1 PUSH2 0x100 EXP SWAP1 DIV PUSH20 0xFFFFFFFFFFFFFFFFFFFFFFFFFFFFFFFFFFFFFFFF AND PUSH20 0xFFFFFFFFFFFFFFFFFFFFFFFFFFFFFFFFFFFFFFFF AND EQ DUP1 ISZERO PUSH2 0x1368 JUMPI POP PUSH0 PUSH1 0x1 PUSH0 PUSH2 0x132C PUSH2 0x10AD JUMP JUMPDEST PUSH20 0xFFFFFFFFFFFFFFFFFFFFFFFFFFFFFFFFFFFFFFFF AND PUSH20 0xFFFFFFFFFFFFFFFFFFFFFFFFFFFFFFFFFFFFFFFF AND DUP2 MSTORE PUSH1 0x20 ADD SWAP1 DUP2 MSTORE PUSH1 0x20 ADD PUSH0 KECCAK256 SLOAD EQ JUMPDEST ISZERO PUSH2 0x1448 JUMPI DUP1 PUSH1 0x1 PUSH0 PUSH2 0x1379 PUSH2 0x10AD JUMP JUMPDEST PUSH20 0xFFFFFFFFFFFFFFFFFFFFFFFFFFFFFFFFFFFFFFFF AND PUSH20 0xFFFFFFFFFFFFFFFFFFFFFFFFFFFFFFFFFFFFFFFF AND DUP2 MSTORE PUSH1 0x20 ADD SWAP1 DUP2 MSTORE PUSH1 0x20 ADD PUSH0 KECCAK256 DUP2 SWAP1 SSTORE POP PUSH2 0x13BE PUSH2 0x10AD JUMP JUMPDEST PUSH0 DUP1 DUP4 DUP2 MSTORE PUSH1 0x20 ADD SWAP1 DUP2 MSTORE PUSH1 0x20 ADD PUSH0 KECCAK256 PUSH0 PUSH2 0x100 EXP DUP2 SLOAD DUP2 PUSH20 0xFFFFFFFFFFFFFFFFFFFFFFFFFFFFFFFFFFFFFFFF MUL NOT AND SWAP1 DUP4 PUSH20 0xFFFFFFFFFFFFFFFFFFFFFFFFFFFFFFFFFFFFFFFF AND MUL OR SWAP1 SSTORE POP PUSH0 PUSH1 0x2 PUSH0 DUP7 PUSH8 0xFFFFFFFFFFFFFFFF AND PUSH8 0xFFFFFFFFFFFFFFFF AND DUP2 MSTORE PUSH1 0x20 ADD SWAP1 DUP2 MSTORE PUSH1 0x20 ADD PUSH0 KECCAK256 PUSH0 PUSH2 0x100 EXP DUP2 SLOAD DUP2 PUSH1 0xFF MUL NOT AND SWAP1 DUP4 ISZERO ISZERO MUL OR SWAP1 SSTORE POP JUMPDEST POP POP POP POP JUMP JUMPDEST PUSH0 PUSH32 0x237E158222E3E6968B72B9DB0D8043AACF074AD9F650F0D1606B4D82EE432C00 SWAP1 POP SWAP1 JUMP JUMPDEST PUSH0 PUSH2 0x147E PUSH2 0x10B4 JUMP JUMPDEST SWAP1 POP PUSH0 DUP2 PUSH0 ADD PUSH0 SWAP1 SLOAD SWAP1 PUSH2 0x100 EXP SWAP1 DIV PUSH20 0xFFFFFFFFFFFFFFFFFFFFFFFFFFFFFFFFFFFFFFFF AND SWAP1 POP DUP3 DUP3 PUSH0 ADD PUSH0 PUSH2 0x100 EXP DUP2 SLOAD DUP2 PUSH20 0xFFFFFFFFFFFFFFFFFFFFFFFFFFFFFFFFFFFFFFFF MUL NOT AND SWAP1 DUP4 PUSH20 0xFFFFFFFFFFFFFFFFFFFFFFFFFFFFFFFFFFFFFFFF AND MUL OR SWAP1 SSTORE POP DUP3 PUSH20 0xFFFFFFFFFFFFFFFFFFFFFFFFFFFFFFFFFFFFFFFF AND DUP2 PUSH20 0xFFFFFFFFFFFFFFFFFFFFFFFFFFFFFFFFFFFFFFFF AND PUSH32 0x8BE0079C531659141344CD1FD0A4F28419497F9722A3DAAFE3B4186F6B6457E0 PUSH1 0x40 MLOAD PUSH1 0x40 MLOAD DUP1 SWAP2 SUB SWAP1 LOG3 POP POP POP JUMP JUMPDEST PUSH1 0x40 MLOAD DUP1 PUSH1 0x60 ADD PUSH1 0x40 MSTORE DUP1 PUSH1 0x60 DUP2 MSTORE PUSH1 0x20 ADD PUSH0 PUSH20 0xFFFFFFFFFFFFFFFFFFFFFFFFFFFFFFFFFFFFFFFF AND DUP2 MSTORE PUSH1 0x20 ADD PUSH1 0x60 DUP2 MSTORE POP SWAP1 JUMP JUMPDEST PUSH0 DUP2 SWAP1 POP SWAP2 SWAP1 POP JUMP JUMPDEST PUSH2 0x158E DUP2 PUSH2 0x157C JUMP JUMPDEST DUP3 MSTORE POP POP JUMP JUMPDEST PUSH0 PUSH1 0x20 DUP3 ADD SWAP1 POP PUSH2 0x15A7 PUSH0 DUP4 ADD DUP5 PUSH2 0x1585 JUMP JUMPDEST SWAP3 SWAP2 POP POP JUMP JUMPDEST PUSH0 PUSH1 0x40 MLOAD SWAP1 POP SWAP1 JUMP JUMPDEST PUSH0 DUP1 REVERT JUMPDEST PUSH0 DUP1 REVERT JUMPDEST PUSH2 0x15C7 DUP2 PUSH2 0x157C JUMP JUMPDEST DUP2 EQ PUSH2 0x15D1 JUMPI PUSH0 DUP1 REVERT JUMPDEST POP JUMP JUMPDEST PUSH0 DUP2 CALLDATALOAD SWAP1 POP PUSH2 0x15E2 DUP2 PUSH2 0x15BE JUMP JUMPDEST SWAP3 SWAP2 POP POP JUMP JUMPDEST PUSH0 PUSH1 0x20 DUP3 DUP5 SUB SLT ISZERO PUSH2 0x15FD JUMPI PUSH2 0x15FC PUSH2 0x15B6 JUMP JUMPDEST JUMPDEST PUSH0 PUSH2 0x160A DUP5 DUP3 DUP6 ADD PUSH2 0x15D4 JUMP JUMPDEST SWAP2 POP POP SWAP3 SWAP2 POP POP JUMP JUMPDEST PUSH0 PUSH20 0xFFFFFFFFFFFFFFFFFFFFFFFFFFFFFFFFFFFFFFFF DUP3 AND SWAP1 POP SWAP2 SWAP1 POP JUMP JUMPDEST PUSH0 PUSH2 0x163C DUP3 PUSH2 0x1613 JUMP JUMPDEST SWAP1 POP SWAP2 SWAP1 POP JUMP JUMPDEST PUSH2 0x164C DUP2 PUSH2 0x1632 JUMP JUMPDEST DUP3 MSTORE POP POP JUMP JUMPDEST PUSH0 PUSH1 0x20 DUP3 ADD SWAP1 POP PUSH2 0x1665 PUSH0 DUP4 ADD DUP5 PUSH2 0x1643 JUMP JUMPDEST SWAP3 SWAP2 POP POP JUMP JUMPDEST PUSH2 0x1674 DUP2 PUSH2 0x1632 JUMP JUMPDEST DUP2 EQ PUSH2 0x167E JUMPI PUSH0 DUP1 REVERT JUMPDEST POP JUMP JUMPDEST PUSH0 DUP2 CALLDATALOAD SWAP1 POP PUSH2 0x168F DUP2 PUSH2 0x166B JUMP JUMPDEST SWAP3 SWAP2 POP POP JUMP JUMPDEST PUSH0 PUSH8 0xFFFFFFFFFFFFFFFF DUP3 AND SWAP1 POP SWAP2 SWAP1 POP JUMP JUMPDEST PUSH2 0x16B1 DUP2 PUSH2 0x1695 JUMP JUMPDEST DUP2 EQ PUSH2 0x16BB JUMPI PUSH0 DUP1 REVERT JUMPDEST POP JUMP JUMPDEST PUSH0 DUP2 CALLDATALOAD SWAP1 POP PUSH2 0x16CC DUP2 PUSH2 0x16A8 JUMP JUMPDEST SWAP3 SWAP2 POP POP JUMP JUMPDEST PUSH0 DUP1 PUSH1 0x40 DUP4 DUP6 SUB SLT ISZERO PUSH2 0x16E8 JUMPI PUSH2 0x16E7 PUSH2 0x15B6 JUMP JUMPDEST JUMPDEST PUSH0 PUSH2 0x16F5 DUP6 DUP3 DUP7 ADD PUSH2 0x1681 JUMP JUMPDEST SWAP3 POP POP PUSH1 0x20 PUSH2 0x1706 DUP6 DUP3 DUP7 ADD PUSH2 0x16BE JUMP JUMPDEST SWAP2 POP POP SWAP3 POP SWAP3 SWAP1 POP JUMP JUMPDEST PUSH0 DUP2 ISZERO ISZERO SWAP1 POP SWAP2 SWAP1 POP JUMP JUMPDEST PUSH2 0x1724 DUP2 PUSH2 0x1710 JUMP JUMPDEST DUP3 MSTORE POP POP JUMP JUMPDEST PUSH0 PUSH1 0x20 DUP3 ADD SWAP1 POP PUSH2 0x173D PUSH0 DUP4 ADD DUP5 PUSH2 0x171B JUMP JUMPDEST SWAP3 SWAP2 POP POP JUMP JUMPDEST PUSH0 DUP1 PUSH1 0x40 DUP4 DUP6 SUB SLT ISZERO PUSH2 0x1759 JUMPI PUSH2 0x1758 PUSH2 0x15B6 JUMP JUMPDEST JUMPDEST PUSH0 PUSH2 0x1766 DUP6 DUP3 DUP7 ADD PUSH2 0x15D4 JUMP JUMPDEST SWAP3 POP POP PUSH1 0x20 PUSH2 0x1777 DUP6 DUP3 DUP7 ADD PUSH2 0x15D4 JUMP JUMPDEST SWAP2 POP POP SWAP3 POP SWAP3 SWAP1 POP JUMP JUMPDEST PUSH0 DUP2 MLOAD SWAP1 POP SWAP2 SWAP1 POP JUMP JUMPDEST PUSH0 DUP3 DUP3 MSTORE PUSH1 0x20 DUP3 ADD SWAP1 POP SWAP3 SWAP2 POP POP JUMP JUMPDEST PUSH0 DUP2 SWAP1 POP PUSH1 0x20 DUP3 ADD SWAP1 POP SWAP2 SWAP1 POP JUMP JUMPDEST PUSH0 DUP2 MLOAD SWAP1 POP SWAP2 SWAP1 POP JUMP JUMPDEST PUSH0 DUP3 DUP3 MSTORE PUSH1 0x20 DUP3 ADD SWAP1 POP SWAP3 SWAP2 POP POP JUMP JUMPDEST PUSH0 JUMPDEST DUP4 DUP2 LT ISZERO PUSH2 0x17E1 JUMPI DUP1 DUP3 ADD MLOAD DUP2 DUP5 ADD MSTORE PUSH1 0x20 DUP2 ADD SWAP1 POP PUSH2 0x17C6 JUMP JUMPDEST PUSH0 DUP5 DUP5 ADD MSTORE POP POP POP POP JUMP JUMPDEST PUSH0 PUSH1 0x1F NOT PUSH1 0x1F DUP4 ADD AND SWAP1 POP SWAP2 SWAP1 POP JUMP JUMPDEST PUSH0 PUSH2 0x1806 DUP3 PUSH2 0x17AA JUMP JUMPDEST PUSH2 0x1810 DUP2 DUP6 PUSH2 0x17B4 JUMP JUMPDEST SWAP4 POP PUSH2 0x1820 DUP2 DUP6 PUSH1 0x20 DUP7 ADD PUSH2 0x17C4 JUMP JUMPDEST PUSH2 0x1829 DUP2 PUSH2 0x17EC JUMP JUMPDEST DUP5 ADD SWAP2 POP POP SWAP3 SWAP2 POP POP JUMP JUMPDEST PUSH0 DUP2 SWAP1 POP SWAP2 SWAP1 POP JUMP JUMPDEST PUSH0 PUSH2 0x1857 PUSH2 0x1852 PUSH2 0x184D DUP5 PUSH2 0x1613 JUMP JUMPDEST PUSH2 0x1834 JUMP JUMPDEST PUSH2 0x1613 JUMP JUMPDEST SWAP1 POP SWAP2 SWAP1 POP JUMP JUMPDEST PUSH0 PUSH2 0x1868 DUP3 PUSH2 0x183D JUMP JUMPDEST SWAP1 POP SWAP2 SWAP1 POP JUMP JUMPDEST PUSH0 PUSH2 0x1879 DUP3 PUSH2 0x185E JUMP JUMPDEST SWAP1 POP SWAP2 SWAP1 POP JUMP JUMPDEST PUSH2 0x1889 DUP2 PUSH2 0x186F JUMP JUMPDEST DUP3 MSTORE POP POP JUMP JUMPDEST PUSH0 DUP2 MLOAD SWAP1 POP SWAP2 SWAP1 POP JUMP JUMPDEST PUSH0 DUP3 DUP3 MSTORE PUSH1 0x20 DUP3 ADD SWAP1 POP SWAP3 SWAP2 POP POP JUMP JUMPDEST PUSH0 PUSH2 0x18B3 DUP3 PUSH2 0x188F JUMP JUMPDEST PUSH2 0x18BD DUP2 DUP6 PUSH2 0x1899 JUMP JUMPDEST SWAP4 POP PUSH2 0x18CD DUP2 DUP6 PUSH1 0x20 DUP7 ADD PUSH2 0x17C4 JUMP JUMPDEST PUSH2 0x18D6 DUP2 PUSH2 0x17EC JUMP JUMPDEST DUP5 ADD SWAP2 POP POP SWAP3 SWAP2 POP POP JUMP JUMPDEST PUSH0 PUSH1 0x60 DUP4 ADD PUSH0 DUP4 ADD MLOAD DUP5 DUP3 SUB PUSH0 DUP7 ADD MSTORE PUSH2 0x18FB DUP3 DUP3 PUSH2 0x17FC JUMP JUMPDEST SWAP2 POP POP PUSH1 0x20 DUP4 ADD MLOAD PUSH2 0x1910 PUSH1 0x20 DUP7 ADD DUP3 PUSH2 0x1880 JUMP JUMPDEST POP PUSH1 0x40 DUP4 ADD MLOAD DUP5 DUP3 SUB PUSH1 0x40 DUP7 ADD MSTORE PUSH2 0x1928 DUP3 DUP3 PUSH2 0x18A9 JUMP JUMPDEST SWAP2 POP POP DUP1 SWAP2 POP POP SWAP3 SWAP2 POP POP JUMP JUMPDEST PUSH0 PUSH2 0x1940 DUP4 DUP4 PUSH2 0x18E1 JUMP JUMPDEST SWAP1 POP SWAP3 SWAP2 POP POP JUMP JUMPDEST PUSH0 PUSH1 0x20 DUP3 ADD SWAP1 POP SWAP2 SWAP1 POP JUMP JUMPDEST PUSH0 PUSH2 0x195E DUP3 PUSH2 0x1781 JUMP JUMPDEST PUSH2 0x1968 DUP2 DUP6 PUSH2 0x178B JUMP JUMPDEST SWAP4 POP DUP4 PUSH1 0x20 DUP3 MUL DUP6 ADD PUSH2 0x197A DUP6 PUSH2 0x179B JUMP JUMPDEST DUP1 PUSH0 JUMPDEST DUP6 DUP2 LT ISZERO PUSH2 0x19B5 JUMPI DUP5 DUP5 SUB DUP10 MSTORE DUP2 MLOAD PUSH2 0x1996 DUP6 DUP3 PUSH2 0x1935 JUMP JUMPDEST SWAP5 POP PUSH2 0x19A1 DUP4 PUSH2 0x1948 JUMP JUMPDEST SWAP3 POP PUSH1 0x20 DUP11 ADD SWAP10 POP POP PUSH1 0x1 DUP2 ADD SWAP1 POP PUSH2 0x197D JUMP JUMPDEST POP DUP3 SWAP8 POP DUP8 SWAP6 POP POP POP POP POP POP SWAP3 SWAP2 POP POP JUMP JUMPDEST PUSH0 PUSH1 0x20 DUP3 ADD SWAP1 POP DUP2 DUP2 SUB PUSH0 DUP4 ADD MSTORE PUSH2 0x19DF DUP2 DUP5 PUSH2 0x1954 JUMP JUMPDEST SWAP1 POP SWAP3 SWAP2 POP POP JUMP JUMPDEST PUSH0 PUSH1 0x20 DUP3 DUP5 SUB SLT ISZERO PUSH2 0x19FC JUMPI PUSH2 0x19FB PUSH2 0x15B6 JUMP JUMPDEST JUMPDEST PUSH0 PUSH2 0x1A09 DUP5 DUP3 DUP6 ADD PUSH2 0x16BE JUMP JUMPDEST SWAP2 POP POP SWAP3 SWAP2 POP POP JUMP JUMPDEST PUSH0 DUP1 REVERT JUMPDEST PUSH0 PUSH1 0x60 DUP3 DUP5 SUB SLT ISZERO PUSH2 0x1A2B JUMPI PUSH2 0x1A2A PUSH2 0x1A12 JUMP JUMPDEST JUMPDEST DUP2 SWAP1 POP SWAP3 SWAP2 POP POP JUMP JUMPDEST PUSH0 DUP1 PUSH1 0x40 DUP4 DUP6 SUB SLT ISZERO PUSH2 0x1A4A JUMPI PUSH2 0x1A49 PUSH2 0x15B6 JUMP JUMPDEST JUMPDEST PUSH0 PUSH2 0x1A57 DUP6 DUP3 DUP7 ADD PUSH2 0x16BE JUMP JUMPDEST SWAP3 POP POP PUSH1 0x20 DUP4 ADD CALLDATALOAD PUSH8 0xFFFFFFFFFFFFFFFF DUP2 GT ISZERO PUSH2 0x1A78 JUMPI PUSH2 0x1A77 PUSH2 0x15BA JUMP JUMPDEST JUMPDEST PUSH2 0x1A84 DUP6 DUP3 DUP7 ADD PUSH2 0x1A16 JUMP JUMPDEST SWAP2 POP POP SWAP3 POP SWAP3 SWAP1 POP JUMP JUMPDEST PUSH0 DUP1 REVERT JUMPDEST PUSH0 DUP1 REVERT JUMPDEST PUSH0 DUP1 REVERT JUMPDEST PUSH0 DUP1 DUP4 PUSH1 0x1F DUP5 ADD SLT PUSH2 0x1AAF JUMPI PUSH2 0x1AAE PUSH2 0x1A8E JUMP JUMPDEST JUMPDEST DUP3 CALLDATALOAD SWAP1 POP PUSH8 0xFFFFFFFFFFFFFFFF DUP2 GT ISZERO PUSH2 0x1ACC JUMPI PUSH2 0x1ACB PUSH2 0x1A92 JUMP JUMPDEST JUMPDEST PUSH1 0x20 DUP4 ADD SWAP2 POP DUP4 PUSH1 0x20 DUP3 MUL DUP4 ADD GT ISZERO PUSH2 0x1AE8 JUMPI PUSH2 0x1AE7 PUSH2 0x1A96 JUMP JUMPDEST JUMPDEST SWAP3 POP SWAP3 SWAP1 POP JUMP JUMPDEST PUSH0 DUP2 SWAP1 POP DUP3 PUSH1 0x20 PUSH1 0x2 MUL DUP3 ADD GT ISZERO PUSH2 0x1B0A JUMPI PUSH2 0x1B09 PUSH2 0x1A96 JUMP JUMPDEST JUMPDEST SWAP3 SWAP2 POP POP JUMP JUMPDEST PUSH0 DUP2 SWAP1 POP DUP3 PUSH1 0x40 PUSH1 0x2 MUL DUP3 ADD GT ISZERO PUSH2 0x1B2B JUMPI PUSH2 0x1B2A PUSH2 0x1A96 JUMP JUMPDEST JUMPDEST SWAP3 SWAP2 POP POP JUMP JUMPDEST PUSH0 DUP1 PUSH0 DUP1 PUSH0 DUP1 PUSH2 0x140 DUP8 DUP10 SUB SLT ISZERO PUSH2 0x1B4C JUMPI PUSH2 0x1B4B PUSH2 0x15B6 JUMP JUMPDEST JUMPDEST PUSH0 PUSH2 0x1B59 DUP10 DUP3 DUP11 ADD PUSH2 0x16BE JUMP JUMPDEST SWAP7 POP POP PUSH1 0x20 DUP8 ADD CALLDATALOAD PUSH8 0xFFFFFFFFFFFFFFFF DUP2 GT ISZERO PUSH2 0x1B7A JUMPI PUSH2 0x1B79 PUSH2 0x15BA JUMP JUMPDEST JUMPDEST PUSH2 0x1B86 DUP10 DUP3 DUP11 ADD PUSH2 0x1A9A JUMP JUMPDEST SWAP6 POP SWAP6 POP POP PUSH1 0x40 PUSH2 0x1B99 DUP10 DUP3 DUP11 ADD PUSH2 0x1AEF JUMP JUMPDEST SWAP4 POP POP PUSH1 0x80 PUSH2 0x1BAA DUP10 DUP3 DUP11 ADD PUSH2 0x1B10 JUMP JUMPDEST SWAP3 POP POP PUSH2 0x100 PUSH2 0x1BBC DUP10 DUP3 DUP11 ADD PUSH2 0x1AEF JUMP JUMPDEST SWAP2 POP POP SWAP3 SWAP6 POP SWAP3 SWAP6 POP SWAP3 SWAP6 JUMP JUMPDEST PUSH0 PUSH1 0x60 DUP4 ADD PUSH0 DUP4 ADD MLOAD DUP5 DUP3 SUB PUSH0 DUP7 ADD MSTORE PUSH2 0x1BE3 DUP3 DUP3 PUSH2 0x17FC JUMP JUMPDEST SWAP2 POP POP PUSH1 0x20 DUP4 ADD MLOAD PUSH2 0x1BF8 PUSH1 0x20 DUP7 ADD DUP3 PUSH2 0x1880 JUMP JUMPDEST POP PUSH1 0x40 DUP4 ADD MLOAD DUP5 DUP3 SUB PUSH1 0x40 DUP7 ADD MSTORE PUSH2 0x1C10 DUP3 DUP3 PUSH2 0x18A9 JUMP JUMPDEST SWAP2 POP POP DUP1 SWAP2 POP POP SWAP3 SWAP2 POP POP JUMP JUMPDEST PUSH0 PUSH1 0x20 DUP3 ADD SWAP1 POP DUP2 DUP2 SUB PUSH0 DUP4 ADD MSTORE PUSH2 0x1C35 DUP2 DUP5 PUSH2 0x1BC9 JUMP JUMPDEST SWAP1 POP SWAP3 SWAP2 POP POP JUMP JUMPDEST PUSH0 PUSH1 0x20 DUP3 DUP5 SUB SLT ISZERO PUSH2 0x1C52 JUMPI PUSH2 0x1C51 PUSH2 0x15B6 JUMP JUMPDEST JUMPDEST PUSH0 PUSH2 0x1C5F DUP5 DUP3 DUP6 ADD PUSH2 0x1681 JUMP JUMPDEST SWAP2 POP POP SWAP3 SWAP2 POP POP JUMP JUMPDEST PUSH32 0x4E487B7100000000000000000000000000000000000000000000000000000000 PUSH0 MSTORE PUSH1 0x11 PUSH1 0x4 MSTORE PUSH1 0x24 PUSH0 REVERT JUMPDEST PUSH0 PUSH2 0x1C9F DUP3 PUSH2 0x157C JUMP JUMPDEST SWAP2 POP PUSH2 0x1CAA DUP4 PUSH2 0x157C JUMP JUMPDEST SWAP3 POP DUP3 DUP3 SUB SWAP1 POP DUP2 DUP2 GT ISZERO PUSH2 0x1CC2 JUMPI PUSH2 0x1CC1 PUSH2 0x1C68 JUMP JUMPDEST JUMPDEST SWAP3 SWAP2 POP POP JUMP JUMPDEST PUSH32 0x4E487B7100000000000000000000000000000000000000000000000000000000 PUSH0 MSTORE PUSH1 0x41 PUSH1 0x4 MSTORE PUSH1 0x24 PUSH0 REVERT JUMPDEST PUSH32 0x4E487B7100000000000000000000000000000000000000000000000000000000 PUSH0 MSTORE PUSH1 0x32 PUSH1 0x4 MSTORE PUSH1 0x24 PUSH0 REVERT JUMPDEST PUSH32 0x4E487B7100000000000000000000000000000000000000000000000000000000 PUSH0 MSTORE PUSH1 0x22 PUSH1 0x4 MSTORE PUSH1 0x24 PUSH0 REVERT JUMPDEST PUSH0 PUSH1 0x2 DUP3 DIV SWAP1 POP PUSH1 0x1 DUP3 AND DUP1 PUSH2 0x1D66 JUMPI PUSH1 0x7F DUP3 AND SWAP2 POP JUMPDEST PUSH1 0x20 DUP3 LT DUP2 SUB PUSH2 0x1D79 JUMPI PUSH2 0x1D78 PUSH2 0x1D22 JUMP JUMPDEST JUMPDEST POP SWAP2 SWAP1 POP JUMP JUMPDEST PUSH0 PUSH2 0x1D89 DUP3 PUSH2 0x157C JUMP JUMPDEST SWAP2 POP PUSH32 0xFFFFFFFFFFFFFFFFFFFFFFFFFFFFFFFFFFFFFFFFFFFFFFFFFFFFFFFFFFFFFFFF DUP3 SUB PUSH2 0x1DBB JUMPI PUSH2 0x1DBA PUSH2 0x1C68 JUMP JUMPDEST JUMPDEST PUSH1 0x1 DUP3 ADD SWAP1 POP SWAP2 SWAP1 POP JUMP JUMPDEST PUSH0 DUP1 REVERT JUMPDEST PUSH0 DUP1 REVERT JUMPDEST PUSH0 DUP1 REVERT JUMPDEST PUSH0 DUP1 DUP4 CALLDATALOAD PUSH1 0x1 PUSH1 0x20 SUB DUP5 CALLDATASIZE SUB SUB DUP2 SLT PUSH2 0x1DEE JUMPI PUSH2 0x1DED PUSH2 0x1DC6 JUMP JUMPDEST JUMPDEST DUP1 DUP5 ADD SWAP3 POP DUP3 CALLDATALOAD SWAP2 POP PUSH8 0xFFFFFFFFFFFFFFFF DUP3 GT ISZERO PUSH2 0x1E10 JUMPI PUSH2 0x1E0F PUSH2 0x1DCA JUMP JUMPDEST JUMPDEST PUSH1 0x20 DUP4 ADD SWAP3 POP PUSH1 0x1 DUP3 MUL CALLDATASIZE SUB DUP4 SGT ISZERO PUSH2 0x1E2C JUMPI PUSH2 0x1E2B PUSH2 0x1DCE JUMP JUMPDEST JUMPDEST POP SWAP3 POP SWAP3 SWAP1 POP JUMP JUMPDEST PUSH0 DUP3 SWAP1 POP SWAP3 SWAP2 POP POP JUMP JUMPDEST PUSH0 DUP2 SWAP1 POP DUP2 PUSH0 MSTORE PUSH1 0x20 PUSH0 KECCAK256 SWAP1 POP SWAP2 SWAP1 POP JUMP JUMPDEST PUSH0 PUSH1 0x20 PUSH1 0x1F DUP4 ADD DIV SWAP1 POP SWAP2 SWAP1 POP JUMP JUMPDEST PUSH0 DUP3 DUP3 SHL SWAP1 POP SWAP3 SWAP2 POP POP JUMP JUMPDEST PUSH0 PUSH1 0x8 DUP4 MUL PUSH2 0x1E9A PUSH32 0xFFFFFFFFFFFFFFFFFFFFFFFFFFFFFFFFFFFFFFFFFFFFFFFFFFFFFFFFFFFFFFFF DUP3 PUSH2 0x1E5F JUMP JUMPDEST PUSH2 0x1EA4 DUP7 DUP4 PUSH2 0x1E5F JUMP JUMPDEST SWAP6 POP DUP1 NOT DUP5 AND SWAP4 POP DUP1 DUP7 AND DUP5 OR SWAP3 POP POP POP SWAP4 SWAP3 POP POP POP JUMP JUMPDEST PUSH0 PUSH2 0x1ED6 PUSH2 0x1ED1 PUSH2 0x1ECC DUP5 PUSH2 0x157C JUMP JUMPDEST PUSH2 0x1834 JUMP JUMPDEST PUSH2 0x157C JUMP JUMPDEST SWAP1 POP SWAP2 SWAP1 POP JUMP JUMPDEST PUSH0 DUP2 SWAP1 POP SWAP2 SWAP1 POP JUMP JUMPDEST PUSH2 0x1EEF DUP4 PUSH2 0x1EBC JUMP JUMPDEST PUSH2 0x1F03 PUSH2 0x1EFB DUP3 PUSH2 0x1EDD JUMP JUMPDEST DUP5 DUP5 SLOAD PUSH2 0x1E6B JUMP JUMPDEST DUP3 SSTORE POP POP POP POP JUMP JUMPDEST PUSH0 SWAP1 JUMP JUMPDEST PUSH2 0x1F17 PUSH2 0x1F0B JUMP JUMPDEST PUSH2 0x1F22 DUP2 DUP5 DUP5 PUSH2 0x1EE6 JUMP JUMPDEST POP POP POP JUMP JUMPDEST JUMPDEST DUP2 DUP2 LT ISZERO PUSH2 0x1F45 JUMPI PUSH2 0x1F3A PUSH0 DUP3 PUSH2 0x1F0F JUMP JUMPDEST PUSH1 0x1 DUP2 ADD SWAP1 POP PUSH2 0x1F28 JUMP JUMPDEST POP POP JUMP JUMPDEST PUSH1 0x1F DUP3 GT ISZERO PUSH2 0x1F8A JUMPI PUSH2 0x1F5B DUP2 PUSH2 0x1E3E JUMP JUMPDEST PUSH2 0x1F64 DUP5 PUSH2 0x1E50 JUMP JUMPDEST DUP2 ADD PUSH1 0x20 DUP6 LT ISZERO PUSH2 0x1F73 JUMPI DUP2 SWAP1 POP JUMPDEST PUSH2 0x1F87 PUSH2 0x1F7F DUP6 PUSH2 0x1E50 JUMP JUMPDEST DUP4 ADD DUP3 PUSH2 0x1F27 JUMP JUMPDEST POP POP JUMPDEST POP POP POP JUMP JUMPDEST PUSH0 DUP3 DUP3 SHR SWAP1 POP SWAP3 SWAP2 POP POP JUMP JUMPDEST PUSH0 PUSH2 0x1FAA PUSH0 NOT DUP5 PUSH1 0x8 MUL PUSH2 0x1F8F JUMP JUMPDEST NOT DUP1 DUP4 AND SWAP2 POP POP SWAP3 SWAP2 POP POP JUMP JUMPDEST PUSH0 PUSH2 0x1FC2 DUP4 DUP4 PUSH2 0x1F9B JUMP JUMPDEST SWAP2 POP DUP3 PUSH1 0x2 MUL DUP3 OR SWAP1 POP SWAP3 SWAP2 POP POP JUMP JUMPDEST PUSH2 0x1FDC DUP4 DUP4 PUSH2 0x1E34 JUMP JUMPDEST PUSH8 0xFFFFFFFFFFFFFFFF DUP2 GT ISZERO PUSH2 0x1FF5 JUMPI PUSH2 0x1FF4 PUSH2 0x1CC8 JUMP JUMPDEST JUMPDEST PUSH2 0x1FFF DUP3 SLOAD PUSH2 0x1D4F JUMP JUMPDEST PUSH2 0x200A DUP3 DUP3 DUP6 PUSH2 0x1F49 JUMP JUMPDEST PUSH0 PUSH1 0x1F DUP4 GT PUSH1 0x1 DUP2 EQ PUSH2 0x2037 JUMPI PUSH0 DUP5 ISZERO PUSH2 0x2025 JUMPI DUP3 DUP8 ADD CALLDATALOAD SWAP1 POP JUMPDEST PUSH2 0x202F DUP6 DUP3 PUSH2 0x1FB7 JUMP JUMPDEST DUP7 SSTORE POP PUSH2 0x2096 JUMP JUMPDEST PUSH1 0x1F NOT DUP5 AND PUSH2 0x2045 DUP7 PUSH2 0x1E3E JUMP JUMPDEST PUSH0 JUMPDEST DUP3 DUP2 LT ISZERO PUSH2 0x206C JUMPI DUP5 DUP10 ADD CALLDATALOAD DUP3 SSTORE PUSH1 0x1 DUP3 ADD SWAP2 POP PUSH1 0x20 DUP6 ADD SWAP5 POP PUSH1 0x20 DUP2 ADD SWAP1 POP PUSH2 0x2047 JUMP JUMPDEST DUP7 DUP4 LT ISZERO PUSH2 0x2089 JUMPI DUP5 DUP10 ADD CALLDATALOAD PUSH2 0x2085 PUSH1 0x1F DUP10 AND DUP3 PUSH2 0x1F9B JUMP JUMPDEST DUP4 SSTORE POP JUMPDEST PUSH1 0x1 PUSH1 0x2 DUP9 MUL ADD DUP9 SSTORE POP POP POP JUMPDEST POP POP POP POP POP POP POP JUMP JUMPDEST PUSH2 0x20AA DUP4 DUP4 DUP4 PUSH2 0x1FD2 JUMP JUMPDEST POP POP POP JUMP JUMPDEST PUSH0 PUSH2 0x20B9 DUP3 PUSH2 0x1632 JUMP JUMPDEST SWAP1 POP SWAP2 SWAP1 POP JUMP JUMPDEST PUSH2 0x20C9 DUP2 PUSH2 0x20AF JUMP JUMPDEST DUP2 EQ PUSH2 0x20D3 JUMPI PUSH0 DUP1 REVERT JUMPDEST POP JUMP JUMPDEST PUSH0 DUP2 CALLDATALOAD PUSH2 0x20E2 DUP2 PUSH2 0x20C0 JUMP JUMPDEST DUP1 SWAP2 POP POP SWAP2 SWAP1 POP JUMP JUMPDEST PUSH0 DUP2 PUSH0 SHL SWAP1 POP SWAP2 SWAP1 POP JUMP JUMPDEST PUSH0 PUSH20 0xFFFFFFFFFFFFFFFFFFFFFFFFFFFFFFFFFFFFFFFF PUSH2 0x2115 DUP5 PUSH2 0x20EB JUMP JUMPDEST SWAP4 POP DUP1 NOT DUP4 AND SWAP3 POP DUP1 DUP5 AND DUP4 OR SWAP2 POP POP SWAP3 SWAP2 POP POP JUMP JUMPDEST PUSH0 PUSH2 0x2135 DUP3 PUSH2 0x183D JUMP JUMPDEST SWAP1 POP SWAP2 SWAP1 POP JUMP JUMPDEST PUSH0 PUSH2 0x2146 DUP3 PUSH2 0x212B JUMP JUMPDEST SWAP1 POP SWAP2 SWAP1 POP JUMP JUMPDEST PUSH0 DUP2 SWAP1 POP SWAP2 SWAP1 POP JUMP JUMPDEST PUSH2 0x215F DUP3 PUSH2 0x213C JUMP JUMPDEST PUSH2 0x2172 PUSH2 0x216B DUP3 PUSH2 0x214D JUMP JUMPDEST DUP4 SLOAD PUSH2 0x20F6 JUMP JUMPDEST DUP3 SSTORE POP POP POP JUMP JUMPDEST PUSH0 DUP1 DUP4 CALLDATALOAD PUSH1 0x1 PUSH1 0x20 SUB DUP5 CALLDATASIZE SUB SUB DUP2 SLT PUSH2 0x2195 JUMPI PUSH2 0x2194 PUSH2 0x1DC6 JUMP JUMPDEST JUMPDEST DUP1 DUP5 ADD SWAP3 POP DUP3 CALLDATALOAD SWAP2 POP PUSH8 0xFFFFFFFFFFFFFFFF DUP3 GT ISZERO PUSH2 0x21B7 JUMPI PUSH2 0x21B6 PUSH2 0x1DCA JUMP JUMPDEST JUMPDEST PUSH1 0x20 DUP4 ADD SWAP3 POP PUSH1 0x1 DUP3 MUL CALLDATASIZE SUB DUP4 SGT ISZERO PUSH2 0x21D3 JUMPI PUSH2 0x21D2 PUSH2 0x1DCE JUMP JUMPDEST JUMPDEST POP SWAP3 POP SWAP3 SWAP1 POP JUMP JUMPDEST PUSH0 DUP3 SWAP1 POP SWAP3 SWAP2 POP POP JUMP JUMPDEST PUSH0 DUP2 SWAP1 POP DUP2 PUSH0 MSTORE PUSH1 0x20 PUSH0 KECCAK256 SWAP1 POP SWAP2 SWAP1 POP JUMP JUMPDEST PUSH1 0x1F DUP3 GT ISZERO PUSH2 0x2238 JUMPI PUSH2 0x2209 DUP2 PUSH2 0x21E5 JUMP JUMPDEST PUSH2 0x2212 DUP5 PUSH2 0x1E50 JUMP JUMPDEST DUP2 ADD PUSH1 0x20 DUP6 LT ISZERO PUSH2 0x2221 JUMPI DUP2 SWAP1 POP JUMPDEST PUSH2 0x2235 PUSH2 0x222D DUP6 PUSH2 0x1E50 JUMP JUMPDEST DUP4 ADD DUP3 PUSH2 0x1F27 JUMP JUMPDEST POP POP JUMPDEST POP POP POP JUMP JUMPDEST PUSH2 0x2247 DUP4 DUP4 PUSH2 0x21DB JUMP JUMPDEST PUSH8 0xFFFFFFFFFFFFFFFF DUP2 GT ISZERO PUSH2 0x2260 JUMPI PUSH2 0x225F PUSH2 0x1CC8 JUMP JUMPDEST JUMPDEST PUSH2 0x226A DUP3 SLOAD PUSH2 0x1D4F JUMP JUMPDEST PUSH2 0x2275 DUP3 DUP3 DUP6 PUSH2 0x21F7 JUMP JUMPDEST PUSH0 PUSH1 0x1F DUP4 GT PUSH1 0x1 DUP2 EQ PUSH2 0x22A2 JUMPI PUSH0 DUP5 ISZERO PUSH2 0x2290 JUMPI DUP3 DUP8 ADD CALLDATALOAD SWAP1 POP JUMPDEST PUSH2 0x229A DUP6 DUP3 PUSH2 0x1FB7 JUMP JUMPDEST DUP7 SSTORE POP PUSH2 0x2301 JUMP JUMPDEST PUSH1 0x1F NOT DUP5 AND PUSH2 0x22B0 DUP7 PUSH2 0x21E5 JUMP JUMPDEST PUSH0 JUMPDEST DUP3 DUP2 LT ISZERO PUSH2 0x22D7 JUMPI DUP5 DUP10 ADD CALLDATALOAD DUP3 SSTORE PUSH1 0x1 DUP3 ADD SWAP2 POP PUSH1 0x20 DUP6 ADD SWAP5 POP PUSH1 0x20 DUP2 ADD SWAP1 POP PUSH2 0x22B2 JUMP JUMPDEST DUP7 DUP4 LT ISZERO PUSH2 0x22F4 JUMPI DUP5 DUP10 ADD CALLDATALOAD PUSH2 0x22F0 PUSH1 0x1F DUP10 AND DUP3 PUSH2 0x1F9B JUMP JUMPDEST DUP4 SSTORE POP JUMPDEST PUSH1 0x1 PUSH1 0x2 DUP9 MUL ADD DUP9 SSTORE POP POP POP JUMPDEST POP POP POP POP POP POP POP JUMP JUMPDEST PUSH2 0x2315 DUP4 DUP4 DUP4 PUSH2 0x223D JUMP JUMPDEST POP POP POP JUMP JUMPDEST PUSH0 DUP2 ADD PUSH0 DUP4 ADD PUSH2 0x232A DUP2 DUP6 PUSH2 0x1DD2 JUMP JUMPDEST PUSH2 0x2335 DUP2 DUP4 DUP7 PUSH2 0x209F JUMP JUMPDEST POP POP POP POP PUSH1 0x1 DUP2 ADD PUSH1 0x20 DUP4 ADD DUP1 PUSH2 0x234B DUP2 PUSH2 0x20D6 JUMP JUMPDEST SWAP1 POP PUSH2 0x2357 DUP2 DUP5 PUSH2 0x2156 JUMP JUMPDEST POP POP POP PUSH1 0x2 DUP2 ADD PUSH1 0x40 DUP4 ADD PUSH2 0x236C DUP2 DUP6 PUSH2 0x2179 JUMP JUMPDEST PUSH2 0x2377 DUP2 DUP4 DUP7 PUSH2 0x230A JUMP JUMPDEST POP POP POP POP POP POP JUMP JUMPDEST PUSH2 0x2389 DUP3 DUP3 PUSH2 0x231A JUMP JUMPDEST POP POP JUMP JUMPDEST PUSH0 DUP3 DUP3 MSTORE PUSH1 0x20 DUP3 ADD SWAP1 POP SWAP3 SWAP2 POP POP JUMP JUMPDEST PUSH32 0x76616C696461746F72206973206E6F742073657420666F722074686973207265 PUSH0 DUP3 ADD MSTORE PUSH32 0x7175657374206964000000000000000000000000000000000000000000000000 PUSH1 0x20 DUP3 ADD MSTORE POP JUMP JUMPDEST PUSH0 PUSH2 0x23F7 PUSH1 0x28 DUP4 PUSH2 0x238D JUMP JUMPDEST SWAP2 POP PUSH2 0x2402 DUP3 PUSH2 0x239D JUMP JUMPDEST PUSH1 0x40 DUP3 ADD SWAP1 POP SWAP2 SWAP1 POP JUMP JUMPDEST PUSH0 PUSH1 0x20 DUP3 ADD SWAP1 POP DUP2 DUP2 SUB PUSH0 DUP4 ADD MSTORE PUSH2 0x2424 DUP2 PUSH2 0x23EB JUMP JUMPDEST SWAP1 POP SWAP2 SWAP1 POP JUMP JUMPDEST PUSH0 DUP3 DUP3 MSTORE PUSH1 0x20 DUP3 ADD SWAP1 POP SWAP3 SWAP2 POP POP JUMP JUMPDEST PUSH0 DUP1 REVERT JUMPDEST DUP3 DUP2 DUP4 CALLDATACOPY POP POP POP JUMP JUMPDEST PUSH0 PUSH2 0x2453 DUP4 DUP6 PUSH2 0x242B JUMP JUMPDEST SWAP4 POP PUSH32 0x7FFFFFFFFFFFFFFFFFFFFFFFFFFFFFFFFFFFFFFFFFFFFFFFFFFFFFFFFFFFFFF DUP4 GT ISZERO PUSH2 0x2486 JUMPI PUSH2 0x2485 PUSH2 0x243B JUMP JUMPDEST JUMPDEST PUSH1 0x20 DUP4 MUL SWAP3 POP PUSH2 0x2497 DUP4 DUP6 DUP5 PUSH2 0x243F JUMP JUMPDEST DUP3 DUP5 ADD SWAP1 POP SWAP4 SWAP3 POP POP POP JUMP JUMPDEST PUSH2 0x24AF PUSH1 0x40 DUP4 DUP4 PUSH2 0x243F JUMP JUMPDEST POP POP JUMP JUMPDEST PUSH0 PUSH1 0x2 SWAP1 POP SWAP2 SWAP1 POP JUMP JUMPDEST PUSH0 DUP2 SWAP1 POP SWAP3 SWAP2 POP POP JUMP JUMPDEST PUSH0 DUP2 SWAP1 POP SWAP2 SWAP1 POP JUMP JUMPDEST PUSH2 0x24DC PUSH1 0x40 DUP4 DUP4 PUSH2 0x243F JUMP JUMPDEST POP POP JUMP JUMPDEST PUSH0 PUSH2 0x24EB DUP4 DUP4 PUSH2 0x24D0 JUMP JUMPDEST PUSH1 0x40 DUP4 ADD SWAP1 POP SWAP3 SWAP2 POP POP JUMP JUMPDEST PUSH0 DUP3 SWAP1 POP SWAP3 SWAP2 POP POP JUMP JUMPDEST PUSH0 PUSH1 0x40 DUP3 ADD SWAP1 POP SWAP2 SWAP1 POP JUMP JUMPDEST PUSH2 0x2516 DUP2 PUSH2 0x24B3 JUMP JUMPDEST PUSH2 0x2520 DUP2 DUP5 PUSH2 0x24BD JUMP JUMPDEST SWAP3 POP PUSH2 0x252B DUP3 PUSH2 0x24C7 JUMP JUMPDEST DUP1 PUSH0 JUMPDEST DUP4 DUP2 LT ISZERO PUSH2 0x2563 JUMPI PUSH2 0x2540 DUP3 DUP5 PUSH2 0x24F7 JUMP JUMPDEST PUSH2 0x254A DUP8 DUP3 PUSH2 0x24E0 JUMP JUMPDEST SWAP7 POP PUSH2 0x2555 DUP4 PUSH2 0x2501 JUMP JUMPDEST SWAP3 POP POP PUSH1 0x1 DUP2 ADD SWAP1 POP PUSH2 0x252E JUMP JUMPDEST POP POP POP POP POP POP JUMP JUMPDEST PUSH0 DUP3 DUP3 MSTORE PUSH1 0x20 DUP3 ADD SWAP1 POP SWAP3 SWAP2 POP POP JUMP JUMPDEST PUSH0 DUP2 SLOAD PUSH2 0x2587 DUP2 PUSH2 0x1D4F JUMP JUMPDEST PUSH2 0x2591 DUP2 DUP7 PUSH2 0x256B JUMP JUMPDEST SWAP5 POP PUSH1 0x1 DUP3 AND PUSH0 DUP2 EQ PUSH2 0x25AB JUMPI PUSH1 0x1 DUP2 EQ PUSH2 0x25C1 JUMPI PUSH2 0x25F3 JUMP JUMPDEST PUSH1 0xFF NOT DUP4 AND DUP7 MSTORE DUP2 ISZERO ISZERO PUSH1 0x20 MUL DUP7 ADD SWAP4 POP PUSH2 0x25F3 JUMP JUMPDEST PUSH2 0x25CA DUP6 PUSH2 0x21E5 JUMP JUMPDEST PUSH0 JUMPDEST DUP4 DUP2 LT ISZERO PUSH2 0x25EB JUMPI DUP2 SLOAD DUP2 DUP10 ADD MSTORE PUSH1 0x1 DUP3 ADD SWAP2 POP PUSH1 0x20 DUP2 ADD SWAP1 POP PUSH2 0x25CC JUMP JUMPDEST DUP1 DUP9 ADD SWAP6 POP POP POP JUMPDEST POP POP POP SWAP3 SWAP2 POP POP JUMP JUMPDEST PUSH0 PUSH2 0x160 DUP3 ADD SWAP1 POP DUP2 DUP2 SUB PUSH0 DUP4 ADD MSTORE PUSH2 0x2616 DUP2 DUP10 DUP12 PUSH2 0x2448 JUMP JUMPDEST SWAP1 POP PUSH2 0x2625 PUSH1 0x20 DUP4 ADD DUP9 PUSH2 0x24A3 JUMP JUMPDEST PUSH2 0x2632 PUSH1 0x60 DUP4 ADD DUP8 PUSH2 0x250D JUMP JUMPDEST PUSH2 0x263F PUSH1 0xE0 DUP4 ADD DUP7 PUSH2 0x24A3 JUMP JUMPDEST DUP2 DUP2 SUB PUSH2 0x120 DUP4 ADD MSTORE PUSH2 0x2652 DUP2 DUP6 PUSH2 0x257B JUMP JUMPDEST SWAP1 POP PUSH2 0x2662 PUSH2 0x140 DUP4 ADD DUP5 PUSH2 0x1643 JUMP JUMPDEST SWAP9 SWAP8 POP POP POP POP POP POP POP POP JUMP JUMPDEST PUSH2 0x2677 DUP3 PUSH2 0x17EC JUMP JUMPDEST DUP2 ADD DUP2 DUP2 LT PUSH8 0xFFFFFFFFFFFFFFFF DUP3 GT OR ISZERO PUSH2 0x2696 JUMPI PUSH2 0x2695 PUSH2 0x1CC8 JUMP JUMPDEST JUMPDEST DUP1 PUSH1 0x40 MSTORE POP POP POP JUMP JUMPDEST PUSH0 PUSH2 0x26A8 PUSH2 0x15AD JUMP JUMPDEST SWAP1 POP PUSH2 0x26B4 DUP3 DUP3 PUSH2 0x266E JUMP JUMPDEST SWAP2 SWAP1 POP JUMP JUMPDEST PUSH0 PUSH8 0xFFFFFFFFFFFFFFFF DUP3 GT ISZERO PUSH2 0x26D3 JUMPI PUSH2 0x26D2 PUSH2 0x1CC8 JUMP JUMPDEST JUMPDEST PUSH1 0x20 DUP3 MUL SWAP1 POP PUSH1 0x20 DUP2 ADD SWAP1 POP SWAP2 SWAP1 POP JUMP JUMPDEST PUSH0 DUP1 REVERT JUMPDEST PUSH0 DUP1 REVERT JUMPDEST PUSH0 DUP1 REVERT JUMPDEST PUSH0 PUSH8 0xFFFFFFFFFFFFFFFF DUP3 GT ISZERO PUSH2 0x270A JUMPI PUSH2 0x2709 PUSH2 0x1CC8 JUMP JUMPDEST JUMPDEST PUSH2 0x2713 DUP3 PUSH2 0x17EC JUMP JUMPDEST SWAP1 POP PUSH1 0x20 DUP2 ADD SWAP1 POP SWAP2 SWAP1 POP JUMP JUMPDEST PUSH0 PUSH2 0x2732 PUSH2 0x272D DUP5 PUSH2 0x26F0 JUMP JUMPDEST PUSH2 0x269F JUMP JUMPDEST SWAP1 POP DUP3 DUP2 MSTORE PUSH1 0x20 DUP2 ADD DUP5 DUP5 DUP5 ADD GT ISZERO PUSH2 0x274E JUMPI PUSH2 0x274D PUSH2 0x26EC JUMP JUMPDEST JUMPDEST PUSH2 0x2759 DUP5 DUP3 DUP6 PUSH2 0x17C4 JUMP JUMPDEST POP SWAP4 SWAP3 POP POP POP JUMP JUMPDEST PUSH0 DUP3 PUSH1 0x1F DUP4 ADD SLT PUSH2 0x2775 JUMPI PUSH2 0x2774 PUSH2 0x1A8E JUMP JUMPDEST JUMPDEST DUP2 MLOAD PUSH2 0x2785 DUP5 DUP3 PUSH1 0x20 DUP7 ADD PUSH2 0x2720 JUMP JUMPDEST SWAP2 POP POP SWAP3 SWAP2 POP POP JUMP JUMPDEST PUSH0 DUP2 MLOAD SWAP1 POP PUSH2 0x279C DUP2 PUSH2 0x15BE JUMP JUMPDEST SWAP3 SWAP2 POP POP JUMP JUMPDEST PUSH0 PUSH1 0x40 DUP3 DUP5 SUB SLT ISZERO PUSH2 0x27B7 JUMPI PUSH2 0x27B6 PUSH2 0x26E4 JUMP JUMPDEST JUMPDEST PUSH2 0x27C1 PUSH1 0x40 PUSH2 0x269F JUMP JUMPDEST SWAP1 POP PUSH0 DUP3 ADD MLOAD PUSH8 0xFFFFFFFFFFFFFFFF DUP2 GT ISZERO PUSH2 0x27E0 JUMPI PUSH2 0x27DF PUSH2 0x26E8 JUMP JUMPDEST JUMPDEST PUSH2 0x27EC DUP5 DUP3 DUP6 ADD PUSH2 0x2761 JUMP JUMPDEST PUSH0 DUP4 ADD MSTORE POP PUSH1 0x20 PUSH2 0x27FF DUP5 DUP3 DUP6 ADD PUSH2 0x278E JUMP JUMPDEST PUSH1 0x20 DUP4 ADD MSTORE POP SWAP3 SWAP2 POP POP JUMP JUMPDEST PUSH0 PUSH2 0x281D PUSH2 0x2818 DUP5 PUSH2 0x26B9 JUMP JUMPDEST PUSH2 0x269F JUMP JUMPDEST SWAP1 POP DUP1 DUP4 DUP3 MSTORE PUSH1 0x20 DUP3 ADD SWAP1 POP PUSH1 0x20 DUP5 MUL DUP4 ADD DUP6 DUP2 GT ISZERO PUSH2 0x2840 JUMPI PUSH2 0x283F PUSH2 0x1A96 JUMP JUMPDEST JUMPDEST DUP4 JUMPDEST DUP2 DUP2 LT ISZERO PUSH2 0x2887 JUMPI DUP1 MLOAD PUSH8 0xFFFFFFFFFFFFFFFF DUP2 GT ISZERO PUSH2 0x2865 JUMPI PUSH2 0x2864 PUSH2 0x1A8E JUMP JUMPDEST JUMPDEST DUP1 DUP7 ADD PUSH2 0x2872 DUP10 DUP3 PUSH2 0x27A2 JUMP JUMPDEST DUP6 MSTORE PUSH1 0x20 DUP6 ADD SWAP5 POP POP POP PUSH1 0x20 DUP2 ADD SWAP1 POP PUSH2 0x2842 JUMP JUMPDEST POP POP POP SWAP4 SWAP3 POP POP POP JUMP JUMPDEST PUSH0 DUP3 PUSH1 0x1F DUP4 ADD SLT PUSH2 0x28A5 JUMPI PUSH2 0x28A4 PUSH2 0x1A8E JUMP JUMPDEST JUMPDEST DUP2 MLOAD PUSH2 0x28B5 DUP5 DUP3 PUSH1 0x20 DUP7 ADD PUSH2 0x280B JUMP JUMPDEST SWAP2 POP POP SWAP3 SWAP2 POP POP JUMP JUMPDEST PUSH0 PUSH1 0x20 DUP3 DUP5 SUB SLT ISZERO PUSH2 0x28D3 JUMPI PUSH2 0x28D2 PUSH2 0x15B6 JUMP JUMPDEST JUMPDEST PUSH0 DUP3 ADD MLOAD PUSH8 0xFFFFFFFFFFFFFFFF DUP2 GT ISZERO PUSH2 0x28F0 JUMPI PUSH2 0x28EF PUSH2 0x15BA JUMP JUMPDEST JUMPDEST PUSH2 0x28FC DUP5 DUP3 DUP6 ADD PUSH2 0x2891 JUMP JUMPDEST SWAP2 POP POP SWAP3 SWAP2 POP POP JUMP JUMPDEST PUSH32 0x7265717565737420696420646F65736E27742065786973740000000000000000 PUSH0 DUP3 ADD MSTORE POP JUMP JUMPDEST PUSH0 PUSH2 0x2939 PUSH1 0x18 DUP4 PUSH2 0x238D JUMP JUMPDEST SWAP2 POP PUSH2 0x2944 DUP3 PUSH2 0x2905 JUMP JUMPDEST PUSH1 0x20 DUP3 ADD SWAP1 POP SWAP2 SWAP1 POP JUMP JUMPDEST PUSH0 PUSH1 0x20 DUP3 ADD SWAP1 POP DUP2 DUP2 SUB PUSH0 DUP4 ADD MSTORE PUSH2 0x2966 DUP2 PUSH2 0x292D JUMP JUMPDEST SWAP1 POP SWAP2 SWAP1 POP JUMP JUMPDEST PUSH32 0x4C656E6774682073686F756C642062652067726561746572207468616E203000 PUSH0 DUP3 ADD MSTORE POP JUMP JUMPDEST PUSH0 PUSH2 0x29A1 PUSH1 0x1F DUP4 PUSH2 0x238D JUMP JUMPDEST SWAP2 POP PUSH2 0x29AC DUP3 PUSH2 0x296D JUMP JUMPDEST PUSH1 0x20 DUP3 ADD SWAP1 POP SWAP2 SWAP1 POP JUMP JUMPDEST PUSH0 PUSH1 0x20 DUP3 ADD SWAP1 POP DUP2 DUP2 SUB PUSH0 DUP4 ADD MSTORE PUSH2 0x29CE DUP2 PUSH2 0x2995 JUMP JUMPDEST SWAP1 POP SWAP2 SWAP1 POP JUMP JUMPDEST PUSH32 0x4C656E677468206C696D69742065786365656465640000000000000000000000 PUSH0 DUP3 ADD MSTORE POP JUMP JUMPDEST PUSH0 PUSH2 0x2A09 PUSH1 0x15 DUP4 PUSH2 0x238D JUMP JUMPDEST SWAP2 POP PUSH2 0x2A14 DUP3 PUSH2 0x29D5 JUMP JUMPDEST PUSH1 0x20 DUP3 ADD SWAP1 POP SWAP2 SWAP1 POP JUMP JUMPDEST PUSH0 PUSH1 0x20 DUP3 ADD SWAP1 POP DUP2 DUP2 SUB PUSH0 DUP4 ADD MSTORE PUSH2 0x2A36 DUP2 PUSH2 0x29FD JUMP JUMPDEST SWAP1 POP SWAP2 SWAP1 POP JUMP JUMPDEST PUSH32 0x537461727420696E646578206F7574206F6620626F756E647300000000000000 PUSH0 DUP3 ADD MSTORE POP JUMP JUMPDEST PUSH0 PUSH2 0x2A71 PUSH1 0x19 DUP4 PUSH2 0x238D JUMP JUMPDEST SWAP2 POP PUSH2 0x2A7C DUP3 PUSH2 0x2A3D JUMP JUMPDEST PUSH1 0x20 DUP3 ADD SWAP1 POP SWAP2 SWAP1 POP JUMP JUMPDEST PUSH0 PUSH1 0x20 DUP3 ADD SWAP1 POP DUP2 DUP2 SUB PUSH0 DUP4 ADD MSTORE PUSH2 0x2A9E DUP2 PUSH2 0x2A65 JUMP JUMPDEST SWAP1 POP SWAP2 SWAP1 POP JUMP JUMPDEST PUSH0 PUSH2 0x2AAF DUP3 PUSH2 0x157C JUMP JUMPDEST SWAP2 POP PUSH2 0x2ABA DUP4 PUSH2 0x157C JUMP JUMPDEST SWAP3 POP DUP3 DUP3 ADD SWAP1 POP DUP1 DUP3 GT ISZERO PUSH2 0x2AD2 JUMPI PUSH2 0x2AD1 PUSH2 0x1C68 JUMP JUMPDEST JUMPDEST SWAP3 SWAP2 POP POP JUMP JUMPDEST PUSH32 0x6368616C6C656E67650000000000000000000000000000000000000000000000 PUSH0 DUP3 ADD MSTORE POP JUMP JUMPDEST PUSH0 PUSH2 0x2B0C PUSH1 0x9 DUP4 PUSH2 0x238D JUMP JUMPDEST SWAP2 POP PUSH2 0x2B17 DUP3 PUSH2 0x2AD8 JUMP JUMPDEST PUSH1 0x20 DUP3 ADD SWAP1 POP SWAP2 SWAP1 POP JUMP JUMPDEST PUSH0 PUSH1 0x20 DUP3 ADD SWAP1 POP DUP2 DUP2 SUB PUSH0 DUP4 ADD MSTORE PUSH2 0x2B39 DUP2 PUSH2 0x2B00 JUMP JUMPDEST SWAP1 POP SWAP2 SWAP1 POP JUMP JUMPDEST PUSH0 PUSH1 0x20 DUP3 DUP5 SUB SLT ISZERO PUSH2 0x2B55 JUMPI PUSH2 0x2B54 PUSH2 0x15B6 JUMP JUMPDEST JUMPDEST PUSH0 PUSH2 0x2B62 DUP5 DUP3 DUP6 ADD PUSH2 0x278E JUMP JUMPDEST SWAP2 POP POP SWAP3 SWAP2 POP POP JUMP JUMPDEST PUSH32 0x6164647265737320696E2070726F6F66206973206E6F7420612073656E646572 PUSH0 DUP3 ADD MSTORE PUSH32 0x2061646472657373000000000000000000000000000000000000000000000000 PUSH1 0x20 DUP3 ADD MSTORE POP JUMP JUMPDEST PUSH0 PUSH2 0x2BC5 PUSH1 0x28 DUP4 PUSH2 0x238D JUMP JUMPDEST SWAP2 POP PUSH2 0x2BD0 DUP3 PUSH2 0x2B6B JUMP JUMPDEST PUSH1 0x40 DUP3 ADD SWAP1 POP SWAP2 SWAP1 POP JUMP JUMPDEST PUSH0 PUSH1 0x20 DUP3 ADD SWAP1 POP DUP2 DUP2 SUB PUSH0 DUP4 ADD MSTORE PUSH2 0x2BF2 DUP2 PUSH2 0x2BB9 JUMP JUMPDEST SWAP1 POP SWAP2 SWAP1 POP JUMP JUMPDEST PUSH32 0x70726F6F662063616E206E6F74206265207375626D6974746564206D6F726520 PUSH0 DUP3 ADD MSTORE PUSH32 0x7468616E206F6E63650000000000000000000000000000000000000000000000 PUSH1 0x20 DUP3 ADD MSTORE POP JUMP JUMPDEST PUSH0 PUSH2 0x2C53 PUSH1 0x29 DUP4 PUSH2 0x238D JUMP JUMPDEST SWAP2 POP PUSH2 0x2C5E DUP3 PUSH2 0x2BF9 JUMP JUMPDEST PUSH1 0x40 DUP3 ADD SWAP1 POP SWAP2 SWAP1 POP JUMP JUMPDEST PUSH0 PUSH1 0x20 DUP3 ADD SWAP1 POP DUP2 DUP2 SUB PUSH0 DUP4 ADD MSTORE PUSH2 0x2C80 DUP2 PUSH2 0x2C47 JUMP JUMPDEST SWAP1 POP SWAP2 SWAP1 POP JUMP INVALID LOG2 PUSH5 0x6970667358 0x22 SLT KECCAK256 0xD1 0xEB 0xD1 SUB 0xDF PUSH10 0x4CA742BEFB6E275ABB4D 0x5E 0x22 PUSH8 0x13E7E82C693AB8BD 0xBC 0xED PUSH24 0x544064736F6C634300081400330000000000000000000000 "
				},
				"gasEstimates": {
					"creation": {
						"codeDepositCost": "2290600",
						"executionCost": "2447",
						"totalCost": "2293047"
					},
					"external": {
						"REQUESTS_RETURN_LIMIT()": "349",
						"acceptOwnership()": "infinite",
						"addressToId(address)": "2846",
						"getZKPRequest(uint64)": "infinite",
						"getZKPRequests(uint256,uint256)": "infinite",
						"getZKPRequestsCount()": "2503",
						"idToAddress(uint256)": "2872",
						"isProofSubmitted(address,uint64)": "3242",
						"owner()": "2590",
						"pendingOwner()": "2633",
						"pendingRequests(uint64)": "2836",
						"renounceOwnership()": "infinite",
						"requestIdExists(uint64)": "infinite",
						"setZKPRequest(uint64,(string,address,bytes))": "infinite",
						"submitZKPResponse(uint64,uint256[],uint256[2],uint256[2][2],uint256[2])": "infinite",
						"transferOwnership(address)": "infinite"
					},
					"internal": {
						"_afterProofSubmit(uint64,uint256[] memory,contract ICircuitValidator)": "infinite",
						"_beforeProofSubmit(uint64,uint256[] memory,contract ICircuitValidator)": "infinite"
					}
				},
				"methodIdentifiers": {
					"REQUESTS_RETURN_LIMIT()": "1905e7b1",
					"acceptOwnership()": "79ba5097",
					"addressToId(address)": "cb0e0d7d",
					"getZKPRequest(uint64)": "c76d0845",
					"getZKPRequests(uint256,uint256)": "5f9e60d7",
					"getZKPRequestsCount()": "6508e1b4",
					"idToAddress(uint256)": "2a2d0c47",
					"isProofSubmitted(address,uint64)": "2e01bb6f",
					"owner()": "8da5cb5b",
					"pendingOwner()": "e30c3978",
					"pendingRequests(uint64)": "65b07d58",
					"renounceOwnership()": "715018a6",
					"requestIdExists(uint64)": "ab7bcfb7",
					"setZKPRequest(uint64,(string,address,bytes))": "9f5223e0",
					"submitZKPResponse(uint64,uint256[],uint256[2],uint256[2][2],uint256[2])": "b68967e2",
					"transferOwnership(address)": "f2fde38b"
				}
			},
			"storageLayout": {
				"storage": [
					{
						"astId": 2618,
						"contract": "ageVerifier.sol:AgeVerifier",
						"label": "idToAddress",
						"offset": 0,
						"slot": "0",
						"type": "t_mapping(t_uint256,t_address)"
					},
					{
						"astId": 2622,
						"contract": "ageVerifier.sol:AgeVerifier",
						"label": "addressToId",
						"offset": 0,
						"slot": "1",
						"type": "t_mapping(t_address,t_uint256)"
					},
					{
						"astId": 2626,
						"contract": "ageVerifier.sol:AgeVerifier",
						"label": "pendingRequests",
						"offset": 0,
						"slot": "2",
						"type": "t_mapping(t_uint64,t_bool)"
					}
				],
				"types": {
					"t_address": {
						"encoding": "inplace",
						"label": "address",
						"numberOfBytes": "20"
					},
					"t_bool": {
						"encoding": "inplace",
						"label": "bool",
						"numberOfBytes": "1"
					},
					"t_mapping(t_address,t_uint256)": {
						"encoding": "mapping",
						"key": "t_address",
						"label": "mapping(address => uint256)",
						"numberOfBytes": "32",
						"value": "t_uint256"
					},
					"t_mapping(t_uint256,t_address)": {
						"encoding": "mapping",
						"key": "t_uint256",
						"label": "mapping(uint256 => address)",
						"numberOfBytes": "32",
						"value": "t_address"
					},
					"t_mapping(t_uint64,t_bool)": {
						"encoding": "mapping",
						"key": "t_uint64",
						"label": "mapping(uint64 => bool)",
						"numberOfBytes": "32",
						"value": "t_bool"
					},
					"t_uint256": {
						"encoding": "inplace",
						"label": "uint256",
						"numberOfBytes": "32"
					},
					"t_uint64": {
						"encoding": "inplace",
						"label": "uint64",
						"numberOfBytes": "8"
					}
				}
			},
			"userdoc": {
				"kind": "user",
				"methods": {},
				"version": 1
			}
		}
	}
}